:020000040800F2
:1000000000000120D9370008A1310008A5310008FF
:10001000A9310008AD310008B1310008000000002E
:1000200000000000000000000000000041B10008D6
:10003000B531000800000000D1B10008DD850008DE
:10004000293800082938000829380008293800080C
:1000500029380008293800082938000829380008FC
:1000600029380008293800082938000829380008EC
:10007000B9310008C5310008F531000829380008F9
:1000800011320008293200082938000829380008F0
:1000900029380008293800082938000829380008BC
:1000A0002938000841320008293800089532000834
:1000B000C53200080000000000000000DD3200082A
:1000C000293800080000000000000000293800085E
:1000D000000000002938000801330008000000007B
:1000E000293800082938000800000000000000003E
:1000F0000000000000000000000000000000000000
:100100000000000000000000000000002938000886
:100110000000000000000000253300083133000813
:100120002938000829380008293800085533000804
:100130002938000800000000000000000000000056
:10014000293800082938000829380008293800080B
:1001500079330008B133000829380008293800082D
:10016000C9330008293800082938000800000000B9
:1001700029380008293800080000000000000000AD
:0C01800029380008293800082938000838
:1001900010B5054C237833B9044B13B10448AFF3C1
:1001A00000800123237010BD900700200000000094
:1001B000A4BA010808B5034B1BB103490348AFF3C8
:1001C000008008BD0000000094070020A4BA0108C8
:1001D000F0B400EB4003DFF8880000EBC30000F14F
:1001E00018063069F7687568874232D3B368DC1B3C
:1001F000631E934214D37D19D01900BF11F8013B3F
:1002000005F8013B013A05D011F8013B05F8013B27
:10021000013AF3D1BFF35F8FF0600120F0BC70476B
:10022000C018904219D37819121B11F8013B00F83D
:10023000013B013CF9D1141C05D011F8013B05F834
:10024000013B013AF9D1BFF35F8FF4600120F0BCAC
:100250007047C01B01389042CDD20020F0BC7047DF
:10026000B829002010F8012B11F8013B012A28BF02
:100270009A42F7D0D01A7047034613F8012B002A90
:10028000FBD1181A01387047000000000000000080
:1002900001F0FF01102A2BDB10F0070F08D010F837
:1002A000013B013A8B422DD010F0070F42B3F6D13B
:1002B000F0B441EA012141EA014122F007047FF054
:1002C00000070023F0E80256083C85EA010586EAAB
:1002D000010685FA47F5A3FA87F586FA47F6A5FAE7
:1002E00087F68EB9EED1F0BC01F0FF0102F00702F3
:1002F00032B110F8013B013A83EA010313B1F8D19E
:100300000020704701387047002D06BF354603387E
:10031000073815F0010F07D1013015F4807F02BFB7
:10032000013015F4C03F0130F0BC0138704700BF08
:1003300081F0004102E000BF83F0004330B54FEA96
:1003400041044FEA430594EA050F08BF90EA020F03
:100350001FBF54EA000C55EA020C7FEA645C7FEA96
:10036000655C00F0E2804FEA5454D4EB5555B8BFB9
:100370006D420CDD2C4480EA020281EA030382EA2A
:10038000000083EA010180EA020281EA0303362DBC
:1003900088BF30BD11F0004F4FEA01314FF4801C8F
:1003A0004CEA113102D0404261EB410113F0004FA1
:1003B0004FEA03334CEA133302D0524263EB430358
:1003C00094EA050F00F0A780A4F10104D5F1200EF6
:1003D0000DDB02FA0EFC22FA05F2801841F1000151
:1003E00003FA0EF2801843FA05F359410EE0A5F125
:1003F00020050EF1200E012A03FA0EFC28BF4CF056
:10040000020C43FA05F3C01851EBE37101F000450B
:1004100007D54FF0000EDCF1000C7EEB00006EEB18
:100420000101B1F5801F1BD3B1F5001F0CD34908A2
:100430005FEA30004FEA3C0C04F101044FEA4452F9
:1004400012F5800F80F09A80BCF1004F08BF5FEA80
:10045000500C50F1000041EB045141EA050130BD60
:100460005FEA4C0C404141EB0101013C28BFB1F572
:10047000801FE9D291F0000F04BF01460020B1FABD
:1004800081F308BF2033A3F10B03B3F120020CDA90
:100490000C3208DD02F1140CC2F10C0201FA0CF06E
:1004A00021FA02F10CE002F11402D8BFC2F1200CD3
:1004B00001FA02F120FA0CFCDCBF41EA0C01904089
:1004C000E41AA2BF01EB0451294330BD6FEA0404D2
:1004D0001F3C1CDA0C340EDC04F11404C4F12002BD
:1004E00020FA04F001FA02F340EA030021FA04F3CF
:1004F00045EA030130BDC4F10C04C4F1200220FA26
:1005000002F001FA04F340EA0300294630BD21FA63
:1005100004F0294630BD94F0000F83F4801306BF29
:1005200081F480110134013D4EE77FEA645C18BF1D
:100530007FEA655C29D094EA050F08BF90EA020FB4
:1005400005D054EA000C04BF1946104630BD91EAAC
:10055000030F1EBF0021002030BD5FEA545C05D1AF
:100560004000494128BF41F0004130BD14F58004EE
:100570003CBF01F5801130BD01F0004545F0FE4162
:1005800041F470014FF0000030BD7FEA645C1ABF97
:10059000194610467FEA655C1CBF0B46024650EACE
:1005A000013406BF52EA033591EA030F41F40021FA
:1005B00030BD00BF90F0000F04BF0021704730B580
:1005C0004FF4806404F132044FF000054FF0000155
:1005D00050E700BF90F0000F04BF0021704730B516
:1005E0004FF4806404F1320410F0004548BF4042EB
:1005F0004FF000013EE700BF42004FEAE2014FEA40
:1006000031014FEA02701FBF12F07F4393F07F4F1A
:1006100081F06051704732F07F4208BF704793F01D
:100620007F4F04BF41F40021704730B54FF4607430
:1006300001F0004521F000411CE700BF50EA010233
:1006400008BF704730B54FF000050AE050EA0102DC
:1006500008BF704730B511F0004502D5404261EB4C
:1006600041014FF4806404F132045FEA915C3FF48D
:10067000D8AE4FF003025FEADC0C18BF03325FEA2A
:10068000DC0C18BF033202EBDC02C2F1200300FADB
:1006900003FC20FA02F001FA03FE40EA0E0021FA00
:1006A00002F11444BDE600BF70B54FF0FF0C4CF4EE
:1006B000E06C1CEA11541DBF1CEA135594EA0C0FA0
:1006C00095EA0C0F00F0DEF82C4481EA030621EADB
:1006D0004C5123EA4C5350EA013518BF52EA033516
:1006E00041F4801143F4801338D0A0FB02CE4FF0C8
:1006F0000005E1FB02E506F00042E0FB03E54FF0F8
:100700000006E1FB03569CF0000F18BF4EF0010EEF
:10071000A4F1FF04B6F5007F64F5407404D25FEAEB
:100720004E0E6D4146EB060642EAC62141EA55519E
:100730004FEAC52040EA5E504FEACE2EB4F1FD0CE0
:1007400088BFBCF5E06F1ED8BEF1004F08BF5FEA5E
:10075000500E50F1000041EB045170BD06F0004610
:1007600046EA010140EA020081EA0301B4EB5C04BD
:10077000C2BFD4EB0C0541EA045170BD41F48011B5
:100780004FF0000E013C00F3AB8014F1360FDEBFDA
:10079000002001F0004170BDC4F10004203C35DAB6
:1007A0000C341BDC04F11404C4F1200500FA05F339
:1007B00020FA04F001FA05F240EA020001F00042DA
:1007C00021F0004110EBD37021FA04F642EB060150
:1007D0005EEA430E08BF20EAD37070BDC4F10C047A
:1007E000C4F1200500FA04F320FA05F001FA04F23E
:1007F00040EA020001F0004110EBD37041F100012A
:100800005EEA430E08BF20EAD37070BDC4F1200534
:1008100000FA05F24EEA020E20FA04F301FA05F29C
:1008200043EA020321FA04F001F0004121FA04F244
:1008300020EA020000EBD3705EEA430E08BF20EA14
:10084000D37070BD94F0000F0FD101F0004640004E
:1008500041EB010111F4801F08BF013CF7D041EAD0
:10086000060195F0000F18BF704703F000465200D4
:1008700043EB030313F4801F08BF013DF7D043EAA5
:100880000603704794EA0C0F0CEA135518BF95EA5B
:100890000C0F0CD050EA410618BF52EA4306D1D1E2
:1008A00081EA030101F000414FF0000070BD50EA01
:1008B000410606BF1046194652EA430619D094EA8B
:1008C0000C0F02D150EA013613D195EA0C0F05D175
:1008D00052EA03361CBF104619460AD181EA0301C9
:1008E00001F0004141F0FE4141F470014FF0000081
:1008F00070BD41F0FE4141F4780170BD70B54FF01C
:10090000FF0C4CF4E06C1CEA11541DBF1CEA13559B
:1009100094EA0C0F95EA0C0F00F0A7F8A4EB05047D
:1009200081EA030E52EA03354FEA013100F0888074
:100930004FEA03334FF0805545EA131343EA12633D
:100940004FEA022245EA111545EA10654FEA0026F2
:100950000EF000419D4208BF964244F1FD0404F5AB
:10096000407402D25B084FEA3202B61A65EB030507
:100970005B084FEA32024FF480104FF4002CB6EBC4
:10098000020E75EB030E22BFB61A754640EA0C0044
:100990005B084FEA3202B6EB020E75EB030E22BF84
:1009A000B61A754640EA5C005B084FEA3202B6EBC5
:1009B000020E75EB030E22BFB61A754640EA9C0084
:1009C0005B084FEA3202B6EB020E75EB030E22BF54
:1009D000B61A754640EADC0055EA060E18D04FEA12
:1009E000051545EA16754FEA06164FEAC30343EAB2
:1009F00052734FEAC2025FEA1C1CC0D111F4801F7F
:100A00000BD141EA00014FF000004FF0004CB6E777
:100A100011F4801F04BF01430020B4F1FD0C88BF16
:100A2000BCF5E06F3FF6AFAEB5EB030C04BFB6EB21
:100A3000020C5FEA500C50F1000041EB045170BD14
:100A40000EF0004E4EEA113114EB5C04C2BFD4EB41
:100A50000C0541EA045170BD41F480114FF0000EC5
:100A6000013C90E645EA060E8DE60CEA135594EA41
:100A70000C0F08BF95EA0C0F3FF43BAF94EA0C0F44
:100A80000AD150EA01347FF434AF95EA0C0F7FF4B9
:100A900025AF104619462CE795EA0C0F06D152EA0D
:100AA00003353FF4FDAE1046194622E750EA4106F1
:100AB00018BF52EA43067FF4C5AE50EA41047FF402
:100AC0000DAF52EA43057FF4EBAE12E74FEA410265
:100AD000B2F1E04324BFB3F5001CDCF1FE5C0DD99C
:100AE00001F0004C4FEAC0024CEA5070B2F1004FE6
:100AF00040EB830008BF20F00100704711F0804FE9
:100B000021D113F13872BCBF01F00040704741F4AD
:100B100080114FEA5252C2F11802C2F1200C10FAB1
:100B20000CF320FA02F018BF40F001004FEAC12395
:100B30004FEAD32303FA0CFC40EA0C0023FA02F339
:100B40004FEA4303CCE77FEA625307D150EA01330F
:100B50001EBF4FF0FE4040F44000704701F00040DF
:100B600040F0FE4040F40000704700BF7BB972B90E
:100B70000029BEBF00204FF0004106E008BF00285A
:100B80001CBF6FF000414FF0FF3000F0BBB9ADF17A
:100B9000080C6DE904CE002909DB002B1ADB00F0FC
:100BA0004DF8DDF804E0DDE9022304B0704740426F
:100BB00061EB4101002B1BDB00F040F8DDF804E0A5
:100BC000DDE9022304B0404261EB4101524263EB94
:100BD00043037047524263EB430300F02FF8DDF804
:100BE00004E0DDE9022304B0404261EB41017047BB
:100BF000524263EB430300F021F8DDF804E0DDE945
:100C0000022304B0524263EB4303704753B94AB91D
:100C1000002908BF00281CBF4FF0FF314FF0FF3004
:100C200000F070B9ADF1080C6DE904CE00F006F8E3
:100C3000DDF804E0DDE9022304B070472DE9F04758
:100C4000089E0D4604460F46002B4AD18A42944620
:100C500065D9B2FA82F343B102FA03FCC3F1200270
:100C60009F4020FA02F217439C404FEA1C4E1FFAA5
:100C70008CF5B7FBFEF1220C0EFB117742EA07421E
:100C800001FB05F090420AD91CEB020201F1FF378B
:100C900080F01C81904240F2198102396244121A9C
:100CA000A4B2B2FBFEF00EFB102244EA024400FBA9
:100CB00005F5A5420AD91CEB040400F1FF3280F0CF
:100CC0000781A54240F204816444023840EA0140B1
:100CD000641B00211EB1DC400023C6E90043BDE8CF
:100CE000F0878B4208D9002E00F0ED800021C6E984
:100CF00000050846BDE8F087B3FA83F1002949D121
:100D0000AB4202D3824200F2F880841A65EB030200
:100D100001201746002EE2D0C6E90047DFE702B9FE
:100D2000FFDEB2FA82F3002B40F090808A1A4FEA7D
:100D30001C471FFA8CFE0121B2FBF7F507FB1520BB
:100D4000220C42EA00420EFB05F0904208D91CEB4F
:100D5000020205F1FF3802D2904200F2CB804546F4
:100D6000121AA4B2B2FBF7F007FB102244EA0244C5
:100D70000EFB00FEA64508D91CEB040400F1FF326F
:100D800002D2A64500F2BB801046A4EB0E0440EA56
:100D900005409FE7C1F120078B4022FA07FC4CEA8F
:100DA000030C05FA01F420FA07F3FD404FEA1C4951
:100DB0002343B5FBF9F81FFA8CFE09FB18551C0CF0
:100DC00044EA054408FB0EF5A54202FA01F200FAD6
:100DD00001F00BD91CEB040408F1FF3A80F0888085
:100DE000A54240F28580A8F102086444641B9DB2CC
:100DF000B4FBF9F309FB134445EA044403FB0EFE7C
:100E0000A64508D91CEB040403F1FF356CD2A645B6
:100E10006AD9023B644443EA0843A3FB0295A4EB6E
:100E20000E04AC42C846AE4656D353D056B1B0EBD2
:100E3000080264EB0E0404FA07F7CA40CC401743DB
:100E4000C6E9007418460021BDE8F087C3F120010F
:100E500002FA03FC20FA01F225FA01F19D402A432F
:100E60004FEA1C471FFA8CFEB1FBF7F007FB101589
:100E7000110C41EA054100FB0EF58D4204FA03F422
:100E800008D91CEB010100F1FF382FD28D422DD97A
:100E900002386144491B92B2B1FBF7F507FB15110B
:100EA00042EA014205FB0EF1914208D91CEB020215
:100EB00005F1FF3816D2914214D9023D6244521A0C
:100EC00045EA004138E73146304608E73946E6E66C
:100ED0001046FBE64845A9D2B9EB020865EB0C0EBB
:100EE000013BA3E74546EAE72B4694E74046D1E7B6
:100EF000D0467BE7023D624432E708460AE7644495
:100F0000023842E7704700BF2DE9F04387B0012562
:100F10000DF115030A268DE8680075222B460C4654
:100F2000804603F0C7F98DF817009DF817302BB9EC
:100F300003F0FF029DF81530682B03D0002007B0A6
:100F4000BDE8F0830DF116078DF816202B46CDE98C
:100F5000015600976B222146404603F099F88DF820
:100F600017009DF81730002BE8D107238DF81630B5
:100F7000CDE901562B46009719222146404603F041
:100F800087F88DF817009DF81730002BD6D12B4627
:100F9000CDE9015600974FF008091C222146404632
:100FA0008DF8169003F074F88DF817009DF817303F
:100FB000002BC3D1CDE9007502962B461B2221469A
:100FC00040468DF8169003F063F88DF817009DF8F1
:100FD0001700B0FA80F04009B1E700BF0B4613F0EC
:100FE000800F14BF4222212213F0400F2DE9F04F51
:100FF00014BF4FF0420B4FF0210B13F0200F14BF22
:101000004FF042094FF0210913F0100F14BF4FF0B9
:1010100042084FF0210813F0080F14BF4227212780
:1010200013F0040F14BF4226212613F0020F14BF41
:101030004224212413F0010F8FB014BF4223212337
:1010400011F4004F14BF4225212500EB400011F49C
:10105000804F4FEAC000019314BF42232123039322
:1010600000F1010A6B4B009423F8102023F81AB00A
:1010700000F1020A11F4005F23F81A9000F103094D
:1010800018BF422423F8198000F1040808BF212466
:1010900023F81870471D11F4805F23F8176000F1E2
:1010A0000606009F23F81670029500F1070614BF8C
:1010B000422521250595019F23F8167000F10805AA
:1010C000029E23F8156011F4006F14BF4FF0420C1C
:1010D0004FF0210C00F1090511F4806FCDF818C014
:1010E000039E23F8156014BF4FF0420C4FF0210C03
:1010F00011F4007FCDF81CC0049414BF4FF0420CD3
:101100004FF0210C00F10A0511F4807FCDF820C0CA
:10111000049E23F8156014BF4FF0420C4FF0210CD1
:1011200011F4000FCDF824C000F10B0514BF4FF0EF
:10113000420C4FF0210C11F4800FCDF828C0059E11
:1011400023F8156014BF4FF0420C4FF0210C11F43E
:10115000001FCDF82CC000F10C0514BF4FF0420C5D
:101160004FF0210CCDF830C0069E23F8156000F139
:101170000D0511F4801F079E23F81560644600F1E9
:101180000E0514BF4224212411F4002F089E23F8D9
:10119000156014BF4FF0420E4FF0210E11F4802F56
:1011A00014BF4FF0420C4FF0210C00F10F0511F469
:1011B000003F14BF42222122099E23F8156011F43A
:1011C000803F00F110010A9D23F8115000F1110138
:1011D0000B9D23F8115000F112010C9D23F81150C2
:1011E00000F1130123F8114000F1140100F116047D
:1011F00023F811E000F1150100F1170023F811C0E8
:1012000014BF4221212123F8142023F810100FB01D
:10121000BDE8F08FAC0700209FED037B044B054831
:1012200083ED007B05F060BB0000000000000000C3
:10123000980900208C0F0020014BD3E90001704772
:1012400098090020024B0121186807F06FBB00BF0E
:10125000D0090020024B0121186807F067BB00BFCE
:10126000FC100020024B0221186807F05FBB00BF92
:10127000FC100020F8B501F0E1FA0A4B0A4D18689D
:101280000A4E07F049FC07F01FFA002704463246D1
:101290003B46284614340CF00BFC204607F09AFA23
:1012A000F5E700BFF0110020400A002040420F0087
:1012B0002DE9F041354F364C364D386886B0002662
:1012C0004FF0FF31A660A68107F0F2FB3868324F7D
:1012D00007F022FC3146284605F002FD042128468D
:1012E00005F0FEFC0C21284605F0FAFC2A682B4983
:1012F0001368C5F8941043F00103136007F0E4F994
:1013000005460A2007F058FA254E17E0B2882381D7
:1013100073886281002221463846A3810BF05CFC71
:101320000190DDF8048014352846B8F1000F2BD168
:1013300007F050FAC4F80880A4F80C8002A9002035
:1013400002F0FEF90299049A3388C4E90012002BD6
:10135000DCD107F0C1F9C0EB401300EB8300C00003
:10136000208107F0B9F9C0EB401300EB83000001C6
:10137000608107F0B1F900EB800303EB8303C3EB5B
:101380000313DB009BB2C5E7FEE700BFF0110020AE
:10139000E0120020D00E002084110020AD3400089F
:1013A000881100202DE9F04F714CDFF8DCB1206886
:1013B00099B04FF0FF3107F07BFB206807F0ACFBE2
:1013C000DFF8C8C108AB0BAA05921D460493BCE820
:1013D0000F000DF14C09CE46AEE80F005CF8042B6F
:1013E000CEF800209CE807002B4603C31A80614B0F
:1013F00093E80700059B03C300248DF819400DF105
:10140000290A27464FF00A0801261A8001E015F93B
:10141000014F04F10A010DF1190349000093CDE9D0
:10142000016889B201230722584602F031FE38B91B
:1014300004F160030DEB0304013704F8346CFFB2D0
:10144000AA45E4D1002F40F08880072007F0B4F9C6
:10145000DFF834B1002508AE2C464FF6FF7810E0D7
:10146000002F4BD104EB8403C3EB03135B0029F87B
:101470001430052007F0A0F901340A2C26D016F903
:10148000015F05F160036B4413F9343C012BE7D194
:10149000002FF1D0012C56D00DF1190305F10A01EE
:1014A0000093490001234FF00A0A89B2CDE9013ABD
:1014B00008225846049102F0EBFD30B318AB03EB61
:1014C000450501340A2C25F8148CD8D14D460FCD92
:1014D000294C0FC421462B6841F8183927480022AF
:1014E0000BF07AFB0790079B73B94B4618A94FF690
:1014F000FE7223F8022B9942FBD1ABE718AB03EB4A
:10150000450525F8148CB4E7FEE7052007F054F9EB
:101510000DF11A0302220093019201230322049980
:10152000CDF808A0584602F0C5FEBDF81A305BBAE7
:101530001AB2952AADF81A30C0DC18AA02EB45059C
:1015400025F8143C98E70EA9002002F0F9F80C4A9F
:101550000E9B1360109B53609EE70A4B4FF0FF31C8
:10156000186807F0A5FA01238DF819306DE700BF60
:10157000F0110020E0BA0108CC12002080110020F8
:10158000C4120020C0120020080D0020C0BA0108BB
:101590002DE9F04F2DED048BAF4C8BB04FF0FF31A8
:1015A000206807F085FA206807F0B6FAAB48D0212A
:1015B000FFF7AAFC002800F025814FF0D00BA84BC4
:1015C000039318684FF0FF3107F072FA4FF0010AE9
:1015D000032007F0F1F807F077F89FED938B94A7BD
:1015E000D7E900679FED949B9E4CDFF890929E4D4B
:1015F00080461FFA8BFBABE00E2301935946012373
:101600009648CDF800903B2202F068FF039B0A2128
:10161000186807F04DFA002840F0E580B9F800009E
:10162000C0BAFEF7D7FF914B0022FFF73DF83246D4
:101630003B46FFF739F8C4E90001B9F80200C0BA27
:10164000FEF7C8FF894B0022FFF72EF832463B46D3
:10165000FFF72AF8C4E90201B9F80400C0BAFEF79E
:10166000B9FF824B0022FFF71FF832463B46FFF7D7
:101670001BF8C4E90401B9F80800C0BAFEF7AAFFD4
:101680006FA3D3E90023FFF739F9C4E90601B9F8DC
:101690000A00C0BAFEF79EFF69A3D3E90023FFF753
:1016A0002DF9C4E90801B9F80C00C0BAFEF792FFA1
:1016B00063A3D3E90023FFF721F9B9F806309FEDC2
:1016C0006C6A9FED6C7ADBBA07EE903AF8EEE77A37
:1016D000C4E90A01C7EE866A76EE877A17EE900AA9
:1016E000FEF78AFFC4E90C0106A9002002F028F8E1
:1016F000069B2B60D4E90001089B6B60FFF7E6F9BD
:10170000A860D4E90201FFF7E1F9E860D4E9040137
:10171000FFF7DCF92861D4E90601FFF7D7F9686122
:10172000D4E90801FFF7D2F9A861D4E90A01FFF76B
:10173000CDF94D49E86100224F480BF04DFA059074
:10174000059B002B4ED108F10A08404607F042F8ED
:1017500084ED008B84ED028B84ED048B84ED068B8D
:1017600084ED088B84ED0A8BBAF1000F7FF444AF4F
:1017700006F0B2FFFEF71EFF32463B46FEF794FF2F
:10178000C4E9000106F0A8FFFEF714FF2EA3D3E979
:101790000023FEF789FFC4E9020106F09DFFFEF772
:1017A00009FF2BA3D3E90023FEF77EFFC4E9040160
:1017B00006F092FFFEF7FEFEC4E9060106F08CFF7C
:1017C0004000FEF7F7FEC4E9080106F085FF00EBD4
:1017D0004000FEF7EFFEC4E90A0106F07DFFFEF7C8
:1017E000E9FE7FE7FEE784ED009B84ED029B84ED3C
:1017F000049B84ED069B84ED089B84ED0A9B51ECD1
:10180000190B6FE71548D221FFF77EFB4FF0D20B83
:10181000824600287FF4D3AE114B03934FF0D20BD6
:10182000D6E600BFAFF30080000000000000F87FA4
:101830001F85EB51B89E23400000000000388F4008
:1018400000000000006050401F85EB51B89E3340FF
:10185000AE47E17A146E3D40F01100205C0D00208F
:10186000D010002020110020D41000200000203FC4
:101870000000AA43B81E12427C110020581100201B
:1018800038B50569174C28686968AA68EB680FC401
:101890001549086821462C8A21F81049134C4FF04D
:1018A000FF33012207F09EF9206807F023F858B9AA
:1018B0000F4C206807F01EF878B90E4B032118680A
:1018C000BDE8384007F032B82068094C06F0F2FF56
:1018D000206807F00FF80028EFD0206806F0EAFF34
:1018E000EBE700BF0411002018110020F4100020C5
:1018F000F8100020FC10002038B503690E4C186861
:1019000059689A680D4D07C40D484FF0FF330068C1
:101910000122A4F10C0107F065F9286806F0EAFF3E
:1019200030B9084B01211868BDE8384006F0FEBF09
:10193000286806F0BFFFF4E7280A0020CC09002041
:10194000340A0020D00900202DE9F047864F874D4A
:1019500004464FF0FF31386807F0AAF80023C5E9C4
:101960000133C5E90333C5E905332388012B36D09C
:10197000022B00F08580238A012B00F08880022B47
:1019800049D0002B3BD02389032B08D8DFE803F094
:101990001F15020C4FF6FF7200232A83EB82386872
:1019A000BDE8F04707F0B8B84FF6FF7338682B83EF
:1019B000EB82BDE8F04707F0AFB84FF6FF720023A7
:1019C0003868EA822B83BDE8F04707F0A5B800230A
:1019D0003868EB822B83BDE8F04707F09DB8638839
:1019E000002B7ED140F247136B83AB82238A012BFD
:1019F0004DD0022B0FD0002BC5D140F24713DFF89A
:101A00008081AB8298F80030013B012B78D900230C
:101A100088F80030B7E7DFF868814FF6FF73AB82D4
:101A200098F80030002B67D1514EDFF8509196E8BE
:101A3000070089E807004F4B4D491868DFF844A1BB
:101A40000023C6E90033B36001224FF0FF0C4FF0D2
:101A5000FF33A6F800C007F0C5F899E8070086E84C
:101A60000700DAF8000006F045FF002871D1424B6C
:101A70000121186806F05AFF022388F8003082E737
:101A80004FF6FF736B83238A012B7FF478AFDFF867
:101A9000F0804FF6FF73AB8298F800302BB3344ED2
:101AA000344BDFF8E090186831490023C6E9003371
:101AB000B3604FF0FF0C4FF0FF330122A6F800C0D7
:101AC00007F090F8D9F8000006F014FF00283BD189
:101AD000294B0121186806F029FF012388F80030FE
:101AE00051E74FF6FF736B8380E7214E234B96E857
:101AF000070083E80700D3E71D4EDFF880909AE7E0
:101B00001E4EDFF86CC0DFF86CA0DFF8789096E826
:101B100007004FF0000E8CE80700C6E900EEDAF887
:101B20000000C6F808E04FF0FF336146012207F0DD
:101B300059F8D9F8000006F0DDFE78B90E4B012106
:101B4000186806F0F3FE62E7D9F8000006F0B2FE6E
:101B5000BEE7DAF8000006F0ADFE88E7D9F800002D
:101B600006F0A8FEEAE700BF0011002000000020F8
:101B7000280A0020340A0020D0090020701100201B
:101B8000380A0020CC0900202DE9F04FB04FB14EAB
:101B9000DFF8D892DFF8D882AF4D89B0002303A8D0
:101BA000CDE90333CDE90533ADF81C30FFF7CCFEAA
:101BB0004FF0FF31386806F07BFF1C22A649304603
:101BC00004F024FC0223ADF80C30032303A8ADF885
:101BD00014300123ADF81C30FFF7B6FE4FF0FF3193
:101BE000386806F065FF9C491C22304604F00EFC64
:101BF000736D1A68136823F004031360974BD3F8CE
:101C0000943059004CBF4FF4FA7041F2883006F01E
:101C1000D3FD4FF0000A03A8ADF80CA0ADF814A056
:101C2000ADF81CA0FFF790FE4FF0FF31386806F0CA
:101C30003FFF1C228849874804F0E8FB736D1A684F
:101C40001368CDE900AA23F0040313604FF0FF33BB
:101C500000220321D9F8000006F096FE0023044676
:101C60001A46D8F8000003A906F0F2FF83460028C0
:101C700034D103A8FFF768FEBDF81420BDF81600A4
:101C8000BDF80E10013A92B2022A5AD80446002931
:101C900063D0BDF81220002A5FD04FF6FF739A423E
:101CA00002D0013AADF81220002C40F09A806C4B23
:101CB000186806F0E7FD012300934FF0FF31386804
:101CC00006F0F6FE1C226348294604F09FFB736D64
:101CD0001A68136823F004031360B7E7E20717D507
:101CE000009B002B67D0BDF80C30022B24F00104C0
:101CF00000F08C80012B40F2471318BF00236B8348
:101D0000BDF8101000230093554B186806F0BAFD7B
:101D1000A307D2D5BAF1000F36D0BDF81430012B8D
:101D200078D0023B012B03D84FF000032B83EB82CA
:101D3000BDF818104FF0000A4A4B186806F0A2FDD3
:101D4000BBE70029B9D0BDF81220002AB5D04FF664
:101D5000FF708242ABD05C46A3E70028ADD0BDF84F
:101D60001A30002BA9D04FF6FF72934250D0013B9E
:101D70009BB20193ADF81A303A4B2146186806F031
:101D800081FD4FF0010A98E7019B23B3BDF81430A1
:101D9000022B4AD0032B54D0012B4CD0019ABDF812
:101DA00016104FF6FF739A423CD0531E9BB201931C
:101DB0004FF0010AC0E7BDF812307BB14FF6FF7259
:101DC00029496A839342498829D0013BADF81230F2
:101DD0000123009398E74FF0FF31ADE74FF0FF315B
:101DE00092E7BDF81A30002B3FF461AF4FF6FF7257
:101DF00093422BD0013B9BB20193ADF81A30184BA4
:101E0000186806F03FFD01230093B5E7002376E74D
:101E10000193B1E74FF00003EB822B8388E70123A6
:101E2000009371E74FF0010A86E74FF6FF73A5F8BC
:101E300016A02B83B2E74FF6FF73A5F818A0EB822C
:101E4000ACE74FF6FF732B83EB82A7E70193D6E74E
:101E500000110020B00D0020000000200010024002
:101E6000F8100020F410002004110020FC100020C5
:101E70001811002030B51C4B83B003F5F0712122FE
:101E800023F8022F8B42FBD103885BB3FF2BA8BF43
:101E9000FF23DAB243888DF805200BB3FF2BA8BFD0
:101EA000FF23DAB283888DF804201BB1FF2BA8BF73
:101EB000FF23DBB20D4D8DF8063028684FF0FF315F
:101EC00006F0F6FD0024204601990134FFF786F85C
:101ED0000A2CF8D1286803B0BDE8304006F01CBEDB
:101EE0001A46DFE71A46D5E7AA070020240A002091
:101EF0002DE9F04FA84EDFF8B48287B0002403A884
:101F0000CDE90344ADF80840ADF81440FFF7B2FF47
:101F1000336801211C64304605F062F84FF0FF3150
:101F2000D8F8000006F0C4FD192001F0F1FC06F01D
:101F30008FFB0C210546994AF023304604F0CCFE75
:101F4000336B1A68136823F004031360284606F005
:101F500095FBFF2303A80494ADF814400393FFF707
:101F600089FF33688E4D1C640121304605F038F836
:101F70004FF0FF31D8F8000006F09AFD192001F06B
:101F8000C7FC06F065FB854A0446F0230C21304669
:101F900004F0A2FE336B1A68136823F00403136085
:101FA000204606F06BFBD5F894305B0040F1EE80E4
:101FB0004FF4FA7006F000FCD5F8943043F40003B7
:101FC000C5F89430002403A8CDE903440594FFF735
:101FD00051FF336870481C640121019405F000F83A
:101FE0004FF0FF31D8F80000DFF8C4B1DFF8C4A12A
:101FF000DFF8C491684F06F05BFD192001F088FC02
:1020000006F026FB654A0446F0230C21624804F0E2
:1020100063FE336B1A68136823F0040320461360D1
:1020200006F02CFB5F4C41E0BDF81250002D79D03A
:10203000BDF81630002B75D0142D4FF6FF72B8BFC7
:102040001425934200F08780013B9BB2ADF8163017
:10205000ADF808300123019303A8FFF70BFF2946D1
:10206000D9F8000006F00EFC336800221A64012142
:10207000384604F0B5FF4FF0FF31D8F8000006F005
:1020800017FD192001F044FC06F0E2FA434AF02360
:1020900005460C21384604F01FFE336B1A6813689E
:1020A00023F004032846136006F0E8FA01221146E3
:1020B0004FF0FF33DBF8000006F066FC0023DAF88F
:1020C00000001A4603A906F0C3FD0028ACD0019B0E
:1020D00023B1BDF808309BB2002B3FD1BDF80830CA
:1020E0009BB22BB3BDF808304FF6FF729BB2934200
:1020F00010D0BDF80830013B9BB2ADF80830ADF808
:102100000A30BDF80A309BB213B1BDF80A309BB259
:10211000ADF80830012303A8BDF812500193FFF772
:10212000A9FE9CE70023ADF808304FF0FF3593E798
:10213000D8F800004FF0FF3106F0BAFC1A4B21220C
:1021400023F8022F9C42FBD1D8F8000006F0E4FCF3
:102150004FF0FF3583E7012301937DE7BDF814506D
:10216000D8F800004FF0FF3106F0A2FC142D0E4B02
:10217000B8BF1425212223F8022FA342FBD1D8F89F
:10218000000006F0C9FC0023019368E741F28830A3
:1021900006F012FB16E700BF140E0020AC0700206B
:1021A000001002408A090020AA070020240A00200B
:1021B000D0090020340A0020CC09002010B596B0C8
:1021C0004422002105A818F017FD00234FF40070E9
:1021D000CDE90033CDE90233049303F0DBF808B115
:1021E00072B6FEE7044603F0C5F8194AD2F89030FB
:1021F000142123F01803C2F89030059160210123C7
:1022000002220D912821CDE90B34CDE90F23CDE930
:102210001131079305A80723CDE91332159203F076
:102220009BF9034608B172B6FEE70F24032204218E
:102230006846CDE90042CDE90233049303F09CFCEB
:1022400008B172B6FEE703F073FF16B010BD00BF11
:102250000010024000B59FB001F0E8FAFFF7AEFFB2
:10226000B44BD86C40F00400D864DC6C04F0040477
:102270000294029CDC6C44F00104DC64DC6C04F02D
:1022800001040394039CDC6C44F00204DC64DC6C09
:1022900004F002040494049C9C6C44F001049C64CB
:1022A0009C6C04F001040094009C9C6C44F00204BB
:1022B0009C649B6CA04C03F00203002209210C20BB
:1022C0000193019B01F0E6FA0C2001F021FB0022B2
:1022D00009210D2001F0DEFA0D2001F019FB00228A
:1022E00008210E2001F0D6FA0E2001F011FB002289
:1022F0000A21102001F0CEFA102001F009FB002283
:102300000A21112001F0C6FA112001F001FB002280
:102310000B213B2001F0BEFA3B2001F0F9FA00222C
:102320000921442001F0B6FA442001F0F1FA00221C
:102330000921452001F0AEFA452001F0E9FA7F4875
:1023400000234FF461210C22C0E90041C0E90233AF
:10235000C0E90432C0E90633C0E9083306F08EF85C
:1023600008B172B6FEE7764C764B774E20620125B7
:10237000C4E90205C4E90400C4E906002046C4E932
:10238000003601F02BFE08B172B6FEE7014620468A
:1023900002F09AFF08B172B6FEE70146204602F04D
:1023A000BDFF034688B9694C694A22602046C4E9EA
:1023B0000163C4E90353C4E90533C4E9073301F0F9
:1023C0000DFE014618B172B6FEE772B6FEE7204672
:1023D00002F07AFF014608B172B6FEE7204602F02D
:1023E0009DFF024608B172B6FEE75A4B5A4C4FF4B5
:1023F00082714FF4E060C3E90041C3E902204FF469
:102400000071072028249961D86208211846C3E981
:102410000742C3E90422C3E90922C3E90C2103F0FE
:1024200079FF044608B172B6FEE74C4D08942C22A1
:10243000014613A8CDE90944CDE90644CDE90D4490
:10244000CDE90F44CDE9114405940C940B9418F098
:10245000D3FB6323424AC5E9024328468023C5E9EA
:102460000024C5E90444AB6104F09EFF08B172B6D4
:10247000FEE74FF48053284608A9089304F0C6FDF0
:1024800008B172B6FEE7354805F002F808B172B639
:10249000FEE7CDE90500079005A9304805F06AFA86
:1024A00008B172B6FEE7CDE90D00CDE9100060235A
:1024B00012900C2229480C930CA905F00BF908B1D5
:1024C00072B6FEE74FF40053CDE91703CDE91300D0
:1024D000CDE91500CDE91900CDE91C004FF00073DE
:1024E0001E481B9313A905F07DFA044608B172B685
:1024F000FEE71C4D194800F033FD4F234FF080429A
:10250000C5E9002328464FF0FF33CDE90C44CDE95F
:102510000E44CDE90844CDE91344CDE915440A94AD
:10252000AC602C61AC61EB6004F03EFFE0B172B6D0
:10253000FEE700BF001002400044004048100020A9
:10254000080D002000540040912970005C0D00200F
:10255000005C0040B00D002000300140140E00204F
:10256000002C0140D00E00204FF480530CA92846C7
:102570000C9304F04BFD08B172B6FEE7284604F058
:10258000FBFF034608B172B6FEE708A92846089388
:102590000A9305F0EFF908B172B6FEE70123CDE921
:1025A0001303CDE91500024613A9284605F046F9A4
:1025B00008B172B6FEE7042213A9284605F03EF9D9
:1025C00008B172B6FEE762480C2213A905F036F98D
:1025D000034608B172B6FEE75E4C5F4915904F2284
:1025E000CDE91300C4E9001220460922C4E90232F1
:1025F000A36104F0D9FE034608B172B6FEE7204697
:1026000013A91393159305F0B5F9044608B172B6F2
:10261000FEE705F0F1FF0121504A514D084606F052
:10262000F3F9504B504A18600121084606F0ECF9C6
:102630004E4B4F4A18600121084606F0E5F94D4B14
:102640004D4A18600121084606F0DEF94B4B4C4A12
:1026500018600121084606F0D7F94A4B4A4A18602B
:102660000121084606F0D0F90121484A28600846B1
:1026700006F0CAF9464A474B1060214622464648B2
:1026800006F0C0F8454A464B1060214622464548B0
:1026900006F0B8F8444A454B1060214622464448AB
:1026A00006F0B0F8434B444A18600C21012006F0B4
:1026B0005FFA424B424A18601221012006F058FA94
:1026C000404B414A18602146404806F029F8404BEB
:1026D000404A18602146404806F022F83F4B404AE5
:1026E000186021463F4806F01BF83F4B3F4A1860F0
:1026F00021463F4806F014F83E4B3F4A18602146F9
:102700003E4806F00DF83E4B3E4A186021463E48D2
:1027100006F006F83D4B02463D481A6006F0F2F816
:102720003C4B02463C481A6006F0ECF83B4B024634
:102730004FF0FF3128681A6006F0BAF909F090FEF0
:1027400009F0CAF9364809F051FE05F067FFFEE7C7
:10275000D00E00208C0F002000140040F8BD0108AE
:10276000F0110020C012002060BD0108D010002030
:10277000E8BD010848120020A0BD0108001100209A
:1027800038BD0108240A0020C8BD0108D8BD0108D1
:102790004412002018BD010845120008CC09002091
:1027A00080BD010855120008F810002070BD010816
:1027B00065120008F410002048BD0108340A00200A
:1027C000B0BD010818110020ACBC0108751200084A
:1027D000AC09002088BC0108891B0008A80900205A
:1027E00040BC0108F11E0008A0090020F4BC01084B
:1027F000B1120008B4090020D0BC0108A5130008DC
:10280000B009002064BC010891150008A40900204B
:1028100028BD0108D009002090BD0108FC1000204F
:1028200008BB0108034B02689A4200D0704701F0D0
:102830000DB800BF0010004072B6FEE72DE9F04F62
:102840007A487B4C7B4B7C4A7C49B3B0CDE9000491
:1028500001200BF051FB2DA80BF058FA784C794968
:10286000794A7A4B2DA8CDE92D41CDE92F230BF0E4
:102870005BFA002800F0C88026A80BF073FA0DF16F
:10288000980CBCE80F00724F724D734EDFF81CB20B
:10289000DFF81CA20FC73B46DCF800C043F810C9A4
:1028A0000024224621466D480BF03AF94FF0060904
:1028B0006B4A6A4B6B496C480BF07CF92D9B2146A7
:1028C000C5E905490C2098474FF001082D9B286168
:1028D0002146C5E90188142098470B2282602860B0
:1028E0002D9A039021460B209047039B1860AB69FB
:1028F00023F000422B680B21C3E903285B4A1A60CE
:1029000059600923B36121462D9BEC60746112204C
:1029100098472D9B30612146C6E9018814209847CD
:1029200021462D9A3060C0F80890039048469047A1
:10293000039B1860B36923F000423368C3E903289E
:102940004B4A1A60C3F80490F46009F015FF494B34
:102950004549024648480BF069F92C9009F00EFEF3
:10296000464B4149024646480BF060F92C9009F06D
:10297000A7FF444B3C49024643480BF057F92C90C3
:102980000AF070F9CBF800000CF0E0F93F4B364943
:10299000024658460BF07EF92C900AF063F9CAF80B
:1029A00000000CF0D3F93A4B2F49024650460BF089
:1029B00071F92C9004A80AF0E1FD04A98822354899
:1029C00018F027FA25493348A7F1100302220AF02C
:1029D000DFFD314B2C90324659462E4800940AF0C8
:1029E00047FE2E4B2C902A4651462A4800940AF066
:1029F0003FFE034664202C930BF0F6FD0BF0DCFD4C
:102A000038B933B0BDE8F08F4121254817F072FF87
:102A100032E70BF0DBFD234A0023FEF7A7F8224B39
:102A2000C3E9000133B0BDE8F08F00BF593600089C
:102A3000A536000849360008313600084810002045
:102A400021360008253600082D36000829360008F2
:102A5000B80900204C120020681200208C120020BF
:102A600090D1010830BE0108681100203CBE010869
:102A700048BE010850BE0108801100205CBE01085C
:102A80007C11002060BE01088411002070BE010886
:102A900078BE0108400A002081180008F9180008D3
:102AA00008BE010840420F00900900208812002053
:102AB000841200200E4B10B4186E40F0010018660E
:102AC0001C6E83B004F001040094009C9C6D44F0E3
:102AD00080549C659B6D03F080530193019B002201
:102AE0000F216FF0010003B05DF8044B00F0D2BE7F
:102AF000001002402DE9F0470446A0B00021542206
:102B00000BA8CDE90611CDE908110A9118F074F867
:102B10002368854A934205D0844A93427CD020B0F2
:102B2000BDE8F08740230BA80B9303F0B1F9002810
:102B300040F0ED807E4DEB6C43F00103EB64EB6CF9
:102B400003F001030093009BEB6C43F00203EB6482
:102B5000EB6C03F002030027019304264FF480631B
:102B60004FF012094FF0030806A94FF09040019A68
:102B70000693CDE909860897CDF81C9001F03EF840
:102B800040236C480A9606A90693CDF81C90CDF810
:102B90002480089701F032F8AB6D674E674A43F422
:102BA0000013AB65AB6DB76003F40013029305230C
:102BB000C6E9002330468023C6E90373C6E90577DA
:102BC000C6E90777029900F0C3FE002840F09C8018
:102BD0005B4D5C49E66305220023C5E900122846E7
:102BE00010218022C5E90213C5E90533C5E9073381
:102BF000B4622A6100F0ACFE002840F0828000221E
:102C00000721A5631F20AC6200F044FE1F2000F0E6
:102C10007FFE20B0BDE8F0874FF480730BA80B93C4
:102C200003F036F9002875D1414DEB6C43F00103F8
:102C3000EB64EB6C03F001030393039BEB6C43F039
:102C40000203EB64EB6C03F0020300274FF0030870
:102C500004264FF0800904934FF0120A06A94FF0A2
:102C60009040049B0A96CDE90878CDF81890CDF8ED
:102C70001CA000F0C3FF10232E480A9606A9069355
:102C8000CDE90878CDF81CA000F0B8FFAB6D2E4E52
:102C900043F40003AB65AB6DC6F8048003F4000396
:102CA0000593059B294B37623046C6E90277C6E992
:102CB0000497C6E90677336000F04AFE80BB244DD6
:102CC0002449E66303220023C5E9001228461021A7
:102CD0008022C5E90213C5E90533C5E90733B462AB
:102CE0002A6100F035FEC0B9002207214820A56303
:102CF000AC6200F0CFFD482000F00AFE20B0BDE835
:102D0000F087FFF799FD7AE7FFF796FD60E7FFF799
:102D100093FD0FE7FFF790FD86E7FFF78DFDE3E7F3
:102D2000FFF78AFDCBE700BF00540040005C004085
:102D30000010024000040048C80A00206C04024051
:102D4000100B002080040240580B0020300002408D
:102D5000A00B00201C0002402DE9F043314B02681B
:102D600089B000249A42CDE90344CDE90544079493
:102D700002D009B0BDE8F08303F560434FF00209CB
:102D80001A6E294E42F480521A661A6E02F480526C
:102D90000092009ADA6C42F00102DA64DA6C02F016
:102DA00001020192019ADA6C42F00202DA64DB6CF1
:102DB000CDF8109003F0020302934FF00308402374
:102DC000052703A905464FF090400393CDF81880DE
:102DD000029B079700F012FF28231448039303A9CE
:102DE000CDF81090CDF818800594079700F006FFF5
:102DF0000F4A0423C6E90023304610228023C6E987
:102E00000224C6E90544C6E90744336100F0A0FD89
:102E100020B96E65B56209B0BDE8F083FFF70CFD1F
:102E2000F7E700BF00300140E80B00200004004835
:102E30004404024070B50368444A8AB000249342B7
:102E4000CDE90544CDE90744099407D0B3F1804F9B
:102E50003CD03F4A934262D00AB070BD3D4B3E4EDB
:102E60001A6EF46042F400621A661B6E3B4AF4610B
:102E700003F4006301930723C6E900231022802393
:102E80000546B26033614FF480724FF48063304680
:102E9000C6E905230199346200F05AFD002852D199
:102EA00000220521C5E90D662E631920B56200F0E8
:102EB000F1FC192000F02CFD002207211B2000F05E
:102EC000E9FC1B2000F024FD0AB070BD03F50433BB
:102ED0002A209A6D42F001029A659A6D02F0010271
:102EE0000292029ADA6C42F00102DA64DB6C05901D
:102EF00003F00103039305A9012302224FF0904040
:102F000009930692039D00F079FE224609211C20B8
:102F100000F0C0FC1C2000F0FBFC0AB070BD0D4BA3
:102F2000996D41F0200199659B6D03F020032246C5
:102F3000052104933720049B00F0ACFC372000F0FF
:102F4000E7FC0AB070BDFFF777FCA9E7002C014051
:102F50000014004000100240300C002044000240E9
:102F600030B5154A016887B000239142CDE901339D
:102F7000CDE90333059301D007B030BD03F18043A1
:102F800003F504330220DA6C42F00102DA64DB6CF0
:102F900003904FF4006403F001030093CDE9014076
:102FA0000322012301A94FF09040CDE90423009DA5
:102FB00000F024FE07B030BD002C01402DE9F041A7
:102FC00004469CB00021542207A8CDE90211CDE9A6
:102FD0000411069117F010FE3E4B22689A4202D06F
:102FE0001CB0BDE8F081022307A8079302F050FF50
:102FF000002866D1384B394E9A6D42F400329A65FA
:103000009A6D02F400320092009ADA6C42F00102EA
:10301000DA64DB6C03F0010301930423002502272B
:103020004FF00308029302A9019B049507234FF078
:10303000904006930397CDF8148000F0DFFD4FF425
:1030400000434FF0904002A90293CDE90375CDE90A
:10305000058800F0D3FD224B33608023C6E903537B
:1030600020224FF440533046C6E90175C6E90555A4
:10307000F261336200F06CFC48BB1A4D1A49666776
:103080000222C5E900128022002310212A6128466D
:103090004FF44052C5E90213C5E90533C5E90732CB
:1030A000B46200F055FC78B900220921262025677A
:1030B000AC6200F0EFFB262000F02AFC1CB0BDE85B
:1030C000F081FFF7B9FB95E7FFF7B6FBECE7FFF7F9
:1030D000B3FBD2E70044004000100240780C00200F
:1030E0006C000240C00C00208000024000F0AEBB2B
:1030F000254B70B59A6D42F010029A659B6D88B0B1
:1031000003F010030293054601A903A8029B02F0F5
:103110000BFE069BFBB902F0E3FD03461B4A1C4C69
:103120001C49A2FB03239B0C013B0022C4E90013B2
:10313000204640F2E7332261A260A261E36004F01E
:1031400033F9064658B1144A11480E2104F028F804
:10315000304608B070BD02F0C3FD4300DEE72046F4
:1031600003F0C2FB06460028EDD1362000F0D0FB6C
:103170000F2D01D90126E6E732462946362000F018
:1031800089FB064B1D60DEE70010024083DE1B4317
:10319000F012002000100040ED3000082800002050
:1031A000FEE700BFFEE700BFFEE700BFFEE700BF8F
:1031B000FEE700BF704700BF014800F0CBBC00BF76
:1031C000A00B002008B5074800F0C4FC064B0749D7
:1031D0001A680748536800680B405360BDE8084010
:1031E00005F09ABC580B00205C0D002000E800FEA2
:1031F000D0100020044B05481A68D36843F0100330
:10320000D36000F0A7BC00BF140E0020300C0020DB
:1032100008B508F085FF034800F09CFCBDE80840B5
:1032200008F0A4BF780C002008B508F079FF034827
:1032300000F090FCBDE8084008F098BFC00C0020EA
:1032400010B5124C2368196A41F21112114208D1CB
:10325000196A40F24442114203D11A6822F0010275
:103260001A6008F05DFF094803F0FAFD2268D36890
:1032700023F00103D360192000F058FB044B1868B9
:1032800005F04AFCBDE8104008F070BF140E0020A5
:10329000240A002010B50A4C236800216FF00102B7
:1032A00019641A61DA6842F00102DA60204603F01C
:1032B000D7FD2268D36823F01003D36010BD00BF90
:1032C000140E002008B508F02BFF034803F0C8FDDA
:1032D000BDE8084008F04ABFD00E002010B5074CEA
:1032E0002268136823F00203136008F019FF2046D8
:1032F00001F088F9BDE8104008F038BF080D002043
:1033000008B508F00DFF054804F0ECFC044B186804
:1033100005F002FCBDE8084008F028BF4810002076
:1033200048120020014803F09BBD00BFF0120020AE
:103330000649074830B4D1E90023541C43F1000585
:10334000C1E9004530BC03F08BBD00BF98090020E7
:103350008C0F002008B508F0E3FE054800F0FAFBEA
:10336000044B186805F0D8FBBDE8084008F0FEBE25
:10337000E80B00200011002008B508F0D1FE084835
:1033800000F0E8FB074B186805F0C6FB064B074941
:103390001A6853680B405360BDE8084008F0E6BE69
:1033A000C80A0020C0120020080D002000E800FE1E
:1033B00008B508F0B5FE034800F0CCFBBDE80840B6
:1033C00008F0D4BE100B002008B508F0A9FE034891
:1033D00001F018F9BDE8084008F0C8BE5C0D0020F7
:1033E00010B5037F022B044609D0082B3FD0012BD8
:1033F00022D0036800225A639A631A6410BD042124
:1034000003F0B4FE274A284B1168A3F80D0082B2DE
:10341000086A20F0A0000862086A0862B3F80B107E
:103420008A42A2EB010238BF02F1FF32216892B258
:1034300000205A80886310BD002103F097FE194ACE
:10344000194B1268116A21F00A011162116A1162A6
:10345000DA8880B290421881A0EB020038BF00F1F8
:10346000FF30226880B200211880516310BD0C210A
:1034700003F07CFE0B4A0C4B1268116A21F42041C8
:103480001162116A11621A8A80B290425882A0EBCE
:10349000020038BF00F1FF30226880B2002198801E
:1034A000116410BDD00E00208811002038B5047FB3
:1034B000022C2BD0082C15D0012C00D038BD274D64
:1034C000A97A002943D103F051FE254BE8801B68FF
:1034D000AC721A6A22F00A021A621A6A42F00202F6
:1034E0001A6238BD1D4C237D5BBB0C2103F03EFEF0
:1034F0001B4B20821B681A6A22F420421A621A6A45
:10350000012142F4005221751A6238BD134CE37B4D
:103510008BB9042103F02AFE114BA4F80B001B68A1
:103520001A6A22F0A0021A621A6A012142F02002ED
:10353000E1731A6238BD0023E373BDE83840FFF73A
:103540004FBF00232375BDE83840FFF749BF002374
:10355000AB72BDE83840FFF743BF00BF88110020C1
:10356000D00E002001480C2103F0B8BB140E00203F
:103570000120704708B517F017FC162303604FF0C1
:10358000FF3008BD08B517F00FFC16230360FEE7F7
:1035900070B5161E07DD0C468D19AFF3008004F8D8
:1035A000010BA542F9D1304670BD00BF4FF0FF308E
:1035B000704700BF4FF400534B600020704700BFBE
:1035C00001207047002070470C490D4A0B6810B568
:1035D0000C4C121B2BB11844904207D808601846B7
:1035E00010BD094B0B6018449042F7D917F0DCFB73
:1035F0000C2303604FF0FF33184610BDB0130020BA
:103600000000012000040000F8800020034AD2F8E6
:10361000883043F47003C2F88830704700ED00E052
:1036200016F070BE16F076BE16F0F4BD16F092BF1E
:1036300008B50449D0F88C024FF4006204F0A0FFF2
:10364000012008BDB413002008B5D0F88C0204F0A6
:1036500083FA012008BD00BFF8B5114ED0F88C7276
:1036600030680D4614464FF0FF3105F021FA294627
:10367000A2B2384604F030FA3B6F1A68136823F0A0
:1036800004030546136030684FF0FF3105F010FA6F
:10369000306805F041FA0DB9E0B2F8BD0020F8BD80
:1036A000481200202DE9F84FD0F88CB2DFF884A042
:1036B0001F4F0E46154699464FF0000801E0C845D9
:1036C0002EDA72B6DBF874301B685A68C2F50062F5
:1036D000CAF8002062B6012005F06EF83C68DAF8FE
:1036E0000020944208F10108E9D0FDB106EB050C79
:1036F000DFF844E00CF1FF3C731E01E0634512D09B
:10370000651C1EF804101846C5F30A040230A242D4
:1037100003F8011FA0EB0600F0D13A60BDE8F88F76
:103720000020BDE8F88F3C60BDE8F88F2846F5E73B
:10373000B41B0020B81B0020B413002000000000C0
:1037400030B583B0002568460C46CDE9005507F03A
:103750002BF81F4A019BD2E90001009A1B1841F186
:10376000000E96445B194FEA4E105A01D21A40EAF5
:10377000D36060EB0E00400240EAD2505202D218F1
:103780004EEB000C4FEA8C119001801A41EA9261D5
:1037900061EB0C01C0184EEB01010BA3D3E9002330
:1037A000FDF7E4F9AA42C4E90001A26007DA013892
:1037B000084B61F10001C4E900011344A36000203B
:1037C00003B030BDAFF3008000CA9A3B0000000098
:1037D0009009002000CA9A3BDFF834D0FFF716FFAB
:1037E0000C480D490D4A002302E0D458C45004335C
:1037F000C4188C42F9D30A4A0A4C002301E0136032
:103800000432A242FBD317F0D5FAFEF723FDFEE700
:1038100000000120000000208C07002038D401089F
:1038200090070020F4800020FEE7000010B5032080
:1038300000F01EF80F20FFF75BFC10B101242046BA
:1038400010BD0446FFF736F9204610BD034A044B6D
:1038500011681B780B441360704700BFBC1B00202D
:1038600024000020014B1868704700BFBC1B0020DB
:103870000749CA6803024FF6FF0003F4E063024001
:10388000134343F0BF6343F40033CB60704700BF82
:1038900000ED00E01C4BDB68C3F3022300B5C3F16D
:1038A000070EBEF1040F03F1040C28BF4FF0040E05
:1038B000BCF1060F1BD9033B4FF0FF3C0CFA03FC95
:1038C00022EA0C024FF0FF3C0CFA0EFC21EA0C013C
:1038D0009940002841EA02010CDB00F16040090137
:1038E00000F56140C9B280F800135DF804FB0022C6
:1038F0001346E7E7054B00F00F0009010344C9B286
:1039000019765DF804FB00BF00ED00E0FCEC00E080
:10391000002807DB044A4109012300F01F0083400F
:1039200042F82130704700BF00E100E000280CDBC6
:103930004309064900F01F0020330122824041F86C
:103940002320BFF34F8FBFF36F8F704700E100E07C
:1039500000284FD0F0B4314B04689C4241D9304A22
:10396000304B314D2244A3FB023212099200022354
:1039700080F82530D0E90263076921684264334347
:103980003B43476905643B4387693B43C7693B4306
:10399000076A21F4FF4121F070013B430B43B6F568
:1039A000804F236013D0214B9D4225D0D3F8A8141B
:1039B00002F01C020F24944021EA0401C3F8A81469
:1039C0004168D3F8A84491402143C3F8A8140023C8
:1039D0000122C36380F8243080F82520F0BC18460B
:1039E0007047134A0F4B114D2244A3FB02321209B8
:1039F0009200BCE701207047D5F8A83002F01C0205
:103A00000F21914023EA0103C5F8A8304368D5F897
:103A1000A81093400B43C5F8A830D8E7070402402C
:103A2000F8FBFDBFCDCCCCCC00040240000002402E
:103A3000F8FFFDBF90F824C0BCF1010F3CD070B579
:103A400090F825C00124A44580F824405FFA8CFE3C
:103A500004D0002380F82430022070BD022580F8B5
:103A6000255004680025C5632668456C26F00106CC
:103A7000266005F01C05066C0EFA05F5756063609E
:103A80008368102B036B0BBFA260A160E160E26052
:103A90004BB1236843F00E032360236843F0010316
:103AA0000020236070BD236823F004032360236893
:103AB00043F00A032360F0E70220704790F82520C6
:103AC000022A034606D00422C2630022012083F8A2
:103AD000242070470168426C086820F00E000860DE
:103AE000086820F0010008604FF0010C196C02F02A
:103AF0001C020CFA02F24A600022002083F825C062
:103B000083F82420704700BF90F82520022A03D0B4
:103B10000422C263012070470168426C10B50C6832
:103B200024F00E040C600C6824F001040C6002F018
:103B30001C02046C012101FA02F26260826B80F8BF
:103B40002510002480F8244012B19047204610BD73
:103B5000104610BD70B4436C066C056831682C6863
:103B600003F01C0304229A400A420ED014F0040F02
:103B70000BD02B689B0603D42B6823F004032B6027
:103B8000036B7260CBB170BC184702229A400A42A4
:103B900015D014F0020F12D02B68990606D42B68AA
:103BA00023F00A032B60012380F82530C36A72607A
:103BB000002180F82410002BE5D170BC704708224A
:103BC0009A400A42F9D02207F7D52A68416B22F0C1
:103BD0000E022A60012202FA03F300247360C2631A
:103BE00080F8244080F825200029E6D070BC0847E2
:103BF00090F82500704700BFC06B70472DE9F04F6B
:103C00000C6885B0002C00F0BA804FF0000C604EBC
:103C1000009163464FF0010B5EE0032A40F0A9805B
:103C200002FA0CF26FEA020E076807EA0E073A433F
:103C300015F4403F026049D0564F3A6E42F00102FF
:103C40003A663A6E02F001020392039A23F00302ED
:103C500002F1804202F5803203F00307D2F808E057
:103C6000BF000F2101FA07F8B0F1904F2EEA080EBD
:103C70000CD04949884200F08580484988420CBFF1
:103C80000221072101FA07F74EEA070EC2F808E001
:103C9000B2686FEA0A07E90254BF3A404AEA0202F0
:103CA000B260F268A90254BF3A404AEA0202F260E6
:103CB0007268A90354BF3A404AEA0202726032684D
:103CC000E90354BF3A404AEA02023260013334FA4F
:103CD00003F20CF1020C52D00BFA03F818EA040AB2
:103CE000F4D000994D6805F00302571E012F94D8B7
:103CF000D0F80890CF68032101FA0CFE29EA0E09DA
:103D000007FA0CF747EA09078760476827EA0808B7
:103D1000C5F300179F4047EA08076FEA0E0E476099
:103D2000C768009907EA0E088F6807FA0CF747EA98
:103D30000807022AC76002FA0CF27FF475AF4FEA57
:103D4000D30900EB890903F00708D9F82010019185
:103D500000990F694FEA88080F2107FA08F701FA5E
:103D600008F8019921EA080847EA0807C9F820700D
:103D70005AE7032101FA0CFE6FEA0E0ED0E705B0F8
:103D8000BDE8F08F0BFA07F74EEA070E7EE700BF9B
:103D900000040140001002400004004800080048F0
:103DA0002DE9F04180460E46006815461F4601E0A9
:103DB0007B1C0AD1846936EA04040CBF0124002468
:103DC000AC42F5D00020BDE8F081FFF74BFD069B2B
:103DD000C01AB842D8F8000017D9836936EA03033D
:103DE0000CBF01230023AB42E4D1D8F844300022B9
:103DF00043F020032021C8F8443088F8402088F898
:103E00004110012088F84220DDE7002FE5D0D1E7FE
:103E1000F8B503689D6915F01005064640D01746B1
:103E200010220C46DA619A69950604D4621C4DD1C1
:103E30009A699706FCD52022DA6100259A69D40593
:103E400045F004054FF001002ED4510539D54FF44B
:103E50008061D96145F00805970504D54FF40072DB
:103E600045F00205DA619A69910744BF00229A621F
:103E70009A69D20703D49A6942F001029A615A689A
:103E800026490A405A60736C00222B432021736438
:103E900086F8402086F8411086F842200120F8BDBF
:103EA0009A69D4052846D0D54FF480715005D96160
:103EB00045F00105D0D54FF48061D96145F0080582
:103EC000CAE79405CAD40028CDD1F8BDFFF7CAFCD3
:103ED000C01BA042336801D8002CA4D1586896F8C2
:103EE000422099690D04D2B20BD5410409D4202A8D
:103EF00007D05A6842F480425A60FFF7B3FC336837
:103F0000074699698A068ED4FFF7ACFCC31B192BB0
:103F10003368F6D99A69202590E700BF00E800FED3
:103F200070B5036804460D46164605E0FFF770FFBE
:103F300050B96A1C0AD123689B699B0732462946FF
:103F40002046F3D5002070BD012070BDFFF78AFC2C
:103F5000801BA842236801D8002DEDD19A6912F088
:103F60000202E9D1636C84F8402020210B43636492
:103F700084F8411084F84220012070BD03689B69D9
:103F80009B0629D470B505460C4616460DE0FFF792
:103F900069FC801BA042296800D81CB98B6913F00A
:103FA00020030DD08B699B0608D432462146284653
:103FB000FFF72EFF0028EAD0012070BD002070BD61
:103FC0006A6C85F8403020210A436A6485F8411004
:103FD00085F84230012070BD00207047002854D081
:103FE00010B590F84130044603F0FF02002B47D093
:103FF0002368242284F841201968626821F00101B5
:1040000022F0706219601A619A68E16822F4004235
:1040100001299A60A26809D042F4044202299A60F8
:1040200007D15A6842F400625A6006E042F4004246
:104030009A605A6822F400625A605968226941F015
:10404000007141F4004159606169D8680A43A1696F
:1040500020F4004042EA0122E169D860206ADA6077
:1040600001431960196841F0010119600022202301
:10407000626484F84130226384F84220104610BD07
:1040800080F84020FEF736FDB2E70120704700BF00
:104090002DE9F0471F4690F8413082B0202BBDF843
:1040A0002CA0DDF8309033D10A9B04464BB3BAF113
:1040B000000F26D090F84030012B29D0012380F842
:1040C00040300E469046FFF7CDFB236805469A69BF
:1040D000110421D5FFF7C6FB401B19282368F6D928
:1040E0009A691204F3D5636C002243F02003202167
:1040F000636484F8402084F84110012084F8422051
:1041000003E04FF400736364012002B0BDE8F08760
:10411000022002B0BDE8F0870A9A6262212184F889
:1041200041100022402184F842106264A4F82AA0C1
:104130005C4962635A680A40F9B242EA0142C6F336
:104140000906324342F0807242F400525A604946F6
:104150002A462046FFF7E4FE002857D1012F5CD104
:1041600023685FFA88F29A6200954B46002280210C
:104170002046FFF715FE002848D1638D9BB2FF2B28
:104180006BD922684849FF23238553680B4033438A
:1041900043F0FF7343F480335360434FDFF81081E3
:1041A00003E0638D9BB2002B66D02A464946204629
:1041B000FFF7B6FE00284ED1636A226813F8011B90
:1041C00091626362638D228D013B9BB26385638D37
:1041D000013A92B29BB22285002BE2D0002AE0D1B4
:1041E00000954B4680212046FFF7DAFD002832D1AA
:1041F000638D9BB2FF2B20D92268FF232385536850
:104200003B40334343EA08035360CAE700230120DD
:1042100084F8403002B0BDE8F08723684FEA1822E6
:104220009A6249462A462046FFF77AFE0028EDD1D9
:1042300022685FFA88F3936296E7638D21689BB2E8
:104240004A682385DBB246EA03433A40134343F00E
:1042500000734B60A5E7012057E7638D2168124882
:104260004A689BB22385DBB246EA0343024013430C
:1042700043F000734B6090E72A4649462046FFF71B
:104280007DFE0028E7D12368084D2021D9615A68B6
:104290002A405A6084F8411084F8400084F84200B3
:1042A00033E700BF009800FC009C00FC00E800FE23
:1042B0000000FF012DE9F0471F4690F8413082B021
:1042C000202BBDF82CA0DDF8309033D10A9B04469A
:1042D0004BB3BAF1000F26D090F84030012B29D013
:1042E000012380F840300E469046FFF7BBFA236862
:1042F00005469A69110421D5FFF7B4FA401B192825
:104300002368F6D99A691204F3D5636C002243F04E
:1043100020032021636484F8402084F841100120A8
:1043200084F8422003E04FF400736364012002B07C
:10433000BDE8F087022002B0BDE8F0870A9A626209
:10434000222184F841100022402184F84210626446
:10435000A4F82AA05D4962635A680A40F9B242EAA9
:104360000142C6F30906324342F400525A604946FC
:104370002A462046FFF7D4FD00285AD1012F5FD1ED
:1043800023685FFA88F29A6200954B46002240212A
:104390002046FFF705FD00284BD1638D9BB2FF2B14
:1043A0006ED922684949FF23238553680B40334364
:1043B00043F0FF7343F492335360454FDFF81881A5
:1043C00003E0638D9BB2002B6BD04B46009500221F
:1043D00004212046FFF7E4FC00284FD123685A6AE5
:1043E000636A1A70636A228D01336362638D013BD5
:1043F0009BB26385638D013A92B29BB22285002BFA
:10440000DFD0002ADDD100954B4680212046FFF702
:10441000C7FC002832D1638D9BB2FF2B20D92268C4
:10442000FF23238553683B40334343EA080353602B
:10443000C7E70023012084F8403002B0BDE8F087D0
:1044400023684FEA18229A6249462A462046FFF717
:1044500067FD0028EDD122685FFA88F3936293E745
:10446000638D21689BB24A682385DBB246EA034329
:104470003A40134343F000734B60A2E7012056E734
:10448000638D216811484A689BB22385DBB246EAF6
:1044900003430240134343F0007343F410534B6053
:1044A0008BE72A4649462046FFF768FD0028E5D1FC
:1044B0002368084D2021D9615A682A405A6084F83F
:1044C000411084F8400084F8420030E7009800FC76
:1044D000009C00FC00E800FE0000FF01F8B5044667
:1044E00090F84100069E20281F46BDF81C3055D18B
:1044F000002E4ED0002B4CD00D462168886910F458
:1045000000404BD194F840C0BCF1010F46D04FF0B1
:10451000220E84F841E0DFF8E0C066624FF0400E02
:1045200084F842E060646385C4F82CC0E564638D60
:104530002F4860639BB2FF2B96BF638DFF239BB216
:104540000120012F84F84000238529D0100AD2B21F
:1045500088622265E06B48B3DFF8A0C0C0F82CC0C9
:104560003246DFF89CC0C0F834C000262431066310
:104570008663FFF75FFA30B3202384F8413084F874
:104580004260636C84F8406043F010036364012070
:10459000F8BD4FF4007363640120F8BD0220F8BD3C
:1045A000D2B28A624FF0FF322265D3E7202384F82B
:1045B000413084F84200636C84F8400043F080038B
:1045C00063640120F8BD2268C5F309035168094DF1
:1045D000FFB243EA074329400B4343F400535360BF
:1045E00084F84000136843F0F2031360F8BD00BF85
:1045F000ED4A0008009800FC0000FFFF414E000853
:104600002D4E00080268436B9169126803B1184788
:10461000704700BF704700BF704700BF002180F89F
:10462000421090F84120212A38B54FF0200418D1CB
:10463000112280F84140026390F8412004684163F0
:1046400002F02802282A22680CBF6FF0420C6FF09B
:10465000F20C02EA0C02226080F84010FFF7DAFF49
:1046600038BD122280F84140026390F8412004686E
:10467000416302F028022568282A0CBF6FF044022B
:104680006FF0F4022A40226080F84010FFF7C4FF68
:1046900038BD00BF704700BF704700BF016808B554
:1046A0000B68002280F842205A040CD50B6823F4D2
:1046B00080430B6090F84130292B0ED090F84130A8
:1046C0002A2B22D008BD1B04F4D50B6823F4004329
:1046D0000B6090F84130292BF0D12822212380F85B
:1046E0004120036390F841200B6802F02802282A39
:1046F0000CBF6FF042026FF0F202134000220B6019
:1047000080F84020FFF7C6FF08BD2822222380F84A
:104710004120036390F841300A6803F02803282BF6
:104720000CBF6FF044036FF0F403134000220B60E2
:1047300080F84020FFF7B0FF08BD00BF704700BF02
:1047400070B50468C368A169A269A568E668120C1F
:10475000022B8446C1F3004102F0FE020FD182EA2F
:10476000D51313F00603C5F3090206D1856C013594
:104770008564856C022D0CD070BD06F0FE022368A6
:1047800023F0B803236000238CF84030FFF7D6FFF6
:1047900070BD08258364E56180F84030FFF7CEFFE7
:1047A00070BD00BF704700BF002310B52022174C1A
:1047B000C4624363036380F8412080F842304B07B2
:1047C00012D50268436A526A1A70436A028D013335
:1047D00043624AB1438D013B9BB24385436C013A2E
:1047E00043F0040302854364036890F8412090F885
:1047F00041201A68102422F0FE0200211A60DC61B8
:1048000080F84010FFF7CEFF10BD00BF0000FFFF93
:10481000704700BF704700BF704700BF704700BFC0
:10482000806A08B5836B0BB100229A63C36B0BB12E
:1048300000229A6390F84130602B4FF0000305D0BE
:10484000036380F84030FFF7E7FF08BD202280F8BF
:10485000412080F840300363FFF7E0FF08BD00BF50
:1048600010B50446554A94F84130002084F84200BF
:10487000E2626085626C283B1143022B616463D85D
:1048800094F8412094F8413002F02802282A03F0DD
:1048900028030CBF4621F621282B23681A680CBF79
:1048A000C9436FF0F6010A40282045491A6084F890
:1048B0004100A06B226B616318B1112A14D0212A28
:1048C00012D0E06B18B1122A24D0222A22D094F8F8
:1048D0004130602B4FF0000366D0236384F84030F2
:1048E0002046FFF799FF10BD1A68510457D4FFF70F
:1048F0007FF90128EBD0A06B324A8263002384F851
:104900004030FFF701F90028EDD0A06BBDE8104062
:10491000836B18471A68120403D51A6822F4004200
:104920001A60FFF765F90128D1D0E06B254A826350
:10493000002384F84030FFF7E7F80028D3D0E06B7D
:10494000BDE81040836B1847236894F8412094F821
:1049500041201A6822F0FE021A609A69920748BF45
:1049600098629A69D10703D49A6942F001029A6168
:1049700094F84120602A10D0202284F841209A69BE
:1049800092060AD59A69D00605D51022DA61626CC2
:1049900042F0040262642022DA61002189E71A6889
:1049A00022F480421A60A2E7202284F8412084F891
:1049B000403023632046FFF731FF10BD0000FFFFAA
:1049C0008551000821480008036830B52022DA61CB
:1049D00090F84120212A83B040D090F84120222A2B
:1049E0006AD05A683F4C002522405A603E4C4563CD
:1049F000CD06C46205D51022DA61426C42F0040291
:104A0000426490F84120602A21D09A69910744BFFE
:104A100000229A629A69D20703D49A6942F001028D
:104A20009A61436C90F84120602A0AD04BB990F803
:104A30004120212A31D090F84120222A1ED003B0F3
:104A400030BD416C03B0BDE83040FFF709BF4C07F3
:104A5000DBD55A6AD2B20192019AD6E790F841406A
:104A60001A6804F02804282C0CBF6FF042046FF081
:104A7000F204224011241A600463B2E7202280F875
:104A80004120036390F8422080F84030402A80F8AB
:104A9000423024D0FFF7C0FDD1E7202280F841202A
:104AA000036390F8422080F84030402A80F842307A
:104AB00012D0FFF7AFFDC2E790F841201C6802F06A
:104AC0002802282A0CBF6FF044026FF0F402224043
:104AD00012241A60046384E7FFF79AFEAFE7FFF73A
:104AE00099FEACE700E800FE0000FFFF38B590F843
:104AF0004030012B00F0AE800123CD06044680F843
:104B0000403002D5D00600F181808B070BD5950788
:104B100009D52268216D91624FF0FF332365002093
:104B200084F8400038BD080623D5530666D594F8AE
:104B30004110236801F028011A6828290CBF6FF082
:104B400042016FF0F2010A401A601A6842F09002C6
:104B50001A60628D92B2002A00F0A580628D92B236
:104B6000FF2A40F28F80E26C51485968C2F3090273
:104B700028E04D0642D5500640D594F841202368E0
:104B80004C48196802F02802282A0CBF6FF0420234
:104B90006FF0F2020A401A601A6842F090021A603E
:104BA00094F84110444A222908BF1046628D92B2FF
:104BB000FF2A53D9E26C5968C2F3090202433F4805
:104BC00022F0004201400A4342F0FF72FF2142F40A
:104BD000803221855A60628D521A92B2628594F8B1
:104BE0004120222A1A684FF000000CBF42F4004214
:104BF00042F480421A6084F8400093E78B068ED519
:104C000092068CD52046FFF7DFFE88E723682C4804
:104C10001022DA61616C626B41F0040182426164CE
:104C20001AD028498A4217D027498A420CBF6022ED
:104C3000202219680A431A609A69910744BF00222A
:104C40009A629A69D2073FF56AAF9A6942F0010207
:104C50009A6164E7022038BD6022EAE7618DE26C68
:104C600089B2CDB2C2F3090242EA05420243134DB2
:104C70005868218522F000422840024342F0007229
:104C80005A60A8E7618D0A4DE26C586889B22840E5
:104C9000C2F30902CDB242EA0542024342F0007279
:104CA00021855A6097E740212046FFF7D9FD36E776
:104CB000009C00FC0020008000240080009800FC84
:104CC000CD4C000851500008ED4A000838B590F866
:104CD0004030012B00F084800123CD06044680F88B
:104CE000403001D5D00658D40D0639D550064CD5E4
:104CF00023681A6822F040021A60628D92B2002A7C
:104D000070D05868628D92B2FF2AC0F3090077D83C
:104D1000618DE26A89B212F5803F218577D05FFA12
:104D200081FCE26A4FEA0C4C42EA0C0202433B4D22
:104D3000586822F00042284002435A60628D521A9D
:104D400092B2628594F84120222A1A680CBF42F47C
:104D5000004242F480421A60002084F8400038BDCE
:104D60004D0612D5500610D5638D9BB2002B40D155
:104D700023685A689101EFD4E26A12F5803F34D17A
:104D80005A6842F480425A60E6E78B06E4D5920600
:104D9000E2D52046FFF718FEDEE723682048102200
:104DA000DA61616C626B41F004018242616425D07A
:104DB0001C498A4222D01C498A420CBF6022202210
:104DC00019680A431A609A69910744BF00229A62DF
:104DD0009A69D207C0D49A6942F001029A61BBE78E
:104DE000022038BD5B689B0103D42046FFF716FC08
:104DF000B2E740212046FFF733FDADE76022DFE751
:104E0000FF2121854FF47F0C4FF080728CE75FFA11
:104E100081FC4FEA0C4C4FF0007285E7009C00FCCF
:104E2000CD4C000851500008ED4A0008806A026825
:104E3000536843F4004310215360FFF711BD00BFD6
:104E400010B5846A21680B6823F400430B60638DFE
:104E50009BB25BB3638D626A208D9BB20244FF2BD1
:104E600062620ED8608D80B2034620852431E06BEB
:104E7000FEF7E0FD40B120461021BDE81040FFF7ED
:104E8000EFBCFF231846F0E7636B144A93421DD032
:104E9000134A93421AD0134A9B1AB3FA83F35B095D
:104EA0009B0121680A6813430B6010BD636B0B4ABA
:104EB00093420DD00A4A93420AD00A4A93420CBF49
:104EC000602320230A6813430B6010BD4023E8E7EA
:104ED0000A68602313430B6010BD00BFCD4C00086F
:104EE00051500008ED4A000870B5036804460D46AD
:104EF000186894F8411020222129DA610AD0CAB238
:104F0000223A082A0ED8DFE802F0880D0D0D0D0DAB
:104F10009105880094F841201A6822F0FA021A607C
:104F2000212222635A68484942F400425A605A6872
:104F30000A405A609A69910744BF00229A629A69AE
:104F4000D20703D49A6942F001029A61460437D528
:104F50001A68A16B22F480421A6019B10A6852687B
:104F600092B262856A070AD5626A5B6A1370636AE5
:104F7000228D013325F004056362002A38D1638D48
:104F80009BB21BB1636C43F004036364002384F899
:104F90004230666C6363002E31D1E36A2B4DAB4225
:104FA00018D194F8413084F84060222B4FF0200350
:104FB00084F841302046266343D0FFF76BFB70BD79
:104FC0000104CFD51A68E16B22F400421A6000296F
:104FD000C4D1C7E72046FFF761FB2023E56284F8D0
:104FE000406084F8413020462663FFF7DBFB70BD4C
:104FF000638D013B013A9BB222856385BFE7616CFB
:105000002046FFF72DFC94F84130282BD7D12946B4
:105010002046BDE87040FFF7C7BB94F841201A68EE
:1050200022F0FC021A60222222637BE794F84120DE
:1050300094F841201A6822F0FE021A6000222263CE
:1050400070E7FFF729FB70BD00E800FE0000FFFFDE
:10505000F8B590F84030C66A012B7AD01746012384
:105060008A0604460D4680F8403001D5BB0645D47B
:10507000E80635D5F90633D517F4404F43D0E36B36
:10508000002B47D03A0445D51B685B68002B41D103
:10509000A36B1BB1790401D51B685B6894F84130A0
:1050A000282B66D094F84130292B23684FF010024A
:1050B000DA6111D116F5803F0ED09A69970744BF87
:1050C00000229A629A69D60703D49A6942F00102D3
:1050D0009A612046FFF7E2FA002084F84000F8BD0C
:1050E0002D07F9D53807F7D594F8413003F0280398
:1050F000282B3AD023680822DA61EDE7FFF7F4FEA7
:10510000E806EDD5B6E7236810220020DA6184F8BE
:105110004000E4E7A36B2BB17A0403D51B685B68FE
:10512000002BBBD023681022DA61636C43F00403C8
:10513000636494F8413036F08072DBB2CCD1213B0D
:10514000092B0AD8DFE803F0070E09090909090944
:10515000070E0220F8BD21232363616C2046FFF770
:105160007FFBB9E722232363F7E72046FFF7E8FA3E
:10517000B2E7B6F1007F95D129462046FFF714FB30
:10518000AAE700BFF8B590F84030C66A012B6FD08F
:10519000174601238A0604460D4680F8403001D5A3
:1051A000BB0647D4EA0615D5FB0613D5638D9BB223
:1051B000002B44D194F84130282B79D094F8413019
:1051C000292B23684FF01002DA6161D0002084F8A7
:1051D0004000F8BD6A0712D4280701D539073DD42D
:1051E000AA07F3D5BB07F1D5638D9BB2002B41D144
:1051F00036F08073EAD12046FFF750FAE6E77B07E6
:10520000EAD5638D9BB26BB12268636A526A1A70E9
:10521000638D616A228D013B0131013A9BB261626B
:1052200022856385638D9BB2002BCFD116F5803F1D
:10523000CCD0E0E7FFF758FEEA06CBD5B4E7236809
:105240001022DA61636C43F00403636436F0807308
:10525000BCD1616C2046FFF703FBB7E794F84130FF
:1052600003F02803282B2BD023680822DA61ADE74E
:105270000220F8BD616A236811F8012B9A62638DE0
:10528000228D6162013B9BB2013A638522859DE7D5
:1052900016F5803F9AD09A69900744BF00229A621F
:1052A0009A69D107A7D49A6942F001029A61A2E7EC
:1052B000B6F1007F82D129462046FFF775FA85E7CF
:1052C0002046FFF73DFA81E790F84120202A23D1BC
:1052D0005FFA82FC90F84020012A03461CD0026845
:1052E000242000B583F84100106820F00100106010
:1052F000106820F48050106010680143116011683C
:105300004FF0000E41F00101116083F841C083F8B5
:1053100040E070465DF804FB0220704790F84120A1
:10532000202A22D100B55FFA82FE90F84020012A9F
:1053300003461CD00268242083F84100106820F046
:1053400001001060106820F4706040EA01211160D3
:1053500011684FF0000C41F00101116083F841E049
:1053600083F840C060465DF804FB022070470220CD
:105370005DF804FB024A136843F4807313607047BE
:1053800000700040024B186800F4C060704700BF16
:1053900000700040B0F5007F0ED01C4A136803F483
:1053A000C063B3F5806F2DD0136823F4C06343F45A
:1053B000806300201360704714490B6803F4C063D6
:1053C000B3F5007F1ED00B68114A23F4C06343F489
:1053D00000730B6013680F4A322000FB03F3486927
:1053E000A2FB03239B0C400503F1010306D500E05B
:1053F00023B14A69520503F1FF33F9D4034B5B69CA
:105400005B0501D400207047032070470070004006
:105410002000002083DE1B4330B5204DAB6DDB0048
:1054200083B004461CD5FFF7ADFFB0F5007F29D04F
:10543000802C13D82FD0A4F17004B4FA84F464093A
:1054400017490B6823F0070323430B60086800F03B
:105450000700001B18BF012003B030BD0324EFE795
:10546000AB6D43F08053AB65AB6D03F0805301939C
:10547000019BFFF787FFAB6DB0F5007F23F08053F2
:10548000AB65D5D1802C04D9A02C8CBF022401247B
:10549000D6E70024D4E70224D2E700BF0010024080
:1054A00000200240284A9368D26813F00C0308D009
:1054B0000C2B38D0042B34D0082B244818BF0020E4
:1054C0007047214A1168090754BFD2F89420126826
:1054D0001F4954BFC2F30322C2F3031251F8220042
:1054E00003B30C2B2DD1184BDB6803F00303022B05
:1054F00025D0164A032B08BF1046134BD968DA682B
:10550000DB68C3F34163C2F30622C1F30211013326
:1055100000FB02F201315B00B2FBF1F2B2FBF3F0EF
:1055200070470C48704702F00302012AC9D0064BAD
:10553000DB6803F00303022B4FF00000D9D10548CC
:10554000DBE70020704700BF0010024000127A0025
:105550009CBE01080024F400002800F082822DE99E
:10556000F043944A03689568D6680446D80683B029
:1055700005F00C0506F003062ED5002D00F0238162
:105580000C2D00F01D81A3698A4F002B00F0938140
:105590003B6843F001033B60FEF764F9804606E098
:1055A000FEF760F9A0EB0800022800F294813B6846
:1055B0009B07F5D53B6843F008033B603B68226AD4
:1055C00023F0F00313433B607B68E26923F47F43DD
:1055D00043EA02237B602368D90700F1C280990760
:1055E00023D5042D00F057810C2D00F05181E36884
:1055F000704E002B00F0D981336843F48073336020
:10560000FEF730F9074605E0FEF72CF9C01B02282B
:1056100000F2618133685B05F6D57368226923F077
:10562000F85343EA026373602368190719D5636965
:10563000604E002B00F01881D6F8943043F001033F
:10564000C6F89430FEF70EF9074605E0FEF70AF9B2
:10565000C01B022800F23F81D6F894309A07F5D596
:1056600023685E073FD5534B9A6DD00000F19B81B4
:105670009A6D42F080529A659B6D03F080530193BE
:10568000019B01264C4F3B68D90540F1F781A36887
:10569000012B00F09C81052B00F01B82454FD7F8B1
:1056A000902022F00102C7F89020D7F8902022F035
:1056B0000402C7F89020002B40F09081FEF7D2F84A
:1056C00041F28839804606E0FEF7CCF8A0EB0800EE
:1056D000484500F20081D7F890309807F4D4002EA6
:1056E00040F0DE812368990618D5636A314E002B9D
:1056F00000F0A281D6F8983043F00103C6F8983044
:10570000FEF7B0F8074605E0FEF7ACF8C01B02282C
:1057100000F2E180D6F898309A07F5D5A36A002BFD
:1057200000F03F81022B00F0EF800C2D00F08C8008
:10573000204C236823F080732360FEF793F805461E
:1057400005E0FEF78FF8401B022800F2C4802368B2
:1057500013F00073F5D1E168184A0A401846E26078
:1057600073E0082D76D00C2D72D06368B3F5803FBE
:1057700000F0B580B3F5A02F00F09E810D4F3A6880
:1057800022F480323A603A6822F480223A60002B98
:1057900040F0AA80FEF766F8804606E0FEF762F861
:1057A000A0EB0800642800F296803B689803F5D4CB
:1057B000236814E70010024000700040FCFFEEFE7A
:1057C000012E7FF4E0AEA84B1B68990739D4A64B95
:1057D000206A1A68120756BFD3F894301B681B0959
:1057E00003F0F003984200F20F819F4B1A6842F0D9
:1057F00008021A601A6822F0F00202431A605A681E
:10580000E16922F47F4242EA01225A60002D00F051
:105810004D81FFF747FE944B944A9B68C3F30313F3
:10582000D35C934A03F01F0320FA03F31068914AF4
:105830001360FDF75DFC40B92368D9077FF5CFAE53
:105840008FE7A369002BC2D1012003B0BDE8F0832C
:10585000032E8AD1844A126892037FF5C0AE626833
:10586000002A7FF4BCAEEFE7D6F8943023F00103B2
:10587000C6F89430FDF7F6FF074604E0FDF7F2FFA7
:10588000C01B022827D8D6F894309B07F6D4E7E649
:10589000022E7FF4ACAE744A1268520502D5E2685B
:1058A000002AD1D0704920694A6822F0F85242EAB1
:1058B00000624A60B9E63B6823F001033B60FDF7F4
:1058C000D1FF80463B689807B6D5FDF7CBFFA0EB2C
:1058D00008000228F6D9032003B0BDE8F083624A2D
:1058E000136843F480331360FDF7BCFFDFF8788161
:1058F000074604E0FDF7B6FFC01B6428EBD8D8F8D4
:1059000000309B03F6D553E7574EE26AF36803F085
:105910000301914200F0EB800C2D95D0524D2B6885
:105920005E0191D42B6823F080732B60FDF79AFF02
:10593000064604E0FDF796FF801B0228CBD82B68B3
:105940009801F7D4E9684C4BE26A206B464E0B4055
:105950001343D4E90D1243EA012343EAC263D4E9B5
:105960000F120138490843EA00130139520843EA8B
:105970004153013A43EA4263EB602B6843F0807382
:105980002B60EB6843F08073EB60FDF76BFF044620
:1059900004E0FDF767FF001B02289CD833689901DB
:1059A000F7D5002051E700266CE6336823F48073B6
:1059B0003360FDF757FF074604E0FDF753FFC01BB8
:1059C000022888D833685805F7D423682DE6264A7C
:1059D000D2F8903043F00103C2F89030FDF742FF57
:1059E000DFF88480074641F2883905E0FDF73AFF89
:1059F000C01B48453FF66FAFD8F890309B07F5D5F0
:105A0000002E3FF46FAE4BE0FFF706FD00287FF459
:105A10001BAF154B1A6842F008021A601A68216A17
:105A200022F0F0020A431A605A68E16922F47F42C8
:105A300042EA01225A60ECE6D6F8983023F00103DE
:105A4000C6F89830FDF70EFF074605E0FDF70AFFA0
:105A5000C01B02283FF63FAFD6F898309B07F5D41D
:105A60005CE60120704700BF0010024084BE0108C0
:105A700028000020200000208C809D013B6843F41A
:105A800080733B60FDF7EEFE80463B68DA053FF52C
:105A9000FEADFDF7E7FEA0EB08000228F5D91AE7F6
:105AA000344A936D23F0805393651BE6FFF7B4FCF3
:105AB00000283FF4AEAEC7E603F18043A3F53C33C4
:105AC0001A6842F480221A601A6842F480321A601E
:105AD0000AE7284BD3F8902042F00402C3F8902044
