:020000040800F2
:10000000000001202D3E00080536000809360008D2
:100010002D36000831360008353600080000000093
:1000200000000000000000000000000001BA00080D
:10003000393600080000000051BA0008B18A0008F3
:100040007D3E00087D3E00087D3E00087D3E0008A4
:100050007D3E00087D3E00087D3E00087D3E000894
:100060007D3E00087D3E00087D3E00087D3E000884
:100070007D3E00083D3600087536000881360008D0
:1000800099360008B13600087D3E00087D3E000824
:100090007D3E00087D3E00087D3E00087D3E000854
:1000A000C9360008D9360008213700082D37000866
:1000B0003937000800000000000000006937000820
:1000C0008137000800000000000000008D370008A4
:1000D0000000000099370008B13700080000000058
:1000E0007D3E00087D3E000800000000000000008A
:1000F0000000000000000000000000000000000000
:100100000000000000000000000000007D3E00082C
:100110000000000000000000C9370008E1370008B7
:100120007D3E00087D3E00087D3E00080538000841
:100130007D3E0008000000000000000000000000FC
:100140007D3E00087D3E00087D3E00087D3E0008A3
:1001500021380008493800087D3E00087D3E00082F
:10016000713800087D3E00087D3E00080000000058
:100170007D3E00087D3E00080000000000000000F9
:0C0180007D3E00087D3E00087D3E00082A
:1001900010B5054C237833B9044B13B10448AFF3C1
:1001A00000800123237010BD2831002000000000D2
:1001B0004C11020808B5034B1BB103490348AFF3C8
:1001C000008008BD000000002C3100204C11020806
:1001D000F0B400EB4003DFF8880000EBC30000F14F
:1001E00018063069F7687568874232D3B368DC1B3C
:1001F000631E934214D37D19D01900BF11F8013B3F
:1002000005F8013B013A05D011F8013B05F8013B27
:10021000013AF3D1BFF35F8FF0600120F0BC70476B
:10022000C018904219D37819121B11F8013B00F83D
:10023000013B013CF9D1141C05D011F8013B05F834
:10024000013B013AF9D1BFF35F8FF4600120F0BCAC
:100250007047C01B01389042CDD20020F0BC7047DF
:10026000D853002010F8012B11F8013B012A28BFB8
:100270009A42F7D0D01A704700000000000000003A
:1002800001F0FF01102A2BDB10F0070F08D010F847
:10029000013B013A8B422DD010F0070F42B3F6D14B
:1002A000F0B441EA012141EA014122F007047FF064
:1002B00000070023F0E80256083C85EA010586EABB
:1002C000010685FA47F5A3FA87F586FA47F6A5FAF7
:1002D00087F68EB9EED1F0BC01F0FF0102F0070203
:1002E00032B110F8013B013A83EA010313B1F8D1AE
:1002F0000020704701387047002D06BF354603388F
:10030000073815F0010F07D1013015F4807F02BFC7
:10031000013015F4C03F0130F0BC0138704700BF18
:10032000034613F8012B002AFBD1181A0138704735
:1003300081F0004102E000BF83F0004330B54FEA96
:1003400041044FEA430594EA050F08BF90EA020F03
:100350001FBF54EA000C55EA020C7FEA645C7FEA96
:10036000655C00F0E2804FEA5454D4EB5555B8BFB9
:100370006D420CDD2C4480EA020281EA030382EA2A
:10038000000083EA010180EA020281EA0303362DBC
:1003900088BF30BD11F0004F4FEA01314FF4801C8F
:1003A0004CEA113102D0404261EB410113F0004FA1
:1003B0004FEA03334CEA133302D0524263EB430358
:1003C00094EA050F00F0A780A4F10104D5F1200EF6
:1003D0000DDB02FA0EFC22FA05F2801841F1000151
:1003E00003FA0EF2801843FA05F359410EE0A5F125
:1003F00020050EF1200E012A03FA0EFC28BF4CF056
:10040000020C43FA05F3C01851EBE37101F000450B
:1004100007D54FF0000EDCF1000C7EEB00006EEB18
:100420000101B1F5801F1BD3B1F5001F0CD34908A2
:100430005FEA30004FEA3C0C04F101044FEA4452F9
:1004400012F5800F80F09A80BCF1004F08BF5FEA80
:10045000500C50F1000041EB045141EA050130BD60
:100460005FEA4C0C404141EB0101013C28BFB1F572
:10047000801FE9D291F0000F04BF01460020B1FABD
:1004800081F308BF2033A3F10B03B3F120020CDA90
:100490000C3208DD02F1140CC2F10C0201FA0CF06E
:1004A00021FA02F10CE002F11402D8BFC2F1200CD3
:1004B00001FA02F120FA0CFCDCBF41EA0C01904089
:1004C000E41AA2BF01EB0451294330BD6FEA0404D2
:1004D0001F3C1CDA0C340EDC04F11404C4F12002BD
:1004E00020FA04F001FA02F340EA030021FA04F3CF
:1004F00045EA030130BDC4F10C04C4F1200220FA26
:1005000002F001FA04F340EA0300294630BD21FA63
:1005100004F0294630BD94F0000F83F4801306BF29
:1005200081F480110134013D4EE77FEA645C18BF1D
:100530007FEA655C29D094EA050F08BF90EA020FB4
:1005400005D054EA000C04BF1946104630BD91EAAC
:10055000030F1EBF0021002030BD5FEA545C05D1AF
:100560004000494128BF41F0004130BD14F58004EE
:100570003CBF01F5801130BD01F0004545F0FE4162
:1005800041F470014FF0000030BD7FEA645C1ABF97
:10059000194610467FEA655C1CBF0B46024650EACE
:1005A000013406BF52EA033591EA030F41F40021FA
:1005B00030BD00BF90F0000F04BF0021704730B580
:1005C0004FF4806404F132044FF000054FF0000155
:1005D00050E700BF90F0000F04BF0021704730B516
:1005E0004FF4806404F1320410F0004548BF4042EB
:1005F0004FF000013EE700BF42004FEAE2014FEA40
:1006000031014FEA02701FBF12F07F4393F07F4F1A
:1006100081F06051704732F07F4208BF704793F01D
:100620007F4F04BF41F40021704730B54FF4607430
:1006300001F0004521F000411CE700BF50EA010233
:1006400008BF704730B54FF000050AE050EA0102DC
:1006500008BF704730B511F0004502D5404261EB4C
:1006600041014FF4806404F132045FEA915C3FF48D
:10067000D8AE4FF003025FEADC0C18BF03325FEA2A
:10068000DC0C18BF033202EBDC02C2F1200300FADB
:1006900003FC20FA02F001FA03FE40EA0E0021FA00
:1006A00002F11444BDE600BF70B54FF0FF0C4CF4EE
:1006B000E06C1CEA11541DBF1CEA135594EA0C0FA0
:1006C00095EA0C0F00F0DEF82C4481EA030621EADB
:1006D0004C5123EA4C5350EA013518BF52EA033516
:1006E00041F4801143F4801338D0A0FB02CE4FF0C8
:1006F0000005E1FB02E506F00042E0FB03E54FF0F8
:100700000006E1FB03569CF0000F18BF4EF0010EEF
:10071000A4F1FF04B6F5007F64F5407404D25FEAEB
:100720004E0E6D4146EB060642EAC62141EA55519E
:100730004FEAC52040EA5E504FEACE2EB4F1FD0CE0
:1007400088BFBCF5E06F1ED8BEF1004F08BF5FEA5E
:10075000500E50F1000041EB045170BD06F0004610
:1007600046EA010140EA020081EA0301B4EB5C04BD
:10077000C2BFD4EB0C0541EA045170BD41F48011B5
:100780004FF0000E013C00F3AB8014F1360FDEBFDA
:10079000002001F0004170BDC4F10004203C35DAB6
:1007A0000C341BDC04F11404C4F1200500FA05F339
:1007B00020FA04F001FA05F240EA020001F00042DA
:1007C00021F0004110EBD37021FA04F642EB060150
:1007D0005EEA430E08BF20EAD37070BDC4F10C047A
:1007E000C4F1200500FA04F320FA05F001FA04F23E
:1007F00040EA020001F0004110EBD37041F100012A
:100800005EEA430E08BF20EAD37070BDC4F1200534
:1008100000FA05F24EEA020E20FA04F301FA05F29C
:1008200043EA020321FA04F001F0004121FA04F244
:1008300020EA020000EBD3705EEA430E08BF20EA14
:10084000D37070BD94F0000F0FD101F0004640004E
:1008500041EB010111F4801F08BF013CF7D041EAD0
:10086000060195F0000F18BF704703F000465200D4
:1008700043EB030313F4801F08BF013DF7D043EAA5
:100880000603704794EA0C0F0CEA135518BF95EA5B
:100890000C0F0CD050EA410618BF52EA4306D1D1E2
:1008A00081EA030101F000414FF0000070BD50EA01
:1008B000410606BF1046194652EA430619D094EA8B
:1008C0000C0F02D150EA013613D195EA0C0F05D175
:1008D00052EA03361CBF104619460AD181EA0301C9
:1008E00001F0004141F0FE4141F470014FF0000081
:1008F00070BD41F0FE4141F4780170BD70B54FF01C
:10090000FF0C4CF4E06C1CEA11541DBF1CEA13559B
:1009100094EA0C0F95EA0C0F00F0A7F8A4EB05047D
:1009200081EA030E52EA03354FEA013100F0888074
:100930004FEA03334FF0805545EA131343EA12633D
:100940004FEA022245EA111545EA10654FEA0026F2
:100950000EF000419D4208BF964244F1FD0404F5AB
:10096000407402D25B084FEA3202B61A65EB030507
:100970005B084FEA32024FF480104FF4002CB6EBC4
:10098000020E75EB030E22BFB61A754640EA0C0044
:100990005B084FEA3202B6EB020E75EB030E22BF84
:1009A000B61A754640EA5C005B084FEA3202B6EBC5
:1009B000020E75EB030E22BFB61A754640EA9C0084
:1009C0005B084FEA3202B6EB020E75EB030E22BF54
:1009D000B61A754640EADC0055EA060E18D04FEA12
:1009E000051545EA16754FEA06164FEAC30343EAB2
:1009F00052734FEAC2025FEA1C1CC0D111F4801F7F
:100A00000BD141EA00014FF000004FF0004CB6E777
:100A100011F4801F04BF01430020B4F1FD0C88BF16
:100A2000BCF5E06F3FF6AFAEB5EB030C04BFB6EB21
:100A3000020C5FEA500C50F1000041EB045170BD14
:100A40000EF0004E4EEA113114EB5C04C2BFD4EB41
:100A50000C0541EA045170BD41F480114FF0000EC5
:100A6000013C90E645EA060E8DE60CEA135594EA41
:100A70000C0F08BF95EA0C0F3FF43BAF94EA0C0F44
:100A80000AD150EA01347FF434AF95EA0C0F7FF4B9
:100A900025AF104619462CE795EA0C0F06D152EA0D
:100AA00003353FF4FDAE1046194622E750EA4106F1
:100AB00018BF52EA43067FF4C5AE50EA41047FF402
:100AC0000DAF52EA43057FF4EBAE12E74FF0FF3C67
:100AD00006E000BF4FF0010C02E000BF4FF0010C38
:100AE0004DF804CD4FEA410C7FEA6C5C4FEA430CB1
:100AF00018BF7FEA6C5C1BD001B050EA410C0CBF00
:100B000052EA430C91EA030F02BF90EA020F002061
:100B1000704710F1000F91EA030F58BF994208BFC8
:100B200090422CBFD8176FEAE37040F00100704785
:100B30004FEA410C7FEA6C5C02D150EA013C07D1DC
:100B40004FEA430C7FEA6C5CD6D152EA033CD3D027
:100B50005DF8040B704700BF8446104662468C4621
:100B60001946634600E000BF01B5FFF7B7FF002854
:100B700048BF10F1000F01BD4DF808EDFFF7F4FF7D
:100B80000CBF012000205DF808FB00BF4DF808ED08
:100B9000FFF7EAFF34BF012000205DF808FB00BF2B
:100BA0004DF808EDFFF7E0FF94BF012000205DF84D
:100BB00008FB00BF4DF808EDFFF7CEFF94BF012002
:100BC00000205DF808FB00BF4DF808EDFFF7C4FFFB
:100BD00034BF012000205DF808FB00BF4FEA410C44
:100BE0007FEA6C5C02D150EA013C0AD14FEA430C27
:100BF0007FEA6C5C02D152EA033C02D14FF0000064
:100C000070474FF0010070474FEA4102B2F1E043F4
:100C100024BFB3F5001CDCF1FE5C0DD901F0004CE3
:100C20004FEAC0024CEA5070B2F1004F40EB830033
:100C300008BF20F00100704711F0804F21D113F15F
:100C40003872BCBF01F00040704741F480114FEA98
:100C50005252C2F11802C2F1200C10FA0CF320FA21
:100C600002F018BF40F001004FEAC1234FEAD3233E
:100C700003FA0CFC40EA0C0023FA02F34FEA4303A8
:100C8000CCE77FEA625307D150EA01331EBF4FF031
:100C9000FE4040F44000704701F0004040F0FE404C
:100CA00040F40000704700BF7BB972B90029BEBF95
:100CB00000204FF0004106E008BF00281CBF6FF085
:100CC00000414FF0FF3000F0B5B9ADF1080C6DE90F
:100CD00004CE002909DB002B1ADB00F04DF8DDF80B
:100CE00004E0DDE9022304B07047404261EB4101BA
:100CF000002B1BDB00F040F8DDF804E0DDE9022307
:100D000004B0404261EB4101524263EB4303704740
:100D1000524263EB430300F02FF8DDF804E0DDE915
:100D2000022304B0404261EB41017047524263EB41
:100D3000430300F021F8DDF804E0DDE9022304B00C
:100D4000524263EB4303704753B94AB9002908BFC5
:100D500000281CBF4FF0FF314FF0FF3000F06AB9A0
:100D6000ADF1080C6DE904CE00F006F8DDF804E002
:100D7000DDE9022304B070472DE9F047089D0C46D9
:100D8000002B4ED194468C458646B2FA82F262D947
:100D90004AB1C2F12003914020FA03F30CFA02FC9D
:100DA000194300FA02FE4FEA1C471FFA8CF6B1FB0A
:100DB000F7F44FEA1E4307FB141143EA014304FB17
:100DC00006F199420AD91CEB030304F1FF3080F0CD
:100DD0001281994240F20F81023C6344591A1FFA72
:100DE0008EF3B1FBF7F007FB101143EA014300FB60
:100DF00006F69E420AD91CEB030300F1FF3180F096
:100E0000FC809E4240F2F980634402389B1B40EA1A
:100E1000044000211DB1D3400022C5E90032BDE8E5
:100E2000F0878B4205D90DB1C5E9000100210846C4
:100E3000F5E7B3FA83F1002946D1A34202D39042E9
:100E4000C0F0F080861A64EB03030120002DE6D089
:100E5000C5E90063E3E7002A40F09080A1EB0C04B1
:100E60004FEA1C481FFA8CF70121B4FBF8F64FEA51
:100E70001E4308FB164443EA044307FB06F098426E
:100E800008D91CEB030306F1FF3402D2984200F2AA
:100E9000CD8026461C1A1FFA8EF3B4FBF8F008FB2F
:100EA000104443EA044300FB07F79F4208D91CEBB8
:100EB000030300F1FF3402D29F4200F2B0802046CB
:100EC000DB1B40EA0640A5E7C1F120068B4022FA71
:100ED00006F71F4320FA06FC04FA01F343EA0C0369
:100EE000F44000FA01F8380C4FEA1349B4FBF0FE65
:100EF0001FFA87FC00FB1E4449EA04440EFB0CF970
:100F0000A14502FA01F20AD93C190EF1FF3A80F02C
:100F10008480A14540F28180AEF1020E3C44A4EBF6
:100F200009041FFA83F9B4FBF0F300FB134449EA08
:100F3000044403FB0CFCA44507D93C1903F1FF3022
:100F400067D2A44565D9023B3C4443EA0E40A0FB6E
:100F50000293A4EB0C049C42CE469C4651D34ED047
:100F600055B1B8EB0E0364EB0C0404FA06F6CB4063
:100F70001E43CC40C5E90064002150E7C2F12003C4
:100F800020FA03F10CFA02FC24FA03F394400C4318
:100F90004FEA1C4800FA02FE1FFA8CF7B3FBF8F088
:100FA00008FB1031230C43EA014300FB07F199428F
:100FB00008D91CEB030300F1FF362CD299422AD941
:100FC000023863445B1AA4B2B3FBF8F108FB113397
:100FD00044EA034401FB07F3A34208D91CEB0404D1
:100FE00001F1FF3613D2A34211D902396444E41A45
:100FF00041EA004139E70446F0E6084606E7C845FD
:10100000AED2B9EB020E63EB070C0138A8E731460C
:10101000EDE7034699E73046D4E7D6467FE76344D9
:1010200002384DE70646234608460FE7023E634472
:1010300030E700BF704700BF38B503690E4C186831
:1010400059689A680D4D07C40D484FF0FF3300688A
:101050000122A4F10C0108F021F8286807F0E4FE51
:1010600030B9084B01211868BDE8384007F0BABD17
:10107000286807F0B9FEF4E744310020D03400209E
:10108000F0350020F835002010B586B001230A2283
:1010900000200DF11704CDE901328DF817000094FE
:1010A00024487522D02103F069FC9DF81730682B85
:1010B00000D198B301230A22CDE901321D480094E2
:1010C0000022D02103F05AFC9DF81730EA2B00D102
:1010D00048B301230A22CDE9013216480094752253
:1010E000D22103F04BFC9DF81730682B00D1A0B142
:1010F00001230A22CDE901320E4800940022D221B8
:1011000003F03CFC9DF81730EA2B02D0002006B01B
:1011100010BD0028FAD1692306E06923064A682039
:1011200082F89430F3E76823034AEA2082F8943087
:10113000EDE700BFB83C0020143200202DE9F0415B
:10114000264F274897F8941086B0012407230A26D3
:101150000DF117058DF81730CDE901460095A14036
:101160002346192203F00AFB18B1002006B0BDE89F
:10117000F081CDE90146009597F8941018484FF09A
:101180000808490023461C228DF8178003F0F6FA60
:101190000028EAD1CDE90146009597F8941010484F
:1011A0008DF81780490023461B2203F0E7FA844696
:1011B0000028DAD197F8941009480095CDE9014646
:1011C00023466B2249008DF817C003F0D7FAB0FA16
:1011D00080F0400906B0BDE8F08100BF1432002065
:1011E000B83C0020000000002DE9F04F2DED028BEF
:1011F000C74C2588680589B05BD429041AD5B4F991
:101200000430C44A06EE903AB4F9063007EE903A3C
:10121000B4F90830F8EEE66A07EE103ABE4BF8EE85
:10122000E77AC3ED006AB8EEC77ABC4B82ED007A6C
:10123000C3ED007A6A041AD5B4F90A30B84A06EE4A
:10124000903AB4F90C3007EE903AB4F90E30F8EE5B
:10125000E66A07EE103AB34BF8EEE77AC3ED006AA0
:10126000B8EEC77AB04B82ED007AC3ED007AAB04DA
:101270001AD5B4F91630AD49AD4A06EE903AB4F934
:10128000183007EE103AB4F91A3007EE903AF8EE3B
:10129000E66AB8EEC77AA74BC1ED006AF8EEE77AC6
:1012A00082ED007AC3ED007A09B0BDEC028BBDE897
:1012B000F08F206BFFF78EF900229F4BFFF7F4F9B8
:1012C0009E4B82468B46C3E900AB606BFFF782F909
:1012D0000022994BFFF7E8F9994B80468946C3E90C
:1012E0000089A06BFFF776F9934B0022FFF7DCF93A
:1012F000944BCDE90001C3E9000152465B465046DC
:101300005946FFF7D1F9424606460F464B4640463E
:101310004946FFF7C9F9CDE90201DDE900010246BE
:101320000B46FFF7C1F9DDE90223CDE904013046A0
:101330003946FFF703F8DDE90423FEF7FFFF024615
:101340000B4600208049FEF7F7FF41EC100B1DF023
:1013500081FF7E4BDDE9020183ED000B8DED020B79
:10136000FFF752FCFFF748F902460B463046394674
:10137000CDE90623FEF7E2FF02460B46FEF7DEFF4D
:1013800002460B4600207049FEF7D6FFFFF73CFCF3
:10139000DDE9022308EE100A59465046FFF784F9AA
:1013A000DDE9002306460F4640464946FFF77CF933
:1013B00002460B4630463946FEF7C0FF02460B4652
:1013C000FEF7BCFFFFF720FCF0EE480A00EE100A23
:1013D0001DF098FF10EE100AFFF70EF95C4B00228B
:1013E000FFF762F948A3D3E90023FFF787FAFFF775
:1013F0000BFC584B49461860DDE902234046FFF7D5
:1014000053F9DDE9002306460F4650465946FFF7DB
:101410004BF902460B4630463946FEF78DFF024631
:101420000B46FEF78BFFFFF7EFFB00EE100AF7EE1F
:10143000007AB4EEE70AF1EE10FA5ADDB0EE670A70
:101440001DF034FF10EE100AFFF7D6F8404B424E65
:101450000022FFF729F92CA3D3E90023FFF74EFA66
:10146000FFF7D2FBDDE906233060DDE90401FEF77A
:1014700065FF02460B46FEF761FF02460B46002061
:101480003149FEF759FFFFF7BFFBDDE9022308EE04
:10149000100ADDE90001FFF707F942464B46064610
:1014A0000F4650465946FFF7FFF802460B463046B6
:1014B0003946FEF743FF02460B46FEF73FFFFFF7B4
:1014C000A3FBF0EE480A00EE100A1DF01BFF10EE21
:1014D000100AFFF791F81E4B0022FFF7E5F80AA368
:1014E000D3E90023FFF70AFAFFF78EFB1B4B1860C6
:1014F00083E6FFEE007AB4EE670AF1EE10FA48BF19
:10150000B0EE670A9CE700BF182D4454FB21094048
:1015100014320020803100208831002084310020E6
:10152000743100207C31002078310020703100209F
:101530006C310020683100200000103EA8310020EE
:10154000A0310020983100200000F03FB031002091
:101550000080664094310020903100208C310020C2
:1015600001480DF06BBA00BFB831002030B55E48BD
:1015700083B0041D01250DF07BFB20468DF807503C
:101580000CF0EAFE9DF807302A46002814BF00231D
:1015900003F00103122120468DF807300CF0B6FE4F
:1015A0009DF807302A46002814BF002303F00103EA
:1015B000032120468DF807300CF0A8FE9DF8073077
:1015C0002A46002814BF002303F00103022120460D
:1015D0008DF807300CF09AFE9DF807302A46002857
:1015E00014BF002303F00103042120468DF80730C7
:1015F0000CF08CFE9DF807300022904214BF0023AF
:1016000003F00103A82120468DF807300CF08AFE74
:101610009DF807300022904214BF002303F001031D
:10162000BE2120468DF807300CF07CFE9DF8073077
:101630000022904214BF002303F00103BA21204688
:101640008DF807300CF06EFE9DF8073000229042B6
:1016500014BF002303F00103B62120468DF80730A4
:101660000CF060FE9DF807302946002814BF0023C7
:1016700003F0010320468DF807300CF023FE9DF89F
:1016800007302946002814BF002303F00103204639
:101690008DF807300CF026FE9DF807300246002A30
:1016A00014BF002303F0010320468DF807300CF02F
:1016B00025FE9DF807300246002A14BF002303F0E0
:1016C000010320468DF807300CF004FE9DF807302A
:1016D0000246002A14BF002303F0010328468DF8B8
:1016E000073003B030BD00BFB8310020000000005B
:1016F0002DE9F04F2DED028B8BB008234FF4A07233
:1017000000218B488DF8173004248DF816401EF008
:1017100019FE7822002187481EF014FEFFF7B4FC62
:101720006828039000F0D281EA2801D1FFF71EFF5C
:1017300007F00AFADFF850B27F4EDFED808A9FEDA6
:10174000808A7B4DDFF844A281462AE096F84C302F
:10175000002B40F0988106A9002002F021FB069B97
:101760002B604FF0FF31089BDAF800006B6007F048
:10177000F7FB744B002218680DF116014FF0FF3390
:1017800007F08CFCDAF8000007F020FC09F11409DE
:101790004FF0FF3201210C2007F06EFA484607F0A7
:1017A000CDFA039B682B00F0F380EA2BCED1DFF853
:1017B000D481654F414638460CF0C2FDFFF714FD59
:1017C00096F84C400C2CF5D0002C40F05C815F4B1F
:1017D000584F1868FEF710FF5D4B0022FEF764FFBC
:1017E0004FA3D3E90023FEF75FFF5A4BC5E9380149
:1017F0001868FEF701FF564B0022FEF755FF48A37D
:10180000D3E90023FEF750FF534BC5E93A011868AE
:10181000FEF7F2FE4E4B0022FEF746FF40A3D3E94F
:101820000023FEF741FF4D4BC5E93C011868FEF768
:10183000E3FE3DA3D3E90023FFF760F8484BC5E979
:1018400020011868FEF7D8FE37A3D3E90023FFF77D
:1018500055F8444BC5E922011868FEF7CDFE32A3C6
:10186000D3E90023FFF74AF83F4BC5E92401186884
:101870003E4BD3E90023C5E906233D4BD3E90023C2
:10188000C5E908233B4BD3E90023C5E90A233A4BBA
:10189000D3E90023C5E90C23FEF7AEFE374BC7E9B9
:1018A00006011868FEF7A8FE354BC7E9080118685D
:1018B000FEF7A2FEC7E90A0106A9204602F070FA67
:1018C000069B2B604FF0FF31089BDAF800006B603D
:1018D00007F046FB1B4B224618680DF116014FF02E
:1018E000FF3307F0DBFBDAF8000007F06FFB95E849
:1018F0000300104B83E80300DAF800004FF0FF31DB
:1019000007F02EFB0F4B002218680DF117014FF066
:10191000FF3307F0C3FBDAF8000007F057FB35E7A9
:101920001F85EB51B89E23400AD7A3703D6240400B
:101930007800001000000010B83100200000AA4319
:10194000B81E124238350020BC31002088310020FA
:101950000000203F84310020803100207C310020B5
:10196000783100207431002070310020B031002027
:10197000A8310020A0310020983100206C310020D7
:101980006831002014320020503100204433002000
:10199000554BCDF800B093F8941054480E230193A2
:1019A000490001233B2203F081F996F84C30002BCB
:1019B00069D14D4ABBF800001361C2E90033C2E9A6
:1019C00002335361C0BA1446FEF704FE484B0022AE
:1019D000FEF76AFE40A3D3E90023FEF765FEC5E9E2
:1019E0003801BBF80200C0BAFEF7F4FD404B0022FC
:1019F000FEF75AFE38A3D3E90023FEF755FEC5E9EA
:101A00003A01BBF80400C0BAFEF7E4FD384B0022EF
:101A1000FEF74AFE30A3D3E90023FEF745FEC5E9F1
:101A20003C01BBF80800C0BAFEF7D4FD2CA3D3E9F3
:101A30000023FEF763FFC5E92001BBF80A00C0BA26
:101A4000FEF7C8FD26A3D3E90023FEF757FFC5E93B
:101A50002201BBF80C00C0BAFEF7BCFD20A3D3E9FD
:101A60000023FEF74BFFBBF80630DBBA07EE903AD7
:101A7000F8EEE77AC5E9240187EEA87A77EE087ACE
:101A8000C4ED067A67E61B480EF08AF806A9002026
:101A900002F086F9069B2B604FF0FF31089BDAF8C5
:101AA00000006B6007F05CFA134B002218680DF120
:101AB00016014FF0FF3307F0F1FADAF8000007F0F3
:101AC00085FA039BEA2B3FF412AF5FE6FFF736FB84
:101AD0002EE600BFAFF300801F85EB51B89E234078
:101AE000000000000060504014320020B83C00208C
:101AF0000000203F901102083835002038B50569F4
:101B0000174C28686968AA68EB680FC4154908680B
:101B100021462C8A21F81049134C4FF0FF33012243
:101B200007F0BCFA206807F07FF958B90F4C20681D
:101B300007F07AF978B90E4B03211868BDE83840F0
:101B400007F050B82068094C07F04EF9206807F0FC
:101B50006BF90028EFD0206807F046F9EBE700BFEB
:101B6000AC3200209035002070340020A0340020DA
:101B7000FC3500202DE9F0472A4CDFF8CCA0DFF837
:101B8000CC90294DDFF8C880284F294E82B04FF005
:101B9000FF33206800220DF1070107F0B7FA9DF826
:101BA0000730013B072BF2D801A252F823F000BF07
:101BB0000F1C0008F91B00088F1B0008E51B00081C
:101BC0008F1B00088F1B00088F1B0008D11B00080B
:101BD0004146002238460EF0B7F92868082107F080
:101BE00001F8D4E73146002212480EF0ADF928681A
:101BF000042106F0F7FFCAE70F49104800220EF053
:101C0000A3F9D9F80000082106F0ECFFBFE70C4962
:101C10000C4800220EF098F9DAF80000082106F0CE
:101C2000E1FFB4E738350020083600206C020010D0
:101C30007800001070020010C03200207402001002
:101C40004402001068020010043600200036002014
:101C50000000001010B50021234C244805F00EFAB6
:101C60000421224805F00AFA1721204606F04AFC12
:101C7000204606F053FC2368986820F48050986052
:101C80001C6844F080641C6042F21072002107203E
:101C900006F0F2FF831C0AD0C0B2154B022883F86D
:101CA00060001AD0042811D0012808D010BD114AB4
:101CB0000F4B12680021D16093F8600010BD0D4AEF
:101CC00012681221D16093F8600010BD094A1268B1
:101CD0000321D16093F8600010BD064A1268082104
:101CE000D16093F8600010BD70370020BC3900202F
:101CF000B8010010440200102DE9F04F2DED028BC9
:101D0000954BD97D11F00C008BB00DD0934C2288EF
:101D1000013212B222801C780F2C14D000200BB09C
:101D2000BDEC028BBDE8F08F9A7A5D7A8C4C920103
:101D300042EA9502C2F30A022280884C02462280BF
:101D40001C780F2CEAD10F29E8D81C7E0094002CB7
:101D5000E4D11D7D93F805800195CDF80C809D7C24
:101D600093F806800495DC7C019D0694444693F824
:101D70001580CDF814804FEA4528069D5F7C93F8C6
:101D800010E093F80FA09E7B93F80AB093F803C07D
:101D900093F80D90CDF808C048EA4508049D93F8E3
:101DA00009C048EAD5182D0145EA1715FF0147EA91
:101DB0005E074FEA8E2E4EEA8A0EC8F30A08CDF867
:101DC0001C804EEA961EC5F30A08760146EAD9063B
:101DD000CDF818804FEA8B1993F80880DD79C7F3A6
:101DE0000A0AC6F30A06CEF30A0E49EA9C094FEA2C
:101DF0004C2CCDF810A00896B3F801A09E78CDF831
:101E000024E04CEA480C1F7993F80BE04FEA5B188A
:101E10004CEAD51C2D0148EACE0B45EA14154FEAD1
:101E2000C41E039C4FEA842848EA8708029F48EAB8
:101E30009718C8F30A08A3F82680DDF80080C5F3D8
:101E40000A055D847F01454647EAD6076AF30F0518
:101E500067F31F4525F0F8254EEA540EC3F81A50D3
:101E6000059C019F9E894546CCF30A0C69F30F053A
:101E7000A3F824C06EF31F454FEA841C93F816E0C4
:101E80004CEA970C6709049C47EACE07C64664F300
:101E90000F0E069C1F8764F31F4E079CC3F830E0AB
:101EA000C646CCF30A0C64F30F0E6CF31F4EC44607
:101EB000C6F30A066BF30F0C66F31F4C089EC3F8BB
:101EC00034E0444666F30F04099EC3F828C011F0BD
:101ED000010F66F31F4440F21377DC620CBFAC24A1
:101EE0003C4611F0020F1F495C8708BFAC2725F064
:101EF000F82504284D609F8724D0082822D01A4B4B
:101F00001A4C1D699FED1A8A11A7D7E90067023D97
:101F100004F1240834F8020FFEF75CFB3B4632461E
:101F2000FEF7C2FBFEF770FE07EE900A77EE887AA6
:101F3000A045FDEEE77A17EE903A25F8023FE9D189
:101F40000120ECE6042ADADC054A12889A70D6E70A
:101F500085EB51B81E85E33FB8010010BE3200206A
:101F600000000020D201001044020010D001001037
:101F700000C05F442DE9F04F83B001238C22002183
:101F80003D488DF807301EF0DDF9FFF763FE04468B
:101F900006F0DAFD384DDFF8ECA0384FDFF8E890B6
:101FA00080464FF0080B1E220021204606F064FEFA
:101FB000022C2DD0042C45D0012C40D0DAF8103062
:101FC00000221A605A609A60DA60CAF814B04FF0C2
:101FD000FF31386806F0C4FF4FF0FF330DF1070101
:101FE0000022D9F8000007F059F8386806F0EEFF33
:101FF0004FF0FF320121082006F03EFE95F86030D8
:10200000012BD0D008F11E08404606F097FECAE723
:1020100095F88830B5F90C60B5F804C0DAF810000E
:10202000A5F80CC05A002946AE80CAF814301EF03C
:102030004FFA2422002128461EF084F9C7E7FFF753
:102040005BFEC4E70E4EA6F1240CBCE80F000FC6E1
:102050009CE80F00B5F868C086E80F00B5F870304E
:10206000A5F8683020220021A6F15A00A5F870C01A
:102070001EF068F9ABE700BFB80100104433002040
:102080001C0200104402001038350020F8B506F09C
:102090005BFD084D084E00F59C4420340027204687
:1020A00006F04CFE32463B4628460EF02FFD143417
:1020B000F5E700BF803D002040420F002DE9F04FC2
:1020C000674B93E807008FB006AB03C302240021DF
:1020D0001A808DF811108DF80F4009AB0EA94FF63C
:1020E000FE7223F8022B8B42FBD1012006F018FE72
:1020F0005C4E0DF1220706AC0DF1110A012514F911
:10210000011B01230A31994089B20722CDE900A5BC
:10211000304602F037FD0A220346012120208DF8C7
:10212000103006F0A9FD05909DF81030012013B97C
:10213000059B202B02D0FE2304F8013C06F0F0FDA5
:10214000BC42DCD14FF0010B8DF811B0DFF81481E7
:1021500006AE27E004F10A056D00ADB201230822A6
:102160002946CDE900AB404602F00CFD0A228DF86D
:1021700010000121202006F07FFD05909DF8103011
:10218000052023B9DDF81490B9F1200F36D006F000
:10219000C7FD0EAB03EB44044FF6FF7324F8143C69
:1021A000BE4208D016F9014BA31CD3D1052006F07E
:1021B000B7FDBE42F6D12C4B09AC1D690FCC28608F
:1021C00020682A4C6960AA60EB6028614FF0FF31FB
:1021D000206806F0C5FE26480DF10F014FF0FF33D1
:1021E0000022006806F05AFF206806F0EFFE4FF06C
:1021F000FF320121082006F03FFDA7E706F090FD21
:102200000DF11203009302232946019303220123B7
:10221000144802F04BFD0A228DF8100001214846B7
:1022200006F02AFD05909DF8103013B9059B202B70
:1022300007D00EAB03EB44044FF6FF7324F8143CB5
:10224000AEE7BDF812305BBA1AB2952AADF812307B
:10225000EFDC0EAA02EB440424F8143CA0E700BF14
:10226000681102080C3D0020C032002044330020D9
:1022700038350020704700BF704700BF704700BF6F
:102280000C4B4FF4800210B5C3F8842104460A4871
:1022900004F0B0FE094A3CB11378002BFCD00023B7
:1022A000013C1370002CF7D1BDE81040024804F047
:1022B000CDBE00BF00E100E000390020F032002078
:1022C00010B598B04422002106A81EF03BF8002368
:1022D0004FF40070CDE90133CDE90333059303F0EA
:1022E0004BFD08B172B6FEE79FED157B01238DED26
:1022F000147B9FED157BCDE9113328230222102199
:10230000139306A860230E938DED0C7B069110921B
:10231000169203F011FE034608B172B6FEE70421DF
:102320000F2403220DEB0100CDE90142CDE9033377
:10233000059304F00BF908B172B6FEE718B010BDB2
:102340000700000002000000010000000000000083
:1023500080B5A2B001F0CAFDFFF7B2FFA34BD86C65
:1023600040F00400D864DC6C04F004040394039C83
:10237000DC6C44F00104DC64DC6C04F001040494C3
:10238000049CDC6C44F00204DC64DC6C04F00204A9
:102390000594059C9C6C44F001049C649C6C04F0C6
:1023A00001040194019C9C6C44F002049C649B6CAD
:1023B0008F4C03F00203002209210D200293029B9F
:1023C00001F0C8FD0D2001F001FE002207210E20C2
:1023D00001F0C0FD0E2001F0F9FD002207210F20C1
:1023E00001F0B8FD0F2001F0F1FD00220A211020BC
:1023F00001F0B0FD102001F0E9FD002202211120C2
:1024000001F0A8FD112001F0E1FD002205213B2093
:1024100001F0A0FD3B2001F0D9FD0022092144205C
:1024200001F098FD442001F0D1FD00220921452052
:1024300001F090FD452001F0C9FD6E496E4A002370
:1024400001252046C4E90012C4E90235C4E9043379
:10245000C4E90633236202F037F908B172B6FEE729
:102460000146204603F02AFC08B172B6FEE7014699
:10247000204603F04DFC034608B172B6FEE75F4804
:102480005F494FF46122C0E900120C22C0E9023317
:10249000C0E90432C0E90633C0E9083306F05AFA4D
:1024A000034690B9574C5849584A23622046C4E91C
:1024B0000012C4E90235C4E90433C4E9063302F06A
:1024C00003F9014618B172B6FEE772B6FEE7204680
:1024D00003F0F4FB014608B172B6FEE7204603F0B4
:1024E00017FC034608B172B6FEE7494C0A904F222A
:1024F0004FF08041CDE90B00CDE91700CDE919007F
:10250000CDE90700CDE90F00C4E90012169006904E
:102510000E900D9011904FF0FF322046C4E9023228
:102520002361A36105F06CF908B172B6FEE74FF4C0
:1025300080530AA920460A9304F0D2FF08B172B66C
:10254000FEE7204605F044FA08B172B6FEE7002324
:1025500018931A934FF4803260232D4816A9CDE9C1
:10256000162305F067F808B172B6FEE706900890EA
:1025700006A9274805F01EFC024608B172B6FEE720
:10258000CDE910000E90012321480F930EA905F00C
:1025900079FB08B172B6FEE71D4804220EA905F0CA
:1025A00071FB034608B172B6FEE71A48DFF86CE02B
:1025B00083610362184B4FF48056C0E900E34FF487
:1025C0000053C0E902634FF480620423C0E904238E
:1025D0004FF40043C361022343624FF48033C3626C
:1025E00006F0B8F90446D8B172B6FEE70010024012
:1025F000B83C0020005C00408129F100E836002052
:10260000004400400C3D002000540040E49CD110E8
:10261000BC39002070370020A0860100003801403E
:102620009F4D0890CDE90A00CDE90C00CDE90600E8
:10263000CDE90E00CDE91000CDE91200149001465D
:102640002C2216A81DF07EFE964B2B602846632395
:10265000C5E90144C5E90444AC61EB6005F0D0F87C
:1026600008B172B6FEE70AA928460A9604F038FFB8
:1026700008B172B6FEE7284605F036F908B172B621
:10268000FEE7089006A9284600260027CDE9066740
:1026900005F090FB034608B172B6FEE728466024B9
:1026A00032250C220EA9CDE91267CDE90E45109313
:1026B000149305F03BFA08B172B6FEE700234FF41D
:1026C00000520025764820934FF0007416A9CDE9FA
:1026D0001E45CDE91633CDE91833CDE91A32CDE9DF
:1026E0001C3305F09DFB054608B172B6FEE76E4F40
:1026F0006B4800F0F1FD4F266C4B3B604FF47A7451
:102700003846CDE91655C7E901651895FC60BD61ED
:1027100005F076F8034608B172B6FEE7384616A90A
:102720001693189305F046FB034608B172B6FEE710
:102730005F4860498360C0E90433C0E908338362BD
:102740000363082343634FF48273C0E900134FF41B
:10275000E063C3604FF400772823C0E906730723C2
:10276000C36204F0CDF9034608B172B6FEE7524DDC
:102770001893CDE91633C5E90234AB6128464F4BB7
:102780002B606E6005F03CF8034608B172B6FEE7B8
:1027900016A928461693189305F00CFB044608B1B9
:1027A00072B6FEE7284604F025FC00F0F7F806F0C4
:1027B0008DF90121424A084606F072FB414B424A1C
:1027C00018600121084606F06BFB404B404A186038
:1027D0002146012006F064FB3E4B3F4A1860012170
:1027E000084606F05DFB3D493D4B08602246214608
:1027F0003C4806F0BBFA3C493C4B08602246214667
:102800003B4806F0B3FA3B493B4B08602246214661
:102810003A4806F0ABFA3A4B3A4A18600C210120CC
:1028200006F004FC384B394A18600221012006F0FA
:10283000FDFB374B374A18600121142006F0F6FBE8
:10284000354B364A18602146354806F085F9354B38
:10285000354A18602146354806F07EF9344B354A32
:1028600018602146344806F077F9344B344A186032
:102870002146344806F070F9334B344A2146054668
:1028800033481D6006F068F9324B18600DF002FA0B
:102890000CF026FC30480DF073F906F03BF9FEE72A
:1028A000783A0020002C0140003900200010004040
:1028B0007C3B0020003001404038002000140040E4
:1028C000D012020840340020C0120208EC3300206D
:1028D000B012020898330020A012020844330020EE
:1028E0000013020875220008D0340020F0120208FC
:1028F0007D220008A0340020E0120208792200089E
:102900007034002040130208F0350020281302081C
:10291000903500201013020838350020E813020813
:102920008D2000080C360020C4130208F1160008A0
:1029300008360020A0130208751F00080436002086
:102940007C130208BD20000800360020581302083E
:10295000751B0008F4350020941102080B4A036827
:10296000934206D00A4A934202BF0A4B01221A70D0
:10297000704710B5044601F0C9FA2368044A93422F
:1029800000D010BD034B01221A7010BD004401405D
:1029900000100040F032002072B6FEE72DE9F04F43
:1029A000AFB0AC4DAC48AD4BAD4AAE49019500243B
:1029B000009001202D9426AE0EF0FEFB26A80EF00E
:1029C00001FB0FCEA84CDFF81483DFF814E3DFF827
:1029D00014C3A64F25460FC5C4E9008EC4F808C02D
:1029E00033682B602046E7600EF008FB18B92D9B7A
:1029F00043F001032D9326A826AD0EF0F1FA0FCD7A
:102A00009B4E0FC63346286843F8100900229948A8
:102A100011460EF0E1F92C902C9B002B40F0D18157
:102A2000944B954A954996480EF020FA2C902C9B91
:102A30001BB12D9B43F004032D93924E2368924DBE
:102A4000924F0420002130619847914BB3604FF0C2
:102A50000D080323F360C5F8108023680021404669
:102A600098474FF00C094FF0120B8A4BAB60C5F83A
:102A70000C90C7E905BB2368002124209847012654
:102A80003861C7E90166236800211420984723684C
:102A900038600546C0F80880002140469847DFF8B6
:102AA00048823B6828607C4A1A6000254FF00A0A79
:102AB000C3F80490C3E903B62946C8E905AA236808
:102AC000FD6014209847C8E90166C8F81000236823
:102AD0002946142098472368C8F800000746C0F824
:102AE0000890294648469847D8F8003038606B4F20
:102AF0006B491960C3E903A60B224FF0060A5A601E
:102B00002946C7E905AA2368C8F80C5048469847E3
:102B1000C7E901AA38612368294614209847236829
:102B200038608046C0F808902946484698473B6878
:102B3000C8F800000B22DFF8B4815A604FF0090991
:102B4000584A1A60C3E903A629462368FD60C8E90C
:102B50000599584698472368C8F810002946C8E9DF
:102B60000199142098470746C8F800000720294615
:102B70002368B8609847D8F800304B4A38601A602C
:102B8000C3E90396C3F804A0C8F80C500FF058FC32
:102B9000464B3B49024646480EF0A4F92C902C9B2C
:102BA0001BB12D9B43F008032D930FF003FA414B0B
:102BB0003349024640480EF095F92C902C9B1BB1EE
:102BC0002D9B43F010032D930FF00CFA3B4B2C4937
:102BD00002463B480EF086F92C902C9B1BB12D9B96
:102BE00043F010032D930FF02BFC364B2449024683
:102BF00035480EF077F92C902C9B1BB12D9B43F0A0
:102C000020032D930DF0E6F9304C20600FF030FCDE
:102C10002F4B1B49024620460EF098F92C902C9B16
:102C20001BB12D9B43F040032D930DF0D3F9294C9C
:102C300020600FF01DFC284B1149024620460EF083
:102C400085F92C902C9B002B52D02D9B43F08003B8
:102C50002D934DE0193D0008953C0008853C000887
:102C60006D3C0008E8360020603D0020653C00080F
:102C7000103E0020243E00209C6502080C1402082F
:102C8000743D002078000010000000104402001085
:102C9000981202081814020828140208583E00204E
:102CA000381402084414020884120208501402085E
:102CB000740200105C140208700200106014020814
:102CC0006C02001068140208680200106402001010
:102CD0007814020860020010801402085D3C0008AD
:102CE000613C0008693C0008C0320020743E0020AE
:102CF00002A80DF015FE902202A93A481DF0E8FB4B
:102D0000394B3A49374802220DF016FE2C902C9B85
:102D10001BB12D9B43F480732D930024344B354A13
:102D20003549304800940DF073FE2C902C9B1BB15C
:102D30002D9B43F400732D930024304B304A3149CE
:102D4000284800940DF064FE2C902C9B23BB64203B
:102D50000EF0A0FD0EF086FD48BB262001F044F9E0
:102D6000262001F053F900220521262001F0F2F877
:102D7000262001F02BF9112001F036F9112001F085
:102D800045F911200022062101F0E4F811202FB0AE
:102D9000BDE8F04F01F01AB92D9B642043F4806325
:102DA0002D930EF077FD0EF05DFD0028D5D00EF0CE
:102DB00063FD0023144AFDF777FF144BC3E90001BC
:102DC000CBE72D9B43F002032D93BFF34F8F1049A8
:102DD000104BCA6802F4E0621343CB60BFF34F8F1D
:102DE00000BFFDE7803D0020103E0020243E002073
:102DF000FD1A0008743E002064020010391000081B
:102E0000583E00206002001040420F00E0320020D7
:102E100000ED00E00400FA050E4B10B4186E40F00F
:102E2000010018661C6E83B004F001040094009C3D
:102E30009C6D44F080549C659B6D03F0805301931E
:102E4000019B00220F216FF0010003B05DF8044BDD
:102E500001F080B8001002402DE970430446A0B094
:102E6000002154220BA8CDE90611CDE908110A91E1
:102E70001DF068FA23687C4A934206D07B4A93424D
:102E800000F0838020B0BDE8708340230BA80B9333
:102E900003F0E6FC002840F0DD80754DEB6C43F05C
:102EA0000103EB64EB6C03F001030093009BEB6CFC
:102EB00043F00203EB64EB6C03F0020301934FF465
:102EC0008062042612234FF000084FF0030906A980
:102ED0004FF09040CDE906230A96019BCDE9088981
:102EE00001F0F0F94022122362480A9606A9CDE9C2
:102EF0000623CDE9088901F0E5F9AA6D5E4E5F4928
:102F000042F40012AA65AA6D316002F40012029226
:102F10000023029A052180223046C6E90113C6E942
:102F20000332C6E90533C6E9073301F07DF800280E
:102F300040F08D80524D5349E66305220023C5E9D8
:102F40000012284610218022C5E90213C5E9053385
:102F5000C5E90733B4622A6101F066F8002873D12D
:102F600000220821A5631F20AC6200F0F3FF1F20A0
:102F700001F02CF800220621202000F0EBFF202099
:102F800001F024F820B0BDE870834FF480730BA8E3
:102F90000B9303F065FC00285FD1354EF36C43F0D2
:102FA0000103F364F36C03F001030393039BF36CDD
:102FB00043F00203F364F36C03F0020304938022F2
:102FC000042512234FF000084FF0030906A94FF023
:102FD0009040CDE906230A95049BCDE9088901F0CC
:102FE00071F91022122323480A9506A9CDE9062378
:102FF000CDE9088901F066F9B26D234D234942F409
:103000000002B265B26D296002F40002059200234D
:10301000059A032180222846C5E90113C5E9033238
:10302000C5E90533C5E9073300F0FEFFC0B900224A
:1030300008214820E563AC6200F08CFF482000F0D6
:10304000C5FF20B0BDE87083FFF7A6FC88E7FFF757
:10305000A3FC6FE7FFF7A0FC1FE7FFF79DFC9CE7D1
:10306000FFF79AFCE3E700BF00540040005C00401B
:103070000010024000040048703C00206C04024034
:10308000283C002080040240E03B00203000024049
:1030900070B5274B026888B000249A42CDE90244FB
:1030A000CDE90444069401D008B070BD03F5604337
:1030B00005461A6E1F48204E42F480521A661A6E58
:1030C00002F480520092009ADA6C42F00202DA6452
:1030D000DB6C03F00203019328220223CDE90223D3
:1030E0000323059302A9019B0523069301F0EAF847
:1030F000124A0423C6E90023304610228023C6E981
:103100000224C6E90544C6E90744336100F08CFF98
:1031100058B90022052123206E65B56200F01AFF20
:10312000232000F053FF08B070BDFFF735FCF0E737
:103130000030014000040048343B002044040240B9
:1031400070B503685E4A8CB000249342CDE9064412
:10315000CDE908440A941ED0B3F1804F63D0594A98
:10316000934200F09580584A934201D00CB070BD54
:10317000564B996D41F0200199659B6D03F020033A
:103180000593372022460121059B00F0E3FE3720FE
:1031900000F01CFFEAE74D4B4D4E1A6EF46042F40E
:1031A00000621A661B6E4B4AF46103F400630193DC
:1031B0000723C6E90023102280230546B26033614D
:1031C0004FF480724FF480633046C6E905230199BD
:1031D000346200F029FF00286ED100220121C5E9E8
:1031E0000C66AE631820B56200F0B4FE182000F043
:1031F000EDFE00220F21192000F0ACFE192000F096
:10320000E5FE002205211A2000F0A4FE1A2000F09D
:10321000DDFE002205211B2000F09CFE1B2000F09B
:10322000D5FE0CB070BD03F5043301259A6D42F054
:1032300001029A659A6D02F001020292029ADA6C1A
:1032400042F00102DA64DB6C0A9503F00103039398
:1032500006A90A2202234FF09040CDE90623039BE2
:1032600001F030F8022306A920224FF09040CDE96A
:1032700007330692CDE9094501F024F822460621DC
:103280001C2000F067FE1C2000F0A0FE0CB070BDFA
:103290000E4B986D40F0100098659B6D03F0100385
:1032A0002246012104933620049B00F053FE362071
:1032B00000F08CFE0CB070BDFFF76EFB8DE700BF19
:1032C000002C01400010004000140040001002409B
:1032D000F83700204400024000B5174A016889B061
:1032E00000239142CDE90233CDE90433069302D0A5
:1032F00009B05DF804FB03F1804303F504339FED4F
:103300000C7BDA6C42F00102DA64DB6C03F001033F
:10331000019302A901234FF090408DED027B019AA9
:10332000069300F0CFFF09B05DF804FBAFF3008017
:103330000008000002000000002C01402DE970434D
:103340000446A0B0002154220BA8CDE90611CDE916
:1033500008110A911CF0F6FF2368764A934205D0C3
:10336000754A934264D020B0BDE8708301230BA856
:103370000B9303F075FA002840F0CF806F4B704D2F
:103380001A6E42F480421A661A6E02F4804201926A
:10339000019ADA6C42F00102DA64DA6C02F001029E
:1033A0000292029ADA6C42F00202DA64DB6C03F0F9
:1033B000020303934FF40072072606A94FF09040D2
:1033C00002234FF000084FF00309CDE90623CDE9B1
:1033D0000889039B0A9600F075FF80220223594852
:1033E0000A9606A9CDE90623CDE9088900F06AFF0F
:1033F000554902220023C5E90012284680212022D7
:10340000C5E90233C5E90413C5E906322B6200F0B1
:103410000BFE00287ED10022072165672520AC62C3
:1034200000F098FD252000F0D1FD20B0BDE87083AC
:1034300002230BA80B9303F013FA002870D13F4B23
:10344000424E9A6D42F400329A659A6D02F400324F
:103450000492049ADA6C42F00102DA64DB6C042014
:1034600003F001030221CDE9060105934FF00008A6
:1034700007234FF0030906A94FF09040059A0A93DD
:10348000CDE9088900F01EFF03234FF4004206A98E
:103490004FF090400A930223CDE90623CDE9088935
:1034A00000F010FF2A4902220023C6E90012802101
:1034B000C6E90233C6E904132022B36130464FF453
:1034C0004053C6E9072300F0AFFD78BB214D2249E8
:1034D00066670222C5E900128022002310212A61BA
:1034E00028464FF44052C5E90213C5E90533C5E942
:1034F0000732B46200F098FDA8B90022012126200D
:103500002567AC6200F026FD262000F05FFD20B0AC
:10351000BDE87083FFF740FA7DE7FFF73DFA2DE73E
:10352000FFF73AFA8BE7FFF737FAE6E7FFF734FAE7
:10353000CCE700BF003801400044004000100240CA
:10354000A0360020000400485800024058360020F1
:103550006C000240103600208000024000F0D6BC13
:10356000224B70B51A6E224C42F400321A661B6E62
:1035700088B003F4003301A90293064603A8029B16
:1035800003F0BEF803F0AAF81A4A1B49A2FB002375
:103590009B0C013B0022C4E90013204640F2E733B4
:1035A0002261A260A261E36004F02AF9054638B105
:1035B000124A0F480E2104F063F8284608B070BD87
:1035C000204603F017FD05460028F1D1192000F030
:1035D000FDFC0F2E01D90125EAE72A4631461920C4
:1035E00000F0B8FC064B1E60E2E700BF001002408E
:1035F000903E002083DE1B43004401405D350008FF
:1036000010000020FEE700BFBFF34F8F0549064BB7
:10361000CA6802F4E0621343CB60BFF34F8F00BF70
:10362000FDE700BF00ED00E00400FA05FEE700BF83
:10363000FEE700BFFEE700BF704700BF10B50B4CB0
:103640000CF06EF8204600F0E9FD94F824301BB130
:10365000BDE810400CF08AB8054B1021186805F041
:10366000C1FABDE810400CF081B800BFE03B00207B
:1036700008360020014800F0D1BD00BFF837002017
:1036800008B50CF04DF8034800F0C8FDBDE808404F
:103690000CF06CB8A036002008B50CF041F80348D7
:1036A00000F0BCFDBDE808400CF060B858360020C2
:1036B00008B50CF035F8034800F0B0FDBDE808404F
:1036C0000CF054B810360020024803680BB103F028
:1036D0003FBE7047783A002010B50E4C0CF020F831
:1036E000236813B1204603F033FE0B4803680BB187
:1036F00003F02EFE2268D36823F00103D360192063
:1037000000F072FC054B186805F060FCBDE8104045
:103710000CF02CB8783A0020903E00204034002075
:10372000014803F015BE00BF783A0020014803F0BD
:103730000FBE00BF783A002008B50BF0F1FF094832
:1037400003F006FE0BF0ECFF0CF022F84FF0E02344
:103750004FF08052C3F8042DBFF34F8FBFF36F8F2C
:1037600008BD00BFBC39002008B50BF0D9FF0348E5
:1037700001F02EFBBDE808400BF0F8BF0C3D002027
:10378000014802F023B800BF0C3D0020014803F0BF
:1037900035BA00BF7C3B002008B50BF0C1FF0348E1
:1037A00004F0B6FCBDE808400BF0E0BF7037002025
:1037B00008B50BF0B5FF034804F0AAFCBDE80840CB
:1037C0000BF0D4BFE836002008B5034803F0C0FD75
:1037D000024B01221A7008BD00390020F03200208F
:1037E00008B5064803F0B4FD054AD2E900310133BB
:1037F00041F10001C2E9003108BD00BF403800209E
:10380000E832002008B5044800F008FD034B1868B2
:10381000BDE8084005F0DABB343B0020EC33002063
:1038200008B50BF07DFF064800F0F8FC054B2021A1
:10383000186805F0D7F9BDE808400BF097BF00BF46
:10384000703C00200036002008B50BF069FF0648E8
:1038500000F0E4FC054B2021186805F0C3F9BDE831
:1038600008400BF083BF00BF283C0020003600203A
:10387000014801F0ADBA00BFB83C00209E4B984211
:1038800000D07047F0B59D4E96F860508BB004465E
:1038900035B9037F012B47D0022B33D00BB0F0BDDD
:1038A000974F022D3A883DD0042D24D1017F036823
:1038B000022900F0CA80082900F08A80012900F05E
:1038C000A680986B8F491FFA80FC40F6C414A4456B
:1038D0000B780CD986F8883000230B708A4B294668
:1038E000186805F07FF900233B800BB0F0BD26F887
:1038F000130001330B70072AF0D0824B1B78002B8A
:10390000CCD1EBE70268926B0592059A42F21073F4
:103910009A42C3D97B4A1378632B00F2B5800133F6
:103920001370BBE70368CCE7754A1388B3F58F7F44
:1039300002D801331380B1E72946158003F050FC0B
:103940000421204603F04CFC05A94FF6FF732046E6
:10395000CDE90155CDE907550095059503950995E4
:10396000069303F067FE2A46204601250024CDE990
:103970000045694600240025CDE9024504F082F99E
:10398000002840F097805C480422694604F07AF9E8
:10399000002840F08C8058480C22694604F072F9E7
:1039A000002840F08A8004240021534886F86040B3
:1039B00003F064FB2146504803F060FB0C214E48A5
:1039C00003F05CFB504B2146186805F035FA65E7BB
:1039D0004E491C6C88780028087806EB40108460FB
:1039E0000CBF01200020887073D0B06AB16881429A
:1039F00028BF00F1FF30411A3164196A42F0040215
:103A000021F420413A801962196A196259E73F4846
:103A10005C6B017800294FEA411174500CBF012101
:103A2000002101704CD0306A3168814228BF00F11A
:103A3000FF30411AB164196A42F0010221F00A0113
:103A40003A801962196A19623BE730499C6B4878E1
:103A50000028087806EB401044600CBF01200020CD
:103A600048703FD0706A7168814228BF00F1FF3012
:103A7000411A7164196A42F0020221F0A0013A80F1
:103A80001962196A19621CE7157005F031F80228ED
:103A900006467FF403AF2946204603F0A1FB1A4BEC
:103AA000186831460BB0BDE8F04005F09BB8FEF752
:103AB00073FF70E7FEF770FF65E7FEF76DFF72E7D3
:103AC000196A21F00A011962196A41F002011962AA
:103AD000F7E6196A21F420411962196A41F400518C
:103AE0001962EEE6196A21F0A0011962196A41F023
:103AF00020011962E5E600BFBC390020B8010010C2
:103B0000503F00204F3F0020043600204C3F002053
:103B10000F4B984200D0704710B5044604F01EFDCC
:103B200000210C4803F05CFB04210A4803F058FB19
:103B3000094901231922204681F8603004F08AFFE8
:103B4000636F1A68136823F00403136010BD00BF8D
:103B500070370020BC390020B801001008B5074BB1
:103B6000834203D004F0C4FF022800D008BD044BF8
:103B70001868BDE8084005F029BA00BF703700207A
:103B800098330020064B834200D07047054B93F8D2
:103B900060100029F9D0044B186805F023B800BF65
:103BA00070370020B8010010043600200120704753
:103BB00008B51CF05BFC162303604FF0FF3008BD16
:103BC00008B51CF053FC16230360FEE770B5161E03
:103BD00007DD0C468D19AFF3008004F8010BA542F8
:103BE000F9D1304670BD00BF4FF0FF30704700BFC5
:103BF0004FF400534B600020704700BF0120704716
:103C0000002070470C490D4A0B6810B50C4C121B74
:103C10002BB11844904207D80860184610BD094BD4
:103C20000B6018449042F7D91CF020FC0C23036071
:103C30004FF0FF33184610BD583F00200000012010
:103C40000004000008A70020034AD2F8883043F49B
:103C50007003C2F88830704700ED00E01BF010BF21
:103C60001BF016BF1BF096BE1CF034B808B5044913
:103C7000D0F88C024FF4006204F0ECFE012008BD85
:103C8000643F002008B5D0F88C0204F083F90120CD
:103C900008BD00BF70B5D0F88C4282B00E46154604
:103CA000E36F202BFCD104F023FF0228AAB2314697
:103CB00020461FD004F02EF9236F1A688DF80700F4
:103CC000136823F0040313609DF807302BB109E05B
:103CD000FEF7D6FA9DF8073023B9E36F202B4FF09B
:103CE0000100F5D19DF80730002B0CBF28460020BD
:103CF00002B070BD04F00EF9236F06491A688DF802
:103D000007001368086823F004031360052105F019
:103D100027F9E7E7983300202DE9F84FD0F88CB267
:103D2000DFF878A01B4F884616469946002501E02B
:103D30004D452BDA72B6DBF874301B685C68C4F54D
:103D40000064CAF8004062B60120FEF799FA3C68A8
:103D5000DAF80020944205F10105E9D0B6B14644F5
:103D60000D4D013E08F1FF3301E0B34208D0601C65
:103D7000295DC0F30A04A242184603F8011FF4D1DA
:103D80000230A0EB08003C60BDE8F88F0020BDE8E1
:103D9000F88F00BF603F0020643F00205C3F0020A0
:103DA0001F4A204BD0B5D2E900671A68921947F133
:103DB000000E4FEA4E1053019B1A40EAD26060EBAE
:103DC0000E00400240EAD3505B029B184EEB00000D
:103DD0000C464FEA831C810141EA9361BCEB03036B
:103DE00061EB000198184EEB01010BA3D3E900230E
:103DF000FCF75AFF002AC4E90001A26007DA013883
:103E0000094B61F10001C4E900011344A3600020E3
:103E1000D0BD00BFAFF3008000CA9A3B0000000095
:103E2000E0320020E832002000CA9A3BDFF834D0AC
:103E3000FFF70AFF0C480D490D4A002302E0D45851
:103E4000C4500433C4188C42F9D30A4A0A4C0023E4
:103E500001E013600432A242FBD31CF00DFBFEF71D
:103E600077FAFEE700000120000000202431002046
:103E7000806802082831002008A70020FEE7000023
:103E800010B530B1044601201BF0FAFD206028B1C6
:103E900010BD1CF0EBFA1623036010BD72B6FEF7DE
:103EA0007BFDFEE708B550B1EFF305831BB172B699
:103EB000FEF772FDFEE7BDE8084006F0BDBA72B637
:103EC000FEF76AFDFEE700BF08B550B1EFF30583CA
:103ED0001BB172B6FEF760FDFEE7BDE8084006F0D4
:103EE00079BC72B6FEF758FDFEE700BF10B503209F
:103EF00000F01EF80F20FFF733FB10B1012420461D
:103F000010BD0446FEF788FF204610BD034A044B4F
:103F100011681B780B441360704700BF7047002086
:103F20000C000020014B1868704700BF704700204C
:103F30000749CA6803024FF6FF0003F4E06302403A
:103F4000134343F0BF6343F40033CB60704700BFBB
:103F500000ED00E01B4BDB68C3F3022300B5C3F1A7
:103F6000070EBEF1040F03F1040C28BF4FF0040E3E
:103F7000BCF1060F1CD9A3F1030C4FF0FF3303FA79
:103F80000CF322EA03024FF0FF3303FA0EF321EAA7
:103F9000030303FA0CF313431B010028DBB20ADB13
:103FA00000F1604000F5614080F800335DF804FBEB
:103FB00000229446E7E7044A00F00F00024413761B
:103FC0005DF804FB00ED00E0FCEC00E0002807DBFE
:103FD000044A4109012300F01F00834042F82130C8
:103FE000704700BF00E100E000280CDB43090649F0
:103FF00000F01F0020330122824041F82320BFF34C
:104000004F8FBFF36F8F704700E100E0002808DB9F
:104010004309044900F01F0001226033824041F847
:104020002320704700E100E0002850D0F0B42E4A71
:1040300004689442034641D92C492D4A2D4D214410
:10404000A2FB012109098900022283F82520D3E976
:1040500002621F6920681D6432433A435F695964F4
:104060003A439F693A43DF693A431F6A20F4FF40AD
:1040700020F070003A430243B6F5804F226014D01E
:10408000586801F01C010F228A4088401A498D426D
:104090006FEA02021DD0D1F8A8442240C1F8A8243A
:1040A000D1F8A8240243C1F8A82400200122D86333
:1040B00083F8240083F82520F0BC70470F490C4A90
:1040C0000D4D2144A2FB012109098900BCE7012013
:1040D0007047D5F8A8100A40C5F8A820D5F8A82040
:1040E0000243C5F8A820E0E707040240F8FBFDBF43
:1040F000CDCCCCCC0004024000000240F8FFFDBF54
:1041000090F824C0BCF1010F3CD070B590F825C0E8
:104110000124A44580F824405FFA8CFE04D00023DB
:1041200080F82430022070BD022580F825500468F4
:104130000025C5632668456C26F00106266005F05B
:104140001C05066C0EFA05F5756063608368102B1C
:10415000036B0BBFA260A160E160E2604BB123681A
:1041600043F00E032360236843F001030020236023
:1041700070BD236823F004032360236843F00A031F
:104180002360F0E70220704790F82520022A0346BA
:1041900006D00422C2630022012083F82420704745
:1041A0000168426C086820F00E000860086820F082
:1041B000010008604FF0010C196C02F01C020CFAAF
:1041C00002F24A600022002083F825C083F82420F0
:1041D000704700BF90F82520022A03D00422C26352
:1041E000012070470168426C10B50C6824F00E0481
:1041F0000C600C6824F001040C6002F01C02046CDA
:10420000012101FA02F26260826B80F8251000241D
:1042100080F8244002B19047002010BD70B4436C78
:10422000066C056831682C6803F01C0304229A4070
:104230000A420ED014F0040F0BD02B689B0603D457
:104240002B6823F004032B60036B7260CBB170BC4E
:10425000184702229A400A4215D014F0020F12D0D9
:104260002B68990606D42B6823F00A032B600123E0
:1042700080F82530C36A7260002180F82410002B7A
:10428000E5D170BC704708229A400A42F9D0220753
:10429000F7D52A68416B22F00E022A60012202FA49
:1042A00003F300247360C26380F8244080F8252063
:1042B0000029E6D070BC084790F82500704700BF81
:1042C000C06B70472DE9F04F0C6885B0002C00F0F2
:1042D000B88000234FF0010B61E0032A40F0B48066
:1042E00002FA0CF2D0F800C00CEA07073A4315F4C2
:1042F000403F02604FD05E4F3A6E42F001023A6694
:104300003A6E02F001020392039A23F0030202F1D3
:10431000804202F5803203F0030C97684FEA8C0C60
:104320000F2606FA0CFEB0F1904F27EA0E070ED0CA
:10433000504EB04200F094804F4EB0420CBF4FF050
:10434000020E4FF0070E0EFA0CFC47EA0C079760BE
:104350004A4A9268EE026FEA0A07484E54BF3A4052
:104360004AEA0202B260F268AE02444E54BF3A40DA
:104370004AEA0202F2607268AE03404E54BF3A400D
:104380004AEA020272603268ED033C4D54BF3A4083
:104390004AEA02022A60013334FA03F251D00BFADE
:1043A00003FE1EEA040AF6D04D6805F003024FEA48
:1043B000430C032602F1FF3806FA0CF7B8F1010F9F
:1043C0006FEA070789D8D0F80890CE6809EA07098C
:1043D00006FA0CF848EA0908C0F80880D0F804800A
:1043E0008E6828EA0E08C5F3001E0EFA03FE4EEA98
:1043F000080EC0F804E0D0F80C8006FA0CFE08EABB
:1044000007084EEA080E022AC0F80CE07FF468AFF5
:104410000E694FEAD30803F0070E00EB88084FEA55
:104420008E0E06FA0EF6D8F8209001960F2606FAA0
:104430000EFE019E29EA0E0946EA090EC8F820E0A0
:104440004EE705B0BDE8F08FD0F80C808E6807EA23
:10445000080806FA0CFE4EEA080EC0F80CE03FE72A
:104460004FF0010E0EFA0CFC47EA0C076FE700BF95
:104470000010024000040048000800480004014009
:10448000F8B503680546986910F0100C41D016463F
:1044900010220F46DA619C6914F0200476D17A1C50
:1044A0004DD19A699606FCD52022DA619A6944F0CA
:1044B000040CD4054FF001002FD457053AD54FF422
:1044C0008061D9614CF0080C960504D54FF4007258
:1044D0004CF0020CDA619A69910744BF00229A629B
:1044E0009A69D20703D49A6942F001029A615A6824
:1044F00027490A405A606B6C002243EA0C032021D2
:104500006B6485F8402085F8411085F84220012031
:10451000F8BD9A69D4056046CFD54FF48071D96152
:1045200051054CF0010CCFD54FF48061D9614CF0AE
:10453000080CC9E79405C9D40028CCD1F8BDFFF711
:10454000F1FC801BB8422B6801D8002FA3D158681A
:1045500095F8422099690C04D2B20BD5410409D4D4
:10456000202A07D05A6842F480425A60FFF7DAFCEA
:104570002B6806469A6992068DD4FFF7D3FC831BFD
:10458000192B2B68F6D99A6920248FE700248BE732
:1045900000E800FE70B5036804460D46164605E0C7
:1045A000FFF76EFF00BB6A1C08D123689B699B075D
:1045B000324629462046F3D5002070BDFFF7B2FCF5
:1045C000801BA842236801D8002DEFD19A6912F010
:1045D0000202EBD1636C84F8402020210B4363641A
:1045E00084F8411084F84220012070BD2DE9F84381
:1045F000DDF820901E46054603688846174605E00C
:10460000FFF73EFF68BB731C0ED12B689C6938EA2C
:1046100004040CBF01230023BB424A46314628460E
:10462000EED00020BDE8F883FFF77CFCA0EB09008A
:10463000B0422B6801D8002EE8D19A6938EA02020C
:104640000CBF01220022BA42E0D16B6C002243F081
:10465000200320216B6485F8402085F8411085F8FF
:1046600042200120DEE700BF03689B699B0629D436
:1046700070B505460C4616460DE0FFF753FC801B4F
:10468000A042296800D81CB98B6913F020030DD013
:104690008B699B0608D4324621462846FFF7F0FE78
:1046A0000028EAD0012070BD002070BD6A6C85F83A
:1046B000403020210A436A64012085F8411085F8C2
:1046C0004230F0E700207047002854D010B590F831
:1046D0004130044603F0FF02002B47D02368242218
:1046E00084F841201968626821F0010122F07062AB
:1046F00019601A619A68E16822F4004201299A60FF
:10470000A26809D042F4044202299A6007D15A688B
:1047100042F400625A6006E042F400429A605A682D
:1047200022F400625A605968226941F0007141F434
:10473000004159606169D8680A43A16920F40040CA
:1047400042EA0122E169D860206ADA600143196017
:10475000196841F00101196000222023626484F885
:104760004130226384F84220104610BD80F840207A
:10477000FEF772FBB2E70120704700BF2DE9F04F52
:10478000994690F8413083B0202BBDF834A00E9F9D
:1047900040F0A7800C9B0446002B00F09B80BAF1F0
:1047A000000F00F0978090F84030012B00F09980C6
:1047B0004FF0010B80F840B00D469046FFF7B2FB7A
:1047C0005A460646009019234FF400412046FFF751
:1047D0000DFF002840F081800C9B6362212384F848
:1047E0004130226862496063402384F8423060644B
:1047F000A4F82AA053680B405FFA89F143EA014309
:10480000C5F309052B4343F0807343F40053536011
:10481000394632462046FFF7BDFE002865D1B9F182
:10482000010F236865D15FFA88F29A6200963B46D1
:10483000002280212046FFF7D9FE002855D1638D44
:1048400022689BB2FF2B70D953684A490B402B4317
:1048500043F0FF7343F48033FF212185536003E06D
:10486000638D9BB2002B6ED0324639462046FFF74F
:1048700091FE002831D1616A236811F8012B9A62F8
:10488000638D228D6162013B9BB26385638D013A2A
:1048900092B29BB22285002BE2D0002AE0D1802187
:1048A00000963B462046FFF7A1FEFF21A8B9638D85
:1048B000DFF8C0C022689BB28B42604628D953689B
:1048C000218503EA0C032B4343F0FF7343F4803349
:1048D0005360C5E74FF400736364012003B0BDE883
:1048E000F08F022003B0BDE8F08F002384F8403041
:1048F000F3E74FEA18229A62394632462046FFF71C
:1049000049FE0028F1D122685FFA88F393628DE7AF
:10491000638D51689BB22385DBB245EA03430140B6
:104920000B4343F0007353609AE7638D114851685D
:104930009BB22385DBB245EA034301400B4343F0BE
:104940000073536090E7324639462046FFF78CFEED
:104950000028C2D12368084D2021D9615A682A4015
:104960005A6084F8411084F8400084F84200B5E7AA
:10497000009800FC009C00FC00E800FE2DE9F04FD0
:10498000994690F8413083B0202BBDF834A00E9F9B
:1049900040F0A8800C9B0446002B00F09C80BAF1EC
:1049A000000F00F0988090F84030012B00F09A80C2
:1049B0004FF0010B80F840B00D469046FFF7B2FA79
:1049C0005A460646009019234FF400412046FFF74F
:1049D0000DFE002840F082800C9B6362222384F845
:1049E0004130226864496063402384F84230606447
:1049F000A4F82AA053680B405FFA89F143EA014307
:104A0000C5F309052B4343F400535360394632463E
:104A10002046FFF7BFFD002868D1B9F1010F2368D8
:104A200068D15FFA88F29A6200963B4600224021E4
:104A30002046FFF7DBFD002858D1638D22689BB22A
:104A4000FF2B73D953684C490B402B4343F08073C1
:104A500043F4923301212185536003E0638D9BB2BF
:104A6000002B73D03B460096002204212046FFF71E
:104A7000BDFD002832D12268636A526A1A70638DC4
:104A8000228D616A013B9BB26385638D013A92B2CC
:104A900001319BB261622285002BDFD0002ADDD17B
:104AA000802100963B462046FFF7A0FD0121A8B9D2
:104AB000638DDFF8CCC022689BB2FF2B604628D9FB
:104AC0005368218503EA0C032B4343F0807343F4BE
:104AD00080335360C2E74FF400736364012003B076
:104AE000BDE8F08F022003B0BDE8F08F002384F80A
:104AF0004030F3E74FEA18229A62394632462046A0
:104B0000FFF748FD0028F1D122685FFA88F393622D
:104B10008AE7638D51689BB22385DBB245EA034384
:104B200001400B4343F00073536097E7638D1248D5
:104B300051689BB22385DBB245EA034301400B4336
:104B400043F0007343F4105353608BE73246394609
:104B50002046FFF789FD0028C0D12368074D20219A
:104B6000D9615A682A405A6084F8411084F840009C
:104B700084F84200B3E700BF009800FC00E800FEA4
:104B8000009C00FCF8B5044690F8410020281F4620
:104B9000BDF81C3056D10D46069900294DD0002B8A
:104BA0004BD02668B16911F400414BD194F8400014
:104BB000012847D0069860624FF0210E84F841E04A
:104BC00035484FF0400E84F842E061646385E0624E
:104BD000E564638D314961639BB2FF2B98BF638DA0
:104BE0004FF0010194BF9BB2FF23012F84F84010C6
:104BF0002385D1B228D0120AB2622165A06B40B3DE
:104C0000DFF8A0C0C0F82CC006F12802DFF898C079
:104C10000699C0F834C0002606638663FFF770FA71
:104C200018B3202384F8413084F84260636C84F820
:104C3000406043F01003636402E04FF40073636468
:104C40000120F8BD0220F8BD4FF0FF32B1622265AD
:104C5000D4E7202384F8413084F84200636C84F860
:104C6000400043F080036364EAE72268C5F3090368
:104C700051680B4DFFB243EA074329400B4343F011
:104C8000807343F40053536084F84000136843F08A
:104C9000F2031360F8BD00BF0000FFFFBD52000823
:104CA000009800FC7956000865560008F8B50D46D6
:104CB00090F8411020291F46BDF81C3056D10699A6
:104CC000044600294DD0002B4BD00168886910F4B0
:104CD00000404BD194F840C0BCF1010F46D0069E75
:104CE00066624FF0220E84F841E0344E4FF0400EE1
:104CF00084F842E060646385E662E564638D304871
:104D000060639BB2FF2B98BF638D4FF0010094BF8F
:104D10009BB2FF23012F84F840002385D0B227D017
:104D2000120A8A622065E06B38B3DFF89CC0C0F8D5
:104D30002CC00026DFF894C0069A066324318663EF
:104D4000C0F834C0FFF7DCF918B3202384F84130F1
:104D500084F84260636C84F8406043F0100363643D
:104D600002E04FF4007363640120F8BD0220F8BD37
:104D70004FF0FF3288622265D5E7202384F8413066
:104D800084F84200636C84F8400043F0800363645D
:104D9000EAE72268C5F3090351680A4DFFB243EA06
:104DA000074329400B4343F40053536084F8400009
:104DB000136843F0F2031360F8BD00BF0000FFFF6B
:104DC000BD520008009800FC1957000865560008FD
:104DD0000268436B9169126803B11847704700BFBE
:104DE000704700BF704700BF002180F8421090F864
:104DF0004120212A38B54FF0200418D1112280F823
:104E00004140026390F841200468416302F02802A7
:104E1000282A226814BF6FF0F20C6FF0420C02EAED
:104E20000C02226080F84010FFF7DAFF38BD122232
:104E300080F84140026390F841200468416302F029
:104E400028022568282A14BF6FF0F4026FF044028C
:104E50002A40226080F84010FFF7C4FF38BD00BF31
:104E6000704700BF704700BF016808B50B6800229B
:104E700080F842205A040CD50B6823F480430B6061
:104E800090F84130292B0ED090F841302A2B22D0B7
:104E900008BD1B04F4D50B6823F400430B6090F8A5
:104EA0004130292BF0D12822212380F841200363AF
:104EB00090F841200B6802F02802282A14BF6FF0F6
:104EC000F2026FF04202134000220B6080F8402093
:104ED000FFF7C6FF08BD2822222380F84120036384
:104EE00090F841300A6803F02803282B14BF6FF0B4
:104EF000F4036FF04403134000220B6080F840205D
:104F0000FFF7B0FF08BD00BF704700BF70B5046871
:104F1000C368A169A269A568E668120C022B8446E1
:104F2000C1F3004102F0FE020FD182EAD51313F063
:104F30000603C5F3090206D1856C01358564856CCD
:104F4000022D0CD070BD06F0FE02236823F0B803DA
:104F5000236000238CF84030FFF7D6FF70BD082592
:104F60008364E56180F84030FFF7CEFF70BD00BF7D
:104F7000704700BF0022202310B5184CC462426362
:104F8000026380F8413080F842204A07036812D556
:104F9000426A5B6A1370436A028D01334362D2B185
:104FA000438D013B9BB24385416C0368013A41F05C
:104FB00004010285416490F8412090F841201A686C
:104FC000102422F0FE0200211A60DC6180F84010FB
:104FD000FFF7CEFF10BD0368EDE700BF0000FFFF45
:104FE000704700BF704700BF704700BF704700BFE9
:104FF000806A08B5836B0BB100229A63C36B0BB157
:1050000000229A6390F84130602B4FF0000305D0E6
:10501000036380F84030FFF7E7FF08BD202280F8E7
:10502000412080F840300363FFF7E0FF08BD00BF78
:1050300010B50446554A94F84130002084F84200E7
:10504000E2626085626C1143A3F12802022A2368A0
:10505000616462D894F8411094F8412001F028016D
:10506000282902F0280214BFF6214621282A1A68AE
:105070000CBFC9436FF0F6010A40282044491A606A
:1050800084F84100A06B226B616318B1112A14D01F
:10509000212A12D0E06B18B1122A24D0222A22D061
:1050A00094F84130602B4FF0000365D0236384F8FF
:1050B00040302046FFF798FF10BD1A68510456D4BF
:1050C000FFF7FAF80128EBD0A06B324A8263002385
:1050D00084F84030FFF77EF80028EDD0A06BBDE8E3
:1050E0001040836B18471A68120403D51A6822F41B
:1050F00000421A60FFF7E0F80128D1D0E06B254AA2
:105100008263002384F84030FFF764F80028D3D08E
:10511000E06BBDE81040836B184794F8412094F889
:1051200041201A6822F0FE021A609A69920748BF6D
:1051300098629A69D10703D49A6942F001029A6190
:1051400094F84120602A10D0202284F841209A69E6
:1051500092060AD59A69D00605D51022DA61626CEA
:1051600042F0040262642022DA6100218AE71A68B0
:1051700022F480421A60A3E7202284F8412084F8B8
:10518000403023632046FFF731FF10BD0000FFFFD2
:105190006D5B0008F14F0008036830B52022DA612A
:1051A00090F84120212A83B040D090F84120222A53
:1051B0006AD05A683F4C002522405A603E4C4563F5
:1051C000CD06C46205D51022DA61426C42F00402B9
:1051D000426490F84120602A21D09A69910744BF27
:1051E00000229A629A69D20703D49A6942F00102B6
:1051F0009A61436C90F84120602A0AD04BB990F82C
:105200004120212A31D090F84120222A1ED003B01B
:1052100030BD416C03B0BDE83040FFF709BF4C071B
:10522000DBD55A6AD2B20192019AD6E790F8414092
:105230001A6804F02804282C14BF6FF0F2046FF0F1
:105240004204224011241A600463B2E7202280F84D
:105250004120036390F8422080F84030402A80F8D3
:10526000423024D0FFF7BEFDD1E7202280F8412054
:10527000036390F8422080F84030402A80F84230A2
:1052800012D0FFF7ADFDC2E790F841201C6802F094
:105290002802282A14BF6FF0F4026FF04402224063
:1052A00012241A60046384E7FFF79AFEAFE7FFF762
:1052B00099FEACE700E800FE0000FFFF38B590F86B
:1052C0004030012B00F0D680012380F84030CB061F
:1052D000044602D5D00600F1A9808B070BD59007B4
:1052E00009D52268216D91624FF0FF3323650020BC
:1052F00084F8400038BD0B063AD5500640F18C804A
:1053000094F84110236801F028011A68282914BF75
:105310006FF0F2016FF042010A401A601A6842F021
:1053200090021A60628D92B2002A00F0B880628DFD
:1053300092B2FF2A40F2A2809869654DE16C5A68EA
:10534000C0F3004000280CBF4FF47F004FF48030C2
:1053500002EA0502C1F3090142EA000242EA01023F
:1053600042F080720CBFFF21012121855A6040E08C
:105370004B0651D550064FD594F841202368554827
:10538000196802F02802282A14BF6FF0F2026FF0A9
:1053900042020A401A601A684F4942F090021A60AD
:1053A00094F841C0628D92B2BCF1220F08BF08464A
:1053B000FF2A79D99A69C2F30042002AE26CC2F34B
:1053C00009020CBF4FF47F054FF4803542EA00021A
:1053D00042EA05025868414D22F0004200EA050009
:1053E00042EA00020CBFFF21012142F080722185B8
:1053F0005A60628D521A92B2628594F84120222A34
:105400001A684FF000000CBF42F4004242F48042A0
:105410001A6084F840006DE78B067FF568AF92064E
:105420007FF565AF2046FFF7B7FE60E723682C489D
:105430001022DA61616C626B41F0040182426164A6
:105440001AD028498A4217D027498A420CBF6022C5
:10545000202219680A431A609A69910744BF002202
:105460009A629A69D2073FF542AF9A6942F0010207
:105470009A613CE7022038BD6022EAE7618D144D55
:10548000E26C586889B22840C2F30902CDB242EA00
:105490000542024342F0007221855A60A9E740218B
:1054A0002046FFF7C5FD22E7618DE26C89B2CDB2DF
:1054B000C2F3090242EA05420243084D58682185B9
:1054C00022F000422840024342F000725A6090E706
:1054D000009C00FC0020008000240080009800FC5C
:1054E000ED540008355A0008BD52000838B590F850
:1054F0004030012B00F085800123CD06044680F862
:10550000403001D5D00659D40D063AD550064DD5B8
:1055100023681A6822F040021A60628D92B2002A53
:1055200071D05868628D92B2FF2AC0F3090078D812
:10553000618DE26A89B212F5803F218500F0828098
:105540005FFA81FCE26A4FEA0C4C42EA0C02024329
:10555000404D586822F00042284002435A60628D54
:10556000521A92B2628594F84120222A1A680CBF1E
:1055700042F4004242F480421A60002084F8400065
:1055800038BD4D0612D5500610D5638D9BB2002B49
:1055900040D123685A689101EFD4E26A12F5803F46
:1055A00034D15A6842F480425A60E6E78B06E4D56B
:1055B0009206E2D52046FFF7EFFDDEE72368264896
:1055C0001022DA61616C626B41F004018242616415
:1055D00025D022498A4222D021498A420CBF60222A
:1055E000202219680A431A609A69910744BF002271
:1055F0009A629A69D207C0D49A6942F001029A610C
:10560000BBE7022038BD5B689B0103D42046FFF74F
:10561000EBFBB2E740212046FFF70AFDADE7602231
:10562000DFE79A69D20306D5012121854FF4803C3A
:105630004FF0807289E7FF2121854FF47F0C4FF0F6
:10564000807282E75FFA81FC4FEA0C4C4FF00072E7
:105650007BE700BF009C00FCED540008355A0008B1
:10566000BD520008806A0268536843F40043102169
:105670005360FFF7DDBC00BF10B5846A2268136871
:1056800023F480431360638D9BB25BB3638D616AC7
:10569000208D9BB20144FF2B61620ED8608D80B2D9
:1056A000034620852832A06BFEF72AFD40B1204634
:1056B0001021BDE81040FFF7BBBCFF231846F0E700
:1056C000636B124A93421DD0114A93421AD0114A79
:1056D0009B1AB3FA83F35B099B0121680A681343A1
:1056E0000B6010BD636B09498B420DD008498B429A
:1056F0000AD008498B420CBF6023202311680B435A
:10570000136010BD4023E8E76023F7E7ED5400087D
:10571000355A0008BD52000810B5846A21680B682C
:1057200023F400430B60638D9BB2002B2ED0638D5E
:10573000626A208D9BB20244FF2B62620ED8608D9C
:1057400080B2034620852431E06BFEF7D9FC58B1C6
:1057500020461021BDE81040FFF76ABC8B69DB03CF
:1057600024D501200346EDE7636B154A934220D010
:10577000144A93421DD0144A9B1AB3FA83F35B096F
:105780009B0121680A6813430B6010BD636B0C4AD0
:10579000934210D00B4A93420DD00B4A93420CBF58
:1057A000602320230A6813430B6010BDFF200346CB
:1057B000C8E74023E5E70A68602313430B6010BD88
:1057C000ED540008355A0008BD52000803689A6974
:1057D000196810B4D4052FD50C061FD5416C41F0C3
:1057E000010141644FF480745105DC6129D5416C9D
:1057F0004FF4806441F0080192054164DC6106D5F4
:10580000426C4FF4007142F002024264D961416C73
:1058100011F00B0F0CD15DF8044B70475405F6D412
:105820009405F4D50906EBD4416C11F00B0FF2D0BE
:105830005DF8044BFFF7FCBB5405F1D50906D6D43F
:10584000E5E79205DCD4E2E770B5036804460D464F
:105850001968C66A90F8410020222128DA610ED02A
:10586000C2B2223A082A12D8DFE812F0B1001100C1
:105870001100110011001100C9000900B10094F8D5
:1058800041201A6822F0FA021A60212222635A6823
:10589000664842F400425A605A6802405A609A6967
:1058A000920744BF00229A629A69D00703D49A698A
:1058B00042F001029A614A0440D51A6822F48042FB
:1058C0001A60A26B1AB11268526892B262856A07B6
:1058D0000FD55A6A636A1A70636A01336362238D53
:1058E0002BB1013B2385638D013B9BB2638525F082
:1058F0000405638D9BB21BB1636C43F004036364C6
:10590000EB0601D5C80631D4002384F84230666C1A
:105910006363002E4DD1E36A454DAB4218D194F834
:10592000413084F84060222B4FF0200384F841304E
:10593000204626636ED0FFF793FA70BD0804C6D5E3
:105940001A6822F400421A60E26B002ABBD1BEE75B
:105950002046FFF789FA2023E56284F8406084F846
:10596000413020462663FFF703FB70BD638D9BB279
:10597000002B35D194F84130282B4ED094F841209B
:105980002368292A4FF01002DA61BDD116F5803F55
:10599000BAD09A69910744BF00229A629A69D207E5
:1059A00003D49A6942F001029A612046FFF75CFA3B
:1059B000AAE7616C2046FFF73BFB94F84130282BA7
:1059C000BBD129462046BDE87040FFF7D3BA94F812
:1059D00041201A6822F0FC021A602222226356E754
:1059E00023681022DA61636C43F00403636436F0C9
:1059F000807389D1616C2046FFF71AFB84E794F825
:105A0000412094F841201A6822F0FE021A60002218
:105A100022633CE7FFF726FA70BDB6F1007FADD1F7
:105A200029462046FFF7A6FA6EE700BF00E800FE11
:105A30000000FFFF38B590F840C0C56ABCF1010F07
:105A400072D04FF0010C11F0200F04460B4680F885
:105A500040C002D012F0200F46D1D80636D5D1066C
:105A600034D512F4404F61D0D4E90E01002941D061
:105A700012F4004F3ED00968496800293AD118B1A4
:105A8000520444BF0268526894F84120282A64D026
:105A900094F841202368292A4FF01002DA6111D1CD
:105AA00015F5803F0ED09A69950744BF00229A628F
:105AB0009A69D00703D49A6942F001029A6120469C
:105AC000FFF7D2F9002084F8400038BD1907F9D556
:105AD0001307F7D594F8413003F02803282B38D06A
