:020000040800F2
:10000000000001204D4A00086542000869420008CE
:100010008D4200089142000895420008000000004F
:1000200000000000000000000000000091CD00086A
:100030009942000800000000E1CD0008F59F00088B
:100040009D4A00089D4A00089D4A00089D4A0008F4
:100050009D4A00089D4A00089D4A00089D4A0008E4
:100060009D4A00089D4A00089D4A00089D4A0008D4
:100070009D4A00089D420008D5420008F54200084C
:10008000014300080D4300089D4A00089D4A0008EE
:100090009D4A00089D4A00089D4A00089D4A0008A4
:1000A00019430008294300084D430008594300083C
:1000B00065430008000000000000000071430008D4
:1000C000894300080000000000000000954300087C
:1000D00000000000A1430008B94300080000000030
:1000E0009D4A00089D4A0008000000000000000032
:1000F0000000000000000000000000000000000000
:100100000000000000000000000000009D4A000800
:100110000000000000000000C5430008DD430008A7
:100120009D4A00089D4A00089D4A000801440008B5
:100130009D4A0008000000000000000000000000D0
:100140009D4A00089D4A00089D4A00089D4A0008F3
:100150001D440008454400089D4A00089D4A0008C7
:100160006D4400089D4A00089D4A000800000000F8
:100170009D4A00089D4A00080000000000000000A1
:0C0180009D4A00089D4A00089D4A0008A6
:1001900010B5054C237833B9044B13B10448AFF3C1
:1001A00000800123237010BD3031002000000000CA
:1001B0006832020808B5034B1BB103490348AFF38B
:1001C000008008BD000000003431002068320208C1
:1001D000F0B400EB4003DFF8880000EBC30000F14F
:1001E00018063069F7687568874232D3B368DC1B3C
:1001F000631E934214D37D19D01900BF11F8013B3F
:1002000005F8013B013A05D011F8013B05F8013B27
:10021000013AF3D1BFF35F8FF0600120F0BC70476B
:10022000C018904219D37819121B11F8013B00F83D
:10023000013B013CF9D1141C05D011F8013B05F834
:10024000013B013AF9D1BFF35F8FF4600120F0BCAC
:100250007047C01B01389042CDD20020F0BC7047DF
:10026000A855002010F8012B11F8013B012A28BFE6
:100270009A42F7D0D01A704700000000000000003A
:1002800001F0FF01102A2BDB10F0070F08D010F847
:10029000013B013A8B422DD010F0070F42B3F6D14B
:1002A000F0B441EA012141EA014122F007047FF064
:1002B00000070023F0E80256083C85EA010586EABB
:1002C000010685FA47F5A3FA87F586FA47F6A5FAF7
:1002D00087F68EB9EED1F0BC01F0FF0102F0070203
:1002E00032B110F8013B013A83EA010313B1F8D1AE
:1002F0000020704701387047002D06BF354603388F
:10030000073815F0010F07D1013015F4807F02BFC7
:10031000013015F4C03F0130F0BC0138704700BF18
:10032000034613F8012B002AFBD1181A0138704735
:1003300081F0004102E000BF83F0004330B54FEA96
:1003400041044FEA430594EA050F08BF90EA020F03
:100350001FBF54EA000C55EA020C7FEA645C7FEA96
:10036000655C00F0E2804FEA5454D4EB5555B8BFB9
:100370006D420CDD2C4480EA020281EA030382EA2A
:10038000000083EA010180EA020281EA0303362DBC
:1003900088BF30BD11F0004F4FEA01314FF4801C8F
:1003A0004CEA113102D0404261EB410113F0004FA1
:1003B0004FEA03334CEA133302D0524263EB430358
:1003C00094EA050F00F0A780A4F10104D5F1200EF6
:1003D0000DDB02FA0EFC22FA05F2801841F1000151
:1003E00003FA0EF2801843FA05F359410EE0A5F125
:1003F00020050EF1200E012A03FA0EFC28BF4CF056
:10040000020C43FA05F3C01851EBE37101F000450B
:1004100007D54FF0000EDCF1000C7EEB00006EEB18
:100420000101B1F5801F1BD3B1F5001F0CD34908A2
:100430005FEA30004FEA3C0C04F101044FEA4452F9
:1004400012F5800F80F09A80BCF1004F08BF5FEA80
:10045000500C50F1000041EB045141EA050130BD60
:100460005FEA4C0C404141EB0101013C28BFB1F572
:10047000801FE9D291F0000F04BF01460020B1FABD
:1004800081F308BF2033A3F10B03B3F120020CDA90
:100490000C3208DD02F1140CC2F10C0201FA0CF06E
:1004A00021FA02F10CE002F11402D8BFC2F1200CD3
:1004B00001FA02F120FA0CFCDCBF41EA0C01904089
:1004C000E41AA2BF01EB0451294330BD6FEA0404D2
:1004D0001F3C1CDA0C340EDC04F11404C4F12002BD
:1004E00020FA04F001FA02F340EA030021FA04F3CF
:1004F00045EA030130BDC4F10C04C4F1200220FA26
:1005000002F001FA04F340EA0300294630BD21FA63
:1005100004F0294630BD94F0000F83F4801306BF29
:1005200081F480110134013D4EE77FEA645C18BF1D
:100530007FEA655C29D094EA050F08BF90EA020FB4
:1005400005D054EA000C04BF1946104630BD91EAAC
:10055000030F1EBF0021002030BD5FEA545C05D1AF
:100560004000494128BF41F0004130BD14F58004EE
:100570003CBF01F5801130BD01F0004545F0FE4162
:1005800041F470014FF0000030BD7FEA645C1ABF97
:10059000194610467FEA655C1CBF0B46024650EACE
:1005A000013406BF52EA033591EA030F41F40021FA
:1005B00030BD00BF90F0000F04BF0021704730B580
:1005C0004FF4806404F132044FF000054FF0000155
:1005D00050E700BF90F0000F04BF0021704730B516
:1005E0004FF4806404F1320410F0004548BF4042EB
:1005F0004FF000013EE700BF42004FEAE2014FEA40
:1006000031014FEA02701FBF12F07F4393F07F4F1A
:1006100081F06051704732F07F4208BF704793F01D
:100620007F4F04BF41F40021704730B54FF4607430
:1006300001F0004521F000411CE700BF50EA010233
:1006400008BF704730B54FF000050AE050EA0102DC
:1006500008BF704730B511F0004502D5404261EB4C
:1006600041014FF4806404F132045FEA915C3FF48D
:10067000D8AE4FF003025FEADC0C18BF03325FEA2A
:10068000DC0C18BF033202EBDC02C2F1200300FADB
:1006900003FC20FA02F001FA03FE40EA0E0021FA00
:1006A00002F11444BDE600BF70B54FF0FF0C4CF4EE
:1006B000E06C1CEA11541DBF1CEA135594EA0C0FA0
:1006C00095EA0C0F00F0DEF82C4481EA030621EADB
:1006D0004C5123EA4C5350EA013518BF52EA033516
:1006E00041F4801143F4801338D0A0FB02CE4FF0C8
:1006F0000005E1FB02E506F00042E0FB03E54FF0F8
:100700000006E1FB03569CF0000F18BF4EF0010EEF
:10071000A4F1FF04B6F5007F64F5407404D25FEAEB
:100720004E0E6D4146EB060642EAC62141EA55519E
:100730004FEAC52040EA5E504FEACE2EB4F1FD0CE0
:1007400088BFBCF5E06F1ED8BEF1004F08BF5FEA5E
:10075000500E50F1000041EB045170BD06F0004610
:1007600046EA010140EA020081EA0301B4EB5C04BD
:10077000C2BFD4EB0C0541EA045170BD41F48011B5
:100780004FF0000E013C00F3AB8014F1360FDEBFDA
:10079000002001F0004170BDC4F10004203C35DAB6
:1007A0000C341BDC04F11404C4F1200500FA05F339
:1007B00020FA04F001FA05F240EA020001F00042DA
:1007C00021F0004110EBD37021FA04F642EB060150
:1007D0005EEA430E08BF20EAD37070BDC4F10C047A
:1007E000C4F1200500FA04F320FA05F001FA04F23E
:1007F00040EA020001F0004110EBD37041F100012A
:100800005EEA430E08BF20EAD37070BDC4F1200534
:1008100000FA05F24EEA020E20FA04F301FA05F29C
:1008200043EA020321FA04F001F0004121FA04F244
:1008300020EA020000EBD3705EEA430E08BF20EA14
:10084000D37070BD94F0000F0FD101F0004640004E
:1008500041EB010111F4801F08BF013CF7D041EAD0
:10086000060195F0000F18BF704703F000465200D4
:1008700043EB030313F4801F08BF013DF7D043EAA5
:100880000603704794EA0C0F0CEA135518BF95EA5B
:100890000C0F0CD050EA410618BF52EA4306D1D1E2
:1008A00081EA030101F000414FF0000070BD50EA01
:1008B000410606BF1046194652EA430619D094EA8B
:1008C0000C0F02D150EA013613D195EA0C0F05D175
:1008D00052EA03361CBF104619460AD181EA0301C9
:1008E00001F0004141F0FE4141F470014FF0000081
:1008F00070BD41F0FE4141F4780170BD70B54FF01C
:10090000FF0C4CF4E06C1CEA11541DBF1CEA13559B
:1009100094EA0C0F95EA0C0F00F0A7F8A4EB05047D
:1009200081EA030E52EA03354FEA013100F0888074
:100930004FEA03334FF0805545EA131343EA12633D
:100940004FEA022245EA111545EA10654FEA0026F2
:100950000EF000419D4208BF964244F1FD0404F5AB
:10096000407402D25B084FEA3202B61A65EB030507
:100970005B084FEA32024FF480104FF4002CB6EBC4
:10098000020E75EB030E22BFB61A754640EA0C0044
:100990005B084FEA3202B6EB020E75EB030E22BF84
:1009A000B61A754640EA5C005B084FEA3202B6EBC5
:1009B000020E75EB030E22BFB61A754640EA9C0084
:1009C0005B084FEA3202B6EB020E75EB030E22BF54
:1009D000B61A754640EADC0055EA060E18D04FEA12
:1009E000051545EA16754FEA06164FEAC30343EAB2
:1009F00052734FEAC2025FEA1C1CC0D111F4801F7F
:100A00000BD141EA00014FF000004FF0004CB6E777
:100A100011F4801F04BF01430020B4F1FD0C88BF16
:100A2000BCF5E06F3FF6AFAEB5EB030C04BFB6EB21
:100A3000020C5FEA500C50F1000041EB045170BD14
:100A40000EF0004E4EEA113114EB5C04C2BFD4EB41
:100A50000C0541EA045170BD41F480114FF0000EC5
:100A6000013C90E645EA060E8DE60CEA135594EA41
:100A70000C0F08BF95EA0C0F3FF43BAF94EA0C0F44
:100A80000AD150EA01347FF434AF95EA0C0F7FF4B9
:100A900025AF104619462CE795EA0C0F06D152EA0D
:100AA00003353FF4FDAE1046194622E750EA4106F1
:100AB00018BF52EA43067FF4C5AE50EA41047FF402
:100AC0000DAF52EA43057FF4EBAE12E74FF0FF3C67
:100AD00006E000BF4FF0010C02E000BF4FF0010C38
:100AE0004DF804CD4FEA410C7FEA6C5C4FEA430CB1
:100AF00018BF7FEA6C5C1BD001B050EA410C0CBF00
:100B000052EA430C91EA030F02BF90EA020F002061
:100B1000704710F1000F91EA030F58BF994208BFC8
:100B200090422CBFD8176FEAE37040F00100704785
:100B30004FEA410C7FEA6C5C02D150EA013C07D1DC
:100B40004FEA430C7FEA6C5CD6D152EA033CD3D027
:100B50005DF8040B704700BF8446104662468C4621
:100B60001946634600E000BF01B5FFF7B7FF002854
:100B700048BF10F1000F01BD4DF808EDFFF7F4FF7D
:100B80000CBF012000205DF808FB00BF4DF808ED08
:100B9000FFF7EAFF34BF012000205DF808FB00BF2B
:100BA0004DF808EDFFF7E0FF94BF012000205DF84D
:100BB00008FB00BF4DF808EDFFF7CEFF94BF012002
:100BC00000205DF808FB00BF4DF808EDFFF7C4FFFB
:100BD00034BF012000205DF808FB00BF4FEA410C44
:100BE0007FEA6C5C02D150EA013C0AD14FEA430C27
:100BF0007FEA6C5C02D152EA033C02D14FF0000064
:100C000070474FF0010070474FEA410212F50012A1
:100C100015D211D56FF47873B3EB625212D94FEA43
:100C2000C12343F0004343EA505311F0004F23FA2D
:100C300002F018BF404270474FF00000704750EA82
:100C4000013005D111F0004008BF6FF0004070473F
:100C50004FF00000704700BF4FEA4102B2F1E0439D
:100C600024BFB3F5001CDCF1FE5C0DD901F0004C93
:100C70004FEAC0024CEA5070B2F1004F40EB8300E3
:100C800008BF20F00100704711F0804F21D113F10F
:100C90003872BCBF01F00040704741F480114FEA48
:100CA0005252C2F11802C2F1200C10FA0CF320FAD1
:100CB00002F018BF40F001004FEAC1234FEAD323EE
:100CC00003FA0CFC40EA0C0023FA02F34FEA430358
:100CD000CCE77FEA625307D150EA01331EBF4FF0E1
:100CE000FE4040F44000704701F0004040F0FE40FC
:100CF00040F40000704700BF7BB972B90029BEBF45
:100D000000204FF0004106E008BF00281CBF6FF034
:100D100000414FF0FF3000F0D3B9ADF1080C6DE9A0
:100D200004CE002909DB002B1ADB00F04DF8DDF8BA
:100D300004E0DDE9022304B07047404261EB410169
:100D4000002B1BDB00F040F8DDF804E0DDE90223B6
:100D500004B0404261EB4101524263EB43037047F0
:100D6000524263EB430300F02FF8DDF804E0DDE9C5
:100D7000022304B0404261EB41017047524263EBF1
:100D8000430300F021F8DDF804E0DDE9022304B0BC
:100D9000524263EB4303704753B94AB9002908BF75
:100DA00000281CBF4FF0FF314FF0FF3000F088B932
:100DB000ADF1080C6DE904CE00F006F8DDF804E0B2
:100DC000DDE9022304B070472DE9F047089D8E4607
:100DD00004468846002B4AD18A42174662D9B2FAA5
:100DE00082F64EB1C6F1200301FA06F820FA03F3A9
:100DF000B74043EA0808B4404FEA174E1FFA87FC91
:100E0000B8FBFEF1230C0EFB118843EA084301FBFB
:100E10000CF29A4209D9FB1801F1FF3080F0EA8008
:100E20009A4240F2E78002393B449A1AA3B2B2FBDD
:100E3000FEF00EFB102243EA024300FB0CFC9C4533
:100E400009D9FB1800F1FF3280F0D6809C4540F2B2
:100E5000D3803B44023840EA0140A3EB0C0300215D
:100E60001DB1F3400022C5E90032BDE8F0878B4296
:100E700005D90DB1C5E9000100210846F5E7B3FA2F
:100E800083F1002946D1734502D3824200F20581E5
:100E9000841A6EEB030201209046002DE5D0C5E9CF
:100EA0000048E2E7002A00F09080B2FA82F6002EB5
:100EB00040F0A4808A1A030C4FEA174E80B2BCB2ED
:100EC0000121B2FBFEFC0EFB1C2243EA024304FBA1
:100ED0000CF29A4207D9FB180CF1FF3802D29A4261
:100EE00000F2E080C4469B1AB3FBFEF20EFB123305
:100EF00040EA034302FB04F49C4207D9FB1802F1C9
:100F0000FF3002D29C4200F2CA8002461B1B42EA1A
:100F10000C40A5E7C1F120068B4022FA06F71F43DB
:100F20000EFA01F420FA06F32EFA06FE4FEA1749EC
:100F3000234300FA01F81FFA87FCBEFBF9F01C0CF2
:100F400009FB10EE44EA0E4400FB0CFEA64502FA33
:100F500001F209D93C1900F1FF3A80F09C80A645C6
:100F600040F2998002383C44A4EB0E041FFA83FE41
:100F7000B4FBF9F309FB13444EEA044403FB0CFCF5
:100F8000A44508D93C1903F1FF3E80F08280A445B6
:100F90007FD9023B3C4443EA0040A4EB0C04A0FB95
:100FA00002EC64457346E14662D35FD05DB1B8EBB5
:100FB000030264EB090404FA06F622FA01F31E4365
:100FC000CC40C5E9006400214FE7B1FBF2FC010C05
:100FD00041EA0E4180B240EA01423B4638463C4677
:100FE000B846BE462026B1FBF7F1A2EB080241EA63
:100FF0000C4166E7014618E710462CE7C6F12002CF
:101000002EFA02F3B740B14020FA02F24FEA174E2F
:101010000A43B3FBFEF8BCB20EFB1833110C41EAD5
:10102000034108FB04F9B04089454FEA104380B200
:101030003ED9791808F1FF3C01D289451FD8A1EBB0
:101040000901B1FBFEF909FB04F80EFB191192B27C
:1010500042EA0142424529D2BA1809F1FF31C4D20D
:101060004245C2D2A9F102013A44BEE7F0459DD201
:10107000BEEB02036CEB070C0138E14696E7A7EBE9
:1010800009094944A8F1020CB1FBFEF909FB04F877
:10109000DBE773467FE7504666E70846FDE63B44DC
:1010A000023A33E7ACF1020C3B441CE749469CE7AB
:1010B000A1EB0901C446B1FBFEF909FB04F8C4E742
:1010C000704700BF2DE9F04F0C4614F0800F0CBFA5
:1010D0002123422314F0400F0CBF4FF0210B4FF09F
:1010E000420B14F0200F0CBF4FF0210A4FF0420AC0
:1010F00014F0100F0CBF4FF021094FF0420914F00B
:10110000080F0CBF4FF021084FF0420814F0040FF5
:101110000CBF2127422714F0020F0A460CBF2121E1
:10112000422114F0010F0CBF2124422412F4004F7D
:101130008FB00CBF2125422512F4804F0CBF212611
:10114000422612F4005F01910CBF2121422112F4CA
:10115000805F02940CBF2124422412F4006F049695
:101160000CBF2126422612F4806F0CBF4FF0210CD9
:101170004FF0420C12F4007FCDF820C0059161467B
:101180000CBF4FF0210C4FF0420C12F4807FCDF8D1
:1011900024C0069464460CBF4FF0210C4FF0420C63
:1011A00012F4000FCDF828C00CBF4FF0210C4FF007
:1011B000420C12F4800F079666460CBF2126422689
:1011C00012F4001F0CBF2121422100EB4000C0009F
:1011D0000C912A49CDF82CC00B5412F4801F01EB5E
:1011E00000030CBF2124422412F4002F5F7108BFBA
:1011F0004FF0210E019F9F7118BF4FF0420E12F465
:10120000802F029FDF710CBF4FF0210C4FF0420C7A
:1012100012F4003F03950CBF2127422712F4803FB0
:1012200000F10802039D83F801B083F802A083F85F
:10123000039083F804808D54049A5A72059A9A7226
:10124000069ADA72079A1A73089A5A7300F1100014
:10125000099A9A730A9D0B9ADD730A540C995E746D
:101260000CBF212242229974DC7483F814E083F8C5
:1012700015C09F75DA750FB0BDE8F08F58310020AA
:1012800010B5044682B01548F022212121F0EAF879
:1012900023880BB3FF2BA8BFFF23DAB263888DF836
:1012A0000520BBB1FF2BA8BFFF23DAB2A3888DF8BE
:1012B00004201BB1FF2BA8BFFF23DBB28DF8063043
:1012C0000024204601990134FFF7FCFE0A2CF8D1D6
:1012D00002B010BD1A46E9E71A46DFE75831002090
:1012E0002DE9F0477D4F7E4CDFF8FC91DFF8FC8163
:1012F0007C4D84B0002601A8CDE90166ADF8006000
:10130000ADF80C60FFF7BCFF4FF0FF31386809F013
:10131000C1F8236801211E64204607F0F1FA714AE2
:1013200078230C21204607F0E5F8236B1A68136830
:1013300023F004031360FF210A2001910296ADF807
:101340000C6008F091FF01A8FFF79AFF4FF0FF3102
:10135000386809F09FF8236801211E64204607F0D1
:10136000CFFA0C215F4AF023204607F0C3F8236B25
:101370001A68136823F00403136041F2883008F000
:1013800073FF01A8CDE901660396FFF779FF4FF0DF
:10139000FF31386809F07EF8236801211E64204679
:1013A00007F0AEFA4F4AF0230C21204607F0A2F8CE
:1013B000236B1A68136823F00403136039E0BDF847
:1013C0000A30002B6CD0BDF80E20002A68D04FF6F2
:1013D000FF718A4205D0013A92B2ADF80E20ADF805
:1013E0000020142BB8BF14239A46012601A8FFF74A
:1013F00047FF5146D8F8000008F09AFF4FF0FF3140
:10140000386809F047F8236800221A640121204651
:1014100007F076FA192003F0E9FBF0232A460C21A5
:10142000204607F067F8236B1A68136823F004035B
:10143000136001214FF0FF32084608F0BFFE002381
:10144000D9F800001A4601A909F0FAF80028B6D028
:101450001EB1BDF800309BB283BBBDF800309BB21B
:1014600023B3BDF800304FF6FF729BB2934210D009
:10147000BDF80030013B9BB2ADF80030ADF8023052
:10148000BDF802309BB213B1BDF802309BB2ADF88B
:10149000003001A8BDF80AA00126FFF7F1FEA8E779
:1014A0000023ADF800304FF0FF3A9FE7F0222121F2
:1014B000284620F0D7FF4FF0FF3A9AE7BDF80CA07E
:1014C000F022BAF1140F4FF021012846B8BF4FF0B7
:1014D000140A002620F0C6FF8BE700BFDC35002091
:1014E000483C002058310020BC3700209C360020AA
:1014F00010B503690E4C186859689A6807C40D4AFC
:10150000A4F10C010C4C10684FF0FF33012209F0DC
:101510005FF8206808F044FF30B9084BBDE8104080
:101520001868012108F000BE206808F019FFF4E7F0
:101530004C310020BC3700209C360020C4370020EE
:1015400010B586B001230A2200200DF11704CDE961
:1015500001328DF81700009427487522D02104F03D
:101560001FF89DF81730682B00D1A8B301230A2279
:10157000CDE90132204800940022D02104F010F877
:101580009DF81730EA2B00D158B301230A22CDE988
:101590000132194800947522D22104F001F89DF817
:1015A0001730682B00D110B301230A22CDE9013294
:1015B000114800940022D22103F0F2FF9DF8173069
:1015C000EA2B02D0002006B010BD0028FAD10B4B48
:1015D000692283F8942008E0084A82F89430682051
:1015E000F1E7064B682283F89420EA20EBE7034BEF
:1015F000692283F89420F2E7883E00207C330020A3
:1016000010B5064C20460EF075FE20460FF040F94E
:10161000204601210EF0C2FF012010BDB43200208F
:101620002DE9F04F2DED028BC74C2588680589B058
:101630005BD429041AD5B4F90430C44A06EE903AB2
:10164000B4F9063007EE903AB4F90830F8EEE66ADD
:1016500007EE103ABE4BF8EEE77AC3ED006AB8EE3B
:10166000C77ABC4B82ED007AC3ED007A6A041AD5C2
:10167000B4F90A30B84A06EE903AB4F90C3007EEE5
:10168000903AB4F90E30F8EEE66A07EE103AB34B32
:10169000F8EEE77AC3ED006AB8EEC77AB04B82ED98
:1016A000007AC3ED007AAB041AD5B4F91630AD490F
:1016B000AD4A06EE903AB4F9183007EE103AB4F994
:1016C0001A3007EE903AF8EEE66AB8EEC77AA74B02
:1016D000C1ED006AF8EEE77A82ED007AC3ED007A98
:1016E00009B0BDEC028BBDE8F08F206BFEF772FFF6
:1016F00000229F4BFEF7D8FF9E4B82468B46C3E9E4
:1017000000AB606BFEF766FF0022994BFEF7CCFF43
:10171000994BCDE90001C3E90001A06BFEF75AFF28
:10172000934B0022FEF7C0FF944BCDE90201C3E9C1
:10173000000152465B4650465946FEF7B5FF064645
:101740000F46DDE9000102460B46FEF7ADFF80467D
:101750008946DDE9020102460B46FEF7A5FF424637
:10176000CDE904014B4630463946FEF7E7FDDDE999
:101770000423FEF7E3FD02460B4600208049FEF7F6
:10178000DBFD41EC100B1FF0F5FD7E4B494683ED70
:10179000000B404659EC108BFFF75EFAFEF72CFF6A
:1017A00002460B4630463946CDE90623FEF7C6FD14
:1017B00002460B46FEF7C2FD02460B46002070496A
:1017C000FEF7BAFDFFF748FA424608EE100A4B460C
:1017D00050465946FEF768FFDDE9022306460F46EC
:1017E000DDE90001FEF760FF02460B463046394650
:1017F000FEF7A4FD02460B46FEF7A0FDFFF72CFA0C
:10180000F0EE480A00EE100A1FF00CFE10EE100A6F
:10181000FEF7F2FE5C4B5D4E0022FEF745FF48A34B
:10182000D3E90023FFF76AF8FFF716FA4246306063
:101830004B46DDE90001FEF737FFDDE902230646EE
:101840000F4650465946FEF72FFF02460B463046DC
:101850003946FEF771FD02460B46FEF76FFDFFF7B6
:10186000FBF900EE100AF7EE007AB4EEE70AF1EEAB
:1018700010FA5ADDB0EE670A1FF0A8FD10EE100A4C
:10188000FEF7BAFE404B424E0022FEF70DFF2CA39E
:10189000D3E90023FFF732F8FFF7DEF9DDE906238D
:1018A0003060DDE90401FEF749FD02460B46FEF714
:1018B00045FD02460B4600203149FEF73DFDFFF78E
:1018C000CBF9424608EE100A4B46DDE90201FEF76D
:1018D000EBFEDDE9002306460F4650465946FEF76B
:1018E000E3FE02460B4630463946FEF727FD024628
:1018F0000B46FEF723FDFFF7AFF9F0EE480A00EEC6
:10190000100A1FF08FFD10EE100AFEF775FE1E4B39
:10191000204E0022FEF7C8FE09A3D3E90023FEF7FC
:10192000EDFFFFF799F9306083E6FFEE007AB4EE41
:10193000670AF1EE10FA48BFB0EE670A9CE700BFF5
:10194000182D4454FB2109407C330020E432002050
:10195000EC320020E8320020D8320020E0320020B3
:10196000DC320020D4320020D0320020CC320020E3
:101970000000103E10330020083300200033002008
:101980000000F03F1833002000806640F83200204D
:10199000F4320020F032002010B50F480F4C0EF04A
:1019A0001BFA0F480EF0A2FC0E490F4800224FF020
:1019B0007E5C4A60C1F800C08A60CA6002600B4960
:1019C000426082600A4A00232360A3800B608B8000
:1019D0001360938010BD00BF2033002090320020A0
:1019E000B4320020A4320020983200208832002037
:1019F0008032002030B55E4C83B02046043401258F
:101A00000EF004FB20468DF807500DF07BFE9DF88C
:101A100007302A46002814BF002303F001031221D7
:101A200020468DF807300DF047FE9DF807302A4616
:101A3000002814BF002303F00103032120468DF882
:101A400007300DF039FE9DF807302A46002814BFF4
:101A5000002303F00103022120468DF807300DF02A
:101A60002BFE9DF807302A46002814BF002303F000
:101A70000103042120468DF807300DF01DFE9DF86E
:101A800007300022904214BF002303F00103A82175
:101A900020468DF807300DF01BFE9DF80730002220
:101AA000904214BF002303F00103BE2120468DF8AD
:101AB00007300DF00DFE9DF807300022904214BF54
:101AC000002303F00103BA2120468DF807300DF002
:101AD000FFFD9DF807300022904214BF002303F061
:101AE0000103B62120468DF807300DF0F1FD9DF879
:101AF00007302946002814BF002303F001032046C5
:101B00008DF807300DF0B4FD9DF807302946002808
:101B100014BF002303F0010320468DF807300DF0B9
:101B2000B7FD9DF807300246002A14BF002303F0DA
:101B3000010320468DF807300DF0B6FD9DF8073003
:101B40000246002A14BF002303F0010320468DF84B
:101B500007300DF095FD9DF807300246002A14BFAE
:101B6000002303F0010328468DF8073003B030BD91
:101B700020330020000000002DE9F04F2DED028BF6
:101B80009BB008234FF4A0720021B3488DF81530A4
:101B900004248DF8144020F065FC78220021AF4821
:101BA00020F060FCFFF7CCFC6828064600F041817D
:101BB000EA2800F03B8108F069FA682E054640F0FB
:101BC0006F81A74B029306AB019305AB9FEDA58AEE
:101BD000DFF8C482A04CDFF8ACB2DFF8ACA2A24FB1
:101BE000DFF8B892009394E0BDF8162092B2B2F5F7
:101BF000806F00F09F809B0700F1A0800026BBF95A
:101C00000000C8E90066C8E90266C8E90466FEF794
:101C1000E1FC89A3D3E90023FEF770FE88A3D3E992
:101C20000023FEF741FDC4E93801BBF90200FEF7CD
:101C3000D1FC81A3D3E90023FEF760FE80A3D3E9A2
:101C40000023FEF731FDC4E93A01BBF90400FEF7B9
:101C5000C1FC79A3D3E90023FEF750FE78A3D3E9B2
:101C60000023FEF721FDC4E93C01BAF90000FEF7AC
:101C7000B1FC75A3D3E90023FEF740FEC4E92001BF
:101C8000BAF90200FEF7A6FC6FA3D3E90023FEF722
:101C900035FEC4E92201BAF90400FEF79BFC6AA3F1
:101CA000D3E90023FEF72AFE704B9FED716ADB88B3
:101CB000DFED706ADBBA07EE903AF8EEE77AC4E936
:101CC000240187EE867A01993046143577EE267A1C
:101CD000C8ED067A02F074FE069B23604FF0FF31D8
:101CE000089B3868636008F0D5FB029B0099186870
:101CF00032464FF0FF3308F06BFC386808F000FC08
:101D00004FF0FF320121042008F058FA284608F06D
:101D1000B9FA48460FF048F8064648460EF060FB10
:101D2000039048460EF09AFB039BADF81600DA06C6
:101D30007FF55AAF48460EF06DFB5FE7BDF81630F1
:101D40009BB29E4209D948460EF088FBADF81600BA
:101D5000BDF816309BB2B342F5D3F2B20AA9484699
:101D60000EF090FBBDF8163043499B1B9BB20AAAAC
:101D70004846ADF816300EF06BFF3F4A3F49404EE3
:101D800048460EF0A7FF3D4B3B4A3D4948460EF002
:101D9000C5FF3C490AAA48460EF04CFF0AAA3A4938
:101DA00048460EF089FFD6ED007A67EE887A17EE86
:101DB000900AFEF721FC26A3D3E90023FEF79EFD3F
:101DC000FEF722FF07EE900A96ED017A2F4BF8EE10
:101DD000E77AC3ED007A67EE087A17EE900AFEF70D
:101DE0000BFC1BA3D3E90023FEF788FDFEF70CFFD5
:101DF00007EE900A96ED027A254BF8EEE77AC3EDEE
:101E0000007A67EE087A17EE900AFEF7F5FB10A34A
:101E1000D3E90023FEF772FDFEF7F6FE07EE900A07
:101E20001C4BF8EEE77AC3ED007AE7E6FFF7E2FD38
:101E3000C1E6FFF7E5FBBEE600000000E0FFBF40A3
:101E40001F85EB51B89E23400AD7A3703D628040A6
:101E5000182D4454FB2109407800001000000010A8
:101E60000437002000003443E03400204C320020CE
:101E70000000AA43B81E1242A4320020983200206B
:101E8000743200206C32002064320020F0320020D6
:101E9000F4320020F83200207C330020B4320020DD
:101EA000894A8A4C8A4F029206AB05A99846EA2EC7
:101EB000009189460193924641464FF000001ED0A2
:101EC00002F07EFD069A089B38684FF0FF31C4E9A6
:101ED000002308F0DFFA49464FF0FF330022DAF81A
:101EE000000008F075FB1435386808F009FB284637
:101EF00008F0C8F9EA2E41464FF00000E0D1DFF8C3
:101F00000892DFF808B2DFF808A2DFF80882714E05
:101F1000414630460DF0EAFBFFF782FB99F84C3062
:101F20000C2BF5D0002B40F085806B4B1868FEF72A
:101F300063FB5DA3D3E90023FEF7E0FC5CA3D3E9D8
:101F40000023FEF7B1FB654BC4E938011868FEF7C2
:101F500053FB55A3D3E90023FEF7D0FC54A3D3E9E8
:101F60000023FEF7A1FB5E4BC4E93A011868FEF7B7
:101F700043FB4DA3D3E90023FEF7C0FC4CA3D3E9F8
:101F80000023FEF791FB574BC4E93C011868FEF7AC
:101F900033FB49A3D3E90023FEF7B0FC524BC4E95D
:101FA00020011868FEF728FB43A3D3E90023FEF7BE
:101FB000A5FC4E4BC4E922011868FEF71DFB3EA3A9
:101FC000D3E90023FEF79AFC494BC4E924011868C1
:101FD000484BD3E90023C4E90623474BD3E9002348
:101FE000C4E90823DBE90023C4E90A23434BD3E90E
:101FF0000023C4E90C23FEF7FFFA31A3D3E9002341
:10200000FEF752FB3E4BCAE906011868FEF7F4FAE8
:102010002BA3D3E90023FEF747FB3A4BCAE908019B
:102020001868FEF7E9FA26A3D3E90023FEF73CFB84
:10203000CAE90A010199002002F0C2FC069B236054
:102040003868089B63604FF0FF3108F023FA029E66
:10205000009930684FF0FF33002208F0B9FA386871
:1020600008F04EFA94E803008AE8030038684FF05D
:10207000FF3108F00FFA4FF0FF330DF11501002288
:10208000306808F0A5FA386808F03AFA14354FF0CD
:10209000FF3201210C2008F091F8284608F0F2F8F0
:1020A00035E700BFAFF3008000000000C0FFCF4065
:1020B0001F85EB51B89E23401904560E2D626040D7
:1020C000333333333333C33F0437002078000010F9
:1020D000E034002024330020EC320020E8320020DD
:1020E000E4320020E0320020DC320020D832002030
:1020F000D432002018330020103300200033002099
:10210000D0320020CC3200202033002008330020C1
:10211000000000107C330020724B00222DE9F041BA
:10212000C3E90022C3E90222C3E90422018801298C
:1021300004460FD0022911D0238A012B14D0022B80
:1021400065D0002B40D02389032B3BD8DFE803F078
:102150005952364B4288002A00F08B804FF6FF72AE
:10216000DA82238A012BEAD15F4D604A2B78604ED8
:102170004FF6FF71918223B95E4B30687168B26887
:1021800007C35D495D4A00230B604B6073700B8190
:102190005B4E10684FF0FF3301F8023D012208F05A
:1021A00017FA306808F0FCF800286CD1554B012173
:1021B000186807F0B9FF01232B70C4E74B4B524A54
:1021C000C3F81620BDE8F081474D484840F2471259
:1021D000012908BF13462A788382531E012B56D942
:1021E00000232B70AFE7414B4FF0FF32C3F81620AE
:1021F000BDE8F0813D4B4FF6FF72C3F81620BDE8F5
:10220000F0813A4B0022C3F81620BDE8F081364D2C
:10221000364A2B78364E4FF6FF71918223B9354BF3
:1022200030687168B26807C3334FDFF8D480002389
:102230003B607B603B817370304B394618684FF0D0
:10224000FF3301F8023D012208F0C2F9294B07CB08
:1022500047F8020CD8F800007160B26008F0A0F8EE
:1022600060B9284B0121186807F05EFF02232B702C
:1022700069E740F24712DA821A825DE7D8F8000077
:1022800008F06EF8EDE7306808F06AF88EE7194F4D
:10229000DFF85CC0DFF864803E4607CE184ECCF80D
:1022A00000004FF0000ECCF80410CCF80820D8F84D
:1022B0000000C7F808E04FF0FF3361460122C7E98C
:1022C00000EE08F085F9306808F06AF828B90D4B7F
:1022D0000121186807F028FF82E7306808F040F80D
:1022E000F5E700BF040000201434002000000020A7
:1022F0004C310020183400204E310020BC37002023
:102300009C360020C43700200000FFFF2DE9F04F6D
:10231000B84EB94DDFF8F0A2DFF8F09289B0002492
:1023200003A8CDE90344CDE90544ADF81C40FFF70F
:10233000F3FE4FF0FF31306808F0ACF8AF491C22D3
:10234000284605F053FB6B6D1A68136823F00403ED
:102350001360012703A8ADF80C70FFF7DDFE4FF006
:10236000FF31306808F096F8A4491C22284605F091
:102370003DFB6B6D1A68136823F0040313604FF480
:10238000FA6007F071FF4FF0020803A8ADF80C8067
:10239000FFF7C2FE4FF0FF31306808F07BF8974935
:1023A0001C22284605F022FB6B6D1A68136823F087
:1023B000040313604FF4FA6007F056FF03A8ADF86A
:1023C0001470ADF80C40FFF7A7FE4FF0FF313068F6
:1023D00008F060F889491C22284605F007FB6B6D60
:1023E0001A68136823F0040313604FF4FA6007F0CF
:1023F0003BFF03A8ADF81480FFF78EFE4FF0FF31CE
:10240000306808F047F87D491C22284605F0EEFAAE
:102410006B6D1A68136823F0040313604FF4FA60BD
:1024200007F022FF03A8ADF81C70ADF81440FFF7C9
:1024300073FE4FF0FF313068714F08F02BF86F4991
:102440001C22284605F0D2FA6B6D1A68136823F037
:10245000040313604FF4FA6007F006FF03A8ADF819
:102460001C40FFF759FE4FF0FF31306808F012F8BA
:1024700062491C22284605F0B9FA6B6D1A68614B57
:102480001868136823F004031360102107F04CFE52
:10249000A346A046019430E003A8FFF73DFEBDF837
:1024A0001430BDF81640BDF80E10013B9BB2022B54
:1024B00064D991B1BDF812307BB14FF6FF729342EF
:1024C000DAF8000000F0C980013BADF81230DAF80C
:1024D000000007F02DFF4FF001084FF0FF3130688A
:1024E00007F0D8FF1C224549434805F07FFA6B6D81
:1024F0001A68136823F0040313604FF0FF320021C1
:10250000032007F05BFE002304461A46386803A93F
:1025100008F096F80028BFD0E20716D5B8F1000FF2
:1025200000F08A80BDF80C30344ABDF81010012B41
:1025300040F2471318BF002324F0010453834FF0E7
:102540000008DAF8000007F0F3FEA307C5D5BBF1D9
:10255000000F5DD0BDF81430012B02D0023B012BDF
:1025600003D8264B0022C3F81620BDF818104FF0F0
:10257000000BD9F8000007F0DBFEAEE749B3BDF869
:10258000123033B34FF6FF72934274D0013BADF873
:102590001230002C9BD0BDF81A80DAF80000B8F198
:1025A000000F5AD04FF6FF73984567D008F1FF38F7
:1025B0001FFA88F30193ADF81A3007F0B9FE4FF017
:1025C0000108D9F80000214607F0B2FE4FF0010BD8
:1025D00083E7002C81D0BDF81A30002B3FF47DAF8B
:1025E0004FF6FF72934241D0013B9BB20193ADF88D
:1025F0001A30E6E7883500204C3D0020000000201E
:102600005C370020C43700206C3600203C360020A8
:10261000019B43B3BDF81430022B3CD0032B34D0C4
:10262000012B04D11E4A4FF6FF73C2F81630BDF8D5
:1026300016104FF0010B9CE7BDF8123083B118491A
:102640004FF6FF724A8317499342498810D0013BE5
:10265000ADF812304FF0010873E707F069FE3AE772
:102660004FF0FF316DE74FF0FF3182E70193A8E7AC
:102670004FF0010865E7002C8DD128E707F058FEE0
:10268000CDF804804FF001089BE7054B4FF0FF3277
:10269000C3F81620CBE7024B034AC3F81620C6E75F
:1026A00000000020243400200000FFFF38B5056939
:1026B000174C28686968AA68EB680FC42146154A58
:1026C0002C8A21F81049144C10684FF0FF33012276
:1026D00007F07EFF206807F063FE58B90F4C2068B2
:1026E00007F05EFE78B90E4B03211868BDE838404C
:1026F00007F01ABD2068094C07F032FE206807F089
:102700004FFE0028EFD0206807F02AFEEBE700BF5D
:10271000243400205C3700203C3600206C3600203A
:10272000C83700202DE9F0472A4CDFF8CCA0DFF8AD
:10273000CC90294DDFF8C880284F294E82B04FF049
:10274000FF33206800220DF1070107F079FF9DF8A3
:102750000730013B072BF2D801A252F823F000BF4B
:10276000BF270008A92700083F2700089527000871
:102770003F2700083F2700083F270008812700085F
:102780004146002238460FF06FFC2868082107F008
:10279000CBFCD4E73146002212480FF065FC2868D4
:1027A000042107F0C1FCCAE70F49104800220FF0CE
:1027B0005BFCD9F80000082107F0B6FCBFE70C4924
:1027C0000C4800220FF050FCDAF80000082107F056
:1027D000ABFCB4E704370020D437002034020010EB
:1027E0007800001038020010383400203C0200103D
:1027F0000C02001030020010D0370020CC3700202F
:102800000000001010B5284C28482368D9690FF043
:1028100047FA23682648998C89B20FF041FA236859
:10282000DA69120702D5DB699B071DD50021214813
:1028300005F064FE1F48042105F060FE42F21072AC
:102840000021702007F0BAFC02301B4B22D093F815
:102850005020102AD1B217D0402902D1174A0321A3
:10286000516193F8500010BD0C21204607F0E2F8AA
:10287000204607F0EBF822681148136843F08063A4
:1028800013600FF01DFAD9E70C4A93F8500012219B
:10289000516110BD0022094983F8502083F850206F
:1028A00093F850004A6110BD3C390020A83202085C
:1028B000B03202088C3B0020B80100100C0200105E
:1028C000B8320208000000002DE9F04F2DED028B18
:1028D0009B4CE37D13F00C028FB012D0994D2A88E7
:1028E000013212B221782A800F2901D10F2B13D97E
:1028F00095480FF0E5F900200FB0BDEC028BBDE864
:10290000F08FA17A657A9148890141EA9501C1F376
:102910000A018C4D0180E5E7227E002AE8D1A07AE9
:102920000590A079A77C0290E07994F81380667AEC
:102930000690207D01964FEAD71E267C94F811C0A0
:1029400003964EEA480E06464EEA462E07963F018B
:10295000039E607DE178089047EA1C174FEACC1C83
:102960004CEA560CCCF30A0CCDF828C0CEF30A0C76
:10297000CDF830C0C7F30A0CE07BCDF82CC094F83A
:1029800008C094F80DA094F805E0B4F8019094F80C
:10299000028004910D90A17BCDF824C02779059881
:1029A000019E94F80BB04FEA801C4CEA960C40094B
:1029B0000D9E40EACB0B4801890941EA8601039E3E
:1029C00041EA8621C1F30A0103911646049969F38D
:1029D0000F0691466CF30F094FEA411C4CEAD80CE4
:1029E0006CF31F464FEA911C4CEA870C029F099931
:1029F00026F0F826C4F81A60FE01069F46EA5E0635
:102A000066F31F49FE0946EA4106019946EA412656
:102A100002993F0147EA1117C6F30A060899A684EE
:102A20004CEA8E2C079ECCF30A0CC7F30A07678486
:102A3000A4F826C08F0194F816C047EA96074E09FD
:102A40000A9946EACC06944661F30F0C0B99268747
:102A500061F31F4C0C99C4F830C040EADA00944688
:102A6000C7F30A0761F30F0CC0F30A000399B4F827
:102A70000CA067F31F4C174660F30F0261F31F426F
:102A800013F0010F40F21376E2623149C4F834C00A
:102A90000CBFAC223246CAF30A0A13F0020F6BF3E2
:102AA0000F0708BFAC26628729F0F8296AF31F4791
:102AB0005A07A762C1F80490A68724D41B072BD419
:102AC000244B254C1D699FED258A1BA7D7E900677C
:102AD000023D04F1240834F8020FFDF77BFD3B466C
:102AE0003246FDF7E1FDFEF7B7F807EE900A77EE04
:102AF000887AA045FDEEE77A17EE903A25F8023F76
:102B0000E9D10120F8E616480FF0DAF8B5F90030FF
:102B1000042B0CDDE37DD1E712480FF0D1F8B5F9B5
:102B20000030042BCCDC094B1B88A370C8E7074A94
:102B3000E37D1288A270C1E785EB51B81E85E33FA3
:102B4000B801001036340020C43202081C000020F6
:102B5000D20100100C020010D001001000C05F4430
:102B6000BC320208C03202082DE9F04FDFF82C8198
:102B7000464FDFF83CB1464DDFF83891DFF838A119
:102B800083B0012300268DF803300196A8F140049C
:102B900011E0102B66D0002150467E6105F062FDE9
:102BA0000421504605F05EFDDBF800303948022272
:102BB0001A620FF085F838480FF082F8542200218D
:102BC00020461FF04FFCFFF71DFE0190019B402B9C
:102BD0004ED01E220021702007F0F0FA0190019BD8
:102BE000202B29D0402BD4D1D7E904022B49520005
:102BF0001FF0FEFC2A48C8E90066C8E902660FF02B
:102C00005FF828480FF05CF828684FF0FF3107F0B4
:102C100041FC0DF103014FF0FF330022D9F8000011
:102C200007F0D6FC286807F06BFC4FF0FF3201215B
:102C3000082007F0C3FACCE77A69B4F90C30B4F88D
:102C400004C03869A4F80CC021465200A3801FF0CC
:102C5000CFFC15480FF034F82422002120461FF045
:102C600001FCCEE7FFF730FE10480FF029F8C8E767
:102C70000021504605F042FC0421504605F03EFC80
:102C80000C21504605F03AFCA3E700BF0C020010EF
:102C9000E0340020E0320208C8320208F8010010D7
:102CA000D0320208E8320208D4320208D8320208D0
:102CB0003C390020043700208C3B0020F8B507F099
:102CC000E5F9074D074E00F114040027204607F0F0
:102CD000D9FA32463B4628460FF0A8FF1434F5E7F0
:102CE000503F002040420F002DE9F04F684B93E821
:102CF00007008FB006AB03C3022400211A808DF8B1
:102D000011108DF80F4009AB0EA94FF6FE7223F893
:102D1000022B8B42FBD1012007F0A6FA5D4E0DF18C
:102D2000220706AC0DF1110A012514F9011B0195CA
:102D30000A31490089B201230722CDF800A03046AC
:102D400002F032FD0A220346012120208DF81030C6
:102D500007F034FA034605939DF810300120FE2257
:102D600013B9059B202B01D004F8012C07F07CFA45
:102D7000BC42DAD14FF0010B8DF811B0DFF81481AD
:102D800006AE27E004F10A056D00ADB2012308226A
:102D90002946CDE900AB404602F006FD0A228DF837
:102DA00010000121202007F009FA05909DF810304D
:102DB000052023B9DDF81490B9F1200F36D007F0C3
:102DC00053FA0EAB03EB44044FF6FF7324F8143CA4
:102DD000BE4208D016F9014BA31CD3D1052007F041
:102DE00043FABE42F6D12C4B09AC1D690FCC2860CA
:102DF00020682A4C6960AA602861EB6020684FF067
:102E0000FF3107F047FB26480DF10F014FF0FF336C
:102E10000022006807F0DCFB206807F071FB4FF030
:102E2000FF320121082007F0C9F9A7E707F01CFAD3
:102E30000DF112030093022329460193032201237B
:102E4000144802F045FD0A228DF810000121484681
:102E500007F0B4F905909DF8103013B9059B202BAD
:102E600007D00EAB03EB44044FF6FF7324F8143C79
:102E7000AEE7BDF812305BBA1AB2952AADF812303F
:102E8000EFDC0EAA02EB440424F8143CA0E700BFD8
:102E900080320208DC3E002038340020E03400207C
:102EA00004370020704700BF704700BF704700BF65
:102EB0000C4B4FF4800210B5C3F8842104460A4835
:102EC00005F01EF9094A3CB11378002BFCD0002311
:102ED000013C1370002CF7D1BDE81040024805F00A
:102EE0003BB900BF00E100E0D03A00206834002088
:102EF00010B598B04422002106A81FF0B3FA0023B1
:102F00004FF40070CDE90133CDE90333059303F0AD
:102F100033FD08B172B6FEE79FED157B01238DED01
:102F2000147B9FED157BCDE911332823022210215C
:102F3000139306A860230E938DED0C7B06911092DF
:102F4000169203F0EFFD034608B172B6FEE70421C6
:102F50000F2403220DEB0100CDE90142CDE903333B
:102F6000059304F0F1F808B172B6FEE718B010BD91
:102F70000700000002000000010000000000000047
:102F800080B5A2B001F0C2FDFFF7B2FFA44BD86C30
:102F900040F00400D864DC6C04F004040394039C47
:102FA000DC6C44F00104DC64DC6C04F00104049487
:102FB000049CDC6C44F00204DC64DC6C04F002046D
:102FC0000594059C9C6C44F001049C649C6C04F08A
:102FD00001040194019C9C6C44F002049C649B6C71
:102FE000904C03F00203002209210D200293029B62
:102FF00001F0C0FD0D2001F0F9FD002207210E2097
:1030000001F0B8FD0E2001F0F1FD002207210F2094
:1030100001F0B0FD0F2001F0E9FD00220A2110208F
:1030200001F0A8FD102001F0E1FD00220221112095
:1030300001F0A0FD112001F0D9FD002205213B2067
:1030400001F098FD3B2001F0D1FD00220921442030
:1030500001F090FD442001F0C9FD00220921452026
:1030600001F088FD452001F0C1FD6F496F4A002342
:1030700001252046C4E90012C4E90235C4E904333D
:10308000C4E90633236202F031F908B172B6FEE7F3
:103090000146204603F012FC08B172B6FEE7014675
:1030A000204603F035FC034608B172B6FEE76048DF
:1030B00060494FF46122C0E900120C22C0E90233DA
:1030C000C0E90432C0E90633C0E9083306F0E4FE83
:1030D000034690B9584C5949594A23622046C4E9DD
:1030E0000012C4E90235C4E90433C4E9063302F02E
:1030F000FDF8014618B172B6FEE772B6FEE720464B
:1031000003F0DCFB014608B172B6FEE7204603F08F
:10311000FFFB034608B172B6FEE74A4C0A904F2205
:1031200062604FF0FF32C4E902024FF08041169016
:1031300006900E902046CDE90B33CDE91733CDE94B
:103140001933CDE90733CDE90F3321602361A36142
:103150000D93119305F074FD08B172B6FEE74FF4BC
:1031600080530AA920460A9305F0E0FB08B172B625
:10317000FEE7204605F04CFE08B172B6FEE70023DC
:1031800018931A934FF4803260232E4816A9CDE984
:10319000162305F075FC08B172B6FEE708902023EF
:1031A0002848069306A906F01DF8024608B172B633
:1031B000FEE7CDE910000E90012322480F930EA9DF
:1031C00005F07CFF08B172B6FEE71E4804220EA986
:1031D00005F074FF034608B172B6FEE71A48DFF83F
:1031E00070E083610362194B4FF48056C0E900E33D
:1031F0004FF40053C0E902634FF480620423C0E936
:1032000004234FF40043C361022343624FF480332D
:10321000C36206F041FE0446E0B172B6FEE700BFAD
:1032200000100240883E0020005C00408129F1002F
:10323000B438002000440040DC3E00200054004030
:10324000E49CD1108C3B00203C390020A08601007A
:1032500000380140604D0890CDE90A00CDE90C002E
:10326000CDE90600CDE90E00CDE91000CDE9120050
:10327000149001462C2216A81FF0F4F8574B2B602F
:1032800028466323C5E90144C5E90444AC61EB6009
:1032900005F0D6FC08B172B6FEE70AA928460A96E0
:1032A00005F044FB08B172B6FEE7284605F03CFD88
:1032B00008B172B6FEE7089006A928460026002746
:1032C000CDE9066705F08EFF034608B172B6FEE74A
:1032D0002846602400250C220EA9CDE91267CDE90D
:1032E0000E451093149305F041FE08B172B6FEE747
:1032F0004FF0007000210023CDE91E014FF4005271
:103300003548209316A9CDE91633CDE91833CDE918
:103310001A32CDE91C3305F09BFF044608B172B6A2
:10332000FEE72F4D2C4800F00FFE2E4B1894CDE9F0
:103330001644AC60AC614F2628464FF47A74C5E958
:103340000036EC6005F07CFC034608B172B6FEE77F
:10335000284616A91693189305F044FF034608B1B2
:1033600072B6FEE7204821498360C0E90433C0E912
:10337000083383620363082343634FF48273C0E915
:1033800000134FF4E063C3604FF480272823C0E9A3
:1033900006730723C36204F0ADFA034608B172B6A0
:1033A000FEE7134D1893CDE91633C5E90234AB613E
:1033B0002846104B2B606E6005F042FC034608B1B6
:1033C00072B6FEE716A928461693189305F00AFF71
:1033D000044688B172B6FEE7483C0020002C01404C
:1033E000D03A0020001000404C3D00200030014049
:1033F000103A002000140040284604F081FE00F03E
:103400002BF906F005FE0121484A084606F0E2FFC6
:10341000474B484A18600121084606F0DBFF464B3F
:10342000464A18602146012006F0D4FF444B454A25
:1034300018600121084606F0CDFF4349434B086060
:1034400022462146424806F035FF4249424B086079
:1034500022462146414806F02DFF4149414B086074
:1034600022462146404806F025FF4049404B08606F
:10347000224621463F4806F01DFF3F4B3F4A186059
:103480000C21012007F06CF83D4B3E4A18600221E8
:10349000012007F065F83C4B3C4A186001211420DC
:1034A00007F05EF83A4B3B4A186021463A4806F06E
:1034B000F5FD3A4B3A4A186021463A4806F0EEFDCF
:1034C000394B3A4A18602146394806F0E7FD394B36
:1034D000394A18602146394806F0E0FD384B394A30
:1034E00018602146384806F0D9FD384B384A186034
:1034F0002146384806F0D2FD374B384A214605466A
:1035000037481D6006F0CAFD364B024636481A6041
:1035100006F04EFF354B18600EF04CFC0DF070FEBF
:1035200033480EF0BDFB06F097FDFEE7D8420208D7
:10353000DC350020C842020888350020B842020865
:1035400034350020A8420208E03400201843020865
:10355000A92E00089C36002008430208AD2E000862
:103560006C360020F8420208A52E00083C360020E8
:10357000E8420208A54700080C360020584302081C
:10358000BC370020404302085C3700202843020873
:103590000437002048440208BD2C0008D83700201A
:1035A00024440208791B0008D43700200044020894
:1035B000692B0008D0370020DC430208E92C000802
:1035C000CC370020B84302080D230008C83700207C
:1035D00094430208E1120008C43700207043020837
:1035E00025270008C0370020984202088C340020AC
:1035F000EC320208114A0368934210B519D0104A00
:10360000934203D00F4A934204D010BD0E4B0122C7
:103610001A7010BD0D4B0E4C186806F071FF0C218E
:10362000204604F069FF2268D36823F00103D360C9
:1036300010BD044601F07AFA2368E0E70044014037
:1036400000100040002C014068340020DC350020D0
:10365000483C002072B6FEE72DE9F04FBA48BB4C5B
:10366000BB4BBC4ABC49BD4DDFF86083BC4FAFB01B
:10367000CDE9000401200FF02FFE28AE28A80FF09E
:1036800031FD0FCE2C460FC4DFF844E3DFF844C30E
:10369000C5E9008EC5E902C72846336823600FF0EC
:1036A0003DFD28AC28A80FF02BFD0FCCDFF82883B8
:1036B0003668A8E80F004346002243F81069A9487D
:1036C00011460FF019FC002840F0BB810446A64EBD
:1036D000A64AA44BA649A748DFF800930FF056FC72
:1036E00004202B68306121469847A34AB060034606
:1036F000106818600D270323F360C9F810702B6859
:103700009E4E214638469847DFF8D4C2C9F80800D3
:103710000346BCE807004FF00C0A18609A604FF0AF
:10372000120B9CF800201A7359602420C6E9054B3F
:103730002B68C9F80CA0214698474FF00109C6E94B
:1037400001992B6830612146142098472B6830601E
:1037500087600390214638469847039ADFF884C271
:1037600010603368864FD3F800E0BCE80700CEF85D
:103770000000CEF808209CF800208EF80C2032685B
:10378000CEF804100A23C2E903BBC2F804A0214604
:10379000C7E905332A68F46014209047C7E9019906
:1037A0002A6838612146142090472A683860064606
:1037B000C0F808A02146504690473A68DFF828C272
:1037C0003060D2F800E06F4EBCE80700CEF8000091
:1037D000CEF808203A68CEF804100B2353604FF05F
:1037E00006090A23C2E9033321462B68FC60C6E9B7
:1037F0000599504698472B683061C6E901992146E2
:10380000142098472B68C0F808A00746306021466E
:103810005046984732685C4B3860D2F800C05B4F26
:1038200007CBCCF800003368CCF808204FF0090A29
:103830000B22CCF8041058465A60C3E9039921467C
:103840002B68F460C7E905AA98472B6838612146C0
:10385000C7E901AA142098478346386007202B68DF
:10386000CBF80800214698473B68CBF80000484950
:103870001A68086810603B6888888979917190801F
:10388000C3F80490C3E903AAFC6010F069FE414B41
:103890003849DFF85891404D024640480FF0B2FBDE
:1038A00010F018FC3E4B334902463E480FF0AAFB8D
:1038B00010F028FC3C4B2F4902463C480FF0A2FB7D
:1038C00010F04EFE3A4B2B4902463A480FF09AFB55
:1038D0000EF010FCC9F8000010F05AFE364B2549D6
:1038E000024648460FF0C2FB0EF004FC286010F0C0
:1038F0004FFE324B1F49024628460FF0B7FB04A883
:103900000FF09EF804A990222D481EF071FE154973
:103910002B48A8F1100302220FF09EF8294B2848EB
:1039200000943A4649460FF003F9274B2448009487
:10393000324629460FF0FCF8642010F03BF810F0F6
:1039400021F8002873D153E0C14800082D49000830
:10395000B148000899480008B4380020303F0020E2
:1039600091480008F43F002078000010F041020860
:1039700010340208443F0020083402080C020010F2
:1039800038340020284000204834020844400020F9
:10399000F433020854340208280200103C020010DC
:1039A0006034020838020010643402083402001047
:1039B0006C340208300200107C340208843402089F
:1039C000503F0020AD260008F11400088948000887
:1039D0008D48000895480008E03F002000000010D6
:1039E0001C3402082C3402083C3402082C0200105B
:1039F000262001F009F9262001F018F900220521FE
:103A0000262001F0B7F8262001F0F0F8112001F08F
:103A1000FBF8112001F00AF900220621112001F023
:103A2000A9F811202FB0BDE8F04F01F0DFB80FF07A
:103A3000B3FF0023094AFDF75FF9094BC3E9000111
:103A4000D6E7BFF34F8F0749074BCA6802F4E0621D
:103A50001343CB60BFF34F8F00BFFDE740420F0021
:103A60005834002000ED00E00400FA0510B40E4BBD
:103A7000186E40F0010083B018661C6E04F001045B
:103A80000094009C9C6D44F080549C659B6D03F0F9
:103A900080530193019B00220F216FF0010003B0BE
:103AA0005DF8044B01F066B8001002402DE9704348
:103AB0000446A0B0002154220BA8CDE90611CDE99F
:103AC00008110A911EF0CEFC7C4A2368934206D06E
:103AD0007B4A934200F0838020B0BDE8708340238E
:103AE0000BA80B9303F0BAFC002840F0DD80754D65
:103AF000EB6C43F00103EB64EB6C03F00103009308
:103B0000009BEB6C43F00203EB64EB6C03F00203ED
:103B100001934FF48062042612234FF000084FF007
:103B2000030906A94FF09040CDE906230A96019BB0
:103B3000CDE9088901F0D4F94022122362480A969F
:103B400006A9CDE90623CDE9088901F0C9F9AA6DD6
:103B50005E4E5F49002342F40012B360AA65AA6D6D
:103B6000F36002F4001202920522C6E900120298E4
:103B7000336280223046C6E90423C6E9063301F0E9
:103B800063F8002840F08D80524D5349E6630522CA
:103B90000023C5E90012284610218022C5E902133E
:103BA000C5E90533C5E90733B4622A6101F04CF871
:103BB000002873D100220821A5631F20AC6200F009
:103BC000D9FF1F2001F012F800220621202000F06A
:103BD000D1FF202001F00AF820B0BDE870834FF437
:103BE00080730BA80B9303F039FC00285FD1354E8E
:103BF000F36C43F00103F364F36C03F001030393EC
:103C0000039BF36C43F00203F364F36C03F00203D1
:103C100004938022042512234FF000084FF003097B
:103C200006A94FF09040CDE906230A95049BCDE903
:103C3000088901F055F91022122323480A9506A994
:103C4000CDE90623CDE9088901F04AF9B26D234D8B
:103C50002349002342F40002AB60B265B26DEB6011
:103C600002F4000205920322C5E9001205982B62B6
:103C700080222846C5E90423C5E9063300F0E4FFA5
:103C8000C0B900220821E5634820AC6200F072FF51
:103C9000482000F0ABFF20B0BDE87083FFF7DAFCEE
:103CA00088E7FFF7D7FC6FE7FFF7D4FC1FE7FFF7C4
:103CB000D1FC9CE7FFF7CEFCE3E700BF00540040D7
:103CC000005C00400010024000040048403E00201C
:103CD0006C040240F83D002080040240B03D00200A
:103CE00030000240F0B5324B02688BB000249A429B
:103CF000CDE90444CDE90644089401D00BB0F0BDF1
:103D000003F5604305261A6E42F480521A661A6E55
:103D100002F480520192019ADA6C42F00102DA64F4
:103D2000DA6C02F001020292029ADA6C42F00202AC
:103D3000DA64DB6C03F002030393102202230327EF
:103D400004A905464FF09040CDE90423CDE907765C
:103D5000039B01F0C5F8282202231648089604A9FF
:103D6000154E0797CDE90423069401F0B9F8134ADC
:103D70000423C6E90023304610228023C6E902242A
:103D8000C6E90544C6E90744336100F05DFF58B950
:103D9000002205216E652320B56200F0EBFE232092
:103DA00000F024FF0BB0F0BDFFF754FCF0E700BFBC
:103DB0000030014000040048043D0020440402405B
:103DC00070B503685A4A8CB000249342CDE906448A
:103DD000CDE908440A941ED0B3F1804F61D0554A12
:103DE000934200F08780544A934201D00CB070BDDA
:103DF000524B986D40F0200098659B6D03F02003B6
:103E00000593224601213720059B00F0B3FE3720A1
:103E100000F0ECFEEAE7494B494E1A6EF46042F4BA
:103E200000621A661B6E474AB46103F40063019393
:103E30000723C6E90023802305461022336130465C
:103E40004FF48073C6E907440199B260736100F0D2
:103E5000FBFE002862D100220121C5E90C66AE6399
:103E60001820B56200F086FE182000F0BFFE002288
:103E70000F21192000F07EFE192000F0B7FE00226D
:103E800005211A2000F076FE1A2000F0AFFE002275
:103E900005211B2000F06EFE1B2000F0A7FE0CB0D9
:103EA00070BD03F504339FED207B9A6D42F0010253
:103EB0009A659A6D02F001020292029ADA6C42F05F
:103EC0000102DA64DB6C03F00103039306A901230A
:103ED0004FF090408DED067B0A93039A01F000F8B5
:103EE000224606211C2000F045FE1C2000F07EFE2C
:103EF0000CB070BD114B986D40F0100098659B6D33
:103F000003F010032246012104933620049B00F0A5
:103F100031FE362000F06AFE0CB070BDFFF79AFB50
:103F200099E700BFAFF300802A0000000200000004
:103F3000002C01400010004000140040001002401E
:103F4000C43900204400024000B5174A016889B016
:103F500000239142CDE90233CDE90433069302D028
:103F600009B05DF804FB03F1804303F504339FEDD2
:103F70000C7BDA6C42F00102DA64DB6C03F00103C3
:103F8000019302A901234FF090408DED027B019A2D
:103F9000069300F0A5FF09B05DF804FBAFF30080C5
:103FA0000008000002000000002C0140F0B50446AB
:103FB000A1B0002154220BA8CDE90611CDE90811CA
:103FC0000A911EF04FFA734A2368934204D0724A52
:103FD000934260D021B0F0BD01230BA80B9303F0F6
:103FE0003DFA002840F0C9806C4B1A6E42F48042C2
:103FF0001A661A6E02F480420192019ADA6C42F05B
:104000000102DA64DA6C02F001020292029ADA6CBE
:1040100042F00202DA64DB6C03F0020303934FF414
:104020000072072502230026032706A94FF09040BF
:10403000CDE906230A95039BCDE9086700F050FF00
:104040008022022356480A9506A9564DCDE906233B
:10405000CDE9086700F044FF534902220023C5E977
:104060000012284680212022C5E90233C5E9041345
:10407000C5E906322B6200F0E7FD00287AD1002264
:10408000072165672520AC6200F074FD252000F053
:10409000ADFD21B0F0BD02230BA80B9303F0DEF9B8
:1040A00000286DD13D4B9A6D42F400329A659A6DAD
:1040B00002F400320492049ADA6C42F00102DA64EB
:1040C000DB6C042003F001030221CDE90601059316
:1040D00000260723032706A94FF09040CDE9086783
:1040E000059A0A9300F0FCFE03234FF4004206A950
:1040F0004FF090400A930223CDE90623CDE90867EB
:1041000000F0EEFE294E2A4902220023C6E90012E1
:104110008021C6E90233C6E904132022B361304688
:104120004FF44053C6E9072300F08EFD70BB214DCC
:10413000214966670222C5E900128022002310216E
:104140002A6128464FF44052C5E90213C5E90533F8
:10415000C5E90732B46200F077FDA0B90022012161
:1041600025672620AC6200F005FD262000F03EFD0C
:1041700021B0F0BDFFF76EFA81E7FFF76BFA33E786
:10418000FFF768FA8EE7FFF765FAE7E7FFF762FAED
:10419000CDE700BF0038014000440040001002405D
:1041A000000400486C3800205800024024380020E9
:1041B0006C000240DC3700208000024000F0B6BCFA
:1041C00070B5224B224C1A6E42F4003288B01A6647
:1041D0001B6E03F4003301A90293064603A8029B59
:1041E00003F08CF803F078F81A4A1B49A2FB00236D
:1041F0009B0C013B0022C4E90013204640F2E73348
:104200002261A260A261E36004F01AFD054638B1A4
:10421000124A0F480E2104F059FC284608B070BD20
:10422000204603F06DFF05460028F1D1192000F06B
:10423000DDFC0F2E01D90125EAE72A463146192077
:1042400000F098FC064B1E60E2E700BF0010024041
:104250006040002083DE1B4300440140BD41000854
:104260002C000020FEE700BFBFF34F8F0549064B2F
:10427000CA6802F4E0621343CB60BFF34F8F00BF04
:10428000FDE700BF00ED00E00400FA05FEE700BF17
:10429000FEE700BFFEE700BF704700BF10B50B4C44
:1042A0000DF0CEFA204600F0C7FD94F824301BB183
:1042B000BDE810400DF0EABA054B1021186805F072
:1042C00033FFBDE810400DF0E1BA00BFB03D002063
:1042D000D437002008B5054800F0AEFD044B1A683D
:1042E000D36843F00103D36008BD00BFC439002088
:1042F000483C0020014800F09FBD00BF6C38002002
:10430000014800F099BD00BF24380020014800F0AA
:1043100093BD00BFDC370020024803680BB104F0F6
:104320002DBA7047483C0020064808B503680BB119
:1043300004F024FA044803681BB1BDE8084004F007
:104340001DBA08BD483C002060400020014804F030
:1043500015BA00BF483C0020014804F00FBA00BF66
:10436000483C0020014804F009BA00BF8C3B002003
:1043700008B50DF065FA034801F03CFBBDE80840C4
:104380000DF084BADC3E0020014802F039B800BFCD
:10439000DC3E0020014803F007BC00BF4C3D00207C
:1043A00008B50DF04DFA034805F04CF9BDE808409A
:1043B0000DF06CBA3C390020014805F043B900BF4C
:1043C000B438002008B5034804F0D8F9024B0122A4
:1043D0001A7008BDD03A00206834002008B506489D
:1043E00004F0CCF9054AD2E90031013341F1000172
:1043F000C2E9003108BD00BF103A0020603400203F
:1044000008B5044800F018FD034B1868BDE80840E3
:1044100006F076B8043D00208835002008B50DF080
:104420000FFA064800F008FD054B2021186805F03A
:104430007BFEBDE808400DF029BA00BF403E0020D9
:10444000CC37002008B50DF0FBF9064800F0F4FC6D
:10445000054B2021186805F067FEBDE808400DF007
:1044600015BA00BFF83D0020CC370020014801F00C
:10447000C1BA00BF883E0020924B984200D07047DE
:1044800070B5914D95F85020402A84B016D095F81B
:104490005020202A12D0067F012E04465FD0022E23
:1044A0000AD195F85030022B06D0884A13780F2B8A
:1044B00000F289800133137004B070BD95F850206C
:1044C000834C202A2178D0B22ED0402819D11A7FCF
:1044D000022A00F0AB80082A00F09680012A10D151
:1044E0007C481B680678002E40F0B28002705A6B40
:1044F0002A601A6A22F00A021A621A6A42F002025A
:104500001A62072926D0744B1B78002BD4D195F85A
:104510005030202BD0D1714B95F85010186805F011
:1045200003FE00232370C7E71B686B4A986B137860
:1045300040F6C4161FFA80FCB4453FD968480729E5
:1045400043614FF000031370E1D195F85030402BD8
:10455000DDD1E0E795F85030402BD4D1DBE70021E6
:1045600004F080F80421204604F07CF821686FF004
:1045700004030B618B6823F48033002223F00703CC
:10458000009220468B606946CDE90162039204F0F7
:1045900095FD98BB4B480422694604F08FFD50BB43
:1045A00048480C22694604F089FD50BB4B4B402122
:1045B000186885F8501005F0B7FD7DE725F8130061
:1045C000013313709DE7002104F04CF823686FF06D
:1045D00002021A619A6B00929B6BB3F57A6F7FF6B9
:1045E0006BAF3E4B1868202185F8501004B0BDE831
:1045F000704005F099BDFFF72DF8D1E7FFF72AF8D5
:10460000C8E7FFF727F8D1E7324A1B6890780028FF
:1046100031D1186CA860186A20F420401862186A1A
:1046200040F400501862012393706AE7294A1B681E
:104630005078002832D1986B6860186A20F0A0008A
:104640001862186A40F0200018620123537058E77E
:104650005A6B2A621A6A22F00A021A621A6A1A62EB
:104660002B6A2A689B1A41F00101A5F8403000230B
:104670002170037045E7186CA862186A20F4204086
:104680001862186A1862AB6AA8681B1A41F0040124
:10469000A5F8443000232170937032E7986B68626C
:1046A000186A20F0A0001862186A18626B6A6868BD
:1046B0001B1A41F00201A5F842300023217053700B
:1046C0001FE700BF8C3B0020B80100101E410020F6
:1046D0001D410020204100201C410020D037002037
:1046E0000C020010704700BF164B984200D0704774
:1046F000D0F884309B0610B5044600D410BD0023CA
:10470000C0F8843005F0C2F90F49236810200E224A
:1047100081F850001A629B8C0B701922204605F01C
:104720003BFC2168626F8B681268084823F0010324
:104730008B60136823F00403BDE8104013600DF094
:10474000BFBA00BF3C390020B80100109034020805
:1047500008B5074B834203D005F06CFC022800D05B
:1047600008BD044B1868BDE8084005F0C9BE00BF8D
:104770003C3900203435002008B5074B834200D077
:1047800008BD06480DF09CFA054B10211868BDE8DD
:10479000084005F0C9BC00BF3C3900203C36020887
:1047A000D037002010B50948094C04F0C9FE094B68
:1047B00001220021204683F8502003F09FFE20466E
:1047C0000421BDE8104003F099BE00BF3C39002031
:1047D0008C3B0020B80100100120704708B51DF087
:1047E000D5FE162303604FF0FF3008BD08B51DF05D
:1047F000CDFE16230360FEE770B5161E07DD0C46DE
:104800008D19AFF3008004F8010BA542F9D13046B1
:1048100070BD00BF4FF0FF30704700BF4FF4005332
:104820004B600020704700BF012070470020704798
:104830000C490D4A0B6810B50C4C121B2BB11844D7
:10484000904207D80860184610BD094B0B60184409
:104850009042F7D91DF09AFE0C2303604FF0FF330E
:10486000184610BD2841002000000120000800006B
:10487000D8A80020034AD2F8883043F47003C2F865
:104880008830704700ED00E01DF084B91DF08AB952
:104890001DF00AB91DF0A8BA08B50449D0F88C0279
:1048A0004FF4006205F078FB012008BD3441002080
:1048B00008B5D0F88C0204F085FD012008BD00BFCA
:1048C00070B5D0F88C420E461546E36F202BFCD114
:1048D00005F0B0FB0228AAB23146204611D004F000
:1048E00031FD236F1A68136823F00403136018B1B5
:1048F00018E00120FEF7DCFAE36F202BF9D12846FF
:1049000070BD04F01FFD226F074916683268034628
:1049100022F00402086832601C46052105F0BAFD49
:10492000002CECD0002070BD343500202DE9F84F6C
:10493000D0F88CB2DFF880A01E4E0D469046994606
:10494000002701E04F452EDA72B6DBF874301B68A1
:104950005868C0F50060CAF8000062B6012007443C
:10496000FEF7A6FA3468DAF800209442EAD0B8F1EB
:10497000000F18D0A844DFF844C008F1FF386B1EC0
:1049800001E0434512D0671C1CF804101846C7F319
:104990000A040230A24203F8011FA0EB0500F0D187
:1049A0003260BDE8F88F0020BDE8F88F3460BDE8C4
:1049B000F88F00BF304100202C41002034410020FE
:1049C0001F4A204BD0B5D2E900671A68921947F107
:1049D000000E4FEA4E1053019B1A40EAD26060EB82
:1049E0000E00400240EAD3505B029B184EEB0000E1
:1049F0000C464FEA831C810141EA9361BCEB03033F
:104A000061EB000198184EEB01010BA3D3E90023E1
:104A1000FCF772F9002AC4E90001A26007DA013844
:104A2000094B61F10001C4E900011344A3600020B7
:104A3000D0BD00BFAFF3008000CA9A3B0000000069
:104A4000583400206034002000CA9A3BDFF834D08C
:104A5000FFF710FF0C480D490D4A002302E0D4581F
:104A6000C4500433C4188C42F9D30A4A0A4C0023B8
:104A700001E013600432A242FBD31DF08DFDFEF76E
:104A80007FFAFEE700000120000000202C3100200A
:104A9000F092020830310020D8A80020FEE7000084
:104AA00010B530B1044601201DF074F8206028B123
:104AB00010BD1DF06BFD1623036010BD72B6FEF72E
:104AC000C9FDFEE708B550B1EFF305831BB172B61F
:104AD000FEF7C0FDFEE7BDE8084006F009BF72B66C
:104AE000FEF7B8FDFEE700BF08B550B1EFF3058350
:104AF0001BB172B6FEF7AEFDFEE7BDE8084007F059
:104B0000C5B872B6FEF7A6FDFEE700BF10B50320DC
:104B100000F01EF80F20FFF753FB10B101242046D0
:104B200010BD0446FEF7A2FF204610BD034A044B09
:104B300011681B780B441360704700BF4049002088
:104B400028000020014B1868704700BF4049002032
:104B50000749CA6803024FF6FF0003F4E06302400E
:104B6000134343F0BF6343F40033CB60704700BF8F
:104B700000ED00E01B4BDB68C3F3022300B5C3F17B
:104B8000070EBEF1040F03F1040C28BF4FF0040E12
:104B9000BCF1060F1CD9A3F1030C4FF0FF3303FA4D
:104BA0000CF322EA03024FF0FF3303FA0EF321EA7B
:104BB000030303FA0CF313431B010028DBB20ADBE7
:104BC00000F1604000F5614080F800335DF804FBBF
:104BD00000229446E7E7044A00F00F0002441376EF
:104BE0005DF804FB00ED00E0FCEC00E0002807DBD2
:104BF000044A4109012300F01F00834042F821309C
:104C0000704700BF00E100E000280CDB43090649C3
:104C100000F01F0020330122824041F82320BFF31F
:104C20004F8FBFF36F8F704700E100E0002808DB73
:104C30004309044900F01F0001226033824041F81B
:104C40002320704700E100E000284ED0F0B42D4A48
:104C50000468944203463FD92B492C4A2C4D2144E9
:104C6000A2FB012109098900022283F82520D3E94A
:104C700002621F6920681D6432433A435F695964C8
:104C80003A439F693A43DF693A431F6A6FF30E1054
:104C90003A430243B6F5804F226014D0586801F0C1
:104CA0001C010F228A4088401A498D426FEA020295
:104CB0001DD0D1F8A8442240C1F8A824D1F8A824D6
:104CC0000243C1F8A82400200122D86383F82400FD
:104CD00083F82520F0BC70470F490C4A0D4D214444
:104CE000A2FB012109098900BEE701207047D5F820
:104CF000A8100A40C5F8A820D5F8A8200243C5F896
:104D0000A820E0E707040240F8FBFDBFCDCCCCCCE7
:104D10000004024000000240F8FFFDBF90F824C0EC
:104D2000BCF1010F3CD070B590F825C00124A4451A
:104D300080F824405FFA8CFE04D0002380F82430F1
:104D4000022070BD022580F8255004680025C56347
:104D50002668456C26F00106266005F01C05066CE9
:104D60000EFA05F5756063608368102B036B0BBF4B
:104D7000A260A160E160E2604BB1236843F00E03E2
:104D80002360236843F001030020236070BD236883
:104D900023F004032360236843F00A032360F0E751
:104DA0000220704790F82520022A034606D00422EC
:104DB000C2630022012083F8242070470168426CFE
:104DC000086820F00E000860086820F00100086004
:104DD0004FF0010C196C02F01C020CFA02F24A604E
:104DE0000022002083F825C083F82420704700BFEC
:104DF00090F82520022A03D00422C26301207047C4
:104E00000168426C10B50C6824F00E040C600C684C
:104E100024F001040C6002F01C02046C012101FA70
:104E200002F26260826B80F82510002480F8244032
:104E300002B19047002010BD70B4436C066C056849
:104E400031682C6803F01C0304229A400A420ED0F9
:104E500014F0040F0BD02B689B0603D42B6823F0AF
:104E600004032B60036B7260CBB170BC1847022245
:104E70009A400A4215D014F0020F12D02B689906FE
:104E800006D42B6823F00A032B60012380F8253019
:104E9000C36A7260002180F82410002BE5D170BC39
:104EA000704708229A400A42F9D02207F7D52A68AB
:104EB000416B22F00E022A60012202FA03F3002461
:104EC0007360C26380F8244080F825200029E6D072
:104ED00070BC084790F82500704700BFC06B704752
:104EE0002DE9F04F0C6885B0002C00F0B98000234C
:104EF0004FF0010B62E0BCF1030F40F0BB800CFAF5
:104F000002F2D0F800C00CEA07073A4315F4403F1C
:104F100002604FD05D4F3A6E42F001023A663A6E3F
:104F200002F001020392039A23F0030202F180428D
:104F300002F5803203F0030C97684FEA8C0C0F26C1
:104F400006FA0CFEB0F1904F27EA0E070ED0504E35
:104F5000B04200F088804F4EB0420CBF4FF0020EBE
:104F60004FF0070E0EFA0CFC47EA0C0797604A4A0E
:104F70009268EE026FEA0A07474E54BF3A404AEA87
:104F80000202B260F268AE02434E54BF3A404AEAAF
:104F90000202F2607268AE033F4E54BF3A404AEAE2
:104FA000020272603268ED033B4D54BF3A404AEA58
:104FB00002022A60013334FA03F251D00BFA03FEE5
:104FC0001EEA040AF6D04D6805F0030C5A000326C9
:104FD0000CF1FF3806FA02F7B8F1010F6FEA070784
:104FE00089D8D0F80890CE6809EA070906FA02F8CD
:104FF00048EA0908C0F80880D0F804808E6828EADA
:105000000E08C5F3001E0EFA03FE4EEA080EC0F8A5
:1050100004E0D0F80C8006FA02FE08EA07084EEA1F
:10502000080EBCF1020FC0F80CE07FF468AF0E6907
:105030004FEAD30803F0070E00EB88084FEA8E0E04
:1050400006FA0EF6D8F8209001960F2606FA0EFE04
:10505000019E29EA0E0946EA090EC8F820E04EE74B
:1050600005B0BDE8F08F4FF0010E0EFA0CFC47EAD8
:105070000C077BE7D0F80C808E6808EA070806FA70
:1050800002FE4EEA080EC0F80CE038E700100240BD
:10509000000400480008004800040140F8B5036817
:1050A0009C6914F0100C054641D0164610220F469C
:1050B000DA619C6914F0200479D1781C4DD19A6989
:1050C0009106FCD52022DA619A6944F0040CD405DB
:1050D0004FF001002FD457053AD54FF48061D961C4
:1050E0004CF0080C960504D54FF400724CF0020CFD
:1050F000DA619A69910744BF00229A629A69D207DD
:1051000003D49A6942F001029A615A6829490A4017
:105110005A606B6C002243EA0C0320216B6485F813
:10512000402085F8411085F842200120F8BD9A6999
:10513000D4056046CFD54FF48071D96151054CF04C
:10514000010CCFD54FF48061D9614CF0080CC9E750
:105150009405C9D40028CCD1F8BDFFF7F3FC801B1F
:10516000B8422B6804D81FB19A699206A5D5A9E761
:10517000586895F8422099690C04D2B20BD54104C5
:1051800009D4202A07D05A6842F480425A60FFF7B7
:10519000D9FC2B6806469A6992068AD4FFF7D2FC9E
:1051A000831B192B2B68F6D99A6920248CE70024DD
:1051B00088E700BF00E800FE70B5036804460D46AE
:1051C000164605E0FFF76AFF00BB6A1C08D123689A
:1051D0009B699B07324629462046F3D5002070BDC7
:1051E000FFF7B0FC801BA842236801D8002DEFD147
:1051F0009A6912F00202EBD1636C84F840202021FE
:105200000B43636484F8411084F84220012070BD90
:105210002DE9F843DDF820901E46054603688846D0
:10522000174605E0FFF73AFF68BB731C0ED12B68E9
:105230009C6938EA04040CBF01230023BB424A46A0
:1052400031462846EED00020BDE8F883FFF77AFC0F
:10525000A0EB0900B0422B6801D8002EE8D19A6972
:1052600038EA02020CBF01220022BA42E0D16B6C84
:10527000002243F0200320216B6485F8402085F84C
:10528000411085F842200120DEE700BF03689B69DA
:105290009B0629D470B505460C4616460DE0FFF76F
:1052A00051FC801BA042296800D81CB98B6913F0FF
:1052B00020030DD08B699B0608D432462146284630
:1052C000FFF7ECFE0028EAD0012070BD002070BD81
:1052D0006A6C85F8403020210A436A64012085F811
:1052E000411085F84230F0E700207047002854D084
:1052F00010B590F84130044603F0FF02002B47D070
:105300002368242284F841201968626821F0010191
:1053100022F0706219601A619A68E16822F4004212
:1053200001299A60A26809D042F4044202299A60D5
:1053300007D15A6842F400625A6006E042F4004223
:105340009A605A6822F400625A605968226941F0F2
:10535000007141F4004159606169D8680A43A1694C
:1053600020F4004042EA0122E169D860206ADA6054
:1053700001431960196841F00101196000222023DE
:10538000626484F84130226384F84220104610BDE4
:1053900080F84020FEF78AFBB2E70120704700BF8B
:1053A0002DE9F04F994690F8413083B0202BBDF89D
:1053B00034A00E9F40F0A7800C9B0446002B00F009
:1053C0009B80BAF1000F00F0978090F84030012BDD
:1053D00000F099804FF0010B80F840B00D469046E8
:1053E000FFF7B0FB5A460646009019234FF40041E0
:1053F0002046FFF70DFF002840F081800C9B636280
:10540000212384F84130226862496063402384F894
:1054100042306064A4F82AA053680B405FFA89F117
:1054200043EA0143C5F309052B4343F0807343F47A
:1054300000535360394632462046FFF7BDFE002830
:1054400065D1B9F1010F236865D15FFA88F29A62DC
:1054500000963B46002280212046FFF7D9FE002817
:1054600055D1638D22689BB2FF2B70D953684A498E
:105470000B402B4343F0FF7343F48033FF2121851E
:10548000536003E0638D9BB2002B6ED032463946E9
:105490002046FFF791FE002831D1616A236811F898
:1054A000012B9A62638D228D6162013B9BB2638501
:1054B000638D013A92B29BB22285002BE2D0002A82
:1054C000E0D1802100963B462046FFF7A1FEFF2158
:1054D000A8B9638DDFF8C0C022689BB28B426046DA
:1054E00028D95368218503EA0C032B4343F0FF734B
:1054F00043F480335360C5E74FF4007363640120C5
:1055000003B0BDE8F08F022003B0BDE8F08F0023A8
:1055100084F84030F3E74FEA18229A62394632465F
:105520002046FFF749FE0028F1D122685FFA88F390
:1055300093628DE7638D51689BB22385DBB245EAA8
:10554000034301400B4343F0007353609AE7638DBC
:10555000114851689BB22385DBB245EA0343014001
:105560000B4343F00073536090E7324639462046C0
:10557000FFF78CFE0028C2D12368084D2021D96195
:105580005A682A405A6084F8411084F8400084F830
:105590004200B5E7009800FC009C00FC00E800FE1B
:1055A0002DE9F04F994690F8413083B0202BBDF89B
:1055B00034A00E9F40F0A8800C9B0446002B00F006
:1055C0009C80BAF1000F00F0988090F84030012BD9
:1055D00000F09A804FF0010B80F840B00D469046E5
:1055E000FFF7B0FA5A460646009019234FF40041DF
:1055F0002046FFF70DFE002840F082800C9B63627E
:10560000222384F84130226864496063402384F88F
:1056100042306064A4F82AA053680B405FFA89F115
:1056200043EA0143C5F309052B4343F40053536098
:10563000394632462046FFF7BFFD002868D1B9F150
:10564000010F236868D15FFA88F29A6200963B46A0
:10565000002240212046FFF7DBFD002858D1638D52
:1056600022689BB2FF2B73D953684C490B402B43E4
:1056700043F0807343F4923301212185536003E0AA
:10568000638D9BB2002B73D000963B460022042111
:105690002046FFF7BDFD002832D12268636A526AB6
:1056A0001A70638D228D616A013B9BB26385638DA5
:1056B000013A92B201319BB261622285002BDFD0A8
:1056C000002ADDD1802100963B462046FFF7A0FD51
:1056D0000121A8B9638DDFF8CCC022689BB2FF2BF3
:1056E000604628D95368218503EA0C032B4343F015
:1056F000807343F480335360C2E74FF400736364F4
:10570000012003B0BDE8F08F022003B0BDE8F08FA8
:10571000002384F84030F3E74FEA18229A623946B2
:1057200032462046FFF748FD0028F1D122685FFA93
:1057300088F393628AE7638D51689BB22385DBB25D
:1057400045EA034301400B4343F00073536097E77E
:10575000638D124851689BB22385DBB245EA03434F
:1057600001400B4343F0007343F4105353608BE745
:10577000324639462046FFF789FD0028C0D123680C
:10578000074D2021D9615A682A405A6084F8411097
:1057900084F8400084F84200B3E700BF009800FCA2
:1057A00000E800FE009C00FCF8B5044690F84100BB
:1057B00020281F46BDF81C3056D10D4606990029F9
:1057C0004DD0002B4BD02668B16911F400414BD16C
:1057D00094F84000012847D0069860624FF0210EEF
:1057E00084F841E035484FF0400E84F842E06164AF
:1057F0006385E062E564638D314961639BB2FF2B91
:1058000098BF638D4FF0010194BF9BB2FF23012F1E
:1058100084F840102385D1B228D0120AB2622165E3
:10582000A06B40B3DFF8A0C0C0F82CC006F128027E
:10583000DFF898C00699C0F834C000260663866376
:10584000FFF76CFA18B3202384F8413084F84260E3
:10585000636C84F8406043F01003636402E04FF42B
:10586000007363640120F8BD0220F8BD4FF0FF32E1
:10587000B1622265D4E7202384F8413084F84200E5
:10588000636C84F8400043F080036364EAE72268B5
:10589000C5F3090351680B4DFFB243EA07432940A2
:1058A0000B4343F0807343F40053536084F840008B
:1058B000136843F0F2031360F8BD00BF0000FFFF60
:1058C000F15E0008009800FCAD62000899620008D3
:1058D000F8B50D4690F8411020291F46BDF81C3040
:1058E00056D10699044600294DD0002B4BD00168B3
:1058F000886910F400404BD194F840C0BCF1010F0E
:1059000046D0069E66624FF0220E84F841E0344E87
:105910004FF0400E84F842E060646385E662E5641F
:10592000638D304860639BB2FF2B98BF638D4FF04F
:10593000010094BF9BB2FF23012F84F84000238510
:10594000D0B227D0120A8A622065E06B38B3DFF844
:105950009CC0C0F82CC00026DFF894C0069A0663ED
:1059600024318663C0F834C0FFF7D8F918B3202378
:1059700084F8413084F84260636C84F8406043F0FE
:105980001003636402E04FF4007363640120F8BD08
:105990000220F8BD4FF0FF3288622265D5E7202350
:1059A00084F8413084F84200636C84F8400043F08E
:1059B00080036364EAE72268C5F3090351680A4D6E
:1059C000FFB243EA074329400B4343F400535360BB
:1059D00084F84000136843F0F2031360F8BD00BF81
:1059E0000000FFFFF15E0008009800FC4D63000816
:1059F000996200080268436B9169126803B1184705
:105A0000704700BF704700BF704700BF002138B526
:105A100080F8421090F84120212A4FF0200418D13C
:105A2000112280F84140026390F8412004684163EC
:105A300002F02802282A226814BF6FF0F20C6FF0DF
:105A4000420C02EA0C02226080F84010FFF7DAFFF5
:105A500038BD122280F84140026390F8412004686A
:105A6000416302F028022568282A14BF6FF0F4026F
:105A70006FF044022A40226080F84010FFF7C4FF14
:105A800038BD00BF704700BF704700BF016808B550
:105A90000B68002280F842205A040CD50B6823F4CE
:105AA00080430B6090F84130292B0ED090F84130A4
:105AB0002A2B22D008BD1B04F4D50B6823F4004325
:105AC0000B6090F84130292BF0D12822212380F857
:105AD0004120036390F841300A6803F02803282B23
