:020000040800F2
:1000000000000120356D00082D67000835670008E5
:100010003D670008456700084D67000800000000C4
:10002000000000000000000000000000013A01088C
:100030005567000800000000613C010891EF0008CE
:10004000856D0008856D0008856D0008856D0008C8
:10005000856D0008856D0008856D0008856D0008B8
:10006000856D0008856D0008856D0008856D0008A8
:100070006567000879670008B1670008856D0008AA
:10008000D9670008F5670008856D0008856D0008D0
:10009000856D0008856D0008856D0008856D000878
:1000A000856D000811680008856D000881680008EA
:1000B000C56800080000000000000000E1680008BA
:1000C000856D00080000000000000000856D00083C
:1000D00000000000856D00080569000800000000B0
:1000E000856D0008856D000800000000000000001C
:1000F0000000000000000000000000000000000000
:10010000000000000000000000000000856D0008F5
:10011000000000000000000021690008856D000853
:10012000856D0008856D0008856D0008356900083B
:10013000856D0008000000000000000000000000C5
:10014000856D0008856D0008856D0008856D0008C7
:100150005D69000895690008856D0008856D0008D7
:10016000A9690008856D0008856D00080000000081
:10017000856D0008856D000800000000000000008B
:0C018000856D0008856D0008856D000885
:1001900010B5054C237833B9044B13B10448AFF3C1
:1001A00000800123237010BD902700200000000074
:1001B0002863010808B5034B1BB103490348AFF39B
:1001C000008008BD0000000094270020286301087B
:1001D00080B588B004AF78600B46FB70FB7899B2AD
:1001E0000A2302930123019307F10F0300930123D4
:1001F0007522786807F0A6FC03467B737B7BDBB235
:10020000002B14BF01230023DBB2002B01D00023FD
:1002100079E0FB7B682B75D10023BB73FB7899B227
:100220000A2302930123019307F10E030093012394
:100230006B22786807F072FB03467B737B7BDBB233
:10024000002B14BF01230023DBB2002B01D00023BD
:1002500059E00723BB73FB7899B20A230293012369
:10026000019307F10E03009301231922786807F028
:1002700055FB03467B737B7BDBB2002B14BF012352
:100280000023DBB2002B01D000233CE00823BB732A
:10029000FB7899B20A2302930123019307F10E031D
:1002A000009301231C22786807F038FB03467B7318
:1002B0007B7BDBB2002B14BF01230023DBB2002BBE
:1002C00001D000231FE00823BB73FB7899B20A23F7
:1002D00002930123019307F10E03009301231B22D4
:1002E000786807F01BFB03467B737B7BDBB2002B3C
:1002F00014BF01230023DBB2002B01D0002302E056
:10030000012300E0002318461037BD4680BD0000E1
:1003100080B487B000AF786039607A6813465B00BC
:100320001344DB007B617B6908333B617B691033DD
:10033000FB603B785BB2002B01DA422100E0212117
:10034000984A7B6922F813103B7803F04003002B96
:1003500001D0422100E021217B690133914A22F83A
:1003600013103B7803F02003002B01D0422100E062
:1003700021217B6902338B4A22F813103B7803F06A
:100380001003002B01D0422100E021217B690333BF
:10039000844A22F813103B7803F00803002B01D0A5
:1003A000422100E021217B6904337E4A22F81310A8
:1003B0003B7803F00403002B01D0422100E021210F
:1003C0007B690533774A22F813103B7803F0020368
:1003D000002B01D0422100E021217B690633714AC4
:1003E00022F813103B7803F00103002B01D04221C7
:1003F00000E021217B6907336A4A22F813107B78D9
:100400005BB2002B01DA422100E02121654A3B6901
:1004100022F813107B7803F04003002B01D0422117
:1004200000E021213B6901335E4A22F813107B78FA
:1004300003F02003002B01D0422100E021213B6981
:100440000233584A22F813107B7803F01003002B74
:1004500001D0422100E021213B690333514A22F8B7
:1004600013107B7803F00803002B01D0422100E039
:1004700021213B6904334B4A22F813107B7803F0A7
:100480000403002B01D0422100E021213B69053308
:10049000444A22F813107B7803F00203002B01D0AA
:1004A000422100E021213B6906333E4A22F8131025
:1004B0007B7803F00103002B01D0422100E02121D1
:1004C0003B690733374A22F81310BB785BB2002B25
:1004D00001DA422100E02121324AFB6822F81310A0
:1004E000BB7803F04003002B01D0422100E0212122
:1004F000FB6801332B4A22F81310BB7803F020036A
:10050000002B01D0422100E02121FB680233254A63
:1005100022F81310BB7803F01003002B01D0422106
:1005200000E02121FB6803331E4A22F81310BB7838
:1005300003F00803002B01D0422100E02121FB68D9
:100540000433184A22F81310BB7803F00403002B7D
:1005500001D0422100E02121FB680533114A22F835
:100560001310BB7803F00203002B01D0422100E0FE
:100570002121FB6806330B4A22F81310BB7803F0E5
:100580000103002B01D0422100E02121FB68073349
:10059000044A22F8131000BF1C37BD465DF8047BE7
:1005A000704700BFAC27002080B483B000AF7860F4
:1005B00039607B683A681A607B680022A3F80428D7
:1005C0007B680022A3F806287B680022A3F808288D
:1005D0007B684FF48062A3F80A287B6818460C37C2
:1005E000BD465DF8047B704780B582B000AF78608F
:1005F000786802F011FF00BF0837BD4680BD80B4A7
:1006000085B000AF78607B681B681B6F1B685B68F8
:100610009BB2C3F580639BB2C3F30903FB817B6884
:10062000B3F80438FA899A4202D14FF0FF3316E04A
:100630007B68B3F804385A1C91B27A68A2F804189F
:100640001A467B6813441B79BB607B68B3F8043897
:10065000C3F309039AB27B68A3F80428BB68184661
:100660001437BD465DF8047B704780B584B000AF99
:10067000F860B9607A60FB68B3F806381A467B68A0
:100680001344B3F5806F25DAFB68B3F8063803F539
:100690008063FA68134404337A68B968184615F021
:1006A00025FDFB68B3F806287B689BB213449AB219
:1006B000FB68A3F80628FB68B3F80628FB68B3F8C4
:1006C0000A389A4221D9FB68B3F80628FB68A3F8D8
:1006D0000A281AE0FB6803F204437A68B9681846EE
:1006E00015F004FDFB68B3F80628FB68B3F808387A
:1006F0009A4205D9FB68B3F80628FB68A3F80A28D4
:100700007B689AB2FB68A3F80628F86800F004F842
:1007100000BF1037BD4680BD80B584B000AF7860A3
:100720007B68B3F80638002B0FD07B68B3F8062837
:100730007B68B3F808389A4207D17B680022A3F897
:1007400006287B680022A3F808287B681B689A6F3C
:100750007B68B3F806187B68B3F80838994201D172
:10076000212300E020233E4909780B439A4214BF1D
:1007700001230023DBB2002B6ED1394B01221A700A
:100780007B68B3F808287B68B3F80A389A4203D12B
:100790007B680022A3F808287B68B3F808287B68E8
:1007A000B3F806389A4228D27B68B3F806287B68EB
:1007B000B3F80838D31ABB817B6818687B68B3F834
:1007C000083803F580637A6813440433BA891946FC
:1007D0000DF002F97B681B68DB6E1B681A687B688A
:1007E0001B68DB6E1B6822F004021A607B68B3F89A
:1007F00006287B68A3F808282AE07B68B3F80A2853
:100800007B68B3F80838D31AFB817B6818687B686B
:10081000B3F8083803F580637A6813440433FA891F
:1008200019460DF0D9F87B681B68DB6E1B681A68E7
:100830007B681B68DB6E1B6822F004021A607B6811
:100840004FF48062A3F80A287B680022A3F80828E6
:10085000034B00221A7000E000BF1037BD4680BD78
:100860009831002080B483B000AF78607B681B684B
:1008700018460C37BD465DF8047B704790B583B0D1
:1008800000AF78607B681C680948FFF7EBFF034600
:100890001B689C420CBF01230023DBB2002B02D05B
:1008A0000348FFF739FF00BF0C37BD4690BD00BFBE
:1008B0008C29002080B582B000AF7860034802F038
:1008C000ABFD00BF0837BD4680BD00BF8C290020AE
:1008D00080B582B000AF786039607B68012B08D1A9
:1008E0003B684FF6FF72934203D104490448FFF777
:1008F0005BFE00BF0837BD4680BD00BFD03500207D
:100900008C29002080B500AF4FF6FF710120FFF762
:10091000DFFF80BD00000000B0B582B000AF78609E
:100920007B681B6C1F4A14461D4628686968AA68C4
:10093000EB680FC42B8A23801B4B18684FF0FF33E2
:10094000012218490FF09EF8184B1B6818460EF04C
:10095000F6FD0346002B14BF01230023DBB2002B5E
:1009600004D0124B1B6818460EF0B2FD104B1B68EA
:1009700018460EF0E4FD0346002B14BF01230023AC
:10098000DBB2002B04D00A4B1B6818460EF0A0FD0A
:10099000084B1B68032118460EF02CFE00BF0837D9
:1009A000BD46B0BD984A0020A847002070480020EE
:1009B00040480020684A002080B582B000AF7860CF
:1009C0007B681A6C144B10685168926807C3134B0C
:1009D00018684FF0FF3301220F490FF053F8104B06
:1009E0001B6818460EF0ABFD0346002B14BF012315
:1009F0000023DBB2002B04D0094B1B6818460EF015
:100A000067FD084B1B68012118460EF0F3FD00BF7F
:100A10000837BD4680BD00BF8C4A002048470020F3
:100A200010480020444A002080B582B000AF7860B2
:100A30009A4B1B684FF0FF3118460EF011FF182239
:100A40000021974815F0C8FA7B681B889BB2022BDF
:100A50001DD0022B20DC002B02D0012B04D01BE088
:100A6000904B00225A8317E07B685B889BB2002B77
:100A700004D08C4B4FF6FF725A830DE0894B40F245
:100A800047125A83874B40F247129A8204E0854B03
:100A90004FF6FF725A8300BF7B681B8A9BB2022B02
:100AA00000F08480022B00F3BF80002B02D0012BCA
:100AB00043D0B9E07B681B889BB2012B04D1794BF2
:100AC00040F247129A8202E0764B00229A82764BDD
:100AD0001B78022B03D0744B1B78012B29D1734B4D
:100AE000734A07CA83E807000C220021704815F0FA
:100AF00073FA704B18684FF0FF3301226B490EF008
:100B0000C1FF6D4B1B6818460EF019FD0346002B04
:100B100014BF01230023DBB2002B04D0664B1B68FB
:100B200018460EF0D5FC654B1B68012118460EF0E7
:100B300061FD5D4B00221A7076E05A4B4FF6FF7252
:100B40009A82594B1B78002B04D1594B574A07CA3C
:100B500083E807000C220021544815F03DFA534B5E
:100B6000FF221A80534B18684FF0FF3301224F4980
:100B70000EF088FF504B1B6818460EF0E0FC034651
:100B8000002B14BF01230023DBB2002B04D04A4BFF
:100B90001B6818460EF09CFC484B1B680121184648
:100BA0000EF028FD404B01221A703DE03D4B4FF600
:100BB000FF729A823C4B1B78002B04D13C4B3B4A82
:100BC00007CA83E807000C220021384815F004FA10
:100BD000364BFF221A80374B18684FF0FF33012243
:100BE00032490EF04FFF314B314A07CA83E8070004
:100BF000314B1B6818460EF0A2FC0346002B14BFB5
:100C000001230023DBB2002B04D02B4B1B681846BA
:100C10000EF05EFC294B1B68012118460EF0EAFC21
:100C2000214B02221A7000BF7B681B899BB2032BE9
:100C30002AD801A252F823F0490C0008570C0008EA
:100C4000670C0008770C0008164B0022DA82154B5F
:100C500000221A8318E0134B4FF6FF72DA82114B11
:100C600000221A8310E00F4B4FF6FF721A830D4BD0
:100C70000022DA8208E00B4B4FF6FF721A83094B11
:100C80004FF6FF72DA8200BF044B1B6818460EF065
:100C90003DFE00BF0837BD4680BD00BF9C49002017
:100CA0000400002000000020B84A00208C4A0020E8
:100CB000AC4A00204847002010480020444A002049
:100CC00080B58CB000AF78600023FB6207E0374A44
:100CD000FB6A212122F81310FB6A0133FB62FB6AD5
:100CE000EF2BF4DD7B681B889BB2002B0FD07B6859
:100CF0001A785B781B021343FB84FF233B62FA8C58
:100D00003B6A9342A8BF1346DBB27B7301E000232A
:100D10007B737B685B889BB2002B0FD07B689A78D3
:100D2000DB781B021343FB83FF23BB61FA8BBB6998
:100D30009342A8BF1346DBB23B7301E000233B7331
:100D40007B689B889BB2002B0FD07B681A795B79FC
:100D50001B021343FB82FF233B61FA8A3B699342E8
:100D6000A8BF1346DBB2BB7301E00023BB73104B7B
:100D70001B684FF0FF3118460EF072FD0023BB6276
:100D800007E0BB6AF9681846FFF7C2FABB6A01338D
:100D9000BB62BB6A092BF4DD054B1B6818460EF0DD
:100DA000B5FD00BF3037BD4680BD00BFAC27002079
:100DB000F049002080B500AF0C4804F0C1FA0C499E
:100DC0000A4804F0DAFA0B49084804F0D6FA0A494E
:100DD000064804F0D2FA0949044804F0FCFA08492C
:100DE000024804F0F8FA00BF80BD00BFBC4A0020F2
:100DF000B8540020CC540020E0540020F4540020CB
:100E00004C55002080B500AF6F4BD3F8943003F001
:100E10008043002B0CBF01230023DBB2002B07D043
:100E2000694BD3F89430684A43F40003C2F8943015
:100E300005F0A9FF00F028F900F0A2FC00F03EFC4C
:100E400000F0E4FB00F02EFA00F06EFA00F034FB44
:100E500000F08CF900F0D8F9FFF7ACFF0EF0B2F813
:100E60005A4A012101200EF072FC0346584A1360D1
:100E7000584A012101200EF06AFC0346564A1360CD
:100E8000564A012101200EF062FC0346544A1360C9
:100E9000544A012101200EF05AFC0346524A1360C5
:100EA000524A012101200EF052FC0346504A1360C1
:100EB000504B0022002150480EF060FA03464F4A82
:100EC00013604F4B002200214E480EF057FA0346A4
:100ED0004D4A13604D4B002200214D480EF04EFA52
:100EE00003464C4A13604C4A0C2101200EF056FD7B
:100EF00003464A4A13604A4A122101200EF04EFD71
:100F00000346484A1360484A002148480EF019F940
:100F10000346474A1360474A002147480EF011F93B
:100F20000346464A1360464A002146480EF009F936
:100F30000346454A1360454A002145480EF001F931
:100F40000346444A1360444A002144480EF0F9F82D
:100F50000346434A1360434A002143480EF0F1F828
:100F60000346424A136042480EF005FB0346414ADD
:100F7000136041480EF0FFFA0346404A1360184BD5
:100F80001B684FF0FF3118460EF06AFC0E4BD3F889
:100F9000943003F08043002B14BF01230023DBB205
:100FA000002B05D0364804F043FA354804F05EFAC9
:100FB00014F0BAFD13F0CAFF324814F037FD0EF0FA
:100FC00025F80023184680BD00100240DC690108A6
:100FD000A0480020EC690108F4480020FC690108E1
:100FE000484900200C6A01089C4900201C6A01083D
:100FF000F0490020AC690108C52500081048002010
:10100000BC690108E525000840480020CC690108BA
:1010100005260008704800207C6901084847002028
:1010200094690108A8470020A4680108E117000896
:10103000F8360020C8680108FD170008B039002004
:10104000EC680108191C0008683C002010690108C0
:10105000F11F0008203F002034690108B920000872
:10106000D841002058690108DD2200089044002082
:101070002C6A0108444A00203C6A0108684A0020A2
:10108000BC4A00209466010880B596B000AF07F115
:10109000140344220021184614F09EFF3B46002210
:1010A0001A605A609A60DA601A614FF4007008F0B2
:1010B0009BFC0346002B14BF01230023DBB2002B53
:1010C00001D001F0C1FA08F071FC274BD3F8903041
:1010D000254A23F01803C2F8903014237B610123C2
:1010E000FB610123FB6200233B6360237B630223DC
:1010F000FB6301233B6401237B642823BB64072338
:10110000FB6402233B6502237B6507F11403184649
:1011100008F0C0FC0346002B14BF01230023DBB200
:10112000002B01D001F090FA0F233B6003237B607A
:101130000023BB600023FB6000233B613B4604218E
:10114000184609F0BBF80346002B14BF0123002307
:10115000DBB2002B01D001F077FA09F0FBFC00BFF5
:101160005837BD4680BD00BF0010024080B500AFBB
:10117000224B234A1A60214B224A5A601F4B0022FD
:101180009A601E4B0122DA601C4B00221A611B4B35
:1011900000225A61194B00229A61184B0022DA6131
:1011A000164B00221A62154806F028FB0346002B56
:1011B00014BF01230023DBB2002B01D001F044FA5D
:1011C00000210E4808F03AFB0346002B14BF012310
:1011D0000023DBB2002B01D001F036FA00210748D2
:1011E00008F077FB0346002B14BF01230023DBB27A
:1011F000002B01D001F028FA00BF80BD9C310020F7
:10120000005400409129700080B500AF224B234A62
:101210001A60214B224A5A601F4B00229A601E4BD3
:101220000122DA601C4B00221A611B4B00225A611A
:10123000194B00229A61184B0022DA61164B0022EA
:101240001A62154806F0DAFA0346002B14BF012390
:101250000023DBB2002B01D001F0F6F900210E488B
:1012600008F0ECFA0346002B14BF01230023DBB285
:10127000002B01D001F0E8F90021074808F029FB14
:101280000346002B14BF01230023DBB2002B01D047
:1012900001F0DAF900BF80BDF0310020005C0040B1
:1012A0009129700080B500AF1D4B1E4A1A601C4B7F
:1012B0004FF482725A601A4B00229A60184B4FF416
:1012C000E062DA60164B00221A61154B00225A6167
:1012D000134B4FF400729A61114B2822DA61104BC4
:1012E00000221A620E4B00225A620D4B00229A62B3
:1012F0000B4B0722DA620A4B00221A63084B0822C2
:101300005A63074809F028FD0346002B14BF012348
:101310000023DBB2002B01D001F096F900BF80BDA5
:10132000643300200030014080B59AB000AF07F16F
:10133000580300221A605A609A60DA6007F14C0381
:1013400000221A605A609A6007F1300300221A6086
:101350005A609A60DA601A615A619A613B1D2C22C8
:101360000021184614F038FE514B524A1A60504B77
:1013700000225A604E4B00229A604D4B6322DA6085
:101380004B4B00221A614A4B00225A61484B002203
:101390009A6147480AF07CF80346002B14BF0123EA
:1013A0000023DBB2002B01D001F04EF94FF4805343
:1013B000BB6507F1580319463D480BF024F9034675
:1013C000002B14BF01230023DBB2002B01D001F05E
:1013D0003BF937480AF014F90346002B14BF0123E8
:1013E0000023DBB2002B01D001F02EF90023FB64B7
:1013F00000233B6500237B6507F14C0319462C480D
:101400000CF096F90346002B14BF01230023DBB236
:10141000002B01D001F018F960233B6332237B637A
:101420000023BB6300233B6400237B640023BB6475
:1014300007F130030C2219461D480AF0A9FF0346A4
:10144000002B14BF01230023DBB2002B01D001F0DD
:10145000FBF800237B600023BB600023FB600023BC
:101460003B6100237B614FF40053BB610023FB61B0
:1014700000233B624FF000737B620023BB620023BA
:10148000FB623B1D19460A480CF0B8F90346002BD5
:1014900014BF01230023DBB2002B01D001F0D4F8EC
:1014A000034804F095FF00BF6837BD4680BD00BF0C
:1014B00010340020002C014080B58CB000AF07F143
:1014C000200300221A605A609A60DA6007F1140360
:1014D00000221A605A609A603B1D00221A605A600E
:1014E0009A60DA60484B4FF080421A60464B4F22B8
:1014F0005A60454B00229A60434B4FF0FF32DA604E
:10150000414B00221A61404B00229A613E4809F08B
:10151000BFFF0346002B14BF01230023DBB2002BC7
:1015200001D001F091F84FF480533B6207F12003A2
:10153000194635480BF067F80346002B14BF01230A
:101540000023DBB2002B01D001F07EF82E480AF018
:10155000A5FB0346002B14BF01230023DBB2002BA5
:1015600001D001F071F800237B610023FB6107F1DA
:101570001403194624480CF0DBF80346002B14BF73
:1015800001230023DBB2002B01D001F05DF8002322
:101590007B600123BB600023FB6000233B613B1D9C
:1015A0000022194618480AF056FE0346002B14BFC5
:1015B00001230023DBB2002B01D001F045F83B1DD5
:1015C0000422194610480AF046FE0346002B14BFB9
:1015D00001230023DBB2002B01D001F035F83B1DC5
:1015E0000C22194608480AF036FE0346002B14BFA9
:1015F00001230023DBB2002B01D001F025F800BF4E
:101600003037BD4680BD00BFCC34002080B500AF70
:10161000164B174A1A60154B4FF461225A60134B50
:1016200000229A60114B0022DA60104B00221A61EE
:101630000E4B0C225A610D4B00229A610B4B00227B
:10164000DA610A4B00221A62084B00225A620748EC
:101650000CF074F90346002B14BF01230023DBB206
:10166000002B01D000F0F0FF00BF80BDD03500207E
:101670000044004080B500AF0E4B0F4A1A600D4B7E
:1016800000225A600B4B40229A600A4B4022DA60DB
:10169000084B00221A6107480DF02CFC0346002B72
:1016A00014BF01230023DBB2002B01D000F0CCFFDC
:1016B00000BF80BDE4360020002C004080B582B021
:1016C00000AF2E4B9B6C2D4A43F0010393642B4BD0
:1016D0009B6C03F001037B607B68284B9B6C274A63
:1016E00043F002039364254B9B6C03F002033B60C1
:1016F0003B68002209210C2005F05AFC0C2005F063
:1017000073FC002209210D2005F052FC0D2005F08C
:101710006BFC002208210E2005F04AFC0E2005F08B
:1017200063FC00220A21102005F042FC102005F085
:101730005BFC00220A21112005F03AFC112005F083
:1017400053FC00220B213B2005F032FC3B2005F02E
:101750004BFC00220921442005F02AFC442005F01E
:1017600043FC00220921452005F022FC452005F01C
:101770003BFC00BF0837BD4680BD00BF00100240E3
:1017800080B485B000AF154BDB6C144A43F0040302
:10179000D364124BDB6C03F00403FB60FB680F4B5C
:1017A000DB6C0E4A43F00103D3640C4BDB6C03F09B
:1017B0000103BB60BB68094BDB6C084A43F00203C2
:1017C000D364064BDB6C03F002037B607B6800BFD5
:1017D0001437BD465DF8047B704700BF001002401F
:1017E00080B582B000AF7860034803F027FF142073
:1017F0000DF066FD00BFF7E7BC4A002080B594B04D
:1018000000AF78600023A7F84E304FF0FF33BB6481
:1018100000237B64002387F83F30002387F83E30A5
:1018200007F10C0312220021184614F0D5FB07F132
:101830000C031846FFF7F8F89E4B1B684FF0FF317A
:1018400018460EF00DF81C229B499C4809F028FB15
:101850000223BB810323BB820123BB8307F10C035B
:101860001846FFF7E1F8934B1B684FF0FF3118461D
:101870000DF0F6FF1C229049904809F011FB8F4BA8
:101880005B6D1B681A688D4B5B6D1B6822F0040250
:101890001A608B4BD3F8943003F08043002B14BFB5
:1018A00001230023DBB2002B04D04FF4FA700DF0BB
:1018B00007FD03E041F288300DF002FD0023BB81FB
:1018C0000023BB820023BB8307F10C031846FFF7FC
:1018D000ABF8784B1B684FF0FF3118460DF0C0FF96
:1018E0001C227549754809F0DBFA744B5B6D1B6867
:1018F0001A68724B5B6D1B6822F004021A60714B10
:1019000018684FF0FF33002203210DF0BBFE78640E
:101910006D4B186807F10C01002300220EF016F938
:101920000346002B0CBF01230023DBB2002B79D030
:1019300007F10C031846FFF777F8FB89FB860023B5
:101940003B63FA8E3B6B9342B8BF13463B64BB8943
:10195000002B02D0BB89022B01D900233B64FB8AF8
:10196000FB850023BB62FA8DBB6A9342B8BF134666
:10197000BB64FB893B64BB8A002B02D0BB8A032B70
:1019800001D90023BB643B6C002B13D07B8A002B56
:1019900010D0012387F83F307B8A4FF6FF729342C5
:1019A0000CD07B8A013B9BB27B827B8AFB84002329
:1019B0003B6203E04FF0FF333B6400E000BFBB6CD1
:1019C000002B16D07B8B002B13D0012387F83E30E1
:1019D0007B8B4FF6FF72934207D07B8B013B9BB210
:1019E0007B837B8BA7F84E3006E07B8BA7F84E30CD
:1019F00002E04FF0FF33BB643B6CB3F1FF3F05D017
:101A0000324B1B68396C18460DF034FDBB6CB3F1DA
:101A1000FF3F00F0DD802E4B1B68B96C18460DF0BF
:101A200029FDD5E07B6C03F00103002B5DD097F816
:101A30003F30002B1BD07B6C23F001037B64002321
:101A400087F83F30BB89022B03D11B4B00225A83FE
:101A50000AE0BB89012B04D1174B40F247125A838D
:101A600002E0154B00225A833B8A3B6437E07B8AB5
:101A7000002B31D0104B4FF6FF725A83154B5B8809
:101A80003B64012387F83F307B8A4FF6FF72934215
:101A900025D07B8A013B9BB27B827B8ABB8700235C
:101AA000BB63BA8FBB6B9342B8BF13469BB27B82BA
:101AB00015E000BF9C490020000000206433002096
:101AC00000100240684A0020A8470020404800203B
:101AD00070480020984A00204FF0FF333B64494B88
:101AE0001B68396C18460DF0C5FC7B6C03F00203D3
:101AF000002B6DD07B6C23F002037B6497F83E30A3
:101B0000002B24D0002387F83E30BB8A032B14D04F
:101B1000032B19DC012B02D0022B07D014E03A4B27
:101B20000022DA82384B00221A830DE0364B002265
:101B30001A83354B0022DA8206E0334B00221A83E7
:101B4000314B0022DA8200BF3B8BBB643AE0B7F82E
:101B50004E30002B33D0BB8A032B16D0032B1DDC59
:101B6000012B02D0022B08D018E0274B4FF6FF7252
:101B7000DA82254B00221A8310E0234B4FF6FF72C6
:101B80001A83214B0022DA8208E01F4B4FF6FF72C6
:101B90001A831D4B4FF6FF72DA8200BFFB8ABB64CB
:101BA000012387F83E30B7F84E304FF6FF7293426C
:101BB00008D0B7F84E30013BA7F84E3002E04FF0A6
:101BC000FF33BB64114B1B68B96C18460DF052FC17
:101BD0000F4B1B684FF0FF3118460DF041FE1C22E1
:101BE00009490C4809F05CF90346FB77094B5B6D2A
:101BF0001B681A68074B5B6D1B6822F004021A60B1
:101C00007DE600BF40480020000000207048002012
:101C10009C4900206433002080B594B000AF786008
:101C2000002387F84F300023BB6400237B8300230D
:101C3000BB810023FB8100233B8200237B820023A6
:101C4000BB8207F10C031846FFF73AF89C4B1B6860
:101C500000221A6401219A480AF0AEFC994B1B68D5
:101C60004FF0FF3118460DF0FBFD192005F0BCF9CF
:101C70000DF0F2F9F863F023934A0C21904809F033
:101C80002DFD034687F83B308D4B1B6B1B681A6894
:101C90008B4B1B6B1B6822F004021A60F86B0DF073
:101CA00001FAFF23BB810023FB8100233B82002339
:101CB0007B820023BB8207F10C031846FFF700F874
:101CC0007F4B1B6800221A6401217D480AF074FCD6
:101CD0007C4B1B684FF0FF3118460DF0C1FD1920F9
:101CE00005F082F90DF0B8F9F863F023764A0C217B
:101CF000734809F0F3FC034687F83B30704B1B6BCD
:101D00001B681A686E4B1B6B1B6822F004021A607A
:101D1000F86B0DF0C7F96D4BD3F8943003F08043A6
:101D2000002B14BF01230023DBB2002B0CD04FF497
:101D3000FA700DF0C5FA654BD3F89430634A43F45A
:101D40000003C2F8943003E041F288300DF0B8FA95
:101D500007F10C030C220021184614F03DF907F19D
:101D60000C031846FEF7ACFF554B1B6800221A64A3
:101D7000012153480AF020FC524B1B684FF0FF3101
:101D800018460DF06DFD192005F02EF90DF064F9DF
:101D9000F863F0234C4A0C21494809F09FFC0346A4
:101DA00087F83B30464B1B6B1B681A68444B1B6B18
:101DB0001B6822F004021A60F86B0DF073F9444BB3
:101DC00018684FF0FF33012201210DF05BFC414BFD
:101DD000186807F10C01002300220DF0B7FE03463E
:101DE000002B0CBF01230023DBB2002B32D07B8AF7
:101DF000002B24D0FB8A002B21D07B8A7B851423E7
:101E00007B627A8D7B6A9342B8BF1346BB64FB8AC0
:101E10004FF6FF7293420ED0FB8A013B9BB2FB82CE
:101E2000FB8A7B840023FB617A8CFB699342B8BFF9
:101E300013469BB27B83012387F84F3004E04FF0B9
:101E4000FF33BB6400237B8307F10C031846FEF7C6
:101E500037FF92E097F84F30002B05D07B8B9BB279
:101E6000002B01D0012300E00023002B34D00023FD
:101E700087F84F30BB8A7B861423FB627A8EFB6A1D
:101E80009342B8BF1346BB640E4B1B684FF0FF3143
:101E900018460DF0E5FC00237B6407E00A4A7B6CE2
:101EA000212122F813107B6C01337B647B6CEF2BB8
:101EB000F4DD044B1B6818460DF028FD5DE000BF03
:101EC00010340020F0490020AC2700200010024010
:101ED000444A0020484700207B8B9BB2002B14BF54
:101EE00001230023DBB2002B2AD07B8B9BB24FF661
:101EF000FF72934214BF01230023DBB2002B14D0E6
:101F00007B8B9BB2013B9BB21A467A837B81002379
:101F10007B637B899BB21A467B6B934202DA7B8997
:101F20009BB200E07B6B9BB27B83012387F84F3031
:101F30007B8ABB6407F10C031846FEF7C1FE1CE068
:101F4000274B1B684FF0FF3118460DF089FC00232A
:101F50003B6407E0234A3B6C212122F813103B6CC1
:101F600001333B643B6CEF2BF4DD1D4B1B681846C3
:101F70000DF0CCFC4FF0FF33BB641B4B1B68B96CFE
:101F800018460DF077FA194B1B6800221A640121DC
:101F900016480AF011FB124B1B684FF0FF31184630
:101FA0000DF05EFC192005F01FF80DF055F8F863F0
:101FB000F0230C4A0C210D4809F090FB034687F8EA
:101FC0003B300A4B1B6B1B681A68084B1B6B1B686A
:101FD00022F004021A60F86B0DF064F8EFE600BF1F
:101FE000F0490020AC2700201048002010340020C9
:101FF00090B589B000AFF860294A07F11403136463
:10200000274B03229A630021264809F0B5FE0421DC
:10201000244809F0B1FE0C21224809F0ADFE214B05
:10202000214AC3F894201F4B1B681A681D4B1B687C
:1020300042F001021A600DF06FF8F861184C3B464F
:102040001A49184603F0EEFC04F10C033A4692E8F4
:10205000030083E80300164A07F1140392E8030023
:10206000186004331980124B00221A80104B002292
:102070009A800F4B00225A8009490E4802F057F807
:10208000FB692833FB61F8690DF035F907F114039A
:1020900006220021184613F09FFF00BFCEE700BFC5
:1020A00030540020CC340020BD690008BC4A002018
:1020B000A4550020CC540020B0B59AB004AF78608D
:1020C000804B1B684FF0FF3118460DF0C9FB7D4B6C
:1020D0001B6818460DF01AFC002387F857307A4A1F
:1020E00007F1380307CA03C31A800023FB730023D8
:1020F0003B650AE03B6D5B0058333B444FF6FE7294
:1021000023F8482C3B6D01333B653B6D092BF1DD1A
:102110000023FB642CE007F13802FB6C134493F9B5
:1021200000309BB20A339BB25B0099B20A23029340
:102130000123019307F10F03009301230722634852
:1021400005F0ECFB034687F8473097F84730002B43
:1021500005D197F85730013387F8573005E007F17C
:102160003802FB6C1344FE221A70FB6C0133FB64D3
:10217000FB6C092BCFDD564B0A229A63544A07F1B8
:1021800024031364534B1B684FF0FF3118460DF0C6
:1021900067FB0123FB730023BB6481E007F1380276
:1021A000BB6C134493F9003013F1020F72D007F1A6
:1021B0003802BB6C134493F900309BB20A339BB2D4
:1021C0005B0099B20A2302930123019307F10F03E5
:1021D0000093012308223D4805F0A0FB034687F841
:1021E000473097F84730002B46D105200DF068F8AE
:1021F00007F13802BB6C134493F900309BB20A33E9
:102200009BB25B0099B20A2302930223019307F168
:102210000C030093012303222C4805F093FC034692
:1022200087F84730B7F90C30A7F84430B7F8443096
:102230005BBA9BB21BB2BB81B7F90C30952B0DDD9D
:1022400007F13802BB6C134493F900305B0058333C
:102250003B444FF6FF7223F8482C1EE007F138028A
:10226000BB6C134493F90030B7F90C205B00583372
:102270003B4423F8482C10E007F13802BB6C1344B0
:1022800093F900305B0058333B444FF6FF7223F85C
:10229000482C02E00A200DF013F8BB6C0133BB643C
:1022A000BB6C092B7FF77AAF07F1240407F1100507
:1022B0000FCD0FC42B6823600549074801F037FF95
:1022C00069E700BF484900209C6601089C31002056
:1022D000EC530020A0480020B854002090B58DB0E9
:1022E00002AFF860002387F82730D02387F8263024
:1022F00097F826301946A648FDF76AFF034687F887
:10230000273097F82730012B0BD0D22387F82630BF
:1023100097F8263019469E48FDF75AFF034687F87E
:10232000273097F82730012B04D09A4B1B681846AA
:102330000CF099FF984B994A5A61974B984A1A6446
:10234000954B07229A63974B1B684FF0FF31184655
:102350000DF086FA0CF0E0FE386297F8263099B25C
:102360000E230193904B009301233B22884805F0F4
:1023700003FD0346FB778B4B1B680A2118460DF0C3
:102380006FFA0346002B0CBF01230023DBB2002BA6
:1023900000F0C980844BB3F900303B823B8A5BBAC2
:1023A0009BB21BB2184600F0F3FB4FF000027F4BCC
:1023B00000F082FD02460B461046194670A3D3E991
:1023C000002300F04FFC02460B461046194600F071
:1023D0005BFE0346724A1360734BB3F902307B8293
:1023E0007B8A5BBA9BB21BB2184600F0D1FB4FF060
:1023F00000026E4B00F060FD02460B461046194687
:102400005FA3D3E9002300F02DFC02460B461046E3
:10241000194600F039FE0346614A5360624BB3F936
:102420000430BB82BB8A5BBA9BB21BB2184600F079
:10243000AFFB4FF000025D4B00F03EFD02460B4645
:10244000104619464EA3D3E9002300F00BFC0246C8
:102450000B461046194600F017FE0346504A93609B
:10246000514BB3F90830FB82FB8A5BBA9BB21BB2BB
:10247000184600F08DFB44A3D3E9002300F01CFDB7
:1024800002460B461046194600F0FEFD0346444A3C
:10249000D360454BB3F90A303B833B8B5BBA9BB2AD
:1024A0001BB2184600F074FB37A3D3E9002300F0F9
:1024B00003FD02460B461046194600F0E5FD0346B3
:1024C000374A1361384BB3F90C307B837B8B5BBA93
:1024D0009BB21BB2184600F05BFB2BA3D3E9002391
:1024E00000F0EAFC02460B461046194600F0CCFD0F
:1024F00003462B4A53612C4BB3F90630BB83BB8B8D
:102500005BBA9BB21BB207EE903AB8EEE77ADFED0A
:10251000286AC7EE267A9FED277A77EE877A204BD6
:10252000C3ED067A14E01E4B234A1A601C4B224A64
:102530005A601B4B204A9A60194B1F4ADA60184BAD
:102540001D4A1A61164B1C4A5A61154B1A4A9A6168
:10255000114C3B461949184603F064FA04F10C0388
:102560003A4692E8030083E803000B49144801F05F
:10257000DEFD3B6A14333B62386A0CF0BCFEE9E6D0
:102580001F85EB51B89E23400000000000605040C2
:10259000F03100209044002074540020A866010807
:1025A000CC550020F4480020BC5500200000C0405D
:1025B0000000AA43B81E124200C07944BC4A002061
:1025C000E054002080B582B000AF7860044B1B68F7
:1025D000012118460DF00EF800BF0837BD4680BD3A
:1025E000444A002080B582B000AF7860044B1B687D
:1025F000012118460CF0FEFF00BF0837BD4680BD24
:10260000684A002080B582B000AF7860044B1B6838
:10261000022118460CF0EEFF00BF0837BD4680BD12
:10262000684A002080B582B000AF78607B681B6884
:10263000044A934201D104F0BFFB00BF0837BD46F6
:1026400080BD00BF0010004080B400AF72B600BF74
:1026500000BFFDE780B582B000AF786039607B686D
:10266000012B2ED13B684FF6FF72934229D11748B8
:1026700002F0B4FD164802F0FBFA164802F0D8F951
:10268000154802F019FC0023114A1449144801F0BE
:1026900037FD00230F4A1349134801F031FD002391
:1026A0000D4A1249124801F02BFD0123114A12492B
:1026B000124802F021FE0123114A1249124802F089
:1026C0001BFE00BF0837BD4680BD00BFBC4A0020CE
:1026D000EC5300203054002074540020F0660108B0
:1026E000B8540020FC660108CC5400201067010893
:1026F000E05400201909000818670108F45400206C
:10270000B9090008206701084C55002080B500AFCA
:102710004FF6FF710120FFF79DFF80BD80B485B0AB
:1027200000AF786039603B681B685A0A0F49A1FB0B
:102730000212D2090E4901FB02F29B1AFB603B68B0
:102740001B685B0A094AA2FB0323DB09BB607B68A9
:102750001A68BB681A447B681A603B68FA681A609A
:1027600000BF1437BD465DF8047B7047834B0400FF
:1027700000CA9A3B80B582B000AF786039603B6890
:10278000104A82FB03121217DB17D31A1A467B6812
:102790001A603B680B4A82FB03121117DA178A1A78
:1027A000094901FB02F29A1A7B685A607A687B68D1
:1027B000043319461046FFF7B1FF7B681846083707
:1027C000BD4680BDA12FB84400CA9A3B80B582B0F7
:1027D00000AF786039607B681B683A6812681A44F9
:1027E0007B681A607B685B683A6852681A447B6849
:1027F0005A607A687B68043319461046FFF78EFFEB
:102800007B6818460837BD4680BD80B582B000AFF2
:10281000786039607B681B683A6812689A1A7B682E
:102820001A607B685B683A6852689A1A7B685A60DB
:102830007A687B68043319461046FFF76FFF7B68A0
:1028400018460837BD4680BDF0B400EB4003DFF802
:10285000880000EBC30000F118063069F76875685E
:10286000874232D3B368DC1B631E934214D37D19B5
:10287000D01900BF11F8013B05F8013B013A05D022
:1028800011F8013B05F8013B013AF3D1BFF35F8F2B
:10289000F0600120F0BC7047C018904219D378193D
:1028A000121B11F8013B00F8013B013CF9D1141C4B
:1028B00005D011F8013B05F8013B013AF9D1BFF30E
:1028C0005F8FF4600120F0BC7047C01B013890425C
:1028D000CDD20020F0BC7047B4640020034613F84A
:1028E000012B002AFBD1181A0138704781F00041F2
:1028F00002E000BF83F0004330B54FEA41044FEAE5
:10290000430594EA050F08BF90EA020F1FBF54EA7F
:10291000000C55EA020C7FEA645C7FEA655C00F01B
:10292000E2804FEA5454D4EB5555B8BF6D420CDDEC
:102930002C4480EA020281EA030382EA000083EA6F
:10294000010180EA020281EA0303362D88BF30BD0F
:1029500011F0004F4FEA01314FF4801C4CEA113165
:1029600002D0404261EB410113F0004F4FEA0333C4
:102970004CEA133302D0524263EB430394EA050F4F
:1029800000F0A780A4F10104D5F1200E0DDB02FABE
:102990000EFC22FA05F2801841F1000103FA0EF252
:1029A000801843FA05F359410EE0A5F120050EF118
:1029B000200E012A03FA0EFC28BF4CF0020C43FA49
:1029C00005F3C01851EBE37101F0004507D54FF056
:1029D000000EDCF1000C7EEB00006EEB0101B1F5A6
:1029E000801F1BD3B1F5001F0CD349085FEA3000EC
:1029F0004FEA3C0C04F101044FEA445212F5800FF7
:102A000080F09A80BCF1004F08BF5FEA500C50F193
:102A1000000041EB045141EA050130BD5FEA4C0C76
:102A2000404141EB0101013C28BFB1F5801FE9D2D3
:102A300091F0000F04BF01460020B1FA81F308BFF6
:102A40002033A3F10B03B3F120020CDA0C3208DDC2
:102A500002F1140CC2F10C0201FA0CF021FA02F19D
:102A60000CE002F11402D8BFC2F1200C01FA02F10D
:102A700020FA0CFCDCBF41EA0C019040E41AA2BF32
:102A800001EB0451294330BD6FEA04041F3C1CDAFA
:102A90000C340EDC04F11404C4F1200220FA04F01A
:102AA00001FA02F340EA030021FA04F345EA0301C4
:102AB00030BDC4F10C04C4F1200220FA02F001FA86
:102AC00004F340EA0300294630BD21FA04F0294608
:102AD00030BD94F0000F83F4801306BF81F48011A1
:102AE0000134013D4EE77FEA645C18BF7FEA655C14
:102AF00029D094EA050F08BF90EA020F05D054EAE6
:102B0000000C04BF1946104630BD91EA030F1EBFEA
:102B10000021002030BD5FEA545C05D140004941EE
:102B200028BF41F0004130BD14F580043CBF01F5E1
:102B3000801130BD01F0004545F0FE4141F47001C7
:102B40004FF0000030BD7FEA645C1ABF19461046A2
:102B50007FEA655C1CBF0B46024650EA013406BFA3
:102B600052EA033591EA030F41F4002130BD00BF62
:102B700090F0000F04BF0021704730B54FF480641F
:102B800004F132044FF000054FF0000150E700BFA0
:102B900090F0000F04BF0021704730B54FF48064FF
:102BA00004F1320410F0004548BF40424FF00001EC
:102BB0003EE700BF42004FEAE2014FEA31014FEA2F
:102BC00002701FBF12F07F4393F07F4F81F060517E
:102BD000704732F07F4208BF704793F07F4F04BFC9
:102BE00041F40021704730B54FF4607401F00045A6
:102BF00021F000411CE700BF50EA010208BF704706
:102C000030B54FF000050AE050EA010208BF7047F6
:102C100030B511F0004502D5404261EB41014FF45F
:102C2000806404F132045FEA915C3FF4D8AE4FF067
:102C300003025FEADC0C18BF03325FEADC0C18BF4A
:102C4000033202EBDC02C2F1200300FA03FC20FA9B
:102C500002F001FA03FE40EA0E0021FA02F11444E8
:102C6000BDE600BF70B54FF0FF0C4CF4E06C1CEA01
:102C700011541DBF1CEA135594EA0C0F95EA0C0F72
:102C800000F0DEF82C4481EA030621EA4C5123EAE5
:102C90004C5350EA013518BF52EA033541F4801114
:102CA00043F4801338D0A0FB02CE4FF00005E1FBC7
:102CB00002E506F00042E0FB03E54FF00006E1FB11
:102CC00003569CF0000F18BF4EF0010EA4F1FF0454
:102CD000B6F5007F64F5407404D25FEA4E0E6D4194
:102CE00046EB060642EAC62141EA55514FEAC520A5
:102CF00040EA5E504FEACE2EB4F1FD0C88BFBCF521
:102D0000E06F1ED8BEF1004F08BF5FEA500E50F1D1
:102D1000000041EB045170BD06F0004646EA010197
:102D200040EA020081EA0301B4EB5C04C2BFD4EBC9
:102D30000C0541EA045170BD41F480114FF0000EC2
:102D4000013C00F3AB8014F1360FDEBF002001F030
:102D5000004170BDC4F10004203C35DA0C341BDCAA
:102D600004F11404C4F1200500FA05F320FA04F07C
:102D700001FA05F240EA020001F0004221F00041B0
:102D800010EBD37021FA04F642EB06015EEA430E23
:102D900008BF20EAD37070BDC4F10C04C4F1200553
:102DA00000FA04F320FA05F001FA04F240EA020006
:102DB00001F0004110EBD37041F100015EEA430ED7
:102DC00008BF20EAD37070BDC4F1200500FA05F2F7
:102DD0004EEA020E20FA04F301FA05F243EA020376
:102DE00021FA04F001F0004121FA04F220EA020085
:102DF00000EBD3705EEA430E08BF20EAD37070BDCB
:102E000094F0000F0FD101F00046400041EB0101AA
:102E100011F4801F08BF013CF7D041EA060195F08C
:102E2000000F18BF704703F00046520043EB030346
:102E300013F4801F08BF013DF7D043EA0603704733
:102E400094EA0C0F0CEA135518BF95EA0C0F0CD03E
:102E500050EA410618BF52EA4306D1D181EA030184
:102E600001F000414FF0000070BD50EA410606BF7E
:102E70001046194652EA430619D094EA0C0F02D1C3
:102E800050EA013613D195EA0C0F05D152EA033608
:102E90001CBF104619460AD181EA030101F0004126
:102EA00041F0FE4141F470014FF0000070BD41F06F
:102EB000FE4141F4780170BD70B54FF0FF0C4CF449
:102EC000E06C1CEA11541DBF1CEA135594EA0C0F68
:102ED00095EA0C0F00F0A7F8A4EB050481EA030EB5
:102EE00052EA03354FEA013100F088804FEA03339C
:102EF0004FF0805545EA131343EA12634FEA02226A
:102F000045EA111545EA10654FEA00260EF000412A
:102F10009D4208BF964244F1FD0404F5407402D27C
:102F20005B084FEA3202B61A65EB03055B084FEA0D
:102F300032024FF480104FF4002CB6EB020E75EB0A
:102F4000030E22BFB61A754640EA0C005B084FEA32
:102F50003202B6EB020E75EB030E22BFB61A7546AF
:102F600040EA5C005B084FEA3202B6EB020E75EBFA
:102F7000030E22BFB61A754640EA9C005B084FEA72
:102F80003202B6EB020E75EB030E22BFB61A75467F
:102F900040EADC0055EA060E18D04FEA051545EA6E
:102FA00016754FEA06164FEAC30343EA52734FEA17
:102FB000C2025FEA1C1CC0D111F4801F0BD141EA90
:102FC00000014FF000004FF0004CB6E711F4801FF5
:102FD00004BF01430020B4F1FD0C88BFBCF5E06FD5
:102FE0003FF6AFAEB5EB030C04BFB6EB020C5FEAE5
:102FF000500C50F1000041EB045170BD0EF0004E3A
:103000004EEA113114EB5C04C2BFD4EB0C0541EA6B
:10301000045170BD41F480114FF0000E013C90E668
:1030200045EA060E8DE60CEA135594EA0C0F08BF2C
:1030300095EA0C0F3FF43BAF94EA0C0F0AD150EA2B
:1030400001347FF434AF95EA0C0F7FF425AF1046BE
:1030500019462CE795EA0C0F06D152EA03353FF4E6
:10306000FDAE1046194622E750EA410618BF52EA63
:1030700043067FF4C5AE50EA41047FF40DAF52EA37
:1030800043057FF4EBAE12E74FEA4102B2F1E043B1
:1030900024BFB3F5001CDCF1FE5C0DD901F0004C3F
:1030A0004FEAC0024CEA5070B2F1004F40EB83008F
:1030B00008BF20F00100704711F0804F21D113F1BB
:1030C0003872BCBF01F00040704741F480114FEAF4
:1030D0005252C2F11802C2F1200C10FA0CF320FA7D
:1030E00002F018BF40F001004FEAC1234FEAD3239A
:1030F00003FA0CFC40EA0C0023FA02F34FEA430304
:10310000CCE77FEA625307D150EA01331EBF4FF08C
:10311000FE4040F44000704701F0004040F0FE40A7
:1031200040F40000704700BF53B94AB9002908BFF6
:1031300000281CBF4FF0FF314FF0FF3000F06AB99C
:10314000ADF1080C6DE904CE00F006F8DDF804E0FE
:10315000DDE9022304B070472DE9F047089D0C46D5
:10316000002B4ED194468C458646B2FA82F262D943
:103170004AB1C2F12003914020FA03F30CFA02FC99
:10318000194300FA02FE4FEA1C471FFA8CF6B1FB06
:10319000F7F44FEA1E4307FB141143EA014304FB13
:1031A00006F199420AD91CEB030304F1FF3080F0C9
:1031B0001281994240F20F81023C6344591A1FFA6E
:1031C0008EF3B1FBF7F007FB101143EA014300FB5C
:1031D00006F69E420AD91CEB030300F1FF3180F092
:1031E000FC809E4240F2F980634402389B1B40EA17
:1031F000044000211DB1D3400022C5E90032BDE8E2
:10320000F0878B4205D90DB1C5E9000100210846C0
:10321000F5E7B3FA83F1002946D1A34202D39042E5
:10322000C0F0F080861A64EB03030120002DE6D085
:10323000C5E90063E3E7002A40F09080A1EB0C04AD
:103240004FEA1C481FFA8CF70121B4FBF8F64FEA4D
:103250001E4308FB164443EA044307FB06F098426A
:1032600008D91CEB030306F1FF3402D2984200F2A6
:10327000CD8026461C1A1FFA8EF3B4FBF8F008FB2B
:10328000104443EA044300FB07F79F4208D91CEBB4
:10329000030300F1FF3402D29F4200F2B0802046C7
:1032A000DB1B40EA0640A5E7C1F120068B4022FA6D
:1032B00006F71F4320FA06FC04FA01F343EA0C0365
:1032C000F44000FA01F8380C4FEA1349B4FBF0FE61
:1032D0001FFA87FC00FB1E4449EA04440EFB0CF96C
:1032E000A14502FA01F20AD93C190EF1FF3A80F029
:1032F0008480A14540F28180AEF1020E3C44A4EBF3
:1033000009041FFA83F9B4FBF0F300FB134449EA04
:10331000044403FB0CFCA44507D93C1903F1FF301E
:1033200067D2A44565D9023B3C4443EA0E40A0FB6A
:103330000293A4EB0C049C42CE469C4651D34ED043
:1033400055B1B8EB0E0364EB0C0404FA06F6CB405F
:103350001E43CC40C5E90064002150E7C2F12003C0
:1033600020FA03F10CFA02FC24FA03F394400C4314
:103370004FEA1C4800FA02FE1FFA8CF7B3FBF8F084
:1033800008FB1031230C43EA014300FB07F199428B
:1033900008D91CEB030300F1FF362CD299422AD93D
:1033A000023863445B1AA4B2B3FBF8F108FB113393
:1033B00044EA034401FB07F3A34208D91CEB0404CD
:1033C00001F1FF3613D2A34211D902396444E41A41
:1033D00041EA004139E70446F0E6084606E7C845F9
:1033E000AED2B9EB020E63EB070C0138A8E7314609
:1033F000EDE7034699E73046D4E7D6467FE76344D6
:1034000002384DE70646234608460FE7023E63446E
:1034100030E700BF704700BF80B582B000AF786072
:103420007B6818687B6804334FF4806219460AF0A1
:1034300063FB7B681B681B6F1B681A687B681B68D3
:103440001B6F1B6822F002021A6000BF0837BD46DE
:1034500080BD80B400AF00BFBD465DF8047B7047FF
:1034600080B400AF00231846BD465DF8047B70476A
:1034700080B483B000AF78607B6800221A607B68FC
:1034800000225A607B6818460C37BD465DF8047B05
:103490007047000080B483B000AF7860044A7B6856
:1034A0001A607B6818460C37BD465DF8047B704790
:1034B000A06B010880B582B000AF78607B681846C9
:1034C000FFF7E8FF064A7B681A607B6804331846FA
:1034D000FFF7CEFF7B6818460837BD4680BD00BFAA
:1034E000886B010880B485B000AF78603960002334
:1034F000FB607B685968FB683A681344CAB21A706B
:103500007B685B68190AFB6801333A681344CAB2E6
:103510001A707B685B68190CFB6802333A681344C5
:10352000CAB21A707B685B68190EFB6803333A688D
:103530001344CAB21A70FB680433FB607B68996855
:10354000FB683A681344CAB21A707B689B68190A10
:10355000FB6801333A681344CAB21A707B689B68EF
:10356000190CFB6802333A681344CAB21A707B68BC
:103570009B68190EFB6803333A681344CAB21A7089
:10358000FB680433FB60FB6818461437BD465DF8E2
:10359000047B704780B485B000AF78603960002349
:1035A000FB60FB683A6813441B781A467B685A60D4
:1035B0007B685A68FB68013339680B441B781B022F
:1035C0001A437B685A607B685A68FB680233396823
:1035D0000B441B781B041A437B685A607B685A684B
:1035E000FB68033339680B441B781B061A437B685E
:1035F0005A60FB680433FB60FB683A6813441B782D
:103600001A467B689A607B689A68FB680133396860
:103610000B441B781B021A437B689A607B689A688C
:10362000FB68023339680B441B781B041A437B6820
:103630009A607B689A68FB68033339680B441B788F
:103640001B061A437B689A60FB680433FB60FB68C7
:1036500018461437BD465DF8047B704780B483B0CC
:1036600000AF7860034B18460C37BD465DF8047B0D
:10367000704700BF4063010880B483B000AF78603A
:10368000034B18460C37BD465DF8047B704700BFFE
:103690005063010880B582B000AF78607B6818463F
:1036A000FFF7F8FE0B4A7B681A607B6800229A805D
:1036B0007B68094A9A607B68074ADA607B68064A39
:1036C0001A617B6800225A617B6818460837BD463C
:1036D00080BD00BF706B01087463010880B588B0BD
:1036E00000AF786039600023FB617B689988FB69D3
:1036F0003A681344CAB21A707B689B881B0A99B255
:10370000FB6901333A681344CAB21A70FB69023389
:10371000FB617B689B681846FFF7E0F8B861FB69BE
:103720003A681344B969184601F002FDFB69043395
:10373000FB61FB693A68D0187B689B68BA691946D7
:1037400012F0D4FCFA69BB691344FB617B68DB6847
:103750001846FFF7C3F87861FB693A681344796942
:10376000184601F0E5FCFB690433FB61FB693A682C
:10377000D0187B68DB687A69194612F0B7FCFA69E1
:103780007B691344FB617B681B691846FFF7A6F849
:103790003861FB693A6813443969184601F0C8FC7E
:1037A000FB690433FB61FB693A68D0187B681B69CD
:1037B0003A69194612F09AFCFA693B691344FB61B5
:1037C0007B685B69FB60F968FB693A681344CAB2BD
:1037D0001A70FB68190AFB6901333A681344CAB2CC
:1037E0001A70FB68190CFB6902333A681344CAB2B9
:1037F0001A70FB68190EFB6903333A681344CAB2A6
:103800001A70FB690433FB61FB6918462037BD461B
:1038100080BD80B58AB000AF786039600023BB619D
:10382000BB693A6813441B781A467B689A807B68A8
:103830009B881AB2BB69013339680B441B781B02A1
:103840001BB213431BB29AB27B689A80BB690233E6
:10385000BB61BB693A681A4407F114031146184664
:1038600001F085FCBB690433BB61BB697B620BE083
:103870003A687B6A1A447B6A013B39680B441278C8
:103880001A707B6A01337B62BA697B6913447A6A76
:103890009A42EDD3BA697B691344013B3A681344F9
:1038A00000221A70BB69013B3A681A447B689A602F
:1038B000BA697B691344BB61BB693A681A4407F172
:1038C00010031146184601F052FCBB690433BB617A
:1038D000BB693B620BE03A683B6A1A443B6A013BB6
:1038E00039680B4412781A703B6A01333B62BA693B
:1038F0003B6913443A6A9A42EDD3BA693B6913446F
:10390000013B3A68134400221A70BB69013B3A68D4
:103910001A447B68DA60BA693B691344BB61BB69CE
:103920003A681A4407F10C031146184601F01FFCCF
:10393000BB690433BB61BB69FB610BE03A68FB699F
:103940001A44FB69013B39680B4412781A70FB6911
:103950000133FB61BA69FB681344FA699A42EDD3FB
:10396000BA69FB681344013B3A68134400221A7099
:10397000BB69013B3A681A447B681A61BA69FB6803
:103980001344BB610023BB60BB68BA6939680A4451
:1039900012781343BB60BA68BB69013339680B44C2
:1039A0001B781B021343BB60BA68BB6902333968DA
:1039B0000B441B781B041343BB60BA68BB69033319
:1039C00039680B441B781B061343BB60BA687B68DD
:1039D0005A61BB690433BB61BB6918462837BD46D1
:1039E00080BD000080B483B000AF7860034B184600
:1039F0000C37BD465DF8047B704700BF7863010853
:103A000080B483B000AF7860034B18460C37BD46D6
:103A10005DF8047B704700BF9463010880B582B0F5
:103A200000AF78607B681846FFF734FD064A7B6874
:103A30001A607B6800221A717B68044A9A607B686E
:103A400018460837BD4680BD586B010874630108ED
:103A500080B584B000AF786039600023FB60FB68FC
:103A60003A6813447A6812791A70FB680133FB6074
:103A70007B689B681846FEF731FFB860FB683A68C0
:103A80001344B968184601F053FBFB680433FB602C
:103A9000FB683A68D0187B689B68BA68194612F0D0
:103AA00025FBFA68BB681344FB60FB6818461037B7
:103AB000BD4680BD80B586B000AF78603960002318
:103AC0003B613B693A6813441A787B681A713B6919
:103AD00001333B613B693A681A4407F10C03114614
:103AE000184601F044FB3B6904333B613B697B6151
:103AF0000BE03A687B691A447B69013B39680B44E7
:103B000012781A707B6901337B613A69FB68134450
:103B10007A699A42EDD33A69FB681344013B3A68EB
:103B2000134400221A703B69013B3A681A447B68CF
:103B30009A603A69FB6813443B613B691846183741
:103B4000BD4680BD80B483B000AF7860034B18469B
:103B50000C37BD465DF8047B704700BFB8630108B1
:103B600080B483B000AF7860034B18460C37BD4675
:103B70005DF8047B704700BFCC63010880B582B05C
:103B800000AF78607B681846FFF784FC0C4A7B68BE
:103B90001A607B6800225A607B680022DA607B68CA
:103BA00000221A617B6800229A617B680022DA6138
:103BB0007B6800225A627B6818460837BD4680BD84
:103BC000406B010880B58AB000AF7860396000238F
:103BD0007B627B6859687B6A3A681344CAB21A7080
:103BE0007B685B68190A7B6A01333A681344CAB27E
:103BF0001A707B685B68190C7B6A02333A6813445D
:103C0000CAB21A707B685B68190E7B6A03333A6824
:103C10001344CAB21A707B6A04337B6200233B628E
:103C20002AE07B68DA683B6A9B0013441B683B61AF
:103C300039697B6A3A681344CAB21A703B69190A37
:103C40007B6A01333A681344CAB21A703B69190C93
:103C50007B6A02333A681344CAB21A703B69190E80
:103C60007B6A03333A681344CAB21A707B6A04331E
:103C70007B623B6A01333B627B685B683A6A9A42CB
:103C8000CFD37B6819697B6A3A681344CAB21A7049
:103C90007B681B69190A7B6A01333A681344CAB20C
:103CA0001A707B681B69190C7B6A02333A681344EB
:103CB000CAB21A707B681B69190E7B6A03333A68B3
:103CC0001344CAB21A707B6A04337B620023FB611F
:103CD0002AE07B689A69FB699B0013441B68FB60C0
:103CE000F9687B6A3A681344CAB21A70FB68190A09
:103CF0007B6A01333A681344CAB21A70FB68190C24
:103D00007B6A02333A681344CAB21A70FB68190E10
:103D10007B6A03333A681344CAB21A707B6A04336D
:103D20007B62FB690133FB617B681B69FA699A421C
:103D3000CFD37B68D9697B6A3A681344CAB21A70D8
:103D40007B68DB69190A7B6A01333A681344CAB29B
:103D50001A707B68DB69190C7B6A02333A6813447A
:103D6000CAB21A707B68DB69190E7B6A03333A6842
:103D70001344CAB21A707B6A04337B620023BB61AE
:103D800027E07B685A6ABB699B0013441B6818468E
:103D9000FEF7A4FD78617B6A3A6813447969184696
:103DA00001F0C6F97B6A04337B627B6A3A68D018FB
:103DB0007B685A6ABB699B0013441B687A69194681
:103DC00012F094F97A6A7B6913447B62BB69013310
:103DD000BB617B68DB69BA699A42D2D37B6A1846B9
:103DE0002837BD4680BD80B58EB000AF78603960A1
:103DF00000237B637B6B3A6813441B783B627B6BCD
:103E000001333A6813441B781B023A6A13433B623E
:103E10007B6B02333A6813441B781B043A6A1343E2
:103E20003B627B6B03333A6813441B781B063A6A88
:103E300013433B627B6B04337B637B685B683A6A4A
:103E40009A420AD97B68DA683B6A9B001946104699
:103E500012F07CF802467B68DA607B683A6A5A6046
:103E600000233B6335E000237B617B697A6B396813
:103E70000A44127813437B617A697B6B013339689A
:103E80000B441B781B0213437B617A697B6B023303
:103E900039680B441B781B0413437B617A697B6B85
:103EA000033339680B441B781B0613437B617A6923
:103EB0007B689A607B6B04337B637B68DA683B6B5F
:103EC0009B0013447A68083212681A603B6B013316
:103ED0003B637B685B683A6B9A42C4D37B6B3A68FE
:103EE00013441B78FB617B6B01333A6813441B78E6
:103EF0001B02FA691343FB617B6B02333A6813447C
:103F00001B781B04FA691343FB617B6B03333A682C
:103F100013441B781B06FA691343FB617B6B043364
:103F20007B637B681B69FA699A420AD97B689A6944
:103F3000FB699B001946104612F008F802467B68A0
:103F40009A617B68FA691A610023FB6235E00023FD
:103F50003B613B697A6B39680A44127813433B61D1
:103F60003A697B6B013339680B441B781B0213439E
:103F70003B613A697B6B023339680B441B781B0445
:103F800013433B613A697B6B033339680B441B78FD
:103F90001B0613433B613A697B685A617B6B0433B0
:103FA0007B637B689A69FB6A9B0013447A681432CE
:103FB00012681A60FB6A0133FB627B681B69FA6A4C
:103FC0009A42C4D37B6B3A6813441B78BB617B6B0A
:103FD00001333A6813441B781B02BA691343BB616F
:103FE0007B6B02333A6813441B781B04BA69134392
:103FF000BB617B6B03333A6813441B781B06BA69B9
:104000001343BB617B6B04337B637B68DB69BA69F9
:104010009A420AD97B685A6ABB699B0019461046C6
:1040200011F094FF02467B685A627B68BA69DA61D4
:104030000023BB623EE07B6B3A681A4407F10C0335
:104040001146184601F093F87B6B04337B637B6B5E
:104050007B620BE03A687B6A1A447B6A013B3968F1
:104060000B4412781A707B6A01337B627A6BFB68AF
:1040700013447A6A9A42EDD37A6BFB681344013B8E
:104080003A68134400221A707B6B013B3A681A4469
:104090007B681A627A6BFB6813447B637B685A6A9D
:1040A000BB6A9B0013447A68203212681A60BB6AAC
:1040B0000133BB627B68DB69BA6A9A42BBD37B6B14
:1040C00018463837BD4680BD80B483B000AF7860F5
:1040D000034B18460C37BD465DF8047B704700BFA4
:1040E0008868010880B483B000AF7860034B18463D
:1040F0000C37BD465DF8047B704700BFF0630108D4
:1041000080B485B000AFF860B9607A603B60FB684E
:10411000BA681A60FB687A685A60FB683A681A6184
:10412000FB6818461437BD465DF8047B704780B5C0
:1041300082B000AF786039607B68D8687B68DB68E4
:104140001B681B687A6891683A6898470346184666
:104150000837BD4680BD80B483B000AF78607B680F
:104160001B6918460C37BD465DF8047B704700009C
:1041700080B483B000AF78607B68044A1A607B68C3
:1041800018460C37BD465DF8047B70478C2900202B
:1041900080B582B000AF78607B681B681846FCF77A
:1041A00023FA00BF0837BD4680BD80B582B000AF9E
:1041B00078607B681B681846FCF721FA03461846AE
:1041C0000837BD4680BD80B584B000AFF860B960E7
:1041D0007A60FB681B687A68B9681846FCF745FA8C
:1041E00000BF1037BD4680BD80B582B000AF78609B
:1041F00002F0F6FD034618460837BD4680BD0000B4
:1042000080B582B000AF78607B681846FFF742F94E
:10421000094A7B681A607B6800225A607B68083311
:104220001846FFF725F97B68044A1A617B6818462F
:104230000837BD4680BD00BFFC6A010874630108F1
:1042400080B584B000AF786039600023FB607B6884
:104250005968FB683A681344CAB21A707B685B6895
:10426000190AFB6801333A681344CAB21A707B68B2
:104270005B68190CFB6802333A681344CAB21A70BF
:104280007B685B68190EFB6803333A681344CAB253
:104290001A70FB680433FB607B689968FB683A68B6
:1042A0001344CAB21A707B689B68190AFB68013311
:1042B0003A681344CAB21A707B689B68190CFB6891
:1042C00002333A681344CAB21A707B689B68190EAD
:1042D000FB6803333A681344CAB21A70FB680433AC
:1042E000FB607B68D968FB683A681344CAB21A70ED
:1042F0007B68DB68190AFB6801333A681344CAB269
:104300001A707B68DB68190CFB6802333A68134447
:10431000CAB21A707B68DB68190EFB6803333A680F
:104320001344CAB21A70FB680433FB607B681B69D4
:104330001846FEF7D3FAB860FB683A681344B968C8
:10434000184600F0F5FEFB680433FB60FB683A6832
:10435000D0187B681B69BA68194611F0C7FEFA6865
:10436000BB681344FB60FB6818461037BD4680BD30
:1043700080B586B000AF7860396000233B613B694F
:104380003A6813441B781A467B685A607B685A68FF
:104390003B69013339680B441B781B021A437B6865
:1043A0005A607B685A683B69023339680B441B7852
:1043B0001B041A437B685A607B685A683B69033365
:1043C00039680B441B781B061A437B685A603B69AB
:1043D00004333B613B693A6813441B781A467B6897
:1043E0009A607B689A683B69013339680B441B7893
:1043F0001B021A437B689A607B689A683B690233A8
:1044000039680B441B781B041A437B689A607B68ED
:104410009A683B69033339680B441B781B061A43BF
:104420007B689A603B6904333B613B693A6813449B
:104430001B781A467B68DA607B68DA683B6901336F
:1044400039680B441B781B021A437B68DA607B686F
:10445000DA683B69023339680B441B781B041A4342
:104460007B68DA607B68DA683B69033339680B4440
:104470001B781B061A437B68DA603B6904333B6197
:104480003B693A681A4407F10C031146184600F0DC
:104490006EFE3B6904333B613B697B610BE03A682C
:1044A0007B691A447B69013B39680B4412781A70A6
:1044B0007B6901337B613A69FB6813447A699A42EC
:1044C000EDD33A69FB681344013B3A681344002278
:1044D0001A703B69013B3A681A447B681A613A6971
:1044E000FB6813443B613B6918461837BD4680BDE5
:1044F00080B483B000AF7860034B18460C37BD46DC
:104500005DF8047B704700BF1464010880B483B079
:1045100000AF7860034B18460C37BD465DF8047B4E
:10452000704700BF2464010880B582B000AF786096
:104530007B681846FEF7AEFF084A7B681A607B6806
:10454000074A5A607B6800229A607B680022DA6022
:104550007B6818460837BD4680BD00BFE46A010885
:104560007463010880B584B000AF786039600023BF
:10457000FB607B685B681846FEF7B0F9B860FB68C3
:104580003A681344B968184600F0D2FDFB6804335A
:10459000FB60FB683A68D0187B685B68BA681946AC
:1045A00011F0A4FDFA68BB681344FB607B6899684E
:1045B000FB683A681344CAB21A707B689B68190A90
:1045C000FB6801333A681344CAB21A707B689B686F
:1045D000190CFB6802333A681344CAB21A707B683C
:1045E0009B68190EFB6803333A681344CAB21A7009
:1045F000FB680433FB607B68D968FB683A68134446
:10460000CAB21A707B68DB68190AFB6801333A6822
:104610001344CAB21A707B68DB68190CFB6802335A
:104620003A681344CAB21A707B68DB68190EFB68DB
:1046300003333A681344CAB21A70FB680433FB6050
:10464000FB6818461037BD4680BD80B586B000AF08
:104650007860396000233B613B693A681A4407F18E
:104660000C031146184600F082FD3B6904333B61A0
:104670003B697B610BE03A687B691A447B69013BCB
:1046800039680B4412781A707B6901337B613A698F
:10469000FB6813447A699A42EDD33A69FB68134484
:1046A000013B3A68134400221A703B69013B3A68A7
:1046B0001A447B685A603A69FB6813443B613B6962
:1046C0003A6813441B781A467B689A607B689A683C
:1046D0003B69013339680B441B781B021A437B6822
:1046E0009A607B689A683B69023339680B441B788F
:1046F0001B041A437B689A607B689A683B690333A2
:1047000039680B441B781B061A437B689A603B6927
:1047100004333B613B693A6813441B781A467B6853
:10472000DA607B68DA683B69013339680B441B78CF
:104730001B021A437B68DA607B68DA683B690233E4
:1047400039680B441B781B041A437B68DA607B686A
:10475000DA683B69033339680B441B781B061A433C
:104760007B68DA603B6904333B613B691846183764
:10477000BD4680BD80B483B000AF7860034B18465F
:104780000C37BD465DF8047B704700BF48640108E4
:1047900080B483B000AF7860034B18460C37BD4639
:1047A0005DF8047B704700BF6864010880B582B083
:1047B00000AF78607B681846FEF76CFE0A4A7B689B
:1047C0001A607B6800225A607B6808331846FFF73E
:1047D000ABFE7B6800229A617B680022DA617B680D
:1047E00018460837BD4680BDCC6A010880B584B044
:1047F00000AF786039600023FB607B685968FB6814
:104800003A681344CAB21A707B685B68190AFB687D
:1048100001333A681344CAB21A707B685B68190C9A
:10482000FB6802333A681344CAB21A707B685B684B
:10483000190EFB6803333A681344CAB21A70FB6856
:104840000433FB600023BB6017E07B689A69BB6898
:104850001B01D0187B689A69BB681B0113441B6855
:104860001B68FA6839680A44114698470246FB6893
:104870001344FB60BB680133BB607B685B68BA684C
:104880009A42E2D37B68D969FB683A681344CAB29A
:104890001A707B68DB69190AFB6801333A681344B4
:1048A000CAB21A707B68DB69190CFB6802333A687C
:1048B0001344CAB21A707B68DB69190EFB680333B4
:1048C0003A681344CAB21A70FB680433FB60FB6891
:1048D00018461037BD4680BD80B586B000AF786001
:1048E000396000237B617B693A6813441B78FB6065
:1048F0007B6901333A6813441B781B02FA6813433F
:10490000FB607B6902333A6813441B781B04FA6826
:104910001343FB607B6903333A6813441B781B061F
:10492000FA681343FB607B6904337B617B685B68D7
:10493000FA689A420AD97B689A69FB681B01194692
:10494000104611F003FB02467B689A617B68FA68A7
:104950005A6000233B611AE07B6803F108007B6921
:104960003A6813441946FFF770FE02467B69134408
:104970007B617B689A693B691B01D0187B680833AF
:104980001022194611F0B2FB3B6901333B617B6891
:104990005B683A699A42DFD37B693A6813441B78B3
:1049A0001A467B68DA617B68DA697B6901333968AA
:1049B0000B441B781B021A437B68DA617B68DA6957
:1049C0007B69023339680B441B781B041A437B68EC
:1049D000DA617B68DA697B69033339680B441B78D9
:1049E0001B061A437B68DA617B6904337B617B6950
:1049F00018461837BD4680BD80B483B000AF7860DC
:104A0000034B18460C37BD465DF8047B704700BF6A
:104A10008C64010880B483B000AF7860034B184603
:104A20000C37BD465DF8047B704700BFA8640108E1
:104A300080B582B000AF78607B681846FEF72AFD2B
:104A40000B4A7B681A607B6804331846FFF7D8FB73
:104A50007B6818331846FFF7A9FE7B6800229A632B
:104A60007B6800221A647B6818460837BD4680BD03
:104A7000B46A010880B584B000AF78603960002363
:104A8000FB607B6803F11800FB683A681344194621
:104A9000FFF7ACFE0246FB681344FB607B68996B32
:104AA000FB683A681344CAB21A707B689B6B190A98
:104AB000FB6801333A681344CAB21A707B689B6B77
:104AC000190CFB6802333A681344CAB21A707B6847
:104AD0009B6B190EFB6803333A681344CAB21A7011
:104AE000FB680433FB600023BB601EE07B681A6C2C
:104AF000BB685B0013441988FB683A681344CAB268
:104B00001A707B681A6CBB685B0013441B881B0A15
:104B100099B2FB6801333A681344CAB21A70FB6851
:104B20000233FB60BB680133BB607B689B6BBA6878
:104B30009A42DBD3FB6818461037BD4680BD80B56E
:104B400086B000AF7860396000237B617B6803F139
:104B500018007B693A6813441946FFF7BDFE024608
:104B60007B6913447B617B693A6813441B78FB6063
:104B70007B6901333A6813441B781B02FA681343BC
:104B8000FB607B6902333A6813441B781B04FA68A4
:104B90001343FB607B6903333A6813441B781B069D
:104BA000FA681343FB607B6904337B617B689B6B12
:104BB000FA689A420AD97B681A6CFB685B0019464E
:104BC000104611F0C3F902467B681A647B68FA68E4
:104BD0009A6300233B6125E07B693A6813441B78A4
:104BE0001A467B689A877B689B8F1AB27B69013370
:104BF00039680B441B781B021BB213431BB29AB2D9
:104C00007B689A877B6902337B617B681A6C3B699E
:104C10005B0013447A683C32128892B21A803B6976
:104C200001333B617B689B6B3A699A42D4D37B69C1
:104C300018461837BD4680BD80B483B000AF786099
:104C4000034B18460C37BD465DF8047B704700BF28
:104C5000CC64010880B483B000AF7860034B184681
:104C60000C37BD465DF8047B704700BFE86401085F
:104C700080B582B000AF78607B681846FEF70AFC0A
:104C80000B4A7B681A607B6804331846FFF7B8FA52
:104C90007B6818331846FFF789FD7B6800229A630A
:104CA0007B6800221A647B6818460837BD4680BDC1
:104CB0009C6A010880B586B000AF78603960002337
:104CC0007B617B6803F118007B693A6813441946DD
:104CD000FFF78CFD02467B6913447B617B68996B0F
:104CE0007B693A681344CAB21A707B689B6B190AD5
:104CF0007B6901333A681344CAB21A707B689B6BB4
:104D0000190C7B6902333A681344CAB21A707B6883
:104D10009B6B190E7B6903333A681344CAB21A704D
:104D20007B6904337B6100233B611CE07B681A6C68
:104D30003B695B001344B3F90030BB81B9897B69DF
:104D40003A681344CAB21A70BB891B0A99B27B69CC
:104D500001333A681344CAB21A707B6902337B612B
:104D60003B6901333B617B689B6B3A699A42DDD3B7
:104D70007B6918461837BD4680BD80B586B000AF48
:104D80007860396000237B617B6803F118007B69E0
:104D90003A6813441946FFF79FFD02467B691344A6
:104DA0007B617B693A6813441B78FB607B69013344
:104DB0003A6813441B781B02FA681343FB607B6953
:104DC00002333A6813441B781B04FA681343FB60F0
:104DD0007B6903333A6813441B781B06FA68134354
:104DE000FB607B6904337B617B689B6BFA689A424A
:104DF0000AD97B681A6CFB685B001946104611F0F3
:104E0000A5F802467B681A647B68FA689A630023F7
:104E10003B612AE000233B813B897A6939680A4477
:104E2000127813439BB23B813B891AB27B690133F1
:104E300039680B441B781B021BB213431BB29BB295
:104E40003B81B7F908207B689A877B6902337B61D5
:104E50007B681A6C3B695B0013447A683C321288A9
:104E600092B21A803B6901333B617B689B6B3A6964
:104E70009A42CFD37B6918461837BD4680BD0000E3
:104E800080B483B000AF7860034B18460C37BD4642
:104E90005DF8047B704700BF0C65010880B483B0E7
:104EA00000AF7860034B18460C37BD465DF8047BB5
:104EB000704700BF2865010880B582B000AF7860F8
:104EC0007B681846FEF7E6FA0B4A7B681A607B6837
:104ED00004331846FFF794F97B6818331846FFF738
:104EE00065FC7B6800229A637B6800221A647B68F9
:104EF00018460837BD4680BD846A010880B586B073
:104F000000AF7860396000237B617B6803F1180093
:104F10007B693A6813441946FFF768FC02467B69CF
:104F200013447B617B68996B7B693A681344CAB20E
:104F30001A707B689B6B190A7B6901333A681344CA
:104F4000CAB21A707B689B6B190C7B6902333A6892
:104F50001344CAB21A707B689B6B190E7B690333CA
:104F60003A681344CAB21A707B6904337B61002328
:104F70003B612AE07B681A6C3B699B0013441B6809
:104F8000FB60F9687B693A681344CAB21A70FB681F
:104F9000190A7B6901333A681344CAB21A70FB6874
:104FA000190C7B6902333A681344CAB21A70FB6861
:104FB000190E7B6903333A681344CAB21A707B69CD
:104FC00004337B613B6901333B617B689B6B3A69CE
:104FD0009A42CFD37B6918461837BD4680BD80B54D
:104FE00086B000AF7860396000237B617B6803F195
:104FF00018007B693A6813441946FFF76DFC0246B6
:105000007B6913447B617B693A6813441B78FB60BE
:105010007B6901333A6813441B781B02FA68134317
:10502000FB607B6902333A6813441B781B04FA68FF
:105030001343FB607B6903333A6813441B781B06F8
:10504000FA681343FB607B6904337B617B689B6B6D
:10505000FA689A420AD97B681A6CFB689B00194669
:10506000104610F073FF02467B681A647B68FA688A
:105070009A6300233B6135E00023BB60BB687A691B
:1050800039680A4412781343BB60BA687B690133FC
:1050900039680B441B781B021343BB60BA687B69F9
:1050A000023339680B441B781B041343BB60BA6896
:1050B0007B69033339680B441B781B061343BB60C1
:1050C000BA687B68DA637B6904337B617B681A6C3E
:1050D0003B699B0013447A683C3212681A603B6952
:1050E00001333B617B689B6B3A699A42C4D37B690D
:1050F00018461837BD4680BD80B483B000AF7860D5
:10510000034B18460C37BD465DF8047B704700BF63
:105110004C65010880B483B000AF7860034B18463B
:105120000C37BD465DF8047B704700BF6865010819
:1051300080B485B000AF786039600023FB600CE07C
:10514000FB68DB003A6822FA03F17A68FB681344D3
:10515000CAB21A70FB680133FB60FB68032BEFD9FE
:1051600000BF00BF1437BD465DF8047B704780B4B4
:1051700085B000AF786039607B6800221A60002338
:10518000FB6010E07B681B683968FA680A44127893
:105190001146FA68D20001FA02F21A437B681A60DB
:1051A000FB680133FB60FB68032BEBD900BF00BF3A
:1051B0001437BD465DF8047B7047000080B483B0AF
:1051C00000AF7860044A7B681A607B6818460C3729
:1051D000BD465DF8047B70472C6B010880B586B036
:1051E00000AF78607B681846FFF7E8FF394A7B68B4
:1051F0001A607B6804331846FEF7BAFF7B6800220A
:1052000083F8F4287B6803F608131846FEF7B6FC0B
:1052100000237B6109E07B687A6902F206220021A3
:1052200043F822107B6901337B617B69182BF2D92B
:1052300000233B610AE07A683B6903F21E239B006E
:10524000134400225A603B6901333B613B69182BD0
:10525000F1D90023FB6008E07A68FB681344183337
:1052600000221A70FB680133FB60FB68B3F5806FA6
:10527000F2D30023BB6009E07A68BB68134403F5EE
:10528000836300221A70BB680133BB60BB68B3F54F
:10529000806FF1D37B680022C3F80C297B68002261
:1052A000C3F814297B680022C3F818297B68002200
:1052B000C3F820297B680022C3F80C297B680022F0
:1052C000C3F814297B6800225A617B681846183796
:1052D000BD4680BD6C6A010880B483B000AF7860C1
:1052E000044A7B681A607B6818460C37BD465DF837
:1052F000047B7047146B010880B584B000AFF86080
:10530000B9607A603B60FB681846FFF7E5FF0B4A1F
:10531000FB681A60FB680C331846FFF789FBFB68D3
:105320007A681A65FB683A685A65FB68BA689A60D9
:10533000FB6818461037BD4680BD00BF546A01089F
:1053400080B582B000AF78607B6804331846FEF702
:105350001FFF7B680022C3F8E0287B680022C3F8A7
:10536000E4287B680022C3F8EC287B680022C3F89D
:10537000E82800BF0837BD4680BD80B485B000AFC7
:10538000786039600023FB601BE07B68FA6802F2FA
:10539000062253F82230002B10D17B68FA6802F203
:1053A0000622396843F82210FB6803F17D023B684E
:1053B0009A607A683B68DA60012306E0FB68013393
:1053C000FB60FB68182BE0DD002318461437BD4650
:1053D0005DF8047B704780B485B000AF78603960B9
:1053E0000023FB601AE07A68FB6803F21E239B002F
:1053F00013445B68002B0ED13A687968FB6803F2AE
:105400001E239B000B445A60FB6803F164023B6857
:105410005A60012306E0FB680133FB60FB68182B30
:10542000E1DD002318461437BD465DF8047B704764
:1054300080B586B000AF786007F10C031846FEF720
:1054400039F87B681B681B6807F10C020A21786831
:1054500098477B6804331846FEF7C6FE02467B6811
:105460009A6000BF1837BD4680BD000090B58BB074
:1054700000AF786007F10C031846FEF70BF9002324
:105480007B625AE07B687A6A02F2062253F8223085
:10549000002B4FD07B687A6A02F2062253F8223042
:1054A0009B689BB23B827B687A6A02F2062253F8C1
:1054B00022301B687B617B687A6A02F2062253F80D
:1054C000223059687B687A6A02F2062253F8223049
:1054D0005B681B6808331B68084698470346BB6136
:1054E0007B687A6A02F2062253F8223059687B6898
:1054F0007A6A02F2062253F822305B681B680C338A
:105500001B68084698470346FB614FF480633B6283
:105510007B681B681C687B687A6A02F2062253F873
:1055200022301846FEF717FE014607F10C031A4613
:105530007868A0477B6A01337B627B6A182BA1DD08
:1055400000237B6267E07A687B6A03F21E239B007C
:1055500013445B68002B5BD07A687B6A03F21E23DE
:105560009B0013445B685B689BB23B827A687B6AF2
:1055700003F21E239B0013445B689B687B617A687F
:105580007B6A03F21E239B00134459687A687B6A86
:1055900003F21E239B0013445B681B6808331B68DF
:1055A000084698470346BB617A687B6A03F21E236C
:1055B0009B00134459687A687B6A03F21E239B00A0
:1055C00013445B681B680C331B6808469847034606
:1055D000FB614FF480633B627B681B681C687A68E0
:1055E0007B6A03F21E239B00134459687A687B6A26
:1055F00003F21E239B0013445B681B6804331B6883
:1056000008469847014607F10C031A467868A047F8
:105610007B6A01337B627B6A182B94DD7B680122F5
:1056200083F8F428044B1B6818460AF06FF900BF92
:105630002C37BD4690BD00BF4849002080B584B0DE
:1056400000AF78607B6804331846FEF7CDFDF86044
:105650007B68D3F80039FA68D31A42F6F8229342ED
:1056600003D97B68002283F8F4287B68D3F8E038FC
:10567000002B09D07B68D3F8FC38FA689A4203D92A
:105680007B680022C3F8E0287B685B69002B13D09D
:105690007B6804331846FEF7A7FD0246FB68D21A62
:1056A0007B685B699A428CBF01230023DBB2002B2D
:1056B00002D06FF00103ABE17B6804331846FEF7BC
:1056C00074FDB860BB68002BC0F28B817B68D3F897
:1056D000F028BB681A447B68C3F8F0287B68D3F8CD
:1056E000E038072B1DD17B68D3F8EC38591C7A6859
:1056F000C2F8EC18BA68D1B27A6813440A461A762E
:105700007B68D3F8E4385A1E7B68C3F8E4287B68CA
:10571000D3F8E438002BB7D17B680822C3F8E0281F
:10572000B2E77B68D3F8E038002B28D1BB68FF2BA9
:105730000DD17B68D3F8E0385A1C7B68C3F8E028A9
:10574000FB6803F114027B68C3F8FC289CE77B68C4
:1057500004331846FEF748FD0246FB68D31A41F2AF
:10576000883293428CBF01230023DBB2002B8BD005
:105770007B68002283F8F4286FF0010348E17B681E
:10578000D3F8E038012B18D1BB68FE2B07D17B681A
:10579000D3F8E0385A1C7B68C3F8E02874E77B68CC
:1057A0000022C3F8E0287B6893F8F438002B7FF4DC
:1057B0006BAF7868FFF73CFE66E77B68D3F8E038AC
:1057C000022B13D17B68BA68C3F8E4287B680022F7
:1057D000C3F8EC287B68D3F8E0385A1C7B68C3F820
:1057E000E0287B68BA68C3F8F0284DE77B68D3F8F7
:1057F000E038032B10D17B68D3F8E428BB681B0288
:105800001A447B68C3F8E4287B68D3F8E0385A1C54
:105810007B68C3F8E02837E77B68D3F8E038042BCF
:1058200016D17B68D3F8F0385A42DBB2D2B258BFF7
:105830005342FF2B07D17B68D3F8E0385A1C7B68B2
:10584000C3F8E02820E77B680022C3F8E0281BE7C4
:105850007B68D3F8E038052B0FD17B68BA68C3F8B2
:10586000E8287B68D3F8E0385A1C7B68C3F8E02846
:105870007B68BA68C3F8F02806E77B68D3F8E0389D
:10588000062B2FD17B68D3F8E828BB681B021A448B
:105890007B68C3F8E8287B680722C3F8E0287B68A8
:1058A000D3F8E438002B7FF4EFAE5B4BD3F89430A1
:1058B00003F08043002B06D17B68D3F8E838002B37
:1058C00001D1012300E00023002B06D0534810F043
:1058D000ADF8FBF7CFFE00BFFDE77B680822C3F8F9
:1058E000E028D1E67B68D3F8E038082B7FF4CCAE13
:1058F0007B680022C3F8E0287B68D3F8F0385A426E
:10590000DBB2D2B258BF5342FF2B7FF4BDAE7B68EF
:10591000D3F8E838002B10D17868FFF789FD786854
:10592000FFF7A4FD7B68FA68C3F8F8287B68FA687B
:10593000C3F800294FF0FF336AE07B68D3F8E838FA
:105940000A2B06D17B6818331946786800F038F9BD
:105950009AE67B68D3F8E838062B0DD17B6803F60E
:1059600008127B68183319461046FEF73CFA7B682C
:10597000012283F8042987E67B68D3F8E8380B2BEB
:1059800004D17B68002283F8F4287DE67B68D3F895
:10599000E838643B7A6803F21E239B0013445B687B
:1059A000002B3FF471AE1E48FAF784FF7B68D3F8F2
:1059B000E838643B7A6803F21E239B00134458685E
:1059C0007B68D3F8E838643B7A6803F21E239B00B7
:1059D00013445B681B681B687A6818321146984745
:1059E00052E600BF7B6893F8F438002B0FD07B6839
:1059F000D3F8F838FA68D31A40F6C412934206D99D
:105A00007868FFF715FD7B68FA68C3F8F82800236B
:105A100018461037BD4680BD00100240AC66010834
:105A2000D035002080B584B000AF786039603B6825
:105A300004331846FEF7D8FBF8607868FDF718FDC8
:105A4000FB68134AA2FB03239A093B68DB681A44EC
:105A50007B681A60FA680E4BA3FB02139B094FF494
:105A60007A7101FB03F3D31A0A4A03FB02F23B6883
:105A70001B691A447B685A607B680433194678684E
:105A8000FCF74CFE00BF78681037BD4680BD00BFF4
:105A9000D34D621040420F0080B588B000AFF8606F
:105AA000B9607A60BB68632B09DDFB6893F8F43852
:105AB00083F00103DBB2002B01D0002379E07B6887
:105AC0001B681B68FA6802F5836207321146786822
:105AD00098477861FB68FF2283F81824FB68FE2250
