:020000040800F2
:1000000000000120A50700080D07000815070008DB
:100010001D070008250700082D0700080000000044
:10002000000000000000000000000000350700088C
:100030004307000800000000510700085F070008A0
:10004000F5070008F5070008F5070008F5070008A0
:10005000F5070008F5070008F5070008F507000890
:10006000F5070008F5070008F5070008F507000880
:10007000F5070008F5070008F5070008F507000870
:10008000F5070008F5070008F5070008F507000860
:10009000F5070008F5070008F5070008F507000850
:1000A000F5070008F5070008F5070008F507000840
:1000B0006D0700080000000000000000F5070008C0
:1000C000F50700080000000000000000F507000828
:1000D00000000000F5070008F50700080000000018
:1000E000F5070008F5070008000000000000000008
:1000F0000000000000000000000000000000000000
:10010000000000000000000000000000F5070008EB
:100110000000000000000000F5070008F5070008D7
:10012000F5070008F5070008F5070008F5070008BF
:10013000F5070008000000000000000000000000BB
:10014000F5070008F5070008F5070008F50700089F
:10015000F5070008F5070008F5070008F50700088F
:10016000F5070008F5070008F50700080000000083
:10017000F5070008F5070008000000000000000077
:0C018000F5070008F5070008F507000867
:10018C0010B5054C237833B9044B13B10448AFF3C5
:10019C0000800123237010BD10000020000000001F
:1001AC008C36000808B5034B1BB103490348AFF369
:1001BC00008008BD00000000140000208C360008F0
:1001CC0080B586B004AF00F010FB00F05FF800F0D3
:1001DC00EFF800F0ADF800220821294800F0AEFD40
:1001EC000823FB8016E0FB885B0099B24FF47A730E
:1001FC000293012301933B1D00930123002221480C
:10020C0000F07EFF03467B717B79002B06D0FB88C8
:10021C000133FB80FB88772BE5D900E000BFFB881E
:10022C00772B08D90821164800F0A0FDFA2000F021
:10023C0015FB00BFF6E7FB885B0099B24FF47A73AD
:10024C00029301230193104B0093012300220D48CC
:10025C0000F042FE03467B717B79002B09D008210C
:10026C00074800F083FD4FF4FA7000F0F7FA00BF76
:10027C00F5E701220821024800F060FD00BFFDE710
:10028C00000400482C0000200000002080B596B02F
:10029C0000AF07F1140344220021184603F0C4F9FF
:1002AC003B4600221A605A609A60DA601A614FF479
:1002BC00007001F0A7FB0346002B01D000F0F5F80D
:1002CC0010237B610123FB6200233B6360237B6370
:1002DC000223FB6301233B6401237B642823BB645F
:1002EC000723FB6402233B6502237B6507F11403A0
:1002FC00184601F0DDFB0346002B01D000F0D5F8C9
:10030C000F233B6003237B600023BB600023FB6057
:10031C0000233B613B460421184601F0DDFF0346F8
:10032C00002B01D000F0C1F800BF5837BD4680BD8E
:10033C0080B500AF1B4B1C4A1A601A4B1B4A5A6003
:10034C00184B00229A60174B0122DA60154B0022E1
:10035C001A61144B00225A61124B00229A61114B04
:10036C000022DA610F4B00221A620E4800F018FDD1
:10037C000346002B01D000F098F80021094801F049
:10038C009BFA0346002B01D000F08FF800210548A2
:10039C0001F0DDFA0346002B01D000F086F800BF17
:1003AC0080BD00BF2C00002000540040E49CD11004
:1003BC0080B588B000AF07F10C0300221A605A60B8
:1003CC009A60DA601A612F4BDB6C2E4A43F00403FF
:1003DC00D3642C4BDB6C03F00403BB60BB68294B70
:1003EC00DB6C284A43F00103D364264BDB6C03F02F
:1003FC0001037B607B68234BDB6C224A43F00203D6
:10040C00D364204BDB6C03F002033B603B6800229F
:10041C0008211D4800F092FC0423FB6002233B6181
:10042C0000237B610323BB610723FB6107F10C03F2
:10043C0019464FF0904000F017FB4FF40043FB605F
:10044C0002233B6100237B610323BB610323FB611C
:10045C0007F10C0319464FF0904000F005FB082300
:10046C00FB6001233B6100237B610023BB6107F12F
:10047C000C031946044800F0F7FA00BF2037BD46BC
:10048C0080BD00BF001002400004004880B582B05F
:10049C0000AF78607B681B68B3F1804F01D100F02E
:1004AC00BDF900BF0837BD4680BD80B400AF72B641
:1004BC0000BF00BFFDE7000080B483B000AF0F4B5E
:1004CC001B6E0E4A43F0010313660C4B1B6E03F0BC
:1004DC0001037B607B68094B9B6D084A43F080539A
:1004EC009365064B9B6D03F080533B603B6800BFEC
:1004FC000C37BD465DF8047B704700BF001002400E
:10050C0080B5A0B000AF786007F16C0300221A60D0
:10051C005A609A60DA601A6107F1180354220021BC
:10052C00184603F081F87B681B682D4A934253D11F
:10053C004023BB6100237B6407F11803184602F0CB
:10054C000BF90346002B01D0FFF7AFFF254BDB6CFB
:10055C00244A43F00103D364224BDB6C03F0010308
:10056C007B617B691F4BDB6C1E4A43F00203D36437
:10057C001C4BDB6C03F002033B613B694FF4806363
:10058C00FB6612233B6700237B670323BB670423B3
:10059C00FB6707F16C0319464FF0904000F064FACA
:1005AC004023FB6612233B6700237B670323BB6757
:1005BC000423FB6707F16C0319460B4800F054FA4F
:1005CC00084B9B6D074A43F400139365054B9B6DD9
:1005DC0003F40013FB60FB6800BF8037BD4680BD91
:1005EC0000540040001002400004004880B58EB05A
:1005FC0000AF7860002387F83330374B9B6D364A59
:10060C0043F001039365344B9B6D03F00103FB60D6
:10061C00FB6807F1100207F114031146184602F0AB
:10062C0009F83B6AFB62FB6A002B03D101F0ECFF7B
:10063C00786304E001F0E8FF03465B007B637B6BAF
:10064C00264AA2FB03239B0C013BBB62244B4FF0BD
:10065C0080421A60224B40F2E732DA60204ABB6AD1
:10066C0053601F4B00221A611D4B00229A601C4BD9
:10067C0000229A611A4802F057FB034687F8333080
:10068C0097F83330002B1BD1154802F0BBFB034607
:10069C0087F8333097F83330002B11D11C2000F041
:1006AC00D5F97B680F2B08D8002279681C2000F044
:1006BC00B1F90C4A7B68136002E0012387F83330F0
:1006CC00094A0E21064802F075FD97F8333018469A
:1006DC003837BD4680BD00BF0010024083DE1B438F
:1006EC008000002008000020F906000880B582B0C8
:1006FC0000AF786000F092F800BF0837BD4680BDAF
:10070C0080B400AF00BFFDE780B400AF00BFFDE7D1
:10071C0080B400AF00BFFDE780B400AF00BFFDE7C1
:10072C0080B400AF00BFFDE780B400AF00BFBD4692
:10073C005DF8047B704780B400AF00BFBD465DF828
:10074C00047B704780B400AF00BFBD465DF8047BEE
:10075C00704780B400AF00BFBD465DF8047B7047A6
:10076C0080B500AF024802F0A1FB00BF80BD00BF06
:10077C008000002080B400AF064BD3F88830054AC7
:10078C0043F47003C2F8883000BFBD465DF8047BAB
:10079C00704700BF00ED00E0DFF834D0FFF7EAFF50
:1007AC000C480D490D4A002302E0D458C4500433C0
:1007BC00C4188C42F9D30A4A0A4C002301E0136096
:1007CC000432A242FBD302F037FFFFF7F9FCFEE73D
:1007DC00000001200000002010000020F43600086A
:1007EC001000002040010020FEE780B582B000AF71
:1007FC000023FB71032000F002F90F20FFF7F6FE37
:10080C000346002B02D00123FB7101E0FFF754FEDD
:10081C00FB7918460837BD4680BD000080B400AF98
:10082C00064B1B781A46064B1B681344044A13608C
:10083C0000BFBD465DF8047B704700BF0C00002074
:10084C003C01002080B400AF034B1B681846BD462A
:10085C005DF8047B704700BF3C01002080B584B07C
:10086C0000AF7860FFF7EEFFB8607B68FB60FB6859
:10087C00B3F1FF3F05D00A4B1B781A46FB681344B3
:10088C00FB6000BFFFF7DEFF0246BB68D31AFA68B5
:10089C009A42F7D800BF00BF1037BD4680BD00BFDD
:1008AC000C00002080B485B000AF78607B6803F04A
:1008BC000703FB600C4BDB68BB60BA684FF6FF03A9
:1008CC001340BB60FB681A02BB68134343F0BF6361
:1008DC0043F40033BB60044ABB68D36000BF1437D9
:1008EC00BD465DF8047B704700ED00E080B400AFBE
:1008FC00044BDB681B0A03F007031846BD465DF882
:10090C00047B704700ED00E080B483B000AF034679
:10091C00FB7197F90730002B0BDBFB7903F01F02FF
:10092C00074997F907305B09012000FA02F241F8F8
:10093C00232000BF0C37BD465DF8047B704700BF19
:10094C0000E100E080B483B000AF03463960FB7176
:10095C0097F90730002B0ADB3B68DAB20C4997F9A0
:10096C0007301201D2B20B4483F800230AE03B6833
:10097C00DAB20849FB7903F00F03043B1201D2B23F
:10098C000B441A7600BF0C37BD465DF8047B7047EC
:10099C0000E100E000ED00E080B489B000AFF86049
:1009AC00B9607A60FB6803F00703FB61FB69C3F174
:1009BC000703042B28BF0423BB61FB690433062BFC
:1009CC0002D9FB69033B00E000237B614FF0FF324F
:1009DC00BB6902FA03F3DA43BB681A407B699A409D
:1009EC004FF0FF317B6901FA03F3D9437B680B406D
:1009FC00134318462437BD465DF8047B704780B519
:100A0C0082B000AF78607868FFF74CFF00BF083702
:100A1C00BD4680BD80B586B000AF0346B9607A6034
:100A2C00FB7300237B61FFF761FF78617A68B9681B
:100A3C007869FFF7B1FF024697F90F301146184657
:100A4C00FFF780FF00BF1837BD4680BD80B582B070
:100A5C0000AF0346FB7197F907301846FFF754FFB8
:100A6C0000BF0837BD4680BD80B487B000AF78604A
:100A7C00396000237B6148E13B681A6801217B697E
:100A8C0001FA03F31340FB60FB68002B00F03A8182
:100A9C003B685B6803F00303012B05D03B685B6884
:100AAC0003F00303022B30D17B689B683B617B69AD
:100ABC005B00032202FA03F3DB433A6913403B6108
:100ACC003B68DA687B695B0002FA03F33A6913430B
:100ADC003B617B683A699A607B685B683B61012289
:100AEC007B6902FA03F3DB433A6913403B613B68D1
:100AFC005B681B0903F001027B6902FA03F33A6994
:100B0C0013433B617B683A695A603B685B6803F04E
:100B1C000303032B17D07B68DB683B617B695B00AD
:100B2C00032202FA03F3DB433A6913403B613B684F
:100B3C009A687B695B0002FA03F33A6913433B61E1
:100B4C007B683A69DA603B685B6803F00303022B4D
:100B5C0023D17B69DA087B68083253F822303B6179
:100B6C007B6903F007039B000F2202FA03F3DB43BC
:100B7C003A6913403B613B681A697B6903F00703D0
:100B8C009B0002FA03F33A6913433B617B69DA0871
:100B9C007B680832396943F822107B681B683B611B
:100BAC007B695B00032202FA03F3DB433A691340CF
:100BBC003B613B685B6803F003027B695B0002FAF4
:100BCC0003F33A6913433B617B683A691A603B68EB
:100BDC005B6803F44033002B00F09480524B1B6E87
:100BEC00514A43F0010313664F4B1B6E03F0010394
:100BFC00BB60BB684D4A7B699B08023352F82330BB
:100C0C003B617B6903F003039B000F2202FA03F3A1
:100C1C00DB433A6913403B617B68B3F1904F0DD0D5
:100C2C007B68434A934207D07B68424A934201D186
:100C3C00022304E0072302E0012300E000237A6989
:100C4C0002F00302920093403A6913433B61374927
:100C5C007B699B0802333A6941F82320364B9B6829
:100C6C003B61FB68DB433A6913403B613B685B6863
:100C7C0003F48013002B03D03A69FB6813433B61E8
:100C8C002D4A3B6993602C4BDB683B61FB68DB4373
:100C9C003A6913403B613B685B6803F40013002B1B
:100CAC0003D03A69FB6813433B61234A3B69D36029
:100CBC00214B5B683B61FB68DB433A6913403B614A
:100CCC003B685B6803F40033002B03D03A69FB6884
:100CDC0013433B61184A3B695360174B1B683B61DC
:100CEC00FB68DB433A6913403B613B685B6803F488
:100CFC008033002B03D03A69FB6813433B610E4AE7
:100D0C003B6913607B6901337B613B681A687B69C3
:100D1C0022FA03F3002B7FF4AFAE00BF00BF1C37E9
:100D2C00BD465DF8047B7047001002400000014096
:100D3C0000040048000800480004014080B483B05F
:100D4C0000AF78600B467B8013467B707B78002B62
:100D5C0003D07A887B689A6102E07A887B689A6211
:100D6C0000BF0C37BD465DF8047B704780B485B07E
:100D7C0000AF78600B467B807B685B69FB607A8890
:100D8C00FB6813401A04FB68D9437B880B401A4359
:100D9C007B689A6100BF1437BD465DF8047B7047D1
:100DAC0080B582B000AF78607B68002B01D1012345
:100DBC008DE07B6893F84130DBB2002B06D17B6869
:100DCC00002283F840207868FFF79AFB7B68242286
:100DDC0083F841207B681B681A687B681B6822F0CB
:100DEC0001021A607B685A687B681B6822F070628B
:100DFC001A617B681B689A687B681B6822F4004246
:100E0C009A607B68DB68012B07D17B689A687B68EA
:100E1C001B6842F400429A6006E07B689A687B6823
:100E2C001B6842F404429A607B68DB68022B08D191
:100E3C007B681B685A687B681B6842F400625A60C6
:100E4C0007E07B681B685A687B681B6822F40062A9
:100E5C005A607B681B685B687A68126843F00073A1
:100E6C0043F4004353607B681B68DA687B681B683B
:100E7C0022F40042DA607B681A697B685B6942EA9B
:100E8C0003017B689B691A027B681B680A43DA6062
:100E9C007B68D9697B681A6A7B681B680A431A608D
:100EAC007B681B681A687B681B6842F001021A6039
:100EBC007B6800225A647B68202283F841207B687F
:100ECC0000221A637B68002283F842200023184614
:100EDC000837BD4680BD000080B588B002AFF86011
:100EEC00084611461A4603467B810B463B81134646
:100EFC00FB80FB6893F84130DBB2202B40F0F9808B
:100F0C003B6A002B02D0BB8C002B05D1FB684FF445
:100F1C0000725A640123EDE0FB6893F84030012B1A
:100F2C0001D10223E6E0FB68012283F84020FFF7A1
:100F3C0089FC78617B690093192301224FF40041ED
:100F4C00F86800F0C3FA0346002B01D00123D1E06E
:100F5C00FB68212283F84120FB68402283F8422061
:100F6C00FB6800225A64FB683A6A5A62FB68BA8CC6
:100F7C005A85FB6800225A63F8883A8979897B691B
:100F8C000193BB6A00930346F86800F0D3F903465B
:100F9C00002B05D0FB68002283F840200123A9E038
:100FAC00FB685B8D9BB2FF2B0ED9FB68FF221A8569
:100FBC00FB681B8DDAB27989002300934FF08073A4
:100FCC00F86800F047FC0FE0FB685B8D9AB2FB6899
:100FDC001A85FB681B8DDAB27989002300934FF0D8
:100FEC000073F86800F036FC7A69B96AF86800F0AA
:100FFC00C6FA0346002B01D001237BE0FB685B6A39
:10100C001A78FB681B689A62FB685B6A5A1CFB685F
:10101C005A62FB685B8D9BB2013B9AB2FB685A85A6
:10102C00FB681B8D013B9AB2FB681A85FB685B8DD4
:10103C009BB2002B34D0FB681B8D002B30D17B690D
:10104C000093BB6A00228021F86800F03FFA034647
:10105C00002B01D001234DE0FB685B8D9BB2FF2B75
:10106C000ED9FB68FF221A85FB681B8DDAB27989D1
:10107C00002300934FF08073F86800F0EBFB0FE057
:10108C00FB685B8D9AB2FB681A85FB681B8DDAB224
:10109C007989002300934FF00073F86800F0DAFBB5
:1010AC00FB685B8D9BB2002B9ED17A69B96AF8689C
:1010BC0000F0ACFA0346002B01D001231AE0FB68C8
:1010CC001B682022DA61FB681B685968FB681A6888
:1010DC000A4B0B405360FB68202283F84120FB68CD
:1010EC00002283F84220FB68002283F84020002372
:1010FC0000E0022318461837BD4680BD00E800FE0C
:10110C0080B588B002AFF860084611461A4603460F
:10111C007B810B463B811346FB80FB6893F8413087
:10112C00DBB2202B40F0FD803B6A002B02D0BB8C45
:10113C00002B05D1FB684FF400725A640123F1E0D7
:10114C00FB6893F84030012B01D10223EAE0FB68E5
:10115C00012283F84020FFF775FB78617B690093CF
:10116C00192301224FF40041F86800F0AFF903464F
:10117C00002B01D00123D5E0FB68222283F841200B
:10118C00FB68402283F84220FB6800225A64FB680B
:10119C003A6A5A62FB68BA8C5A85FB6800225A6319
:1011AC00F8883A8979897B690193BB6A0093034675
:1011BC00F86800F013F90346002B05D0FB680022F9
:1011CC0083F840200123ADE0FB685B8D9BB2FF2BC5
:1011DC000ED9FB6801221A85FB681B8DDAB279895E
:1011EC00524B00934FF08073F86800F033FB0FE024
:1011FC00FB685B8D9AB2FB681A85FB681B8DDAB2B3
:10120C0079894A4B00934FF00073F86800F022FB89
:10121C007B690093BB6A00220421F86800F056F940
:10122C000346002B01D001237CE0FB681B685A6A43
:10123C00FB685B6AD2B21A70FB685B6A5A1CFB686B
:10124C005A62FB681B8D013B9AB2FB681A85FB68DE
:10125C005B8D9BB2013B9AB2FB685A85FB685B8D38
:10126C009BB2002B34D0FB681B8D002B30D17B69DB
:10127C000093BB6A00228021F86800F027F903462E
:10128C00002B01D001234DE0FB685B8D9BB2FF2B43
:10129C000ED9FB6801221A85FB681B8DDAB279899D
:1012AC00002300934FF08073F86800F0D3FA0FE03E
:1012BC00FB685B8D9AB2FB681A85FB681B8DDAB2F2
:1012CC007989002300934FF00073F86800F0C2FA9C
:1012DC00FB685B8D9BB2002B9AD17A69B96AF8686E
:1012EC0000F094F90346002B01D001231AE0FB68AF
:1012FC001B682022DA61FB681B685968FB681A6856
:10130C000B4B0B405360FB68202283F84120FB6899
:10131C00002283F84220FB68002283F8402000233F
:10132C0000E0022318461837BD4680BD002400801B
:10133C0000E800FE80B586B002AFF86008461146A2
:10134C001A4603467B810B463B811346FB80FB8888
:10135C00DAB27989204B00934FF08073F86800F073
:10136C0079FAFA69B969F86800F009F90346002BB3
:10137C0001D001232CE0FB88012B05D13B89DAB28B
:10138C00FB681B689A6215E03B891B0A9BB2DAB2B8
:10139C00FB681B689A62FA69B969F86800F0EFF8A3
:1013AC000346002B01D0012312E03B89DAB2FB6823
:1013BC001B689A62FB690093BB6900228021F86864
:1013CC0000F084F80346002B01D0012300E0002339
:1013DC0018461037BD4680BD0020008080B586B011
:1013EC0002AFF860084611461A4603467B810B464D
:1013FC003B811346FB80FB88DAB27989204B009342
:10140C000023F86800F026FAFA69B969F86800F068
:10141C00B6F80346002B01D001232CE0FB88012BEE
:10142C0005D13B89DAB2FB681B689A6215E03B89EF
:10143C001B0A9BB2DAB2FB681B689A62FA69B9693B
:10144C00F86800F09CF80346002B01D0012312E051
:10145C003B89DAB2FB681B689A62FB690093BB6933
:10146C0000224021F86800F031F80346002B01D02F
:10147C00012300E0002318461037BD4680BD00BF95
:10148C000020008080B483B000AF78607B681B685C
:10149C009B6903F00203022B03D17B681B680022BB
:1014AC009A627B681B689B6903F00103012B07D0D0
:1014BC007B681B689A697B681B6842F001029A6121
:1014CC0000BF0C37BD465DF8047B704780B584B017
:1014DC0000AFF860B9603B601346FB713BE0BA6942
:1014EC003968F86800F0D6F80346002B01D00123C8
:1014FC0041E03B68B3F1FF3F2DD0FFF7A3F9024663
:10150C00BB69D31A3A689A4202D33B68002B22D1AA
:10151C00FB681B689A69BB681340BA689A420CBF97
:10152C0001230023DBB21A46FB799A4213D1FB68E4
:10153C005B6C43F02002FB685A64FB68202283F842
:10154C004120FB68002283F84220FB68002283F8CC
:10155C00402001230FE0FB681B689A69BB681340AD
:10156C00BA689A420CBF01230023DBB21A46FB79FE
:10157C009A42B4D0002318461037BD4680BD80B5C2
:10158C0084B000AFF860B9607A6033E07A68B9680B
:10159C00F86800F07FF80346002B01D0012331E0FE
:1015AC00BB68B3F1FF3F25D0FFF74CF902467B68CF
:1015BC00D31ABA689A4202D3BB68002B1AD1FB68C3
:1015CC001B689B6903F00203022B13D0FB685B6C56
:1015DC0043F02002FB685A64FB68202283F8412008
:1015EC00FB68002283F84220FB68002283F840202D
:1015FC00012307E0FB681B689B6903F00203022BC5
:10160C00C4D1002318461037BD4680BD80B584B0C8
:10161C0000AFF860B9607A602FE07A68B968F86852
:10162C0000F038F80346002B01D001232DE0FFF722
:10163C0009F902467B68D31ABA689A4202D3BB688E
:10164C00002B1AD1FB681B689B6903F02003202B2D
:10165C0013D0FB685B6C43F02002FB685A64FB6898
:10166C00202283F84120FB68002283F84220FB688B
:10167C00002283F84020012307E0FB681B689B696C
:10168C0003F02003202BC8D1002318461037BD4689
:10169C0080BD000080B58AB000AFF860B9607A6098
:1016AC00002387F82730FB681B689B69BB6100230C
:1016BC003B627B68FB61BB6903F01003002B68D0B5
:1016CC00FB681B681022DA6149E0BB68B3F1FF3F8D
:1016DC0045D0FFF7B7F80246FB69D31ABA689A42AD
:1016EC0002D3BB68002B3AD1FB681B685B6803F420
:1016FC0080437B61FB6893F84230FB74FB681B688A
:10170C009B6903F40043B3F5004F21D17B69B3F51A
:10171C00804F1DD0FB7C202B1AD0FB681B685A68AD
:10172C00FB681B6842F480425A60FFF78BF8F86143
:10173C000EE0FFF787F80246FB69D31A192B07D97D
:10174C003B6A43F020033B62012387F8273006E015
:10175C00FB681B689B6903F02003202BE9D1FB6815
:10176C001B689B6903F02003202B03D097F82730CC
:10177C00002BAAD097F82730002B03D1FB681B68ED
:10178C002022DA613B6A43F004033B62012387F8B1
:10179C002730FB681B689B69BB61BB6903F48073D2
:1017AC00002B0BD03B6A43F001033B62FB681B68C8
:1017BC004FF48072DA61012387F82730BB6903F498
:1017CC008063002B0BD03B6A43F008033B62FB6841
:1017DC001B684FF48062DA61012387F82730BB69FC
:1017EC0003F40073002B0BD03B6A43F002033B6203
:1017FC00FB681B684FF40072DA61012387F827300D
:10180C0097F82730002B1CD0F868FFF73BFEFB68DD
:10181C001B685968FB681A680D4B0B405360FB68DA
:10182C005A6C3B6A1A43FB685A64FB68202283F8A3
:10183C004120FB68002283F84220FB68002283F8D9
:10184C00402097F8273018462837BD4680BD00BF8A
:10185C0000E800FE80B487B000AFF8607B600B46F8
:10186C007B8113467B727B89C3F309027B7A1B0451
:10187C0003F47F031A437B681A433B6A134323F038
:10188C0000437B61FB681B685A683B6A5B0D03F481
:10189C008061084B0B43DB4302EA0301FB681B68C6
:1018AC007A690A435A6000BF1C37BD465DF8047B59
:1018BC00704700BFFF63FF0380B483B000AF786054
:1018CC0039607B6893F84130DBB2202B38D17B68D0
:1018DC0093F84030012B01D1022332E07B680122C6
:1018EC0083F840207B68242283F841207B681B68A6
:1018FC001A687B681B6822F001021A607B681B68FF
:10190C001A687B681B6822F480521A607B681B681B
:10191C0019687B681B683A680A431A607B681B6805
:10192C001A687B681B6842F001021A607B682022EF
:10193C0083F841207B68002283F84020002300E0DC
:10194C00022318460C37BD465DF8047B704780B403
:10195C0085B000AF786039607B6893F84130DBB2BA
:10196C00202B39D17B6893F84030012B01D1022315
:10197C0033E07B68012283F840207B68242283F8C3
:10198C0041207B681B681A687B681B6822F0010287
:10199C001A607B681B681B68FB60FB6823F4706330
:1019AC00FB603B681B02FA681343FB607B681B6897
:1019BC00FA681A607B681B681A687B681B6842F0BF
:1019CC0001021A607B68202283F841207B68002288
:1019DC0083F84020002300E0022318461437BD464C
:1019EC005DF8047B7047000080B400AF044B1B68AB
:1019FC0003F4C0631846BD465DF8047B704700BF16
:101A0C000070004080B485B000AF78607B68B3F59F
:101A1C00007F30D1234B1B6803F4C063B3F5007F08
:101A2C0038D0204B1B6823F4C0631E4A43F4007368
:101A3C0013601D4B1B68322202FB03F31B4AA2FBF3
:101A4C0003239B0C0133FB6002E0FB68013BFB6052
:101A5C00144B5B6903F48063B3F5806F02D1FB68B0
:101A6C00002BF2D10F4B5B6903F48063B3F5806FED
:101A7C0010D103230FE00B4B1B6803F4C063B3F5C9
:101A8C00806F07D0074B1B6823F4C063054A43F4EF
:101A9C0080631360002318461437BD465DF8047B41
:101AAC00704700BF007000400400002083DE1B4321
:101ABC0080B588B000AF78607B68002B02D1012321
:101ACC0000F002BC964B9B6803F00C03BB61944B7B
:101ADC00DB6803F003037B617B681B6803F0100376
:101AEC00002B00F0E480BB69002B07D0BB690C2BEA
:101AFC0040F08B807B69012B40F08780884B1B6802
:101B0C0003F00203002B05D07B689B69002B01D1ED
:101B1C000123D9E37B681A6A814B1B6803F0080325
:101B2C00002B04D07E4B1B6803F0F00305E07C4BCC
:101B3C00D3F894301B0903F0F003934223D27B6853
:101B4C001B6A184600F0A8FD0346002B01D00123A8
:101B5C00BAE3734B1B68724A43F008031360704B73
:101B6C001B6823F0F0027B681B6A6D4913430B6002
:101B7C006B4B5B6823F47F427B68DB691B02684913
:101B8C0013434B6025E0664B1B68654A43F0080322
:101B9C001360634B1B6823F0F0027B681B6A60497F
:101BAC0013430B605E4B5B6823F47F427B68DB69FD
:101BBC001B025B4913434B60BB69002B09D17B684B
:101BCC001B6A184600F068FD0346002B01D0012368
:101BDC007AE300F081FC0246514B9B681B0903F031
:101BEC000F035049CB5C03F01F0322FA03F34E4A58
:101BFC0013604E4B1B681846FEF7F8FC0346FB734C
:101C0C00FB7B002B52D0FB7B5EE37B689B69002B3C
:101C1C0032D0434B1B68424A43F001031360FEF77A
:101C2C0011FE386108E0FEF70DFE02463B69D31A3F
:101C3C00022B01D9032347E3394B1B6803F0020342
:101C4C00002BF0D0364B1B68354A43F00803136069
:101C5C00334B1B6823F0F0027B681B6A304913433B
:101C6C000B602F4B5B6823F47F427B68DB691B02A4
:101C7C002B4913434B601AE0294B1B68284A23F06D
:101C8C0001031360FEF7DEFD386108E0FEF7DAFDB4
:101C9C0002463B69D31A022B01D9032314E3204BD0
:101CAC001B6803F00203002BF0D100E000BF7B683F
:101CBC001B6803F00103002B73D0BB69082B05D004
:101CCC00BB690C2B0ED17B69032B0BD1144B1B68FE
:101CDC0003F40033002B63D07B685B68002B5FD16F
:101CEC000123F1E27B685B68B3F5803F06D10C4BB6
:101CFC001B680B4A43F48033136025E07B685B68F8
:101D0C00B3F5A02F14D1064B1B68054A43F480236E
:101D1C001360034B1B68024A43F48033136013E0D7
:101D2C0000100240A4360008040000200800002027
:101D3C00A04B1B689F4A23F4803313609D4B1B6898
:101D4C009C4A23F4802313607B685B68002B13D0C0
:101D5C00FEF778FD386108E0FEF774FD02463B693A
:101D6C00D31A642B01D90323AEE2924B1B6803F404
:101D7C000033002BF0D014E0FEF764FD386108E06E
:101D8C00FEF760FD02463B69D31A642B01D903238D
:101D9C009AE2884B1B6803F40033002BF0D100E06F
:101DAC0000BF7B681B6803F00203002B60D0BB698B
:101DBC00042B05D0BB690C2B19D17B69022B16D1D6
:101DCC007C4B1B6803F48063002B05D07B68DB68BD
:101DDC00002B01D1012377E2764B5B6823F0F8529C
:101DEC007B681B691B06734913434B6040E07B689F
:101DFC00DB68002B23D06F4B1B686E4A43F4807357
:101E0C001360FEF71FFD386108E0FEF71BFD02466C
:101E1C003B69D31A022B01D9032355E2654B1B688E
:101E2C0003F48063002BF0D0624B5B6823F0F85214
:101E3C007B681B691B065F4913434B6018E05D4BC5
:101E4C001B685C4A23F480731360FEF7FBFC38615B
:101E5C0008E0FEF7F7FC02463B69D31A022B01D9C6
:101E6C00032331E2534B1B6803F48063002BF0D146
:101E7C007B681B6803F00803002B3CD07B685B6914
:101E8C00002B1CD04B4BD3F894304A4A43F001033F
:101E9C00C2F89430FEF7D6FC386108E0FEF7D2FCAD
:101EAC0002463B69D31A022B01D903230CE2414BA6
:101EBC00D3F8943003F00203002BEFD01BE03D4B22
:101ECC00D3F894303B4A23F00103C2F89430FEF768
:101EDC00B9FC386108E0FEF7B5FC02463B69D31A41
:101EEC00022B01D90323EFE1324BD3F8943003F0EA
:101EFC000203002BEFD17B681B6803F00403002B5B
:101F0C0000F0A6800023FB772A4B9B6D03F08053D7
:101F1C00002B0DD1274B9B6D264A43F080539365C4
:101F2C00244B9B6D03F08053BB60BB680123FB7794
:101F3C00214B1B6803F48073002B18D11E4B1B68BC
:101F4C001D4A43F480731360FEF77CFC386108E093
:101F5C00FEF778FC02463B69D31A022B01D9032306
:101F6C00B2E1154B1B6803F48073002BF0D07B6837
:101F7C009B68012B08D10F4BD3F890300D4A43F0DE
:101F8C000103C2F8903029E07B689B68052B15D1C2
:101F9C00084BD3F89030074A43F00403C2F8903052
:101FAC00044BD3F89030034A43F00103C2F890304D
:101FBC0014E000BF00100240007000409A4BD3F8B0
:101FCC009030994A23F00103C2F89030964BD3F825
:101FDC009030954A23F00403C2F890307B689B68DC
:101FEC00002B16D0FEF72EFC38610AE0FEF72AFC17
:101FFC0002463B69D31A41F28832934201D903233A
:10200C0062E1894BD3F8903003F00203002BEDD042
:10201C0015E0FEF717FC38610AE0FEF713FC0246E8
:10202C003B69D31A41F28832934201D903234BE125
:10203C007D4BD3F8903003F00203002BEDD1FB7FE6
:10204C00012B05D1784B9B6D774A23F08053936518
:10205C007B681B6803F02003002B3CD07B685B6A19
:10206C00002B1CD0704BD3F898306F4A43F001030F
:10207C00C2F89830FEF7E6FB386108E0FEF7E2FBA9
:10208C0002463B69D31A022B01D903231CE1664B90
:10209C00D3F8983003F00203002BEFD01BE0624B17
:1020AC00D3F89830604A23F00103C2F89830FEF759
:1020BC00C9FB386108E0FEF7C5FB02463B69D31A41
:1020CC00022B01D90323FFE0574BD3F8983003F0D0
:1020DC000203002BEFD17B689B6A002B00F0F3808E
:1020EC007B689B6A022B40F0C9804F4BDB687B619D
:1020FC007B6903F003027B68DB6A9A422CD17B6913
:10210C0003F070027B681B6B013B1B019A4223D1CD
:10211C007B6903F4FE427B685B6B1B029A421BD10A
:10212C007B6903F078427B689B6BDB069A4213D188
:10213C007B6903F4C0027B68DB6B5B08013B5B05CE
:10214C009A4209D17B6903F0C0627B681B6C5B0807
:10215C00013B5B069A426BD0BB690C2B62D0324BB5
:10216C001B6803F08063002B01D00123ACE02E4BE5
:10217C001B682D4A23F080731360FEF763FB3861F4
:10218C0008E0FEF75FFB02463B69D31A022B01D92C
:10219C00032399E0244B1B6803F00073002BF0D150
:1021AC00214BDA68214B13407A68D16A7A68126B3A
:1021BC00013A120111437A68526B120211437A6888
:1021CC00D26B5208013A520511437A68126C5208CC
:1021DC00013A520611437A68926BD2060A431249AD
:1021EC001343CB60104B1B680F4A43F08073136092
:1021FC000D4BDB680C4A43F08073D360FEF722FB77
:10220C00386108E0FEF71EFB02463B69D31A022B2D
:10221C0001D9032358E0044B1B6803F00073002B17
:10222C00F0D050E001234FE0001002408C809D0163
:10223C00274B1B6803F00073002B44D1244B1B6805
:10224C00234A43F080731360214BDB68204A43F030
:10225C008073D360FEF7F6FA386108E0FEF7F2FA05
:10226C0002463B69D31A022B01D903232CE0184BED
:10227C001B6803F00073002BF0D024E0BB690C2B1F
:10228C001FD0134B1B68124A23F080731360FEF7A8
:10229C00D9FA386108E0FEF7D5FA02463B69D31A41
:1022AC00022B01D903230FE0094B1B6803F00073C9
:1022BC00002BF0D1064BDA680549064B1340CB6076
:1022CC0001E0012300E0002318462037BD4680BD05
:1022DC0000100240FCFFEEFE80B584B000AF7860C9
:1022EC0039607B68002B01D10123E7E0754B1B683B
:1022FC0003F007033A689A4210D9724B1B6823F01B
:10230C00070270493B6813430B606E4B1B6803F06C
:10231C0007033A689A4201D00123CFE07B681B681F
:10232C0003F00203002B10D07B689A68664B9B6805
:10233C0003F0F0039A4208D9634B9B6823F0F00238
:10234C007B689B68604913438B607B681B6803F058
:10235C000103002B4CD07B685B68032B07D15A4BD5
:10236C001B6803F00073002B21D10123A6E07B68CE
:10237C005B68022B07D1544B1B6803F40033002B12
:10238C0015D101239AE07B685B68002B07D14E4B7B
:10239C001B6803F00203002B09D101238EE04A4B8A
:1023AC001B6803F48063002B01D1012386E0464BAC
:1023BC009B6823F003027B685B68434913438B6083
:1023CC00FEF740FAF8600AE0FEF73CFA0246FB68BA
:1023DC00D31A41F28832934201D903236EE03A4B6F
:1023EC009B6803F00C027B685B689B009A42EBD104
:1023FC007B681B6803F00203002B10D07B689A6883
:10240C00314B9B6803F0F0039A4208D22E4B9B6829
:10241C0023F0F0027B689B682B4913438B60294B9C
:10242C001B6803F007033A689A4210D2254B1B68CD
:10243C0023F0070223493B6813430B60214B1B68B5
:10244C0003F007033A689A4201D0012336E07B6817
:10245C001B6803F00403002B08D01B4B9B6823F470
:10246C00E0627B68DB68184913438B607B681B68F0
:10247C0003F00803002B09D0134B9B6823F4605224
:10248C007B681B69DB00104913438B6000F024F858
:10249C0002460D4B9B681B0903F00F030B49CB5CE9
:1024AC0003F01F0322FA03F3094A1360094B1B685C
:1024BC001846FEF79BF80346FB72FB7A184610375A
:1024CC00BD4680BD0020024000100240A43600082A
:1024DC00040000200800002080B489B000AF002365
:1024EC00FB610023BB613E4B9B6803F00C033B611B
:1024FC003B4BDB6803F00303FB603B69002B05D00F
:10250C003B690C2B21D1FB68012B1ED1344B1B6872
:10251C0003F00803002B07D1314BD3F894301B0A7E
:10252C0003F00F03FB6105E02D4B1B681B0903F047
:10253C000F03FB612B4AFB6952F82330FB613B69AB
:10254C00002B0DD1FB69BB610AE03B69042B02D166
:10255C00254BBB6104E03B69082B01D1234BBB61CC
:10256C003B690C2B34D11E4BDB6803F00303BB60BF
:10257C00BB68022B03D0BB68032B03D005E01A4BBE
:10258C007B6105E0194B7B6102E0FB697B6100BF5D
:10259C00134BDB681B0903F0070301337B60104B03
:1025AC00DB681B0A03F07F037A6903FB02F27B688A
:1025BC00B2FBF3F37B610A4BDB685B0E03F00303A6
:1025CC0001335B003B607A693B68B2FBF3F3BB61A0
:1025DC00BB6918462437BD465DF8047B704700BFC5
:1025EC0000100240BC3600080024F40000127A00EF
:1025FC0080B400AF034B1B681846BD465DF8047BE6
:10260C00704700BF0400002080B500AFFFF7F0FF5B
:10261C000246064B9B681B0A03F007030449CB5C7C
:10262C0003F01F0322FA03F3184680BD001002408A
:10263C00B436000880B483B000AF786039607B6832
:10264C000F221A60124B9B6803F003027B685A60DE
:10265C000F4B9B6803F0F0027B689A600C4B9B68F5
:10266C0003F4E0627B68DA60094B9B68DB0803F4D7
:10267C00E0627B681A61074B1B6803F007023B683A
:10268C001A6000BF0C37BD465DF8047B704700BF75
:10269C00001002400020024080B586B000AF786088
:1026AC0000233B612A4B9B6D03F08053002B03D01E
:1026BC00FFF79AF9786114E0254B9B6D244A43F09F
:1026CC0080539365224B9B6D03F08053FB60FB683A
:1026DC00FFF78AF978611E4B9B6D1D4A23F08053DE
:1026EC0093657B69B3F5007F0BD17B68802B19D97F
:1026FC007B68A02B02D902233B6113E001233B61D1
:10270C0010E07B68802B02D903233B610AE07B68D5
:10271C00802B02D102233B6104E07B68702B01D13A
:10272C0001233B610B4B1B6823F0070209493B69F2
:10273C0013430B60074B1B6803F007033A699A427B
:10274C0001D0012300E0002318461837BD4680BD98
:10275C00001002400020024080B586B000AF7860C7
:10276C000023FB740023BB747B681B6803F40063B9
:10277C00002B31D07B68DB6BB3F5400F1AD0B3F56F
:10278C00400F14D8002B09D0B3F5000F0FD15D4BBF
:10279C00DB685C4A43F48033D3600CE07B68043321
:1027AC000021184600F0CEF90346FB7403E0012328
:1027BC00FB7400E000BFFB7C002B0BD1514BD3F81A
:1027CC00883023F440027B68DB6B4E491343C1F81D
:1027DC00883001E0FB7CBB747B681B6803F400331E
:1027EC00002B00F09E8000237B74464B9B6D03F006
:1027FC008053002B01D1012300E00023002B0DD0CE
:10280C00404B9B6D3F4A43F0805393653D4B9B6D12
:10281C0003F08053BB60BB6801237B743A4B1B688D
:10282C00394A43F480731360FEF70CF8F86009E042
:10283C00FEF708F80246FB68D31A022B02D90323D1
:10284C00FB7405E0304B1B6803F48073002BEFD056
:10285C00FB7C002B5AD12B4BD3F8903003F44073F4
:10286C007B617B69002B1ED07B681B6D7A699A4259
:10287C0019D0244BD3F8903023F440737B61214B57
:10288C00D3F890301F4A43F48033C2F890301D4B7C
:10289C00D3F890301B4A23F48033C2F89030194A95
:1028AC007B69C2F890307B6903F00103002B16D0D2
:1028BC00FDF7C8FFF8600BE0FDF7C4FF0246FB68AC
:1028CC00D31A41F28832934202D90323FB7406E0F7
:1028DC000C4BD3F8903003F00203002BECD0FB7CB4
:1028EC00002B0BD1074BD3F8903023F440727B684C
:1028FC001B6D04491343C1F8903009E0FB7CBB7499
:10290C0006E000BF0010024000700040FB7CBB746E
:10291C007B7C012B05D18A4B9B6D894A23F080531C
:10292C0093657B681B6803F00103002B0AD0844B72
:10293C00D3F8883023F003027B681B6A8049134369
:10294C00C1F888307B681B6803F00203002B0AD0A7
:10295C007B4BD3F8883023F00C027B685B6A784998
:10296C001343C1F888307B681B6803F02003002BED
:10297C000AD0734BD3F8883023F440627B689B6A8F
:10298C006F491343C1F888307B681B6803F40073EC
:10299C00002B0AD06A4BD3F8883023F440227B6892
:1029AC005B6B67491343C1F888307B681B6803F481
:1029BC008063002B0AD0624BD3F8883023F440128A
:1029CC007B689B6B5E491343C1F888307B681B683E
:1029DC0003F04003002B0AD0594BD3F8883023F472
:1029EC0040527B68DB6A56491343C1F888307B68D8
:1029FC001B6803F48073002B0AD0514BD3F888303A
:102A0C0023F440327B681B6B4D491343C1F888306B
:102A1C007B681B6803F40053002B28D0484BD3F879
:102A2C00883023F040627B681B6C45491343C1F826
:102A3C0088307B681B6CB3F1006F06D1404BDB68B0
:102A4C003F4A43F48013D36011E07B681B6CB3F1F5
:102A5C00806F0CD17B6804330121184600F072F8AA
:102A6C000346FB74FB7C002B01D0FB7CBB747B68A6
:102A7C001B6803F48023002B28D0314BD3F888300B
:102A8C0023F040627B685B6C2D491343C1F888309E
:102A9C007B685B6CB3F1006F06D1294BDB68284A6D
:102AAC0043F48013D36011E07B685B6CB3F1806FEF
:102ABC000CD17B6804330121184600F043F803461F
:102ACC00FB74FB7C002B01D0FB7CBB747B681B680C
:102ADC0003F48043002B1CD0194BD3F8883023F01F
:102AEC0040527B689B6C16491343C1F888307B6855
:102AFC009B6CB3F1805F0CD17B68043302211846C8
:102B0C0000F020F80346FB74FB7C002B01D0FB7C0F
:102B1C00BB747B681B6803F40043002B0AD0084B82
:102B2C00D3F8883023F080427B68DB6C0449134374
:102B3C00C1F88830BB7C18461837BD4680BD00BF35
:102B4C000010024080B584B000AF7860396000237B
:102B5C00FB73744BDB6803F00303002B18D0714B31
:102B6C00DB6803F003027B681B689A420DD17B681B
:102B7C001B68002B09D06B4BDB681B0903F00703A8
:102B8C005A1C7B685B689A4247D00123FB7344E074
:102B9C007B681B68032B18D0032B25D8012B02D084
:102BAC00022B09D020E05F4B1B6803F00203002BC3
:102BBC001DD10123FB731AE05A4B1B6803F480638D
:102BCC00002B16D10123FB7313E0564B1B6803F447
:102BDC000033002B0FD1534B1B6803F48023002BC5
:102BEC0009D10123FB7306E00123FB7304E000BF52
:102BFC0002E000BF00E000BFFB7B002B0DD1494B76
:102C0C00DB6823F073027B6819687B685B68013BA7
:102C1C001B010B4343491343CB60FB7B002B7CD143
:102C2C00404B1B683F4A23F080631360FDF70AFE9C
:102C3C00B86009E0FDF706FE0246BB68D31A022B0A
:102C4C0002D90323FB7305E0364B1B6803F00063CA
:102C5C00002BEFD1FB7B002B5FD13B68002B10D1FD
:102C6C00304B1B6923F0784323F4FE437A68926857
:102C7C0011027A68D268D2060A432A4913430B61BF
:102C8C0027E03B68012B12D1264B1B6923F4C003B0
:102C9C0023F4FE437A68926811027A68126952082A
:102CAC00013A52050A431F4913430B6111E01D4BB6
:102CBC001B6923F0C06323F4FE437A689268110207
:102CCC007A6852695208013A52060A43154913436D
:102CDC000B61144B1B68134A43F080631360FDF7C0
:102CEC00B1FDB86009E0FDF7ADFD0246BB68D31A33
:102CFC00022B02D90323FB7305E00A4B1B6803F07C
:102D0C000063002BEFD0FB7B002B06D1054B1A691F
:102D1C007B689B69034913430B61FB7B1846103797
:102D2C00BD4680BD0010024080B582B000AF786017
:102D3C007B68002B01D1012354E07B6893F83D3074
:102D4C00DBB2002B11D17B68002283F83C20786821
:102D5C0000F0E4FB7B68DB6C002B02D17B68234A20
:102D6C00DA647B68DB6C786898477B68022283F8AE
:102D7C003D207B681A687B6804331946104600F0C6
:102D8C005DFB7B68012283F848207B68012283F875
:102D9C003E207B68012283F83F207B68012283F868
:102DAC0040207B68012283F841207B68012283F854
:102DBC0042207B68012283F843207B68012283F840
:102DCC0044207B68012283F845207B68012283F82C
:102DDC0046207B68012283F847207B68012283F818
:102DEC003D20002318460837BD4680BDFD2D000848
:102DFC0080B483B000AF786000BF0C37BD465DF87F
:102E0C00047B704780B485B000AF78607B6893F822
:102E1C003D30DBB2012B01D001233BE07B68022269
:102E2C0083F83D207B681B68DA687B681B6842F07E
:102E3C000102DA607B681B68194A934209D07B68EF
:102E4C001B68B3F1804F04D07B681B68154A934212
:102E5C0015D17B681B689A68134B1340FB60FB68A9
:102E6C00062B15D0FB68B3F5803F11D07B681B682F
:102E7C001A687B681B6842F001021A6008E07B68E4
:102E8C001B681A687B681B6842F001021A6000E03C
:102E9C0000BF002318461437BD465DF8047B70470D
:102EAC00002C0140004001400700010080B584B0B7
:102EBC0000AF78607B681B68DB68FB607B681B6815
:102ECC001B69BB60BB6803F00203002B26D0FB68B8
:102EDC0003F00203002B21D07B681B686FF0020209
:102EEC001A617B6801221A777B681B689B6903F067
:102EFC000303002B05D07B68D3F89430786898478F
:102F0C0009E07B68D3F89C30786898477B68D3F8E5
:102F1C00A030786898477B6800221A77BB6803F06A
:102F2C000403002B26D0FB6803F00403002B21D0F4
:102F3C007B681B686FF004021A617B6802221A77A7
:102F4C007B681B689B6903F44073002B05D07B687E
:102F5C00D3F894307868984709E07B68D3F89C30B4
:102F6C00786898477B68D3F8A030786898477B6876
:102F7C0000221A77BB6803F00803002B26D0FB68ED
:102F8C0003F00803002B21D07B681B686FF008024C
:102F9C001A617B6804221A777B681B68DB6903F073
:102FAC000303002B05D07B68D3F8943078689847DE
:102FBC0009E07B68D3F89C30786898477B68D3F835
:102FCC00A030786898477B6800221A77BB6803F0BA
:102FDC001003002B26D0FB6803F01003002B21D02C
:102FEC007B681B686FF010021A617B6808221A77E5
:102FFC007B681B68DB6903F44073002B05D07B688E
:10300C00D3F894307868984709E07B68D3F89C3003
:10301C00786898477B68D3F8A030786898477B68C5
:10302C0000221A77BB6803F00103002B0ED0FB685B
:10303C0003F00103002B09D07B681B686FF00102C1
:10304C001A617B68D3F8843078689847BB6803F0C2
:10305C008003002B04D1BB6803F40053002B0ED06B
:10306C00FB6803F08003002B09D07B681B686FF4AE
:10307C0002521A617B68D3F8B43078689847BB6801
:10308C0003F48073002B0ED0FB6803F08003002B3D
:10309C0009D07B681B686FF480721A617B68D3F867
:1030AC00B83078689847BB6803F04003002B0ED00B
:1030BC00FB6803F04003002B09D07B681B686FF0A2
:1030CC0040021A617B68D3F88C3078689847BB68EB
:1030DC0003F02003002B0ED0FB6803F02003002B21
:1030EC0009D07B681B686FF020021A617B68D3F8EB
:1030FC00AC307868984700BF1037BD4680BD80B4AF
:10310C0083B000AF786000BF0C37BD465DF8047B20
:10311C00704780B483B000AF786000BF0C37BD46F9
:10312C005DF8047B704780B483B000AF786000BF5B
:10313C000C37BD465DF8047B704780B483B000AF9C
:10314C00786000BF0C37BD465DF8047B704780B4D7
:10315C0083B000AF786000BF0C37BD465DF8047BD0
:10316C00704780B483B000AF786000BF0C37BD46A9
:10317C005DF8047B704780B483B000AF786000BF0B
:10318C000C37BD465DF8047B704780B483B000AF4C
:10319C00786000BF0C37BD465DF8047B704780B487
:1031AC0083B000AF786000BF0C37BD465DF8047B80
:1031BC007047000080B487B000AFF8600B467A60AF
:1031CC00FB720023FB757B68002B01D101232EE1E0
:1031DC00FB6893F83D30DBB2012B40F0C180FB7AE9
:1031EC001B2B00F2BA8001A252F823F069320008BE
:1031FC0071320008793200088132000889320008E7
:10320C009132000899320008A1320008A932000856
:10321C00B1320008B9320008C1320008C9320008C6
:10322C00D1320008DB320008E5320008EF3200082A
:10323C00F9320008033300080D3300081733000877
:10324C00213300082B330008353300083F330008C6
:10325C0049330008533300085D330008FB687A6873
:10326C00DA64E3E0FB687A681A65DFE0FB687A6889
:10327C005A65DBE0FB687A689A65D7E0FB687A6888
:10328C00DA65D3E0FB687A681A66CFE0FB687A6887
:10329C005A66CBE0FB687A689A66C7E0FB687A6886
:1032AC00DA66C3E0FB687A681A67BFE0FB687A6885
:1032BC005A67BBE0FB687A689A67B7E0FB687A6884
:1032CC00DA67B3E0FB687A68C3F88020AEE0FB688D
:1032DC007A68C3F88420A9E0FB687A68C3F8882070
:1032EC00A4E0FB687A68C3F88C209FE0FB687A68DE
:1032FC00C3F890209AE0FB687A68C3F8942095E0B4
:10330C00FB687A68C3F8982090E0FB687A68C3F889
:10331C009C208BE0FB687A68C3F8A02086E0FB68F1
:10332C007A68C3F8A42081E0FB687A68C3F8A82007
:10333C007CE0FB687A68C3F8AC2077E0FB687A68BD
:10334C00C3F8B02072E0FB687A68C3F8B4206DE073
:10335C00FB687A68C3F8B82068E00123FB7565E068
:10336C00FB6893F83D30DBB2002B5DD1FB7A0D2B63
:10337C0057D801A252F823F0BD330008C53300081A
:10338C00CD330008D5330008DD330008E5330008E1
:10339C00ED330008F5330008FD3300080534000850
:1033AC000D340008153400081D34000825340008BD
:1033BC00FB687A68DA6439E0FB687A681A6535E08C
:1033CC00FB687A685A6531E0FB687A689A652DE08B
:1033DC00FB687A68DA6529E0FB687A681A6625E08A
:1033EC00FB687A685A6621E0FB687A689A661DE089
:1033FC00FB687A68DA6619E0FB687A681A6715E088
:10340C00FB687A685A6711E0FB687A689A670DE086
:10341C00FB687A68DA6709E0FB687A68C3F8802091
:10342C0004E00123FB7501E00123FB75FB7D1846CD
:10343C001C37BD465DF8047B704700BF80B485B077
:10344C0000AF786039607B681B68FB607B68304A32
:10345C00934203D07B68B3F1804F08D1FB6823F013
:10346C007003FB603B685B68FA681343FB607B6826
:10347C00274A93420BD07B68B3F1804F07D07B680F
:10348C00244A934203D07B68234A934208D1FB68B9
:10349C0023F44073FB603B68DB68FA681343FB6002
:1034AC00FB6823F080023B685B691343FB607B681D
:1034BC00FA681A603B689A687B68DA623B681A683B
:1034CC007B689A627B68124A934207D07B68114AE8
:1034DC00934203D07B68104A934203D13B681A692C
:1034EC007B681A637B6801225A617B681B6903F055
:1034FC000103012B05D17B681B6923F001027B685A
:10350C001A6100BF1437BD465DF8047B704700BFDD
:10351C00002C0140004001400044014080B483B0C5
:10352C0000AF78607B681E4AC3F884207B681D4A14
:10353C00C3F888207B681C4AC3F88C207B681B4A24
:10354C00C3F890207B681A4AC3F894207B68194A08
:10355C00C3F898207B68184AC3F89C207B68174AEC
:10356C00C3F8A0207B68164AC3F8A4207B68154AD0
:10357C00C3F8A8207B68144AC3F8AC207B68134AB4
:10358C00C3F8B0207B68124AC3F8B4207B68114A98
:10359C00C3F8B82000BF0C37BD465DF8047B7047FC
:1035AC00990400080B31000883310008973100089A
:1035BC0033310008473100081F3100085B31000827
:1035CC006F310008AB310008E5350008F93500080B
:1035DC000D3600082136000880B483B000AF786047
:1035EC0000BF0C37BD465DF8047B704780B483B0D8
:1035FC0000AF786000BF0C37BD465DF8047B7047A8
:10360C0080B483B000AF786000BF0C37BD465DF866
:10361C00047B704780B483B000AF786000BF0C3778
:10362C00BD465DF8047B704702440346934200D1CB
:10363C00704703F8011BF9E770B50D4D0D4C641B79
:10364C00A4100026A64209D10B4D0C4C00F018F822
:10365C00641BA4100026A64205D170BD55F8043B8E
:10366C0098470136EEE755F8043B98470136F2E7E8
:10367C00EC360008EC360008EC360008F036000892
:10368C00F8B500BFF8BC08BC9E467047F8B500BF43
:08369C00F8BC08BC9E46704713
:1036A40000000000000000000102030406070809EE
:1036B4000000000001020304A0860100400D030085
:1036C400801A060000350C0040420F0080841E0062
:1036D40000093D0000127A000024F40000366E0157
:0836E4000048E801006CDC0263
:0436EC00B101000820
:0436F0008D01000840
:1036F4000E00000000093D00100000000100000061
:04000005080007A543
:00000001FF
